{
  "_format": "hh-sol-artifact-1",
  "contractName": "UITToken721",
  "sourceName": "contracts/UITToken721.sol",
  "abi": [
    {
      "inputs": [
        {
          "internalType": "string",
          "name": "_name",
          "type": "string"
        },
        {
          "internalType": "string",
          "name": "_symbol",
          "type": "string"
        },
        {
          "internalType": "address",
          "name": "_parentAddress",
          "type": "address"
        }
      ],
      "stateMutability": "nonpayable",
      "type": "constructor"
    },
    {
      "anonymous": false,
      "inputs": [
        {
          "indexed": true,
          "internalType": "address",
          "name": "owner",
          "type": "address"
        },
        {
          "indexed": true,
          "internalType": "address",
          "name": "approved",
          "type": "address"
        },
        {
          "indexed": true,
          "internalType": "uint256",
          "name": "tokenId",
          "type": "uint256"
        }
      ],
      "name": "Approval",
      "type": "event"
    },
    {
      "anonymous": false,
      "inputs": [
        {
          "indexed": true,
          "internalType": "address",
          "name": "owner",
          "type": "address"
        },
        {
          "indexed": true,
          "internalType": "address",
          "name": "operator",
          "type": "address"
        },
        {
          "indexed": false,
          "internalType": "bool",
          "name": "approved",
          "type": "bool"
        }
      ],
      "name": "ApprovalForAll",
      "type": "event"
    },
    {
      "anonymous": false,
      "inputs": [
        {
          "indexed": true,
          "internalType": "address",
          "name": "previousOwner",
          "type": "address"
        },
        {
          "indexed": true,
          "internalType": "address",
          "name": "newOwner",
          "type": "address"
        }
      ],
      "name": "OwnershipTransferred",
      "type": "event"
    },
    {
      "anonymous": false,
      "inputs": [
        {
          "indexed": true,
          "internalType": "address",
          "name": "from",
          "type": "address"
        },
        {
          "indexed": true,
          "internalType": "address",
          "name": "to",
          "type": "address"
        },
        {
          "indexed": true,
          "internalType": "uint256",
          "name": "tokenId",
          "type": "uint256"
        }
      ],
      "name": "Transfer",
      "type": "event"
    },
    {
      "inputs": [
        {
          "internalType": "address",
          "name": "to",
          "type": "address"
        },
        {
          "internalType": "uint256",
          "name": "tokenId",
          "type": "uint256"
        }
      ],
      "name": "approve",
      "outputs": [],
      "stateMutability": "nonpayable",
      "type": "function"
    },
    {
      "inputs": [
        {
          "internalType": "address",
          "name": "owner",
          "type": "address"
        }
      ],
      "name": "balanceOf",
      "outputs": [
        {
          "internalType": "uint256",
          "name": "",
          "type": "uint256"
        }
      ],
      "stateMutability": "view",
      "type": "function"
    },
    {
      "inputs": [
        {
          "internalType": "uint256",
          "name": "tokenId",
          "type": "uint256"
        }
      ],
      "name": "getApproved",
      "outputs": [
        {
          "internalType": "address",
          "name": "",
          "type": "address"
        }
      ],
      "stateMutability": "view",
      "type": "function"
    },
    {
      "inputs": [],
      "name": "getTokenCount",
      "outputs": [
        {
          "internalType": "uint256",
          "name": "",
          "type": "uint256"
        }
      ],
      "stateMutability": "view",
      "type": "function"
    },
    {
      "inputs": [],
      "name": "getTokenIds",
      "outputs": [
        {
          "internalType": "uint256[]",
          "name": "",
          "type": "uint256[]"
        }
      ],
      "stateMutability": "view",
      "type": "function"
    },
    {
      "inputs": [
        {
          "internalType": "uint256",
          "name": "tokenId",
          "type": "uint256"
        }
      ],
      "name": "getTokenUri",
      "outputs": [
        {
          "internalType": "string",
          "name": "",
          "type": "string"
        }
      ],
      "stateMutability": "view",
      "type": "function"
    },
    {
      "inputs": [
        {
          "internalType": "address",
          "name": "owner",
          "type": "address"
        },
        {
          "internalType": "address",
          "name": "operator",
          "type": "address"
        }
      ],
      "name": "isApprovedForAll",
      "outputs": [
        {
          "internalType": "bool",
          "name": "",
          "type": "bool"
        }
      ],
      "stateMutability": "view",
      "type": "function"
    },
    {
      "inputs": [
        {
          "internalType": "address",
          "name": "_owner",
          "type": "address"
        },
        {
          "internalType": "uint256",
          "name": "_id",
          "type": "uint256"
        },
        {
          "internalType": "string",
          "name": "_tokenUri",
          "type": "string"
        }
      ],
      "name": "mintNFT",
      "outputs": [],
      "stateMutability": "nonpayable",
      "type": "function"
    },
    {
      "inputs": [],
      "name": "name",
      "outputs": [
        {
          "internalType": "string",
          "name": "",
          "type": "string"
        }
      ],
      "stateMutability": "view",
      "type": "function"
    },
    {
      "inputs": [],
      "name": "owner",
      "outputs": [
        {
          "internalType": "address",
          "name": "",
          "type": "address"
        }
      ],
      "stateMutability": "view",
      "type": "function"
    },
    {
      "inputs": [
        {
          "internalType": "uint256",
          "name": "tokenId",
          "type": "uint256"
        }
      ],
      "name": "ownerOf",
      "outputs": [
        {
          "internalType": "address",
          "name": "",
          "type": "address"
        }
      ],
      "stateMutability": "view",
      "type": "function"
    },
    {
      "inputs": [],
      "name": "renounceOwnership",
      "outputs": [],
      "stateMutability": "nonpayable",
      "type": "function"
    },
    {
      "inputs": [
        {
          "internalType": "address",
          "name": "from",
          "type": "address"
        },
        {
          "internalType": "address",
          "name": "to",
          "type": "address"
        },
        {
          "internalType": "uint256",
          "name": "tokenId",
          "type": "uint256"
        }
      ],
      "name": "safeTransferFrom",
      "outputs": [],
      "stateMutability": "nonpayable",
      "type": "function"
    },
    {
      "inputs": [
        {
          "internalType": "address",
          "name": "from",
          "type": "address"
        },
        {
          "internalType": "address",
          "name": "to",
          "type": "address"
        },
        {
          "internalType": "uint256",
          "name": "tokenId",
          "type": "uint256"
        },
        {
          "internalType": "bytes",
          "name": "_data",
          "type": "bytes"
        }
      ],
      "name": "safeTransferFrom",
      "outputs": [],
      "stateMutability": "nonpayable",
      "type": "function"
    },
    {
      "inputs": [
        {
          "internalType": "address",
          "name": "operator",
          "type": "address"
        },
        {
          "internalType": "bool",
          "name": "approved",
          "type": "bool"
        }
      ],
      "name": "setApprovalForAll",
      "outputs": [],
      "stateMutability": "nonpayable",
      "type": "function"
    },
    {
      "inputs": [
        {
          "internalType": "string",
          "name": "_name",
          "type": "string"
        }
      ],
      "name": "setName",
      "outputs": [],
      "stateMutability": "nonpayable",
      "type": "function"
    },
    {
      "inputs": [],
      "name": "setParentApproval",
      "outputs": [],
      "stateMutability": "nonpayable",
      "type": "function"
    },
    {
      "inputs": [
        {
          "internalType": "string",
          "name": "_symbol",
          "type": "string"
        }
      ],
      "name": "setSymbol",
      "outputs": [],
      "stateMutability": "nonpayable",
      "type": "function"
    },
    {
      "inputs": [
        {
          "internalType": "bytes4",
          "name": "interfaceId",
          "type": "bytes4"
        }
      ],
      "name": "supportsInterface",
      "outputs": [
        {
          "internalType": "bool",
          "name": "",
          "type": "bool"
        }
      ],
      "stateMutability": "view",
      "type": "function"
    },
    {
      "inputs": [],
      "name": "symbol",
      "outputs": [
        {
          "internalType": "string",
          "name": "",
          "type": "string"
        }
      ],
      "stateMutability": "view",
      "type": "function"
    },
    {
      "inputs": [
        {
          "internalType": "uint256",
          "name": "tokenId",
          "type": "uint256"
        }
      ],
      "name": "tokenURI",
      "outputs": [
        {
          "internalType": "string",
          "name": "",
          "type": "string"
        }
      ],
      "stateMutability": "view",
      "type": "function"
    },
    {
      "inputs": [
        {
          "internalType": "address",
          "name": "from",
          "type": "address"
        },
        {
          "internalType": "address",
          "name": "to",
          "type": "address"
        },
        {
          "internalType": "uint256",
          "name": "tokenId",
          "type": "uint256"
        }
      ],
      "name": "transferFrom",
      "outputs": [],
      "stateMutability": "nonpayable",
      "type": "function"
    },
    {
      "inputs": [
        {
          "internalType": "address",
          "name": "newOwner",
          "type": "address"
        }
      ],
      "name": "transferOwnership",
      "outputs": [],
      "stateMutability": "nonpayable",
      "type": "function"
    }
  ],
  "bytecode": "0x60806040523480156200001157600080fd5b5060405162001eea38038062001eea83398101604081905262000034916200027f565b8251839083906200004d90600090602085019062000126565b5080516200006390600190602084019062000126565b505050620000806200007a620000d060201b60201c565b620000d4565b600880546001600160a01b0319166001600160a01b0383161790558251620000b090600a90602086019062000126565b508151620000c690600b90602085019062000126565b505050506200035b565b3390565b600780546001600160a01b038381166001600160a01b0319831681179093556040519116919082907f8be0079c531659141344cd1fd0a4f28419497f9722a3daafe3b4186f6b6457e090600090a35050565b828054620001349062000308565b90600052602060002090601f016020900481019282620001585760008555620001a3565b82601f106200017357805160ff1916838001178555620001a3565b82800160010185558215620001a3579182015b82811115620001a357825182559160200191906001019062000186565b50620001b1929150620001b5565b5090565b5b80821115620001b15760008155600101620001b6565b600082601f830112620001dd578081fd5b81516001600160401b0380821115620001fa57620001fa62000345565b604051601f8301601f19908116603f0116810190828211818310171562000225576200022562000345565b8160405283815260209250868385880101111562000241578485fd5b8491505b8382101562000264578582018301518183018401529082019062000245565b838211156200027557848385830101525b9695505050505050565b60008060006060848603121562000294578283fd5b83516001600160401b0380821115620002ab578485fd5b620002b987838801620001cc565b94506020860151915080821115620002cf578384fd5b50620002de86828701620001cc565b604086015190935090506001600160a01b0381168114620002fd578182fd5b809150509250925092565b600181811c908216806200031d57607f821691505b602082108114156200033f57634e487b7160e01b600052602260045260246000fd5b50919050565b634e487b7160e01b600052604160045260246000fd5b611b7f806200036b6000396000f3fe608060405234801561001057600080fd5b506004361061014d5760003560e01c806378a89567116100c3578063b88d4fde1161007c578063b88d4fde146102b3578063c47f0027146102c6578063c87b56dd146102d9578063d49e2b59146102ec578063e985e9c5146102f4578063f2fde38b1461033057600080fd5b806378a89567146102595780638ad91345146102615780638da5cb5b1461027457806395d89b4114610285578063a22cb4651461028d578063b84c8246146102a057600080fd5b806323b872dd1161011557806323b872dd146101e257806342842e0e146101f55780636352211e1461020857806367f718a91461021b57806370a0823114610230578063715018a61461025157600080fd5b806301ffc9a71461015257806306fdde031461017a578063081812fc1461018f578063095ea7b3146101ba5780631e576912146101cf575b600080fd5b6101656101603660046117ce565b610343565b60405190151581526020015b60405180910390f35b610182610395565b604051610171919061192d565b6101a261019d366004611839565b610427565b6040516001600160a01b039091168152602001610171565b6101cd6101c8366004611750565b6104b4565b005b6101cd6101dd366004611779565b6105ca565b6101cd6101f0366004611662565b61063c565b6101cd610203366004611662565b61066d565b6101a2610216366004611839565b610688565b6102236106ff565b60405161017191906118e9565b61024361023e366004611616565b610756565b604051908152602001610171565b6101cd6107dd565b600954610243565b61018261026f366004611839565b610813565b6007546001600160a01b03166101a2565b6101826108b8565b6101cd61029b366004611716565b6108c7565b6101cd6102ae366004611806565b6108d6565b6101cd6102c136600461169d565b610913565b6101cd6102d4366004611806565b610945565b6101826102e7366004611839565b610982565b6101cd610af9565b610165610302366004611630565b6001600160a01b03918216600090815260056020908152604080832093909416825291909152205460ff1690565b6101cd61033e366004611616565b610b10565b60006001600160e01b031982166380ac58cd60e01b148061037457506001600160e01b03198216635b5e139f60e01b145b8061038f57506301ffc9a760e01b6001600160e01b03198316145b92915050565b6060600a80546103a490611a87565b80601f01602080910402602001604051908101604052809291908181526020018280546103d090611a87565b801561041d5780601f106103f25761010080835404028352916020019161041d565b820191906000526020600020905b81548152906001019060200180831161040057829003601f168201915b5050505050905090565b600061043282610bab565b6104985760405162461bcd60e51b815260206004820152602c60248201527f4552433732313a20617070726f76656420717565727920666f72206e6f6e657860448201526b34b9ba32b73a103a37b5b2b760a11b60648201526084015b60405180910390fd5b506000908152600460205260409020546001600160a01b031690565b60006104bf82610688565b9050806001600160a01b0316836001600160a01b0316141561052d5760405162461bcd60e51b815260206004820152602160248201527f4552433732313a20617070726f76616c20746f2063757272656e74206f776e656044820152603960f91b606482015260840161048f565b336001600160a01b038216148061054957506105498133610302565b6105bb5760405162461bcd60e51b815260206004820152603860248201527f4552433732313a20617070726f76652063616c6c6572206973206e6f74206f7760448201527f6e6572206e6f7220617070726f76656420666f7220616c6c0000000000000000606482015260840161048f565b6105c58383610bc8565b505050565b6105d48383610c36565b6105de8282610d69565b6009805460018181019092557f6e1540171b6c0c960b71a7020d9f60077f6af931a8bbf590da0223dacf75c7af018390556000838152600c6020908152604090912084815583516106369391909101918401906114cc565b50505050565b6106463382610df4565b6106625760405162461bcd60e51b815260040161048f906119c7565b6105c5838383610edd565b6105c583838360405180602001604052806000815250610913565b6000818152600260205260408120546001600160a01b03168061038f5760405162461bcd60e51b815260206004820152602960248201527f4552433732313a206f776e657220717565727920666f72206e6f6e657869737460448201526832b73a103a37b5b2b760b91b606482015260840161048f565b6060600980548060200260200160405190810160405280929190818152602001828054801561041d57602002820191906000526020600020905b815481526020019060010190808311610739575050505050905090565b60006001600160a01b0382166107c15760405162461bcd60e51b815260206004820152602a60248201527f4552433732313a2062616c616e636520717565727920666f7220746865207a65604482015269726f206164647265737360b01b606482015260840161048f565b506001600160a01b031660009081526003602052604090205490565b6007546001600160a01b031633146108075760405162461bcd60e51b815260040161048f90611992565b6108116000611079565b565b6000818152600c6020526040902060010180546060919061083390611a87565b80601f016020809104026020016040519081016040528092919081815260200182805461085f90611a87565b80156108ac5780601f10610881576101008083540402835291602001916108ac565b820191906000526020600020905b81548152906001019060200180831161088f57829003601f168201915b50505050509050919050565b6060600b80546103a490611a87565b6108d23383836110cb565b5050565b6007546001600160a01b031633146109005760405162461bcd60e51b815260040161048f90611992565b80516108d290600b9060208401906114cc565b61091d3383610df4565b6109395760405162461bcd60e51b815260040161048f906119c7565b6106368484848461119a565b6007546001600160a01b0316331461096f5760405162461bcd60e51b815260040161048f90611992565b80516108d290600a9060208401906114cc565b606061098d82610bab565b6109f35760405162461bcd60e51b815260206004820152603160248201527f45524337323155524953746f726167653a2055524920717565727920666f72206044820152703737b732bc34b9ba32b73a103a37b5b2b760791b606482015260840161048f565b60008281526006602052604081208054610a0c90611a87565b80601f0160208091040260200160405190810160405280929190818152602001828054610a3890611a87565b8015610a855780601f10610a5a57610100808354040283529160200191610a85565b820191906000526020600020905b815481529060010190602001808311610a6857829003601f168201915b505050505090506000610aa360408051602081019091526000815290565b9050805160001415610ab6575092915050565b815115610ae8578082604051602001610ad092919061187d565b60405160208183030381529060405292505050919050565b610af1846111cd565b949350505050565b600854610811906001600160a01b031660016108c7565b6007546001600160a01b03163314610b3a5760405162461bcd60e51b815260040161048f90611992565b6001600160a01b038116610b9f5760405162461bcd60e51b815260206004820152602660248201527f4f776e61626c653a206e6577206f776e657220697320746865207a65726f206160448201526564647265737360d01b606482015260840161048f565b610ba881611079565b50565b6000908152600260205260409020546001600160a01b0316151590565b600081815260046020526040902080546001600160a01b0319166001600160a01b0384169081179091558190610bfd82610688565b6001600160a01b03167f8c5be1e5ebec7d5bd14f71427d1e84f3dd0314c0f7b2291e5b200ac8c7c3b92560405160405180910390a45050565b6001600160a01b038216610c8c5760405162461bcd60e51b815260206004820181905260248201527f4552433732313a206d696e7420746f20746865207a65726f2061646472657373604482015260640161048f565b610c9581610bab565b15610ce25760405162461bcd60e51b815260206004820152601c60248201527f4552433732313a20746f6b656e20616c7265616479206d696e74656400000000604482015260640161048f565b6001600160a01b0382166000908152600360205260408120805460019290610d0b908490611a18565b909155505060008181526002602052604080822080546001600160a01b0319166001600160a01b03861690811790915590518392907fddf252ad1be2c89b69c2b068fc378daa952ba7f163c4a11628f55a4df523b3ef908290a45050565b610d7282610bab565b610dd55760405162461bcd60e51b815260206004820152602e60248201527f45524337323155524953746f726167653a2055524920736574206f66206e6f6e60448201526d32bc34b9ba32b73a103a37b5b2b760911b606482015260840161048f565b600082815260066020908152604090912082516105c5928401906114cc565b6000610dff82610bab565b610e605760405162461bcd60e51b815260206004820152602c60248201527f4552433732313a206f70657261746f7220717565727920666f72206e6f6e657860448201526b34b9ba32b73a103a37b5b2b760a11b606482015260840161048f565b6000610e6b83610688565b9050806001600160a01b0316846001600160a01b03161480610eb257506001600160a01b0380821660009081526005602090815260408083209388168352929052205460ff165b80610af15750836001600160a01b0316610ecb84610427565b6001600160a01b031614949350505050565b826001600160a01b0316610ef082610688565b6001600160a01b031614610f545760405162461bcd60e51b815260206004820152602560248201527f4552433732313a207472616e736665722066726f6d20696e636f72726563742060448201526437bbb732b960d91b606482015260840161048f565b6001600160a01b038216610fb65760405162461bcd60e51b8152602060048201526024808201527f4552433732313a207472616e7366657220746f20746865207a65726f206164646044820152637265737360e01b606482015260840161048f565b610fc1600082610bc8565b6001600160a01b0383166000908152600360205260408120805460019290610fea908490611a44565b90915550506001600160a01b0382166000908152600360205260408120805460019290611018908490611a18565b909155505060008181526002602052604080822080546001600160a01b0319166001600160a01b0386811691821790925591518493918716917fddf252ad1be2c89b69c2b068fc378daa952ba7f163c4a11628f55a4df523b3ef91a4505050565b600780546001600160a01b038381166001600160a01b0319831681179093556040519116919082907f8be0079c531659141344cd1fd0a4f28419497f9722a3daafe3b4186f6b6457e090600090a35050565b816001600160a01b0316836001600160a01b0316141561112d5760405162461bcd60e51b815260206004820152601960248201527f4552433732313a20617070726f766520746f2063616c6c657200000000000000604482015260640161048f565b6001600160a01b03838116600081815260056020908152604080832094871680845294825291829020805460ff191686151590811790915591519182527f17307eab39ab6107e8899845ad3d59bd9653f200f220920489ca2b5937696c31910160405180910390a3505050565b6111a5848484610edd565b6111b1848484846112a5565b6106365760405162461bcd60e51b815260040161048f90611940565b60606111d882610bab565b61123c5760405162461bcd60e51b815260206004820152602f60248201527f4552433732314d657461646174613a2055524920717565727920666f72206e6f60448201526e3732bc34b9ba32b73a103a37b5b2b760891b606482015260840161048f565b600061125360408051602081019091526000815290565b90506000815111611273576040518060200160405280600081525061129e565b8061127d846113b2565b60405160200161128e92919061187d565b6040516020818303038152906040525b9392505050565b60006001600160a01b0384163b156113a757604051630a85bd0160e11b81526001600160a01b0385169063150b7a02906112e99033908990889088906004016118ac565b602060405180830381600087803b15801561130357600080fd5b505af1925050508015611333575060408051601f3d908101601f19168201909252611330918101906117ea565b60015b61138d573d808015611361576040519150601f19603f3d011682016040523d82523d6000602084013e611366565b606091505b5080516113855760405162461bcd60e51b815260040161048f90611940565b805181602001fd5b6001600160e01b031916630a85bd0160e11b149050610af1565b506001949350505050565b6060816113d65750506040805180820190915260018152600360fc1b602082015290565b8160005b811561140057806113ea81611ac2565b91506113f99050600a83611a30565b91506113da565b60008167ffffffffffffffff81111561142957634e487b7160e01b600052604160045260246000fd5b6040519080825280601f01601f191660200182016040528015611453576020820181803683370190505b5090505b8415610af157611468600183611a44565b9150611475600a86611add565b611480906030611a18565b60f81b8183815181106114a357634e487b7160e01b600052603260045260246000fd5b60200101906001600160f81b031916908160001a9053506114c5600a86611a30565b9450611457565b8280546114d890611a87565b90600052602060002090601f0160209004810192826114fa5760008555611540565b82601f1061151357805160ff1916838001178555611540565b82800160010185558215611540579182015b82811115611540578251825591602001919060010190611525565b5061154c929150611550565b5090565b5b8082111561154c5760008155600101611551565b600067ffffffffffffffff8084111561158057611580611b1d565b604051601f8501601f19908116603f011681019082821181831017156115a8576115a8611b1d565b816040528093508581528686860111156115c157600080fd5b858560208301376000602087830101525050509392505050565b80356001600160a01b03811681146115f257600080fd5b919050565b600082601f830112611607578081fd5b61129e83833560208501611565565b600060208284031215611627578081fd5b61129e826115db565b60008060408385031215611642578081fd5b61164b836115db565b9150611659602084016115db565b90509250929050565b600080600060608486031215611676578081fd5b61167f846115db565b925061168d602085016115db565b9150604084013590509250925092565b600080600080608085870312156116b2578081fd5b6116bb856115db565b93506116c9602086016115db565b925060408501359150606085013567ffffffffffffffff8111156116eb578182fd5b8501601f810187136116fb578182fd5b61170a87823560208401611565565b91505092959194509250565b60008060408385031215611728578182fd5b611731836115db565b915060208301358015158114611745578182fd5b809150509250929050565b60008060408385031215611762578182fd5b61176b836115db565b946020939093013593505050565b60008060006060848603121561178d578283fd5b611796846115db565b925060208401359150604084013567ffffffffffffffff8111156117b8578182fd5b6117c4868287016115f7565b9150509250925092565b6000602082840312156117df578081fd5b813561129e81611b33565b6000602082840312156117fb578081fd5b815161129e81611b33565b600060208284031215611817578081fd5b813567ffffffffffffffff81111561182d578182fd5b610af1848285016115f7565b60006020828403121561184a578081fd5b5035919050565b60008151808452611869816020860160208601611a5b565b601f01601f19169290920160200192915050565b6000835161188f818460208801611a5b565b8351908301906118a3818360208801611a5b565b01949350505050565b6001600160a01b03858116825284166020820152604081018390526080606082018190526000906118df90830184611851565b9695505050505050565b6020808252825182820181905260009190848201906040850190845b8181101561192157835183529284019291840191600101611905565b50909695505050505050565b60208152600061129e6020830184611851565b60208082526032908201527f4552433732313a207472616e7366657220746f206e6f6e20455243373231526560408201527131b2b4bb32b91034b6b83632b6b2b73a32b960711b606082015260800190565b6020808252818101527f4f776e61626c653a2063616c6c6572206973206e6f7420746865206f776e6572604082015260600190565b60208082526031908201527f4552433732313a207472616e736665722063616c6c6572206973206e6f74206f6040820152701ddb995c881b9bdc88185c1c1c9bdd9959607a1b606082015260800190565b60008219821115611a2b57611a2b611af1565b500190565b600082611a3f57611a3f611b07565b500490565b600082821015611a5657611a56611af1565b500390565b60005b83811015611a76578181015183820152602001611a5e565b838111156106365750506000910152565b600181811c90821680611a9b57607f821691505b60208210811415611abc57634e487b7160e01b600052602260045260246000fd5b50919050565b6000600019821415611ad657611ad6611af1565b5060010190565b600082611aec57611aec611b07565b500690565b634e487b7160e01b600052601160045260246000fd5b634e487b7160e01b600052601260045260246000fd5b634e487b7160e01b600052604160045260246000fd5b6001600160e01b031981168114610ba857600080fdfea2646970667358221220dee79230920312fa4e97e269f81d8d5911463709bfc6956449ca3d0f927f20b464736f6c63430008040033",
  "linkReferences": {},
  "deployedLinkReferences": {}
}