{
  "_format": "hh-sol-artifact-1",
  "contractName": "NFTMarketplace",
  "sourceName": "contracts/NFTMarketplace.sol",
  "abi": [
    {
      "inputs": [
        {
          "internalType": "address",
          "name": "_mToken",
          "type": "address"
        },
        {
          "internalType": "address",
          "name": "_nToken",
          "type": "address"
        }
      ],
      "stateMutability": "nonpayable",
      "type": "constructor"
    },
    {
      "anonymous": false,
      "inputs": [
        {
          "indexed": true,
          "internalType": "uint256",
          "name": "tokenId",
          "type": "uint256"
        },
        {
          "indexed": true,
          "internalType": "address",
          "name": "nftContract",
          "type": "address"
        },
        {
          "indexed": false,
          "internalType": "address",
          "name": "seller",
          "type": "address"
        },
        {
          "indexed": false,
          "internalType": "address",
          "name": "bidder",
          "type": "address"
        },
        {
          "indexed": false,
          "internalType": "uint256",
          "name": "balance",
          "type": "uint256"
        }
      ],
      "name": "BidderWithdraw",
      "type": "event"
    },
    {
      "anonymous": false,
      "inputs": [
        {
          "indexed": true,
          "internalType": "uint256",
          "name": "tokenId",
          "type": "uint256"
        },
        {
          "indexed": true,
          "internalType": "address",
          "name": "nftContract",
          "type": "address"
        },
        {
          "indexed": false,
          "internalType": "address",
          "name": "seller",
          "type": "address"
        },
        {
          "indexed": false,
          "internalType": "bool",
          "name": "isMultiToken",
          "type": "bool"
        },
        {
          "indexed": false,
          "internalType": "address",
          "name": "highestBidder",
          "type": "address"
        },
        {
          "indexed": false,
          "internalType": "uint256",
          "name": "highestBid",
          "type": "uint256"
        },
        {
          "indexed": false,
          "internalType": "uint256",
          "name": "endTime",
          "type": "uint256"
        }
      ],
      "name": "MarketItemAuctionEnded",
      "type": "event"
    },
    {
      "anonymous": false,
      "inputs": [
        {
          "indexed": true,
          "internalType": "uint256",
          "name": "tokenId",
          "type": "uint256"
        },
        {
          "indexed": true,
          "internalType": "address",
          "name": "nftContract",
          "type": "address"
        },
        {
          "indexed": false,
          "internalType": "address",
          "name": "seller",
          "type": "address"
        },
        {
          "indexed": false,
          "internalType": "bool",
          "name": "isMultiToken",
          "type": "bool"
        },
        {
          "indexed": false,
          "internalType": "uint256",
          "name": "startingPrice",
          "type": "uint256"
        },
        {
          "indexed": false,
          "internalType": "uint256",
          "name": "startTime",
          "type": "uint256"
        },
        {
          "indexed": false,
          "internalType": "uint256",
          "name": "endTime",
          "type": "uint256"
        }
      ],
      "name": "MarketItemAuctionListed",
      "type": "event"
    },
    {
      "anonymous": false,
      "inputs": [
        {
          "indexed": true,
          "internalType": "uint256",
          "name": "tokenId",
          "type": "uint256"
        },
        {
          "indexed": true,
          "internalType": "address",
          "name": "nftContract",
          "type": "address"
        },
        {
          "indexed": false,
          "internalType": "address",
          "name": "seller",
          "type": "address"
        },
        {
          "indexed": false,
          "internalType": "address",
          "name": "bidder",
          "type": "address"
        },
        {
          "indexed": false,
          "internalType": "uint256",
          "name": "bid",
          "type": "uint256"
        },
        {
          "indexed": false,
          "internalType": "uint256",
          "name": "bidTime",
          "type": "uint256"
        }
      ],
      "name": "MarketItemBidded",
      "type": "event"
    },
    {
      "anonymous": false,
      "inputs": [
        {
          "indexed": true,
          "internalType": "uint256",
          "name": "tokenId",
          "type": "uint256"
        },
        {
          "indexed": true,
          "internalType": "address",
          "name": "nftContract",
          "type": "address"
        },
        {
          "indexed": false,
          "internalType": "address",
          "name": "owner",
          "type": "address"
        },
        {
          "indexed": false,
          "internalType": "bool",
          "name": "isMultiToken",
          "type": "bool"
        },
        {
          "indexed": false,
          "internalType": "uint256",
          "name": "price",
          "type": "uint256"
        }
      ],
      "name": "MarketItemCancelListed",
      "type": "event"
    },
    {
      "anonymous": false,
      "inputs": [
        {
          "indexed": true,
          "internalType": "uint256",
          "name": "tokenId",
          "type": "uint256"
        },
        {
          "indexed": true,
          "internalType": "address",
          "name": "nftContract",
          "type": "address"
        },
        {
          "indexed": false,
          "internalType": "address",
          "name": "owner",
          "type": "address"
        },
        {
          "indexed": false,
          "internalType": "bool",
          "name": "isMultiToken",
          "type": "bool"
        }
      ],
      "name": "MarketItemCreated",
      "type": "event"
    },
    {
      "anonymous": false,
      "inputs": [
        {
          "indexed": true,
          "internalType": "uint256",
          "name": "tokenId",
          "type": "uint256"
        },
        {
          "indexed": true,
          "internalType": "address",
          "name": "nftContract",
          "type": "address"
        },
        {
          "indexed": false,
          "internalType": "address",
          "name": "owner",
          "type": "address"
        },
        {
          "indexed": false,
          "internalType": "bool",
          "name": "isMultiToken",
          "type": "bool"
        },
        {
          "indexed": false,
          "internalType": "uint256",
          "name": "price",
          "type": "uint256"
        }
      ],
      "name": "MarketItemListed",
      "type": "event"
    },
    {
      "anonymous": false,
      "inputs": [
        {
          "indexed": true,
          "internalType": "uint256",
          "name": "tokenId",
          "type": "uint256"
        },
        {
          "indexed": true,
          "internalType": "address",
          "name": "nftContract",
          "type": "address"
        },
        {
          "indexed": false,
          "internalType": "address",
          "name": "seller",
          "type": "address"
        },
        {
          "indexed": false,
          "internalType": "address",
          "name": "buyer",
          "type": "address"
        },
        {
          "indexed": false,
          "internalType": "uint256",
          "name": "price",
          "type": "uint256"
        }
      ],
      "name": "MarketItemSold",
      "type": "event"
    },
    {
      "inputs": [
        {
          "internalType": "uint256",
          "name": "tokenId",
          "type": "uint256"
        }
      ],
      "name": "bid",
      "outputs": [],
      "stateMutability": "payable",
      "type": "function"
    },
    {
      "inputs": [
        {
          "internalType": "uint256",
          "name": "tokenId",
          "type": "uint256"
        }
      ],
      "name": "cancelListingItem",
      "outputs": [],
      "stateMutability": "payable",
      "type": "function"
    },
    {
      "inputs": [
        {
          "internalType": "address",
          "name": "nftContract",
          "type": "address"
        },
        {
          "internalType": "string",
          "name": "tokenUri",
          "type": "string"
        },
        {
          "internalType": "bool",
          "name": "isMultiToken",
          "type": "bool"
        }
      ],
      "name": "createMarketItem",
      "outputs": [],
      "stateMutability": "payable",
      "type": "function"
    },
    {
      "inputs": [
        {
          "internalType": "uint256",
          "name": "tokenId",
          "type": "uint256"
        }
      ],
      "name": "createMarketSale",
      "outputs": [],
      "stateMutability": "payable",
      "type": "function"
    },
    {
      "inputs": [
        {
          "internalType": "uint256",
          "name": "tokenId",
          "type": "uint256"
        }
      ],
      "name": "endAuction",
      "outputs": [],
      "stateMutability": "payable",
      "type": "function"
    },
    {
      "inputs": [
        {
          "internalType": "uint256",
          "name": "cursor",
          "type": "uint256"
        },
        {
          "internalType": "uint256",
          "name": "howMany",
          "type": "uint256"
        }
      ],
      "name": "fetchAllNFTs",
      "outputs": [
        {
          "components": [
            {
              "internalType": "uint256",
              "name": "tokenId",
              "type": "uint256"
            },
            {
              "internalType": "address",
              "name": "nftContract",
              "type": "address"
            },
            {
              "internalType": "address payable",
              "name": "seller",
              "type": "address"
            },
            {
              "internalType": "address payable",
              "name": "owner",
              "type": "address"
            },
            {
              "internalType": "uint256",
              "name": "price",
              "type": "uint256"
            },
            {
              "internalType": "bool",
              "name": "sold",
              "type": "bool"
            },
            {
              "internalType": "bool",
              "name": "bidded",
              "type": "bool"
            },
            {
              "internalType": "bool",
              "name": "isMultiToken",
              "type": "bool"
            },
            {
              "components": [
                {
                  "internalType": "uint256",
                  "name": "startAt",
                  "type": "uint256"
                },
                {
                  "internalType": "uint256",
                  "name": "endAt",
                  "type": "uint256"
                },
                {
                  "internalType": "address",
                  "name": "highestBidder",
                  "type": "address"
                },
                {
                  "internalType": "uint256",
                  "name": "highestBid",
                  "type": "uint256"
                },
                {
                  "internalType": "uint256",
                  "name": "highestBidTime",
                  "type": "uint256"
                },
                {
                  "internalType": "uint256",
                  "name": "startingPrice",
                  "type": "uint256"
                },
                {
                  "components": [
                    {
                      "internalType": "address",
                      "name": "bidder",
                      "type": "address"
                    },
                    {
                      "internalType": "uint256",
                      "name": "bid",
                      "type": "uint256"
                    },
                    {
                      "internalType": "uint256",
                      "name": "bidTime",
                      "type": "uint256"
                    }
                  ],
                  "internalType": "struct NFTMarketplace.Bid[]",
                  "name": "bids",
                  "type": "tuple[]"
                }
              ],
              "internalType": "struct NFTMarketplace.AuctionInfo",
              "name": "auctionInfo",
              "type": "tuple"
            }
          ],
          "internalType": "struct NFTMarketplace.MarketItem[]",
          "name": "items",
          "type": "tuple[]"
        },
        {
          "internalType": "uint256",
          "name": "newCursor",
          "type": "uint256"
        },
        {
          "internalType": "uint256",
          "name": "totalItemCount",
          "type": "uint256"
        }
      ],
      "stateMutability": "view",
      "type": "function"
    },
    {
      "inputs": [
        {
          "internalType": "address",
          "name": "_owner",
          "type": "address"
        }
      ],
      "name": "fetchAvailableBiddedAuction",
      "outputs": [
        {
          "components": [
            {
              "internalType": "uint256",
              "name": "tokenId",
              "type": "uint256"
            },
            {
              "internalType": "address",
              "name": "nftContract",
              "type": "address"
            },
            {
              "internalType": "address payable",
              "name": "seller",
              "type": "address"
            },
            {
              "internalType": "address payable",
              "name": "owner",
              "type": "address"
            },
            {
              "internalType": "uint256",
              "name": "price",
              "type": "uint256"
            },
            {
              "internalType": "bool",
              "name": "sold",
              "type": "bool"
            },
            {
              "internalType": "bool",
              "name": "bidded",
              "type": "bool"
            },
            {
              "internalType": "bool",
              "name": "isMultiToken",
              "type": "bool"
            },
            {
              "components": [
                {
                  "internalType": "uint256",
                  "name": "startAt",
                  "type": "uint256"
                },
                {
                  "internalType": "uint256",
                  "name": "endAt",
                  "type": "uint256"
                },
                {
                  "internalType": "address",
                  "name": "highestBidder",
                  "type": "address"
                },
                {
                  "internalType": "uint256",
                  "name": "highestBid",
                  "type": "uint256"
                },
                {
                  "internalType": "uint256",
                  "name": "highestBidTime",
                  "type": "uint256"
                },
                {
                  "internalType": "uint256",
                  "name": "startingPrice",
                  "type": "uint256"
                },
                {
                  "components": [
                    {
                      "internalType": "address",
                      "name": "bidder",
                      "type": "address"
                    },
                    {
                      "internalType": "uint256",
                      "name": "bid",
                      "type": "uint256"
                    },
                    {
                      "internalType": "uint256",
                      "name": "bidTime",
                      "type": "uint256"
                    }
                  ],
                  "internalType": "struct NFTMarketplace.Bid[]",
                  "name": "bids",
                  "type": "tuple[]"
                }
              ],
              "internalType": "struct NFTMarketplace.AuctionInfo",
              "name": "auctionInfo",
              "type": "tuple"
            }
          ],
          "internalType": "struct NFTMarketplace.MarketItem[]",
          "name": "items",
          "type": "tuple[]"
        }
      ],
      "stateMutability": "view",
      "type": "function"
    },
    {
      "inputs": [],
      "name": "fetchAvailableMarketItems",
      "outputs": [
        {
          "components": [
            {
              "internalType": "uint256",
              "name": "tokenId",
              "type": "uint256"
            },
            {
              "internalType": "address",
              "name": "nftContract",
              "type": "address"
            },
            {
              "internalType": "address payable",
              "name": "seller",
              "type": "address"
            },
            {
              "internalType": "address payable",
              "name": "owner",
              "type": "address"
            },
            {
              "internalType": "uint256",
              "name": "price",
              "type": "uint256"
            },
            {
              "internalType": "bool",
              "name": "sold",
              "type": "bool"
            },
            {
              "internalType": "bool",
              "name": "bidded",
              "type": "bool"
            },
            {
              "internalType": "bool",
              "name": "isMultiToken",
              "type": "bool"
            },
            {
              "components": [
                {
                  "internalType": "uint256",
                  "name": "startAt",
                  "type": "uint256"
                },
                {
                  "internalType": "uint256",
                  "name": "endAt",
                  "type": "uint256"
                },
                {
                  "internalType": "address",
                  "name": "highestBidder",
                  "type": "address"
                },
                {
                  "internalType": "uint256",
                  "name": "highestBid",
                  "type": "uint256"
                },
                {
                  "internalType": "uint256",
                  "name": "highestBidTime",
                  "type": "uint256"
                },
                {
                  "internalType": "uint256",
                  "name": "startingPrice",
                  "type": "uint256"
                },
                {
                  "components": [
                    {
                      "internalType": "address",
                      "name": "bidder",
                      "type": "address"
                    },
                    {
                      "internalType": "uint256",
                      "name": "bid",
                      "type": "uint256"
                    },
                    {
                      "internalType": "uint256",
                      "name": "bidTime",
                      "type": "uint256"
                    }
                  ],
                  "internalType": "struct NFTMarketplace.Bid[]",
                  "name": "bids",
                  "type": "tuple[]"
                }
              ],
              "internalType": "struct NFTMarketplace.AuctionInfo",
              "name": "auctionInfo",
              "type": "tuple"
            }
          ],
          "internalType": "struct NFTMarketplace.MarketItem[]",
          "name": "items",
          "type": "tuple[]"
        }
      ],
      "stateMutability": "view",
      "type": "function"
    },
    {
      "inputs": [
        {
          "internalType": "address",
          "name": "_owner",
          "type": "address"
        }
      ],
      "name": "fetchItemsListed",
      "outputs": [
        {
          "components": [
            {
              "internalType": "uint256",
              "name": "tokenId",
              "type": "uint256"
            },
            {
              "internalType": "address",
              "name": "nftContract",
              "type": "address"
            },
            {
              "internalType": "address payable",
              "name": "seller",
              "type": "address"
            },
            {
              "internalType": "address payable",
              "name": "owner",
              "type": "address"
            },
            {
              "internalType": "uint256",
              "name": "price",
              "type": "uint256"
            },
            {
              "internalType": "bool",
              "name": "sold",
              "type": "bool"
            },
            {
              "internalType": "bool",
              "name": "bidded",
              "type": "bool"
            },
            {
              "internalType": "bool",
              "name": "isMultiToken",
              "type": "bool"
            },
            {
              "components": [
                {
                  "internalType": "uint256",
                  "name": "startAt",
                  "type": "uint256"
                },
                {
                  "internalType": "uint256",
                  "name": "endAt",
                  "type": "uint256"
                },
                {
                  "internalType": "address",
                  "name": "highestBidder",
                  "type": "address"
                },
                {
                  "internalType": "uint256",
                  "name": "highestBid",
                  "type": "uint256"
                },
                {
                  "internalType": "uint256",
                  "name": "highestBidTime",
                  "type": "uint256"
                },
                {
                  "internalType": "uint256",
                  "name": "startingPrice",
                  "type": "uint256"
                },
                {
                  "components": [
                    {
                      "internalType": "address",
                      "name": "bidder",
                      "type": "address"
                    },
                    {
                      "internalType": "uint256",
                      "name": "bid",
                      "type": "uint256"
                    },
                    {
                      "internalType": "uint256",
                      "name": "bidTime",
                      "type": "uint256"
                    }
                  ],
                  "internalType": "struct NFTMarketplace.Bid[]",
                  "name": "bids",
                  "type": "tuple[]"
                }
              ],
              "internalType": "struct NFTMarketplace.AuctionInfo",
              "name": "auctionInfo",
              "type": "tuple"
            }
          ],
          "internalType": "struct NFTMarketplace.MarketItem[]",
          "name": "items",
          "type": "tuple[]"
        }
      ],
      "stateMutability": "view",
      "type": "function"
    },
    {
      "inputs": [
        {
          "internalType": "uint256",
          "name": "_id",
          "type": "uint256"
        }
      ],
      "name": "fetchMarketItem",
      "outputs": [
        {
          "components": [
            {
              "internalType": "uint256",
              "name": "tokenId",
              "type": "uint256"
            },
            {
              "internalType": "address",
              "name": "nftContract",
              "type": "address"
            },
            {
              "internalType": "address payable",
              "name": "seller",
              "type": "address"
            },
            {
              "internalType": "address payable",
              "name": "owner",
              "type": "address"
            },
            {
              "internalType": "uint256",
              "name": "price",
              "type": "uint256"
            },
            {
              "internalType": "bool",
              "name": "sold",
              "type": "bool"
            },
            {
              "internalType": "bool",
              "name": "bidded",
              "type": "bool"
            },
            {
              "internalType": "bool",
              "name": "isMultiToken",
              "type": "bool"
            },
            {
              "components": [
                {
                  "internalType": "uint256",
                  "name": "startAt",
                  "type": "uint256"
                },
                {
                  "internalType": "uint256",
                  "name": "endAt",
                  "type": "uint256"
                },
                {
                  "internalType": "address",
                  "name": "highestBidder",
                  "type": "address"
                },
                {
                  "internalType": "uint256",
                  "name": "highestBid",
                  "type": "uint256"
                },
                {
                  "internalType": "uint256",
                  "name": "highestBidTime",
                  "type": "uint256"
                },
                {
                  "internalType": "uint256",
                  "name": "startingPrice",
                  "type": "uint256"
                },
                {
                  "components": [
                    {
                      "internalType": "address",
                      "name": "bidder",
                      "type": "address"
                    },
                    {
                      "internalType": "uint256",
                      "name": "bid",
                      "type": "uint256"
                    },
                    {
                      "internalType": "uint256",
                      "name": "bidTime",
                      "type": "uint256"
                    }
                  ],
                  "internalType": "struct NFTMarketplace.Bid[]",
                  "name": "bids",
                  "type": "tuple[]"
                }
              ],
              "internalType": "struct NFTMarketplace.AuctionInfo",
              "name": "auctionInfo",
              "type": "tuple"
            }
          ],
          "internalType": "struct NFTMarketplace.MarketItem",
          "name": "",
          "type": "tuple"
        }
      ],
      "stateMutability": "view",
      "type": "function"
    },
    {
      "inputs": [
        {
          "internalType": "address",
          "name": "_owner",
          "type": "address"
        }
      ],
      "name": "fetchMyNFTs",
      "outputs": [
        {
          "components": [
            {
              "internalType": "uint256",
              "name": "tokenId",
              "type": "uint256"
            },
            {
              "internalType": "address",
              "name": "nftContract",
              "type": "address"
            },
            {
              "internalType": "address payable",
              "name": "seller",
              "type": "address"
            },
            {
              "internalType": "address payable",
              "name": "owner",
              "type": "address"
            },
            {
              "internalType": "uint256",
              "name": "price",
              "type": "uint256"
            },
            {
              "internalType": "bool",
              "name": "sold",
              "type": "bool"
            },
            {
              "internalType": "bool",
              "name": "bidded",
              "type": "bool"
            },
            {
              "internalType": "bool",
              "name": "isMultiToken",
              "type": "bool"
            },
            {
              "components": [
                {
                  "internalType": "uint256",
                  "name": "startAt",
                  "type": "uint256"
                },
                {
                  "internalType": "uint256",
                  "name": "endAt",
                  "type": "uint256"
                },
                {
                  "internalType": "address",
                  "name": "highestBidder",
                  "type": "address"
                },
                {
                  "internalType": "uint256",
                  "name": "highestBid",
                  "type": "uint256"
                },
                {
                  "internalType": "uint256",
                  "name": "highestBidTime",
                  "type": "uint256"
                },
                {
                  "internalType": "uint256",
                  "name": "startingPrice",
                  "type": "uint256"
                },
                {
                  "components": [
                    {
                      "internalType": "address",
                      "name": "bidder",
                      "type": "address"
                    },
                    {
                      "internalType": "uint256",
                      "name": "bid",
                      "type": "uint256"
                    },
                    {
                      "internalType": "uint256",
                      "name": "bidTime",
                      "type": "uint256"
                    }
                  ],
                  "internalType": "struct NFTMarketplace.Bid[]",
                  "name": "bids",
                  "type": "tuple[]"
                }
              ],
              "internalType": "struct NFTMarketplace.AuctionInfo",
              "name": "auctionInfo",
              "type": "tuple"
            }
          ],
          "internalType": "struct NFTMarketplace.MarketItem[]",
          "name": "items",
          "type": "tuple[]"
        }
      ],
      "stateMutability": "view",
      "type": "function"
    },
    {
      "inputs": [
        {
          "internalType": "uint256",
          "name": "_tokenId",
          "type": "uint256"
        }
      ],
      "name": "get1155TokenURI",
      "outputs": [
        {
          "internalType": "string",
          "name": "",
          "type": "string"
        }
      ],
      "stateMutability": "view",
      "type": "function"
    },
    {
      "inputs": [
        {
          "internalType": "uint256",
          "name": "_tokenId",
          "type": "uint256"
        }
      ],
      "name": "get721TokenURI",
      "outputs": [
        {
          "internalType": "string",
          "name": "",
          "type": "string"
        }
      ],
      "stateMutability": "view",
      "type": "function"
    },
    {
      "inputs": [],
      "name": "getListingPrice",
      "outputs": [
        {
          "internalType": "uint256",
          "name": "",
          "type": "uint256"
        }
      ],
      "stateMutability": "view",
      "type": "function"
    },
    {
      "inputs": [
        {
          "internalType": "uint256",
          "name": "tokenId",
          "type": "uint256"
        },
        {
          "internalType": "uint256",
          "name": "startTime",
          "type": "uint256"
        },
        {
          "internalType": "uint256",
          "name": "endTime",
          "type": "uint256"
        },
        {
          "internalType": "uint256",
          "name": "startingPrice",
          "type": "uint256"
        }
      ],
      "name": "listAuctionItem",
      "outputs": [],
      "stateMutability": "payable",
      "type": "function"
    },
    {
      "inputs": [
        {
          "internalType": "uint256",
          "name": "tokenId",
          "type": "uint256"
        },
        {
          "internalType": "uint256",
          "name": "price",
          "type": "uint256"
        }
      ],
      "name": "listMarketItem",
      "outputs": [],
      "stateMutability": "payable",
      "type": "function"
    },
    {
      "inputs": [
        {
          "internalType": "address",
          "name": "",
          "type": "address"
        },
        {
          "internalType": "address",
          "name": "",
          "type": "address"
        },
        {
          "internalType": "uint256[]",
          "name": "",
          "type": "uint256[]"
        },
        {
          "internalType": "uint256[]",
          "name": "",
          "type": "uint256[]"
        },
        {
          "internalType": "bytes",
          "name": "",
          "type": "bytes"
        }
      ],
      "name": "onERC1155BatchReceived",
      "outputs": [
        {
          "internalType": "bytes4",
          "name": "",
          "type": "bytes4"
        }
      ],
      "stateMutability": "nonpayable",
      "type": "function"
    },
    {
      "inputs": [
        {
          "internalType": "address",
          "name": "",
          "type": "address"
        },
        {
          "internalType": "address",
          "name": "",
          "type": "address"
        },
        {
          "internalType": "uint256",
          "name": "",
          "type": "uint256"
        },
        {
          "internalType": "uint256",
          "name": "",
          "type": "uint256"
        },
        {
          "internalType": "bytes",
          "name": "",
          "type": "bytes"
        }
      ],
      "name": "onERC1155Received",
      "outputs": [
        {
          "internalType": "bytes4",
          "name": "",
          "type": "bytes4"
        }
      ],
      "stateMutability": "nonpayable",
      "type": "function"
    },
    {
      "inputs": [
        {
          "internalType": "address",
          "name": "",
          "type": "address"
        },
        {
          "internalType": "address",
          "name": "",
          "type": "address"
        },
        {
          "internalType": "uint256",
          "name": "",
          "type": "uint256"
        },
        {
          "internalType": "bytes",
          "name": "",
          "type": "bytes"
        }
      ],
      "name": "onERC721Received",
      "outputs": [
        {
          "internalType": "bytes4",
          "name": "",
          "type": "bytes4"
        }
      ],
      "stateMutability": "nonpayable",
      "type": "function"
    },
    {
      "inputs": [
        {
          "internalType": "bytes4",
          "name": "interfaceId",
          "type": "bytes4"
        }
      ],
      "name": "supportsInterface",
      "outputs": [
        {
          "internalType": "bool",
          "name": "",
          "type": "bool"
        }
      ],
      "stateMutability": "view",
      "type": "function"
    },
    {
      "inputs": [
        {
          "internalType": "uint256",
          "name": "_listingPrice",
          "type": "uint256"
        }
      ],
      "name": "updateListingPrice",
      "outputs": [],
      "stateMutability": "payable",
      "type": "function"
    },
    {
      "inputs": [
        {
          "internalType": "uint256",
          "name": "tokenId",
          "type": "uint256"
        }
      ],
      "name": "withdrawBid",
      "outputs": [],
      "stateMutability": "payable",
      "type": "function"
    }
  ],
  "bytecode": "0x60806040526107086006556658d15e176280006007553480156200002257600080fd5b5060405162003f2938038062003f29833981016040819052620000459162000162565b6001600055600380546001600160a01b038481166001600160a01b0319928316811790935560048054918516919092161781556040516303e96bf960e61b8152309181019190915263fa5afe4090602401600060405180830381600087803b158015620000b157600080fd5b505af1158015620000c6573d6000803e3d6000fd5b5050600480546040516303e96bf960e61b815230928101929092526001600160a01b0316925063fa5afe409150602401600060405180830381600087803b1580156200011157600080fd5b505af115801562000126573d6000803e3d6000fd5b5050600280546001600160a01b03191633179055506200019992505050565b80516001600160a01b03811681146200015d57600080fd5b919050565b6000806040838503121562000175578182fd5b620001808362000145565b9150620001906020840162000145565b90509250929050565b613d8080620001a96000396000f3fe6080604052600436106101355760003560e01c8063454a2ab3116100ab578063ae677aa31161006f578063ae677aa31461035d578063b9a2de3a14610370578063bc197c8114610383578063be9af536146103af578063ca034f3a146103c2578063f23a6e61146103d557600080fd5b8063454a2ab3146102d75780636eb22e11146102ea578063821ef09d146102fd5780638a410b1a1461031d578063a25282aa1461033d57600080fd5b8063150b7a02116100fd578063150b7a02146101e45780631adc25761461022857806325762e57146102575780632796390c146102845780632a45b25014610297578063359e1a2c146102c457600080fd5b806301ffc9a71461013a5780630e01c9691461016f5780630eaaf4c81461019157806310afee1e146101a657806312e85585146101c6575b600080fd5b34801561014657600080fd5b5061015a61015536600461384d565b610401565b60405190151581526020015b60405180910390f35b34801561017b57600080fd5b50610184610438565b6040516101669190613bb8565b6101a461019f3660046138e7565b61082a565b005b3480156101b257600080fd5b506101846101c1366004613651565b610a6f565b3480156101d257600080fd5b50600754604051908152602001610166565b3480156101f057600080fd5b5061020f6101ff366004613710565b630a85bd0160e11b949350505050565b6040516001600160e01b03199091168152602001610166565b34801561023457600080fd5b506102486102433660046138ff565b610d66565b60405161016693929190613bcb565b34801561026357600080fd5b506102776102723660046138e7565b611039565b6040516101669190613bf0565b6101a46102923660046138ff565b6110bd565b3480156102a357600080fd5b506102b76102b23660046138e7565b6112d1565b6040516101669190613c3a565b6101a46102d2366004613920565b611449565b6101a46102e53660046138e7565b6117c8565b6101a46102f83660046138e7565b611aa5565b34801561030957600080fd5b506102776103183660046138e7565b611efd565b34801561032957600080fd5b50610184610338366004613651565b611f2f565b34801561034957600080fd5b50610184610358366004613651565b61221c565b6101a461036b3660046138e7565b612a79565b6101a461037e3660046138e7565b612af1565b34801561038f57600080fd5b5061020f61039e36600461366b565b63bc197c8160e01b95945050505050565b6101a46103bd3660046138e7565b612f22565b6101a46103d03660046137d7565b613141565b3480156103e157600080fd5b5061020f6103f0366004613775565b63f23a6e6160e01b95945050505050565b60006001600160e01b03198216630271189760e51b148061043257506301ffc9a760e01b6001600160e01b03198316145b92915050565b6060600061044560015490565b905060008060005b8381101561052f5760056000610464836001613ca4565b815260208101919091526040016000206005015460ff16158061050a575060056000610491836001613ca4565b8152602081019190915260400160002060050154610100900460ff161580156104dc575042600560006104c5846001613ca4565b815260200190815260200160002060060160010154115b801561050a575042600560006104f3846001613ca4565b815260200190815260200160002060060160000154105b1561051d5761051a600184613ca4565b92505b8061052781613d03565b91505061044d565b506000826001600160401b0381111561055857634e487b7160e01b600052604160045260246000fd5b60405190808252806020026020018201604052801561059157816020015b61057e613447565b8152602001906001900390816105765790505b50905060005b8481101561082157600560006105ae836001613ca4565b815260208101919091526040016000206005015460ff1615806106545750600560006105db836001613ca4565b8152602081019190915260400160002060050154610100900460ff161580156106265750426005600061060f846001613ca4565b815260200190815260200160002060060160010154115b80156106545750426005600061063d846001613ca4565b815260200190815260200160002060060160000154105b1561080f576000610666826001613ca4565b60008181526005602081815260408084208151610120810183528154815260018201546001600160a01b039081168286015260028301548116828501526003830154811660608084019190915260048401546080808501919091529684015460ff808216151560a0808701919091526101008084048316151560c08089019190915262010000909404909216151560e0808801919091528851908101895260068801805482526007890154828c01526008890154909616818a0152600988015494810194909452600a87015499840199909952600b86015498830198909852600c850180548751818a0281018a019098528088529a9b50949993988a988a01979296939591870194919284015b828210156107c8576000848152602090819020604080516060810182526003860290920180546001600160a01b0316835260018082015484860152600290910154918301919091529083529092019101610773565b5050505081525050815250508486815181106107f457634e487b7160e01b600052603260045260246000fd5b602090810291909101015261080a600186613ca4565b945050505b8061081981613d03565b915050610597565b50949350505050565b600260005414156108565760405162461bcd60e51b815260040161084d90613c03565b60405180910390fd5b60026000908155805b6000838152600560205260409020600c0154811015610978576000838152600560205260409020600c018054339190839081106108ac57634e487b7160e01b600052603260045260246000fd5b60009182526020909120600390910201546001600160a01b03161415610966576000838152600560205260409020600c018054829081106108fd57634e487b7160e01b600052603260045260246000fd5b9060005260206000209060030201600101548261091a9190613ca4565b6000848152600560205260408120600c01805492945090918390811061095057634e487b7160e01b600052603260045260246000fd5b9060005260206000209060030201600101819055505b8061097081613d03565b91505061085f565b50600081116109c95760405162461bcd60e51b815260206004820152601760248201527f596f7520686176656e2774206269646465642079657421000000000000000000604482015260640161084d565b604051339082156108fc029083906000818181858888f193505050501580156109f6573d6000803e3d6000fd5b50600082815260056020908152604091829020600181015460029091015483516001600160a01b0391821681523393810193909352928201849052919091169083907f79d5728b594c308d9a5643e34a4c8aad57bd810a0fa84016d5949d7107bf189c906060015b60405180910390a350506001600055565b60606000610a7c60015490565b905060008060005b83811015610ae8576001600160a01b03861660056000610aa5846001613ca4565b81526020810191909152604001600020600301546001600160a01b03161415610ad657610ad3600184613ca4565b92505b80610ae081613d03565b915050610a84565b506000826001600160401b03811115610b1157634e487b7160e01b600052604160045260246000fd5b604051908082528060200260200182016040528015610b4a57816020015b610b37613447565b815260200190600190039081610b2f5790505b50905060005b84811015610d5c576001600160a01b03871660056000610b71846001613ca4565b81526020810191909152604001600020600301546001600160a01b03161415610d4a576000610ba1826001613ca4565b60008181526005602081815260408084208151610120810183528154815260018201546001600160a01b039081168286015260028301548116828501526003830154811660608084019190915260048401546080808501919091529684015460ff808216151560a0808701919091526101008084048316151560c08089019190915262010000909404909216151560e0808801919091528851908101895260068801805482526007890154828c01526008890154909616818a0152600988015494810194909452600a87015499840199909952600b86015498830198909852600c850180548751818a0281018a019098528088529a9b50949993988a988a01979296939591870194919284015b82821015610d03576000848152602090819020604080516060810182526003860290920180546001600160a01b0316835260018082015484860152600290910154918301919091529083529092019101610cae565b505050508152505081525050848681518110610d2f57634e487b7160e01b600052603260045260246000fd5b6020908102919091010152610d45600186613ca4565b945050505b80610d5481613d03565b915050610b50565b5095945050505050565b60606000806000610d7660015490565b9050808610610dc0576040805160008082526020820190925281610db0565b610d9d613447565b815260200190600190039081610d955790505b5094508693509091506110329050565b84610dcb8783613cbc565b811115610ddf57610ddc8783613cbc565b90505b6000816001600160401b03811115610e0757634e487b7160e01b600052604160045260246000fd5b604051908082528060200260200182016040528015610e4057816020015b610e2d613447565b815260200190600190039081610e255790505b509050875b610e4f8984613ca4565b81101561101b576000600581610e66846001613ca4565b8152602080820192909252604090810160009081208251610120810184528154815260018201546001600160a01b03908116828701526002830154811682860152600383015481166060808401919091526004840154608080850191909152600585015460ff808216151560a0808801919091526101008084048316151560c0808a019190915262010000909404909216151560e0808901919091528a519081018b52600689018054825260078a0154828e015260088a0154909716818c0152600989015495810195909552600a88015493850193909352600b87015492840192909252600c860180548951818c0281018c01909a52808a52969a5094988a98928a0197939694959187019492939192919084015b82821015610fd0576000848152602090819020604080516060810182526003860290920180546001600160a01b0316835260018082015484860152600290910154918301919091529083529092019101610f7b565b505050508152505081525050838381518110610ffc57634e487b7160e01b600052603260045260246000fd5b602002602001018190525050808061101390613d03565b915050610e45565b5080611027838a613ca4565b849550955095505050505b9250925092565b60048054604051638ad9134560e01b81529182018390526060916001600160a01b0390911690638ad91345906024015b60006040518083038186803b15801561108157600080fd5b505afa158015611095573d6000803e3d6000fd5b505050506040513d6000823e601f3d908101601f191682016040526104329190810190613875565b6007543410156111285760405162461bcd60e51b815260206004820152603060248201527f5072696365206d75737420626520657175616c206f722068696768657220746860448201526f616e206c697374696e6720707269636560801b606482015260840161084d565b600081116111785760405162461bcd60e51b815260206004820152601c60248201527f5072696365206d757374206265206174206c6561737420312077656900000000604482015260640161084d565b6000828152600560205260409020600301546001600160a01b031633146111e15760405162461bcd60e51b815260206004820152601960248201527f4f6e6c79206f776e65722063616e206c697374206974656d2100000000000000604482015260640161084d565b600082815260056020819052604090912060048101839055908101805460ff191690819055600282018054336001600160a01b031991821681179092556003840180543092168217905560019093015461125293919286916001600160a01b03169060ff6201000090910416613264565b60008281526005602081815260409283902060018101546003820154919093015484516001600160a01b0392831681526201000090910460ff1615159281019290925292810184905291169083907f31b463dc211ba8d71de85d00fe324011853b81e134abc9b82ea212c3fa1f9a459060600160405180910390a35050565b6112d9613447565b60008281526005602081815260408084208151610120810183528154815260018201546001600160a01b039081168286015260028301548116828501526003830154811660608084019190915260048401546080808501919091529684015460ff808216151560a0808701919091526101008084048316151560c08089019190915262010000909404909216151560e0808801919091528851908101895260068801805482526007890154828c01526008890154909616818a0152600988015494810194909452600a87015499840199909952600b86015498830198909852600c850180548751818a0281018a01909852808852949995988a01979296939591870194909290919084015b82821015611439576000848152602090819020604080516060810182526003860290920180546001600160a01b03168352600180820154848601526002909101549183019190915290835290920191016113e4565b5050509152505090525092915050565b60075434146114a65760405162461bcd60e51b8152602060048201526024808201527f5072696365206d75737420626520657175616c20746f206c697374696e6720706044820152637269636560e01b606482015260840161084d565b600081116115025760405162461bcd60e51b8152602060048201526024808201527f5374617274696e67207072696365206d757374206265206c61726765722074686044820152630616e20360e41b606482015260840161084d565b6000848152600560205260409020600301546001600160a01b031633146115645760405162461bcd60e51b815260206004820152601660248201527527b7363c9037bbb732b91031b0b71030bab1ba34b7b760511b604482015260640161084d565b6000848152600560208190526040909120015460ff16801561159d575060008481526005602081905260409091200154610100900460ff165b6115da5760405162461bcd60e51b815260206004820152600e60248201526d4e4654206973206f6e2073616c6560901b604482015260640161084d565b8142106116125760405162461bcd60e51b8152602060048201526006602482015265456e6465642160d01b604482015260640161084d565b60065461161f8484613cbc565b116116855760405162461bcd60e51b815260206004820152603060248201527f5468652061756374696f6e2074696d65206d757374206265206c6f6e6765722060448201526f7468616e203330206d696e757465732160801b606482015260840161084d565b60008481526005602052604081206006810185905560078101849055600981018290556008810180546001600160a01b0319169055600a8101829055600b81018390556116d791600c909101906134fa565b6000848152600560208190526040909120908101805461ff00191690819055600282018054336001600160a01b031991821681179092556003840180543092168217905560019093015461174293919288916001600160a01b03169060ff6201000090910416613264565b600084815260056020818152604092839020600181015492015483513381526201000090910460ff1615159181019190915291820183905260608201859052608082018490526001600160a01b03169085907f75b0cfc9c9950e18b8591f8b42e62d98434f7a4f41d479a90133cb251e1b96f19060a0015b60405180910390a350505050565b6000818152600560205260409020600201546001600160a01b03163314156118325760405162461bcd60e51b815260206004820152601760248201527f596f752063616e27742062696420796f7572206974656d000000000000000000604482015260640161084d565b60008181526005602081905260409091200154610100900460ff161561188f5760405162461bcd60e51b81526020600482015260126024820152714974656d2069736e27742062696464696e6760701b604482015260640161084d565b600081815260056020526040902060060154421180156118bf575060008181526005602052604090206007015442105b6119005760405162461bcd60e51b81526020600482015260126024820152714e6f7420696e2062696420706572696f642160701b604482015260640161084d565b60008181526005602052604090206009015434116119605760405162461bcd60e51b815260206004820181905260248201527f4d75737420626964206869676865722074686520686967686573742062696421604482015260640161084d565b6000818152600560205260409020600801546001600160a01b031615611a04576040805160608101825260008381526005602081815284832060088101546001600160a01b0390811686526009820154838701908152600a830154978701978852938352600c909101805460018082018355918652929094209451600390920290940180546001600160a01b03191691909416178355519082015590516002909101555b60008181526005602090815260409182902034600982018190556008820180546001600160a01b0319163390811790915542600a8401819055600184015460029094015486516001600160a01b03918216815295860192909252948401919091526060830193909352919091169082907f34f367c117714cf7e9fff4df15a4799e49ad2785e267d0ce4aae7a045d471f30906080015b60405180910390a350565b6000818152600560205260409020600201546001600160a01b03163314611b0e5760405162461bcd60e51b815260206004820152601f60248201527f4f6e6c792073656c6c65722063616e2063616e63656c206c697374696e672100604482015260640161084d565b6000818152600560208190526040909120015460ff161580611b48575060008181526005602081905260409091200154610100900460ff16155b611ba05760405162461bcd60e51b8152602060048201526024808201527f4f6e6c79206c6973746564206974656d2063616e2063616e63656c206c697374604482015263696e672160e01b606482015260840161084d565b60008181526005602081905260409091200154610100900460ff16611e01576000818152600560205260409020600701544210611c315760405162461bcd60e51b815260206004820152602960248201527f43616e6e6f742063616e63656c207768656e2061756374696f6e20616c726561604482015268647920656e6465642160b81b606482015260840161084d565b6000818152600560205260409020600801546001600160a01b031615611ddd5760005b6000828152600560205260409020600c0154811015611d8c576000828152600560205260408120600c01805483908110611c9e57634e487b7160e01b600052603260045260246000fd5b9060005260206000209060030201600101541115611d7a576000828152600560205260409020600c01805482908110611ce757634e487b7160e01b600052603260045260246000fd5b6000918252602080832060039092029091015484835260059091526040909120600c0180546001600160a01b03909216916108fc919084908110611d3b57634e487b7160e01b600052603260045260246000fd5b9060005260206000209060030201600101549081150290604051600060405180830381858888f19350505050158015611d78573d6000803e3d6000fd5b505b80611d8481613d03565b915050611c54565b50600081815260056020526040808220600881015460099091015491516001600160a01b039091169282156108fc02929190818181858888f19350505050158015611ddb573d6000803e3d6000fd5b505b600081815260056020819052604090912001805461ff001916610100179055611e1f565b600081815260056020819052604090912001805460ff191660011790555b6000818152600560208190526040909120600381018054336001600160a01b03199182168117909255600283018054909116905560018201549190920154611e7f923092909185916001600160a01b03169062010000900460ff16613264565b600081815260056020818152604092839020600181015460038201549382015460049092015485516001600160a01b0395861681526201000090930460ff161515938301939093529381019190915291169082907f769a2f215ef24b6515bca3c5f2993d943ce052a9c9deb2fcc5c81a399a0e931c90606001611a9a565b600354604051633bb3a24d60e01b8152600481018390526060916001600160a01b031690633bb3a24d90602401611069565b60606000611f3c60015490565b905060008060005b83811015611fa8576001600160a01b03861660056000611f65846001613ca4565b81526020810191909152604001600020600201546001600160a01b03161415611f9657611f93600184613ca4565b92505b80611fa081613d03565b915050611f44565b506000826001600160401b03811115611fd157634e487b7160e01b600052604160045260246000fd5b60405190808252806020026020018201604052801561200a57816020015b611ff7613447565b815260200190600190039081611fef5790505b50905060005b84811015610d5c576001600160a01b03871660056000612031846001613ca4565b81526020810191909152604001600020600201546001600160a01b0316141561220a576000612061826001613ca4565b60008181526005602081815260408084208151610120810183528154815260018201546001600160a01b039081168286015260028301548116828501526003830154811660608084019190915260048401546080808501919091529684015460ff808216151560a0808701919091526101008084048316151560c08089019190915262010000909404909216151560e0808801919091528851908101895260068801805482526007890154828c01526008890154909616818a0152600988015494810194909452600a87015499840199909952600b86015498830198909852600c850180548751818a0281018a019098528088529a9b50949993988a988a01979296939591870194919284015b828210156121c3576000848152602090819020604080516060810182526003860290920180546001600160a01b031683526001808201548486015260029091015491830191909152908352909201910161216e565b5050505081525050815250508486815181106121ef57634e487b7160e01b600052603260045260246000fd5b6020908102919091010152612205600186613ca4565b945050505b8061221481613d03565b915050612010565b6060600061222960015490565b905060008060005b838110156124795760056000612248836001613ca4565b815260208101919091526040016000206005015460ff161515600114801561229857506005600061227a836001613ca4565b8152602081019190915260400160002060050154610100900460ff16155b80156122c6575042600560006122af846001613ca4565b815260200190815260200160002060060160000154105b80156122fd575060006005816122dd846001613ca4565b81526020810191909152604001600020600801546001600160a01b031614155b15612467576001600160a01b0386166005600061231b846001613ca4565b81526020810191909152604001600020600801546001600160a01b0316141561235057612349600184613ca4565b9250612467565b6000600581612360846001613ca4565b8152602001908152602001600020600601600601805480602002602001604051908101604052809291908181526020016000905b828210156123e9576000848152602090819020604080516060810182526003860290920180546001600160a01b0316835260018082015484860152600290910154918301919091529083529092019101612394565b50505050905060005b815181101561246457876001600160a01b031682828151811061242557634e487b7160e01b600052603260045260246000fd5b6020026020010151600001516001600160a01b031614156124525761244b600186613ca4565b9450612464565b8061245c81613d03565b9150506123f2565b50505b8061247181613d03565b915050612231565b506000826001600160401b038111156124a257634e487b7160e01b600052604160045260246000fd5b6040519080825280602002602001820160405280156124db57816020015b6124c8613447565b8152602001906001900390816124c05790505b50905060005b84811015610d5c57600560006124f8836001613ca4565b815260208101919091526040016000206005015460ff161515600114801561254857506005600061252a836001613ca4565b8152602081019190915260400160002060050154610100900460ff16155b80156125765750426005600061255f846001613ca4565b815260200190815260200160002060060160000154105b80156125ad5750600060058161258d846001613ca4565b81526020810191909152604001600020600801546001600160a01b031614155b15612a67576001600160a01b038716600560006125cb846001613ca4565b81526020810191909152604001600020600801546001600160a01b031614156127a85760006125fb826001613ca4565b60008181526005602081815260408084208151610120810183528154815260018201546001600160a01b039081168286015260028301548116828501526003830154811660608084019190915260048401546080808501919091529684015460ff808216151560a0808701919091526101008084048316151560c08089019190915262010000909404909216151560e0808801919091528851908101895260068801805482526007890154828c01526008890154909616818a0152600988015494810194909452600a87015499840199909952600b86015498830198909852600c850180548751818a0281018a019098528088529a9b50949993988a988a01979296939591870194919284015b8282101561275d576000848152602090819020604080516060810182526003860290920180546001600160a01b0316835260018082015484860152600290910154918301919091529083529092019101612708565b50505050815250508152505084868151811061278957634e487b7160e01b600052603260045260246000fd5b602090810291909101015261279f600186613ca4565b94505050612a67565b60006005816127b8846001613ca4565b8152602001908152602001600020600601600601805480602002602001604051908101604052809291908181526020016000905b82821015612841576000848152602090819020604080516060810182526003860290920180546001600160a01b03168352600180820154848601526002909101549183019190915290835290920191016127ec565b50505050905060005b8151811015612a6457886001600160a01b031682828151811061287d57634e487b7160e01b600052603260045260246000fd5b6020026020010151600001516001600160a01b03161415612a525760006128a5846001613ca4565b60008181526005602081815260408084208151610120810183528154815260018201546001600160a01b039081168286015260028301548116828501526003830154811660608084019190915260048401546080808501919091529684015460ff808216151560a0808701919091526101008084048316151560c08089019190915262010000909404909216151560e0808801919091528851908101895260068801805482526007890154828c01526008890154909616818a0152600988015494810194909452600a87015499840199909952600b86015498830198909852600c850180548751818a0281018a019098528088529a9b50949993988a988a01979296939591870194919284015b82821015612a07576000848152602090819020604080516060810182526003860290920180546001600160a01b03168352600180820154848601526002909101549183019190915290835290920191016129b2565b505050508152505081525050868881518110612a3357634e487b7160e01b600052603260045260246000fd5b6020908102919091010152612a49600188613ca4565b96505050612a64565b80612a5c81613d03565b91505061284a565b50505b80612a7181613d03565b9150506124e1565b6002546001600160a01b03163314612aec5760405162461bcd60e51b815260206004820152603060248201527f4f6e6c79206d61726b6574706c616365206f776e65722063616e20757064617460448201526f32903634b9ba34b73390383934b1b29760811b606482015260840161084d565b600755565b60026000541415612b145760405162461bcd60e51b815260040161084d90613c03565b60026000908155818152600560205260409020600701544211612b795760405162461bcd60e51b815260206004820152601960248201527f41756374696f6e206973207374696c6c206f6e676f696e672100000000000000604482015260640161084d565b60008181526005602081905260409091200154610100900460ff1615612bda5760405162461bcd60e51b815260206004820152601660248201527541756374696f6e20616c726561647920656e6465642160501b604482015260640161084d565b6000818152600560205260409020600801546001600160a01b031615612de75760005b6000828152600560205260409020600c0154811015612d35576000828152600560205260408120600c01805483908110612c4757634e487b7160e01b600052603260045260246000fd5b9060005260206000209060030201600101541115612d23576000828152600560205260409020600c01805482908110612c9057634e487b7160e01b600052603260045260246000fd5b6000918252602080832060039092029091015484835260059091526040909120600c0180546001600160a01b03909216916108fc919084908110612ce457634e487b7160e01b600052603260045260246000fd5b9060005260206000209060030201600101549081150290604051600060405180830381858888f19350505050158015612d21573d6000803e3d6000fd5b505b80612d2d81613d03565b915050612bfd565b50600081815260056020526040808220600281015460099091015491516001600160a01b039091169282156108fc02929190818181858888f19350505050158015612d84573d6000803e3d6000fd5b50600081815260056020819052604090912060088101546003820180546001600160a01b0319166001600160a01b0392831690811790915560018301549290930154612de29330939092869291169060ff6201000090910416613264565b612e63565b6000818152600560208190526040909120600281015460018201549190920154612e2d9230926001600160a01b039182169286929091169062010000900460ff16613264565b60008181526005602052604090206002810154600390910180546001600160a01b0319166001600160a01b039092169190911790555b6000818152600560208181526040928390206002810180546001600160a01b0319169055918201805461ff001916610100179081905560018301546003840154600885015460099095015486516001600160a01b0392831681526201000090940460ff1615159484019490945293841694820194909452606081019190915242608082015291169082907fa21625bacd9a53a22f3eda0f00281d2db3d918b022e003de1b8ec1dbf3551b319060a00160405180910390a3506001600055565b60026000541415612f455760405162461bcd60e51b815260040161084d90613c03565b60026000818155828152600560208190526040909120918201549101546001600160a01b039091169060ff1615612fb35760405162461bcd60e51b81526020600482015260126024820152714974656d2069736e2774206f6e2073616c6560701b604482015260640161084d565b60008281526005602052604090206004015434146130235760405162461bcd60e51b815260206004820152602760248201527f4275796572206d757374207472616e7366657220657175616c207072696365206044820152666f66206974656d60c81b606482015260840161084d565b6000828152600560205260408082206002015490516001600160a01b03909116913480156108fc02929091818181858888f1935050505015801561306b573d6000803e3d6000fd5b506000828152600560208190526040909120600381018054336001600160a01b031991821681179092556002830180549091169055918101805460ff1916600190811791829055909101546130db923092909186916001600160a01b039091169060ff6201000090910416613264565b600082815260056020908152604091829020600181015460049091015483516001600160a01b038681168252339482019490945293840152169083907fd3bd3ff48ce3a8bb23194a87b735e828ab1668173da85bff87a6000c0408512a90606001610a5e565b61314f600180546001019055565b600061315a60015490565b905081156131735761316e8160018561336b565b6131ba565b6131ba8184604051806040016040528060088152602001672aa4aa2a37b5b2b760c11b8152506040518060400160405280600381526020016215525560ea1b8152506133d8565b6000818152600560208181526040928390208481556001810180546001600160a01b038a166001600160a01b03199182168117909255600283018054821690556003830180549091163390811790915591909301805487151562010000810262ffffff199092169190911761010117909155845191825291810191909152909183917fac1bd62278cac1e3927d9af6d75c2a00c32db78ed0bb3a721d009050f786b7e891016117ba565b80156132f957604051637921219560e11b81526001600160a01b0386811660048301528581166024830152604482018590526001606483015260a06084830152600260a4830152615b5d60f01b60c483015283169063f242432a9060e401600060405180830381600087803b1580156132dc57600080fd5b505af11580156132f0573d6000803e3d6000fd5b50505050613364565b604051632142170760e11b81526001600160a01b0386811660048301528581166024830152604482018590528316906342842e0e90606401600060405180830381600087803b15801561334b57600080fd5b505af115801561335f573d6000803e3d6000fd5b505050505b5050505050565b6003546040516332ad158d60e11b81526001600160a01b039091169063655a2b1a906133a1903390879087908790600401613b8b565b600060405180830381600087803b1580156133bb57600080fd5b505af11580156133cf573d6000803e3d6000fd5b50505050505050565b6004805460405163257d89db60e01b81526001600160a01b039091169163257d89db9161340f913391899189918991899101613b32565b600060405180830381600087803b15801561342957600080fd5b505af115801561343d573d6000803e3d6000fd5b5050505050505050565b6040518061012001604052806000815260200160006001600160a01b0316815260200160006001600160a01b0316815260200160006001600160a01b03168152602001600081526020016000151581526020016000151581526020016000151581526020016134f56040518060e00160405280600081526020016000815260200160006001600160a01b03168152602001600081526020016000815260200160008152602001606081525090565b905290565b508054600082556003029060005260206000209081019061351b919061351e565b50565b5b8082111561354b5780546001600160a01b0319168155600060018201819055600282015560030161351f565b5090565b600061356261355d84613c7d565b613c4d565b905082815283838301111561357657600080fd5b828260208301376000602084830101529392505050565b80356001600160a01b03811681146135a457600080fd5b919050565b600082601f8301126135b9578081fd5b813560206001600160401b038211156135d4576135d4613d34565b8160051b6135e3828201613c4d565b8381528281019086840183880185018910156135fd578687fd5b8693505b8584101561361f578035835260019390930192918401918401613601565b50979650505050505050565b600082601f83011261363b578081fd5b61364a8383356020850161354f565b9392505050565b600060208284031215613662578081fd5b61364a8261358d565b600080600080600060a08688031215613682578081fd5b61368b8661358d565b94506136996020870161358d565b935060408601356001600160401b03808211156136b4578283fd5b6136c089838a016135a9565b945060608801359150808211156136d5578283fd5b6136e189838a016135a9565b935060808801359150808211156136f6578283fd5b506137038882890161362b565b9150509295509295909350565b60008060008060808587031215613725578384fd5b61372e8561358d565b935061373c6020860161358d565b92506040850135915060608501356001600160401b0381111561375d578182fd5b6137698782880161362b565b91505092959194509250565b600080600080600060a0868803121561378c578081fd5b6137958661358d565b94506137a36020870161358d565b9350604086013592506060860135915060808601356001600160401b038111156137cb578182fd5b6137038882890161362b565b6000806000606084860312156137eb578283fd5b6137f48461358d565b925060208401356001600160401b0381111561380e578283fd5b8401601f8101861361381e578283fd5b61382d8682356020840161354f565b92505060408401358015158114613842578182fd5b809150509250925092565b60006020828403121561385e578081fd5b81356001600160e01b03198116811461364a578182fd5b600060208284031215613886578081fd5b81516001600160401b0381111561389b578182fd5b8201601f810184136138ab578182fd5b80516138b961355d82613c7d565b8181528560208385010111156138cd578384fd5b6138de826020830160208601613cd3565b95945050505050565b6000602082840312156138f8578081fd5b5035919050565b60008060408385031215613911578182fd5b50508035926020909101359150565b60008060008060808587031215613935578182fd5b5050823594602084013594506040840135936060013592509050565b6000815180845260208085019450848260051b8601828601855b85811015613995578383038952613983838351613a79565b9885019892509084019060010161396b565b5090979650505050505050565b600081518084526139ba816020860160208601613cd3565b601f01601f19169290920160200192915050565b600060e08301825184526020808401518186015260408085015160018060a01b03808216838901526060915081870151828901526080870151608089015260a087015160a089015260c087015160e060c08a01528581518088526101008b01915086830197508892505b80831015613a6b578751805185168352878101518884015286015186830152968601966001929092019190840190613a38565b509998505050505050505050565b60006101208251845260018060a01b0360208401511660208501526040830151613aae60408601826001600160a01b03169052565b506060830151613ac960608601826001600160a01b03169052565b506080830151608085015260a0830151613ae760a086018215159052565b5060c0830151613afb60c086018215159052565b5060e0830151613b0f60e086018215159052565b50610100808401518282870152613b28838701826139ce565b9695505050505050565b60018060a01b038616815284602082015260a060408201526000613b5960a08301866139a2565b8281036060840152613b6b81866139a2565b90508281036080840152613b7f81856139a2565b98975050505050505050565b60018060a01b0385168152836020820152826040820152608060608201526000613b2860808301846139a2565b60208152600061364a6020830184613951565b606081526000613bde6060830186613951565b60208301949094525060400152919050565b60208152600061364a60208301846139a2565b6020808252601f908201527f5265656e7472616e637947756172643a207265656e7472616e742063616c6c00604082015260600190565b60208152600061364a6020830184613a79565b604051601f8201601f191681016001600160401b0381118282101715613c7557613c75613d34565b604052919050565b60006001600160401b03821115613c9657613c96613d34565b50601f01601f191660200190565b60008219821115613cb757613cb7613d1e565b500190565b600082821015613cce57613cce613d1e565b500390565b60005b83811015613cee578181015183820152602001613cd6565b83811115613cfd576000848401525b50505050565b6000600019821415613d1757613d17613d1e565b5060010190565b634e487b7160e01b600052601160045260246000fd5b634e487b7160e01b600052604160045260246000fdfea2646970667358221220e972cab19c25c0511982af6b9286e8f9c47c223b36cc8666380a96bb1e5a037a64736f6c63430008040033",
  "linkReferences": {},
  "deployedLinkReferences": {}
}