{
  "_format": "hh-sol-artifact-1",
  "contractName": "NFTMarketplace",
  "sourceName": "contracts/NFTMarketplace.sol",
  "abi": [
    {
      "inputs": [
        {
          "internalType": "address",
          "name": "_mToken",
          "type": "address"
        },
        {
          "internalType": "address",
          "name": "_nToken",
          "type": "address"
        }
      ],
      "stateMutability": "nonpayable",
      "type": "constructor"
    },
    {
      "anonymous": false,
      "inputs": [
        {
          "indexed": true,
          "internalType": "uint256",
          "name": "tokenId",
          "type": "uint256"
        },
        {
          "indexed": true,
          "internalType": "address",
          "name": "nftContract",
          "type": "address"
        },
        {
          "indexed": false,
          "internalType": "address",
          "name": "seller",
          "type": "address"
        },
        {
          "indexed": false,
          "internalType": "address",
          "name": "bidder",
          "type": "address"
        },
        {
          "indexed": false,
          "internalType": "uint256",
          "name": "balance",
          "type": "uint256"
        }
      ],
      "name": "BidderWithdraw",
      "type": "event"
    },
    {
      "anonymous": false,
      "inputs": [
        {
          "indexed": true,
          "internalType": "uint256",
          "name": "tokenId",
          "type": "uint256"
        },
        {
          "indexed": true,
          "internalType": "address",
          "name": "nftContract",
          "type": "address"
        },
        {
          "indexed": false,
          "internalType": "address",
          "name": "seller",
          "type": "address"
        },
        {
          "indexed": false,
          "internalType": "bool",
          "name": "isMultiToken",
          "type": "bool"
        },
        {
          "indexed": false,
          "internalType": "address",
          "name": "highestBidder",
          "type": "address"
        },
        {
          "indexed": false,
          "internalType": "uint256",
          "name": "highestBid",
          "type": "uint256"
        },
        {
          "indexed": false,
          "internalType": "uint256",
          "name": "endTime",
          "type": "uint256"
        }
      ],
      "name": "MarketItemAuctionEnded",
      "type": "event"
    },
    {
      "anonymous": false,
      "inputs": [
        {
          "indexed": true,
          "internalType": "uint256",
          "name": "tokenId",
          "type": "uint256"
        },
        {
          "indexed": true,
          "internalType": "address",
          "name": "nftContract",
          "type": "address"
        },
        {
          "indexed": false,
          "internalType": "address",
          "name": "seller",
          "type": "address"
        },
        {
          "indexed": false,
          "internalType": "bool",
          "name": "isMultiToken",
          "type": "bool"
        },
        {
          "indexed": false,
          "internalType": "uint256",
          "name": "startingPrice",
          "type": "uint256"
        },
        {
          "indexed": false,
          "internalType": "uint256",
          "name": "startTime",
          "type": "uint256"
        },
        {
          "indexed": false,
          "internalType": "uint256",
          "name": "endTime",
          "type": "uint256"
        }
      ],
      "name": "MarketItemAuctionListed",
      "type": "event"
    },
    {
      "anonymous": false,
      "inputs": [
        {
          "indexed": true,
          "internalType": "uint256",
          "name": "tokenId",
          "type": "uint256"
        },
        {
          "indexed": true,
          "internalType": "address",
          "name": "nftContract",
          "type": "address"
        },
        {
          "indexed": false,
          "internalType": "address",
          "name": "seller",
          "type": "address"
        },
        {
          "indexed": false,
          "internalType": "address",
          "name": "bidder",
          "type": "address"
        },
        {
          "indexed": false,
          "internalType": "uint256",
          "name": "bid",
          "type": "uint256"
        },
        {
          "indexed": false,
          "internalType": "uint256",
          "name": "bidTime",
          "type": "uint256"
        }
      ],
      "name": "MarketItemBidded",
      "type": "event"
    },
    {
      "anonymous": false,
      "inputs": [
        {
          "indexed": true,
          "internalType": "uint256",
          "name": "tokenId",
          "type": "uint256"
        },
        {
          "indexed": true,
          "internalType": "address",
          "name": "nftContract",
          "type": "address"
        },
        {
          "indexed": false,
          "internalType": "address",
          "name": "owner",
          "type": "address"
        },
        {
          "indexed": false,
          "internalType": "bool",
          "name": "isMultiToken",
          "type": "bool"
        },
        {
          "indexed": false,
          "internalType": "uint256",
          "name": "price",
          "type": "uint256"
        }
      ],
      "name": "MarketItemCancelListed",
      "type": "event"
    },
    {
      "anonymous": false,
      "inputs": [
        {
          "indexed": true,
          "internalType": "uint256",
          "name": "tokenId",
          "type": "uint256"
        },
        {
          "indexed": true,
          "internalType": "address",
          "name": "nftContract",
          "type": "address"
        },
        {
          "indexed": false,
          "internalType": "address",
          "name": "owner",
          "type": "address"
        },
        {
          "indexed": false,
          "internalType": "bool",
          "name": "isMultiToken",
          "type": "bool"
        }
      ],
      "name": "MarketItemCreated",
      "type": "event"
    },
    {
      "anonymous": false,
      "inputs": [
        {
          "indexed": true,
          "internalType": "uint256",
          "name": "tokenId",
          "type": "uint256"
        },
        {
          "indexed": true,
          "internalType": "address",
          "name": "nftContract",
          "type": "address"
        },
        {
          "indexed": false,
          "internalType": "address",
          "name": "owner",
          "type": "address"
        },
        {
          "indexed": false,
          "internalType": "bool",
          "name": "isMultiToken",
          "type": "bool"
        },
        {
          "indexed": false,
          "internalType": "uint256",
          "name": "price",
          "type": "uint256"
        }
      ],
      "name": "MarketItemListed",
      "type": "event"
    },
    {
      "anonymous": false,
      "inputs": [
        {
          "indexed": true,
          "internalType": "uint256",
          "name": "tokenId",
          "type": "uint256"
        },
        {
          "indexed": true,
          "internalType": "address",
          "name": "nftContract",
          "type": "address"
        },
        {
          "indexed": false,
          "internalType": "address",
          "name": "seller",
          "type": "address"
        },
        {
          "indexed": false,
          "internalType": "address",
          "name": "buyer",
          "type": "address"
        },
        {
          "indexed": false,
          "internalType": "uint256",
          "name": "price",
          "type": "uint256"
        }
      ],
      "name": "MarketItemSold",
      "type": "event"
    },
    {
      "inputs": [
        {
          "internalType": "uint256",
          "name": "tokenId",
          "type": "uint256"
        }
      ],
      "name": "bid",
      "outputs": [],
      "stateMutability": "payable",
      "type": "function"
    },
    {
      "inputs": [
        {
          "internalType": "uint256",
          "name": "tokenId",
          "type": "uint256"
        }
      ],
      "name": "cancelListingItem",
      "outputs": [],
      "stateMutability": "payable",
      "type": "function"
    },
    {
      "inputs": [
        {
          "internalType": "address",
          "name": "nftContract",
          "type": "address"
        },
        {
          "internalType": "string",
          "name": "tokenUri",
          "type": "string"
        },
        {
          "internalType": "bool",
          "name": "isMultiToken",
          "type": "bool"
        }
      ],
      "name": "createMarketItem",
      "outputs": [
        {
          "internalType": "uint256",
          "name": "",
          "type": "uint256"
        }
      ],
      "stateMutability": "payable",
      "type": "function"
    },
    {
      "inputs": [
        {
          "internalType": "uint256",
          "name": "tokenId",
          "type": "uint256"
        }
      ],
      "name": "createMarketSale",
      "outputs": [],
      "stateMutability": "payable",
      "type": "function"
    },
    {
      "inputs": [
        {
          "internalType": "uint256",
          "name": "tokenId",
          "type": "uint256"
        }
      ],
      "name": "endAuction",
      "outputs": [],
      "stateMutability": "payable",
      "type": "function"
    },
    {
      "inputs": [
        {
          "internalType": "uint256",
          "name": "cursor",
          "type": "uint256"
        },
        {
          "internalType": "uint256",
          "name": "howMany",
          "type": "uint256"
        }
      ],
      "name": "fetchAllNFTs",
      "outputs": [
        {
          "components": [
            {
              "internalType": "uint256",
              "name": "tokenId",
              "type": "uint256"
            },
            {
              "internalType": "address",
              "name": "nftContract",
              "type": "address"
            },
            {
              "internalType": "address payable",
              "name": "seller",
              "type": "address"
            },
            {
              "internalType": "address payable",
              "name": "owner",
              "type": "address"
            },
            {
              "internalType": "uint256",
              "name": "price",
              "type": "uint256"
            },
            {
              "internalType": "bool",
              "name": "sold",
              "type": "bool"
            },
            {
              "internalType": "bool",
              "name": "bidded",
              "type": "bool"
            },
            {
              "internalType": "bool",
              "name": "isMultiToken",
              "type": "bool"
            },
            {
              "components": [
                {
                  "internalType": "uint256",
                  "name": "startAt",
                  "type": "uint256"
                },
                {
                  "internalType": "uint256",
                  "name": "endAt",
                  "type": "uint256"
                },
                {
                  "internalType": "address",
                  "name": "highestBidder",
                  "type": "address"
                },
                {
                  "internalType": "uint256",
                  "name": "highestBid",
                  "type": "uint256"
                },
                {
                  "internalType": "uint256",
                  "name": "highestBidTime",
                  "type": "uint256"
                },
                {
                  "internalType": "uint256",
                  "name": "startingPrice",
                  "type": "uint256"
                },
                {
                  "components": [
                    {
                      "internalType": "address",
                      "name": "bidder",
                      "type": "address"
                    },
                    {
                      "internalType": "uint256",
                      "name": "bid",
                      "type": "uint256"
                    },
                    {
                      "internalType": "uint256",
                      "name": "bidTime",
                      "type": "uint256"
                    }
                  ],
                  "internalType": "struct NFTMarketplace.Bid[]",
                  "name": "bids",
                  "type": "tuple[]"
                }
              ],
              "internalType": "struct NFTMarketplace.AuctionInfo",
              "name": "auctionInfo",
              "type": "tuple"
            }
          ],
          "internalType": "struct NFTMarketplace.MarketItem[]",
          "name": "items",
          "type": "tuple[]"
        },
        {
          "internalType": "uint256",
          "name": "newCursor",
          "type": "uint256"
        }
      ],
      "stateMutability": "view",
      "type": "function"
    },
    {
      "inputs": [
        {
          "internalType": "uint256",
          "name": "_id",
          "type": "uint256"
        }
      ],
      "name": "fetchMarketItem",
      "outputs": [
        {
          "components": [
            {
              "internalType": "uint256",
              "name": "tokenId",
              "type": "uint256"
            },
            {
              "internalType": "address",
              "name": "nftContract",
              "type": "address"
            },
            {
              "internalType": "address payable",
              "name": "seller",
              "type": "address"
            },
            {
              "internalType": "address payable",
              "name": "owner",
              "type": "address"
            },
            {
              "internalType": "uint256",
              "name": "price",
              "type": "uint256"
            },
            {
              "internalType": "bool",
              "name": "sold",
              "type": "bool"
            },
            {
              "internalType": "bool",
              "name": "bidded",
              "type": "bool"
            },
            {
              "internalType": "bool",
              "name": "isMultiToken",
              "type": "bool"
            },
            {
              "components": [
                {
                  "internalType": "uint256",
                  "name": "startAt",
                  "type": "uint256"
                },
                {
                  "internalType": "uint256",
                  "name": "endAt",
                  "type": "uint256"
                },
                {
                  "internalType": "address",
                  "name": "highestBidder",
                  "type": "address"
                },
                {
                  "internalType": "uint256",
                  "name": "highestBid",
                  "type": "uint256"
                },
                {
                  "internalType": "uint256",
                  "name": "highestBidTime",
                  "type": "uint256"
                },
                {
                  "internalType": "uint256",
                  "name": "startingPrice",
                  "type": "uint256"
                },
                {
                  "components": [
                    {
                      "internalType": "address",
                      "name": "bidder",
                      "type": "address"
                    },
                    {
                      "internalType": "uint256",
                      "name": "bid",
                      "type": "uint256"
                    },
                    {
                      "internalType": "uint256",
                      "name": "bidTime",
                      "type": "uint256"
                    }
                  ],
                  "internalType": "struct NFTMarketplace.Bid[]",
                  "name": "bids",
                  "type": "tuple[]"
                }
              ],
              "internalType": "struct NFTMarketplace.AuctionInfo",
              "name": "auctionInfo",
              "type": "tuple"
            }
          ],
          "internalType": "struct NFTMarketplace.MarketItem",
          "name": "",
          "type": "tuple"
        }
      ],
      "stateMutability": "view",
      "type": "function"
    },
    {
      "inputs": [
        {
          "internalType": "uint256",
          "name": "_tokenId",
          "type": "uint256"
        }
      ],
      "name": "get1155TokenURI",
      "outputs": [
        {
          "internalType": "string",
          "name": "",
          "type": "string"
        }
      ],
      "stateMutability": "view",
      "type": "function"
    },
    {
      "inputs": [
        {
          "internalType": "uint256",
          "name": "_tokenId",
          "type": "uint256"
        }
      ],
      "name": "get721TokenURI",
      "outputs": [
        {
          "internalType": "string",
          "name": "",
          "type": "string"
        }
      ],
      "stateMutability": "view",
      "type": "function"
    },
    {
      "inputs": [],
      "name": "getListingPrice",
      "outputs": [
        {
          "internalType": "uint256",
          "name": "",
          "type": "uint256"
        }
      ],
      "stateMutability": "view",
      "type": "function"
    },
    {
      "inputs": [
        {
          "internalType": "uint256",
          "name": "tokenId",
          "type": "uint256"
        },
        {
          "internalType": "uint256",
          "name": "startTime",
          "type": "uint256"
        },
        {
          "internalType": "uint256",
          "name": "endTime",
          "type": "uint256"
        },
        {
          "internalType": "uint256",
          "name": "startingPrice",
          "type": "uint256"
        }
      ],
      "name": "listAuctionItem",
      "outputs": [
        {
          "internalType": "uint256",
          "name": "",
          "type": "uint256"
        }
      ],
      "stateMutability": "payable",
      "type": "function"
    },
    {
      "inputs": [
        {
          "internalType": "uint256",
          "name": "tokenId",
          "type": "uint256"
        },
        {
          "internalType": "uint256",
          "name": "price",
          "type": "uint256"
        }
      ],
      "name": "listMarketItem",
      "outputs": [
        {
          "internalType": "uint256",
          "name": "",
          "type": "uint256"
        }
      ],
      "stateMutability": "payable",
      "type": "function"
    },
    {
      "inputs": [
        {
          "internalType": "address",
          "name": "",
          "type": "address"
        },
        {
          "internalType": "address",
          "name": "",
          "type": "address"
        },
        {
          "internalType": "uint256[]",
          "name": "",
          "type": "uint256[]"
        },
        {
          "internalType": "uint256[]",
          "name": "",
          "type": "uint256[]"
        },
        {
          "internalType": "bytes",
          "name": "",
          "type": "bytes"
        }
      ],
      "name": "onERC1155BatchReceived",
      "outputs": [
        {
          "internalType": "bytes4",
          "name": "",
          "type": "bytes4"
        }
      ],
      "stateMutability": "nonpayable",
      "type": "function"
    },
    {
      "inputs": [
        {
          "internalType": "address",
          "name": "",
          "type": "address"
        },
        {
          "internalType": "address",
          "name": "",
          "type": "address"
        },
        {
          "internalType": "uint256",
          "name": "",
          "type": "uint256"
        },
        {
          "internalType": "uint256",
          "name": "",
          "type": "uint256"
        },
        {
          "internalType": "bytes",
          "name": "",
          "type": "bytes"
        }
      ],
      "name": "onERC1155Received",
      "outputs": [
        {
          "internalType": "bytes4",
          "name": "",
          "type": "bytes4"
        }
      ],
      "stateMutability": "nonpayable",
      "type": "function"
    },
    {
      "inputs": [
        {
          "internalType": "address",
          "name": "",
          "type": "address"
        },
        {
          "internalType": "address",
          "name": "",
          "type": "address"
        },
        {
          "internalType": "uint256",
          "name": "",
          "type": "uint256"
        },
        {
          "internalType": "bytes",
          "name": "",
          "type": "bytes"
        }
      ],
      "name": "onERC721Received",
      "outputs": [
        {
          "internalType": "bytes4",
          "name": "",
          "type": "bytes4"
        }
      ],
      "stateMutability": "nonpayable",
      "type": "function"
    },
    {
      "inputs": [
        {
          "internalType": "bytes4",
          "name": "interfaceId",
          "type": "bytes4"
        }
      ],
      "name": "supportsInterface",
      "outputs": [
        {
          "internalType": "bool",
          "name": "",
          "type": "bool"
        }
      ],
      "stateMutability": "view",
      "type": "function"
    },
    {
      "inputs": [
        {
          "internalType": "uint256",
          "name": "_listingPrice",
          "type": "uint256"
        }
      ],
      "name": "updateListingPrice",
      "outputs": [],
      "stateMutability": "payable",
      "type": "function"
    },
    {
      "inputs": [
        {
          "internalType": "uint256",
          "name": "tokenId",
          "type": "uint256"
        }
      ],
      "name": "withdrawBid",
      "outputs": [],
      "stateMutability": "payable",
      "type": "function"
    }
  ],
  "bytecode": "0x60806040526107086006556658d15e176280006007553480156200002257600080fd5b506040516200303838038062003038833981016040819052620000459162000162565b6001600055600380546001600160a01b038481166001600160a01b0319928316811790935560048054918516919092161781556040516303e96bf960e61b8152309181019190915263fa5afe4090602401600060405180830381600087803b158015620000b157600080fd5b505af1158015620000c6573d6000803e3d6000fd5b5050600480546040516303e96bf960e61b815230928101929092526001600160a01b0316925063fa5afe409150602401600060405180830381600087803b1580156200011157600080fd5b505af115801562000126573d6000803e3d6000fd5b5050600280546001600160a01b03191633179055506200019992505050565b80516001600160a01b03811681146200015d57600080fd5b919050565b6000806040838503121562000175578182fd5b620001808362000145565b9150620001906020840162000145565b90509250929050565b612e8f80620001a96000396000f3fe6080604052600436106101095760003560e01c8063454a2ab311610095578063b9a2de3a11610064578063b9a2de3a146102c2578063bc197c81146102d5578063be9af53614610301578063ca034f3a14610314578063f23a6e611461032757600080fd5b8063454a2ab3146102695780636eb22e111461027c578063821ef09d1461028f578063ae677aa3146102af57600080fd5b80631adc2576116100dc5780631adc2576146101bb57806325762e57146101e95780632796390c146102165780632a45b25014610229578063359e1a2c1461025657600080fd5b806301ffc9a71461010e5780630eaaf4c81461014357806312e8558514610158578063150b7a0214610177575b600080fd5b34801561011a57600080fd5b5061012e61012936600461292a565b610353565b60405190151581526020015b60405180910390f35b6101566101513660046129c5565b61038a565b005b34801561016457600080fd5b506007545b60405190815260200161013a565b34801561018357600080fd5b506101a26101923660046127ea565b630a85bd0160e11b949350505050565b6040516001600160e01b0319909116815260200161013a565b3480156101c757600080fd5b506101db6101d63660046129dd565b6106ca565b60405161013a929190612c45565b3480156101f557600080fd5b506102096102043660046129c5565b610947565b60405161013a9190612cad565b6101696102243660046129dd565b6109cb565b34801561023557600080fd5b506102496102443660046129c5565b610c9d565b60405161013a9190612d47565b6101696102643660046129fe565b610e15565b6101566102773660046129c5565b61123c565b61015661028a3660046129c5565b6115e5565b34801561029b57600080fd5b506102096102aa3660046129c5565b6118b1565b6101566102bd3660046129c5565b6118e3565b6101566102d03660046129c5565b61195b565b3480156102e157600080fd5b506101a26102f0366004612744565b63bc197c8160e01b95945050505050565b61015661030f3660046129c5565b611e02565b6101696103223660046128b3565b61210f565b34801561033357600080fd5b506101a2610342366004612850565b63f23a6e6160e01b95945050505050565b60006001600160e01b03198216630271189760e51b148061038457506301ffc9a760e01b6001600160e01b03198316145b92915050565b600260005414156103b65760405162461bcd60e51b81526004016103ad90612d10565b60405180910390fd5b6002600090815581815260056020526040812090805b600c8301548110156104b257600c83018054339190839081106103ff57634e487b7160e01b600052603260045260246000fd5b60009182526020909120600390910201546001600160a01b031614156104a057600c830180548290811061044357634e487b7160e01b600052603260045260246000fd5b906000526020600020906003020160010154826104609190612db3565b9150600083600601600601828154811061048a57634e487b7160e01b600052603260045260246000fd5b9060005260206000209060030201600101819055505b806104aa81612e12565b9150506103cc565b50600081116105035760405162461bcd60e51b815260206004820152601760248201527f596f7520686176656e277420626964646564207965742100000000000000000060448201526064016103ad565b604051339082156108fc029083906000818181858888f19350505050158015610530573d6000803e3d6000fd5b5060008381526005602081905260409091208354815560018085015490820180546001600160a01b03199081166001600160a01b03938416179091556002808701549084018054831691841691909117905560038087015490840180548316918416919091179055600480870154908401558386018054948401805460ff968716151560ff19821681178355835461010090819004891615150261ff001990911661ffff19909216919091171780825591546201000090819004909616151590950262ff000019909116179093556006808601805491840191825560078088015490850155600880880154908501805490961693169290921790935560098086015490830155600a8086015490830155600b8086015490830155600c808601805487959261066192908601916124bb565b5050505060018301546002840154604080516001600160a01b0392831681523360208201529081018590529116915084907f79d5728b594c308d9a5643e34a4c8aad57bd810a0fa84016d5949d7107bf189c906060015b60405180910390a35050600160005550565b60606000806106d860015490565b9050836106e58683612dcb565b8111156106f9576106f68683612dcb565b90505b60008167ffffffffffffffff81111561072257634e487b7160e01b600052604160045260246000fd5b60405190808252806020026020018201604052801561075b57816020015b61074861253d565b8152602001906001900390816107405790505b509050865b8281101561092d576000600581610778846001612db3565b8152602080820192909252604090810160009081208251610120810184528154815260018201546001600160a01b03908116828701526002830154811682860152600383015481166060808401919091526004840154608080850191909152600585015460ff808216151560a0808801919091526101008084048316151560c0808a019190915262010000909404909216151560e0808901919091528a519081018b52600689018054825260078a0154828e015260088a0154909716818c0152600989015495810195909552600a88015493850193909352600b87015492840192909252600c860180548951818c0281018c01909a52808a52969a5094988a98928a0197939694959187019492939192919084015b828210156108e2576000848152602090819020604080516060810182526003860290920180546001600160a01b031683526001808201548486015260029091015491830191909152908352909201910161088d565b50505050815250508152505083838151811061090e57634e487b7160e01b600052603260045260246000fd5b602002602001018190525050808061092590612e12565b915050610760565b50806109398389612db3565b945094505050509250929050565b60048054604051638ad9134560e01b81529182018390526060916001600160a01b0390911690638ad91345906024015b60006040518083038186803b15801561098f57600080fd5b505afa1580156109a3573d6000803e3d6000fd5b505050506040513d6000823e601f3d908101601f191682016040526103849190810190612952565b60006007543410156109ef5760405162461bcd60e51b81526004016103ad90612cc0565b60008211610a3f5760405162461bcd60e51b815260206004820152601c60248201527f5072696365206d757374206265206174206c656173742031207765690000000060448201526064016103ad565b600083815260056020526040902060038101546001600160a01b03163314610aa95760405162461bcd60e51b815260206004820152601960248201527f4f6e6c79206f776e65722063616e206c697374206974656d210000000000000060448201526064016103ad565b60048082018481556005808401805460ff199081168255600280870180546001600160a01b0319908116331782556003808a01805483163017815560008e81526020899052604090208b5481556001808d0154908201805486166001600160a01b039283161790559454958101805485169686169690961790955554908401805483169184169190911790559554968201969096558254938101805460ff958616151593811684178255845461010090819004871615150261ff001990941661ffff19909116179290921780835592546201000090819004909416151590930262ff0000199092169190911790556006808501805491830191825560078087015490840155600880870154908401805490951695169490941790925560098085015490820155600a8085015490820155600b8085015490820155600c80850180548695939492610bfc92908601916124bb565b5050505060018201546005830154610c2d92503391309188916001600160a01b03169062010000900460ff166122d8565b600181015460038201546005830154604080516001600160a01b0393841681526201000090920460ff1615156020830152810186905291169085907f31b463dc211ba8d71de85d00fe324011853b81e134abc9b82ea212c3fa1f9a459060600160405180910390a3509192915050565b610ca561253d565b60008281526005602081815260408084208151610120810183528154815260018201546001600160a01b039081168286015260028301548116828501526003830154811660608084019190915260048401546080808501919091529684015460ff808216151560a0808701919091526101008084048316151560c08089019190915262010000909404909216151560e0808801919091528851908101895260068801805482526007890154828c01526008890154909616818a0152600988015494810194909452600a87015499840199909952600b86015498830198909852600c850180548751818a0281018a01909852808852949995988a01979296939591870194909290919084015b82821015610e05576000848152602090819020604080516060810182526003860290920180546001600160a01b0316835260018082015484860152600290910154918301919091529083529092019101610db0565b5050509152505090525092915050565b6000600754341015610e395760405162461bcd60e51b81526004016103ad90612cc0565b600085815260056020526040902082610ea05760405162461bcd60e51b8152602060048201526024808201527f5374617274696e67207072696365206d757374206265206c61726765722074686044820152630616e20360e41b60648201526084016103ad565b60038101546001600160a01b03163314610ef55760405162461bcd60e51b815260206004820152601660248201527527b7363c9037bbb732b91031b0b71030bab1ba34b7b760511b60448201526064016103ad565b600581015460ff168015610f1257506005810154610100900460ff165b610f4f5760405162461bcd60e51b815260206004820152600e60248201526d4e4654206973206f6e2073616c6560901b60448201526064016103ad565b834210610f875760405162461bcd60e51b8152602060048201526006602482015265456e6465642160d01b60448201526064016103ad565b600654610f948686612dcb565b11610ffa5760405162461bcd60e51b815260206004820152603060248201527f5468652061756374696f6e2074696d65206d757374206265206c6f6e6765722060448201526f7468616e203330206d696e757465732160801b60648201526084016103ad565b60068101859055600781018490556000600982018190556008820180546001600160a01b0319169055600a8201819055600b820184905561103f90600c8301906125f0565b6005808201805461ff00199081168255600280850180546001600160a01b0319908116331782556003808801805483163017815560008e8152602089905260409020895481556001808b0154908201805486166001600160a01b03928316179055945495810180548516968616969096179095555490840180548316918416919091179055600480880154908401558454958301805460ff978816151560ff198216811783558754610100908190048a16151502961661ffff19909116179490941780855594546201000090819004909616151590950262ff000019909416939093179091556006808501805491830191825560078087015490840155600880870154908401805490961694169390931790935560098085015490820155600a8085015490820155600b8085015490820155600c808501805486959394939261118b92908601916124bb565b50505050600182015460058301546111bc9250339130918a916001600160a01b03169062010000900460ff166122d8565b600181015460028201546005830154604080516001600160a01b0393841681526201000090920460ff16151560208301528101869052606081018890526080810187905291169087907f75b0cfc9c9950e18b8591f8b42e62d98434f7a4f41d479a90133cb251e1b96f19060a00160405180910390a35093949350505050565b600081815260056020526040902060028101546001600160a01b03163314156112a75760405162461bcd60e51b815260206004820152601760248201527f596f752063616e27742062696420796f7572206974656d00000000000000000060448201526064016103ad565b6005810154610100900460ff16156112f65760405162461bcd60e51b81526020600482015260126024820152714974656d2069736e27742062696464696e6760701b60448201526064016103ad565b60068101544211801561130c5750600781015442105b61134d5760405162461bcd60e51b81526020600482015260126024820152714e6f7420696e2062696420706572696f642160701b60448201526064016103ad565b600981015434116113a05760405162461bcd60e51b815260206004820181905260248201527f4d7573742062696420686967686572207468652068696768657374206269642160448201526064016103ad565b60088101546001600160a01b03161561142e576040805160608101825260088301546001600160a01b03908116825260098401546020808401918252600a860154948401948552600c86018054600180820183556000928352929091209451600390910290940180546001600160a01b03191694909316939093178255519181019190915590516002909101555b346009808301918255600880840180546001600160a01b03199081163317825542600a8088019182556000898152600560208190526040909120895481556001808b0154908201805487166001600160a01b039283161790556002808c0154908301805488169183169190911790556003808c0154908301805488169183169190911790556004808c015490830155828b018054938301805460ff958616151560ff19821681178355835461010090819004881615150261ff001990911661ffff19909216919091171780825591546201000090819004909516151590940262ff000019909116179092556006808b0180549183019182556007808d015490840155965497820180549096169790921696909617909355955494840194909455925493820193909355600b8085015490820155600c8085018054869593949261157a92908601916124bb565b5050505060018201546002830154604080516001600160a01b03928316815233602082015234918101919091524260608201529116915083907f34f367c117714cf7e9fff4df15a4799e49ad2785e267d0ce4aae7a045d471f30906080015b60405180910390a35050565b600081815260056020526040902060028101546001600160a01b0316331461164f5760405162461bcd60e51b815260206004820152601f60248201527f4f6e6c792073656c6c65722063616e2063616e63656c206c697374696e67210060448201526064016103ad565b600581015460ff16158061166d57506005810154610100900460ff16155b6116c55760405162461bcd60e51b8152602060048201526024808201527f4f6e6c79206c6973746564206974656d2063616e2063616e63656c206c697374604482015263696e672160e01b60648201526084016103ad565b6005808201805461010161ffff19918216178255600380850180546001600160a01b031990811633178255600280880180548316815560008a81526020899052604090208954815560018a810154908201805486166001600160a01b039283161790559154928101805485169383169390931790925592549381018054831694841694909417909355600480880154908401558454958301805460ff978816151560ff198216811783558754610100908190048a1615150261ff00199190911691909616179490941780855594546201000090819004909616151590950262ff000019909416939093179091556006808501805491830191825560078087015490840155600880870154908401805490961694169390931790935560098085015490820155600a8085015490820155600b8085015490820155600c808501805486959394939261181892908601916124bb565b505050506001820154600583015461184992503091339186916001600160a01b03169062010000900460ff166122d8565b6001810154600382015460058301546004840154604080516001600160a01b0394851681526201000090930460ff161515602084015282015291169083907f769a2f215ef24b6515bca3c5f2993d943ce052a9c9deb2fcc5c81a399a0e931c906060016115d9565b600354604051633bb3a24d60e01b8152600481018390526060916001600160a01b031690633bb3a24d90602401610977565b6002546001600160a01b031633146119565760405162461bcd60e51b815260206004820152603060248201527f4f6e6c79206d61726b6574706c616365206f776e65722063616e20757064617460448201526f32903634b9ba34b73390383934b1b29760811b60648201526084016103ad565b600755565b6002600054141561197e5760405162461bcd60e51b81526004016103ad90612d10565b6002600090815581815260056020526040902060078101544210156119e55760405162461bcd60e51b815260206004820152601960248201527f41756374696f6e206973207374696c6c206f6e676f696e67210000000000000060448201526064016103ad565b6005810154610100900460ff1615611a385760405162461bcd60e51b815260206004820152601660248201527541756374696f6e20616c726561647920656e6465642160501b60448201526064016103ad565b600281015460088201546001600160a01b03918216911615611bf05760005b600c830154811015611b5e576000836006016006018281548110611a8b57634e487b7160e01b600052603260045260246000fd5b9060005260206000209060030201600101541115611b4c57600c8301805482908110611ac757634e487b7160e01b600052603260045260246000fd5b6000918252602090912060039091020154600c840180546001600160a01b03909216916108fc919084908110611b0d57634e487b7160e01b600052603260045260246000fd5b9060005260206000209060030201600101549081150290604051600060405180830381858888f19350505050158015611b4a573d6000803e3d6000fd5b505b80611b5681612e12565b915050611a57565b50600282015460098301546040516001600160a01b039092169181156108fc0291906000818181858888f19350505050158015611b9f573d6000803e3d6000fd5b5060088201546003830180546001600160a01b0319166001600160a01b0392831690811790915560018401546005850154611beb93309392889291169060ff62010000909104166122d8565b611c43565b600282015460018301546005840154611c259230926001600160a01b039182169288929091169062010000900460ff166122d8565b6003820180546001600160a01b0319166001600160a01b0383161790555b600280830180546001600160a01b031990811682556005808601805461ff0019908116610100908117835560008a8152602085905260409020895481556001808b0154908201805488166001600160a01b03928316179055965497810180548716988816989098179097556003808a0154908801805487169188169190911790556004808a0154908801558254938701805460ff958616151560ff198216811783558554849004871615159093029290931661ffff19909316929092171780825591546201000090819004909316151590920262ff0000199091161790556006808601805491850191825560078088015490860155600880880154908601805490941694169390931790915560098086015490840155600a8086015490840155600b8086015490840155600c80860180548795949392611d8692908601916124bb565b505050506001830154600584015460088501546009860154604080516001600160a01b0388811682526201000090950460ff16151560208201529284169083015260608201524260808201529116915084907fa21625bacd9a53a22f3eda0f00281d2db3d918b022e003de1b8ec1dbf3551b319060a0016106b8565b60026000541415611e255760405162461bcd60e51b81526004016103ad90612d10565b6002600081815582815260056020819052604090912091820154908201546001600160a01b039091169060ff1615611e945760405162461bcd60e51b81526020600482015260126024820152714974656d2069736e2774206f6e2073616c6560701b60448201526064016103ad565b81600401543414611efc5760405162461bcd60e51b815260206004820152602c60248201527f4275796572206d757374207472617366657220457468657220657175616c205060448201526b72696365206f66204974656d60a01b60648201526084016103ad565b60028201546040516001600160a01b03909116903480156108fc02916000818181858888f19350505050158015611f37573d6000803e3d6000fd5b50600380830180546001600160a01b03199081163317825560028086018054831681556005808801805460ff199081166001908117835560008c81526020859052604090208b548155818c0154918101805489166001600160a01b039384161790559454958501805488169682169690961790955595549683018054861697851697909717909655600480890154908301558554908201805460ff928316151596811687178255875461010090819004841615150261ff001990971661ffff1990911617959095178086559554620100009081900490911615150262ff000019909516949094179092556006808601805491850191825560078088015490860155600880880154908601805490941694169390931790915560098086015490840155600a8086015490840155600b8086015490840155600c8086018054879594939261208692908601916124bb565b50505050600183015460058401546120b792503091339187916001600160a01b03169062010000900460ff166122d8565b60018201546004830154604080516001600160a01b038581168252336020830152918101929092529091169084907fd3bd3ff48ce3a8bb23194a87b735e828ab1668173da85bff87a6000c0408512a906060016106b8565b600061211f600180546001019055565b600061212a60015490565b905082156121435761213e816001866123df565b61218a565b61218a8185604051806040016040528060088152602001672aa4aa2a37b5b2b760c11b8152506040518060400160405280600381526020016215525560ea1b81525061244c565b60008181526005602081905260409091208281556001810180546001600160a01b03808a166001600160a01b031992831617909255600283018054821690556003830180549484018054338085169785169790971790961790915562010000610100891515820262ffffff19909716969096176101011760ff818116151560ff19831681178990048216151590980261ff00199890981661ffff1992909216919091179690961781810490961615150262ff00001995909516949094179093556008820180549384169390911692909217909155600c81018054829182916006830191829161227b919081906124bb565b505050506003820154604080516001600160a01b0392831681528715156020820152918916925084917fac1bd62278cac1e3927d9af6d75c2a00c32db78ed0bb3a721d009050f786b7e8910160405180910390a350949350505050565b801561236d57604051637921219560e11b81526001600160a01b0386811660048301528581166024830152604482018590526001606483015260a06084830152600260a4830152615b5d60f01b60c483015283169063f242432a9060e401600060405180830381600087803b15801561235057600080fd5b505af1158015612364573d6000803e3d6000fd5b505050506123d8565b6040516323b872dd60e01b81526001600160a01b0386811660048301528581166024830152604482018590528316906323b872dd90606401600060405180830381600087803b1580156123bf57600080fd5b505af11580156123d3573d6000803e3d6000fd5b505050505b5050505050565b6003546040516332ad158d60e11b81526001600160a01b039091169063655a2b1a90612415903390879087908790600401612c18565b600060405180830381600087803b15801561242f57600080fd5b505af1158015612443573d6000803e3d6000fd5b50505050505050565b6004805460405163257d89db60e01b81526001600160a01b039091169163257d89db91612483913391899189918991899101612bbf565b600060405180830381600087803b15801561249d57600080fd5b505af11580156124b1573d6000803e3d6000fd5b5050505050505050565b82805482825590600052602060002090600302810192821561252d5760005260206000209160030282015b8281111561252d57825482546001600160a01b0319166001600160a01b039091161782556001808401549083015560028084015490830155600392830192909101906124e6565b50612539929150612614565b5090565b6040518061012001604052806000815260200160006001600160a01b0316815260200160006001600160a01b0316815260200160006001600160a01b03168152602001600081526020016000151581526020016000151581526020016000151581526020016125eb6040518060e00160405280600081526020016000815260200160006001600160a01b03168152602001600081526020016000815260200160008152602001606081525090565b905290565b50805460008255600302906000526020600020908101906126119190612614565b50565b5b808211156125395780546001600160a01b03191681556000600182018190556002820155600301612615565b600061265461264f84612d8b565b612d5a565b905082815283838301111561266857600080fd5b828260208301376000602084830101529392505050565b80356001600160a01b038116811461269657600080fd5b919050565b600082601f8301126126ab578081fd5b8135602067ffffffffffffffff8211156126c7576126c7612e43565b8160051b6126d6828201612d5a565b8381528281019086840183880185018910156126f0578687fd5b8693505b858410156127125780358352600193909301929184019184016126f4565b50979650505050505050565b600082601f83011261272e578081fd5b61273d83833560208501612641565b9392505050565b600080600080600060a0868803121561275b578081fd5b6127648661267f565b94506127726020870161267f565b9350604086013567ffffffffffffffff8082111561278e578283fd5b61279a89838a0161269b565b945060608801359150808211156127af578283fd5b6127bb89838a0161269b565b935060808801359150808211156127d0578283fd5b506127dd8882890161271e565b9150509295509295909350565b600080600080608085870312156127ff578384fd5b6128088561267f565b93506128166020860161267f565b925060408501359150606085013567ffffffffffffffff811115612838578182fd5b6128448782880161271e565b91505092959194509250565b600080600080600060a08688031215612867578081fd5b6128708661267f565b945061287e6020870161267f565b93506040860135925060608601359150608086013567ffffffffffffffff8111156128a7578182fd5b6127dd8882890161271e565b6000806000606084860312156128c7578283fd5b6128d08461267f565b9250602084013567ffffffffffffffff8111156128eb578283fd5b8401601f810186136128fb578283fd5b61290a86823560208401612641565b9250506040840135801515811461291f578182fd5b809150509250925092565b60006020828403121561293b578081fd5b81356001600160e01b03198116811461273d578182fd5b600060208284031215612963578081fd5b815167ffffffffffffffff811115612979578182fd5b8201601f81018413612989578182fd5b805161299761264f82612d8b565b8181528560208385010111156129ab578384fd5b6129bc826020830160208601612de2565b95945050505050565b6000602082840312156129d6578081fd5b5035919050565b600080604083850312156129ef578182fd5b50508035926020909101359150565b60008060008060808587031215612a13578182fd5b5050823594602084013594506040840135936060013592509050565b60008151808452612a47816020860160208601612de2565b601f01601f19169290920160200192915050565b600060e08301825184526020808401518186015260408085015160018060a01b03808216838901526060915081870151828901526080870151608089015260a087015160a089015260c087015160e060c08a01528581518088526101008b01915086830197508892505b80831015612af8578751805185168352878101518884015286015186830152968601966001929092019190840190612ac5565b509998505050505050505050565b60006101208251845260018060a01b0360208401511660208501526040830151612b3b60408601826001600160a01b03169052565b506060830151612b5660608601826001600160a01b03169052565b506080830151608085015260a0830151612b7460a086018215159052565b5060c0830151612b8860c086018215159052565b5060e0830151612b9c60e086018215159052565b50610100808401518282870152612bb583870182612a5b565b9695505050505050565b60018060a01b038616815284602082015260a060408201526000612be660a0830186612a2f565b8281036060840152612bf88186612a2f565b90508281036080840152612c0c8185612a2f565b98975050505050505050565b60018060a01b0385168152836020820152826040820152608060608201526000612bb56080830184612a2f565b6000604082016040835280855180835260608501915060608160051b86010192506020808801855b83811015612c9b57605f19888703018552612c89868351612b06565b95509382019390820190600101612c6d565b50509490940194909452949350505050565b60208152600061273d6020830184612a2f565b60208082526030908201527f5072696365206d75737420626520657175616c206f722068696768657220746860408201526f616e206c697374696e6720707269636560801b606082015260800190565b6020808252601f908201527f5265656e7472616e637947756172643a207265656e7472616e742063616c6c00604082015260600190565b60208152600061273d6020830184612b06565b604051601f8201601f1916810167ffffffffffffffff81118282101715612d8357612d83612e43565b604052919050565b600067ffffffffffffffff821115612da557612da5612e43565b50601f01601f191660200190565b60008219821115612dc657612dc6612e2d565b500190565b600082821015612ddd57612ddd612e2d565b500390565b60005b83811015612dfd578181015183820152602001612de5565b83811115612e0c576000848401525b50505050565b6000600019821415612e2657612e26612e2d565b5060010190565b634e487b7160e01b600052601160045260246000fd5b634e487b7160e01b600052604160045260246000fdfea2646970667358221220eebad74bb6b8396975b07e1589b0ac511b3b4bc1d1bfb96923680a380918fdf664736f6c63430008040033",
  "linkReferences": {},
  "deployedLinkReferences": {}
}