{
  "_format": "hh-sol-artifact-1",
  "contractName": "NFTMarketplace",
  "sourceName": "contracts/NFTMarketplace.sol",
  "abi": [
    {
      "inputs": [
        {
          "internalType": "address",
          "name": "_mToken",
          "type": "address"
        },
        {
          "internalType": "address",
          "name": "_nToken",
          "type": "address"
        }
      ],
      "stateMutability": "nonpayable",
      "type": "constructor"
    },
    {
      "anonymous": false,
      "inputs": [
        {
          "indexed": true,
          "internalType": "uint256",
          "name": "tokenId",
          "type": "uint256"
        },
        {
          "indexed": true,
          "internalType": "address",
          "name": "nftContract",
          "type": "address"
        },
        {
          "indexed": false,
          "internalType": "address",
          "name": "seller",
          "type": "address"
        },
        {
          "indexed": false,
          "internalType": "address",
          "name": "bidder",
          "type": "address"
        },
        {
          "indexed": false,
          "internalType": "uint256",
          "name": "balance",
          "type": "uint256"
        }
      ],
      "name": "BidderWithdraw",
      "type": "event"
    },
    {
      "anonymous": false,
      "inputs": [
        {
          "indexed": true,
          "internalType": "uint256",
          "name": "tokenId",
          "type": "uint256"
        },
        {
          "indexed": true,
          "internalType": "address",
          "name": "nftContract",
          "type": "address"
        },
        {
          "indexed": false,
          "internalType": "address",
          "name": "seller",
          "type": "address"
        },
        {
          "indexed": false,
          "internalType": "bool",
          "name": "isMultiToken",
          "type": "bool"
        },
        {
          "indexed": false,
          "internalType": "address",
          "name": "highestBidder",
          "type": "address"
        },
        {
          "indexed": false,
          "internalType": "uint256",
          "name": "highestBid",
          "type": "uint256"
        },
        {
          "indexed": false,
          "internalType": "uint256",
          "name": "endTime",
          "type": "uint256"
        }
      ],
      "name": "MarketItemAuctionEnded",
      "type": "event"
    },
    {
      "anonymous": false,
      "inputs": [
        {
          "indexed": true,
          "internalType": "uint256",
          "name": "tokenId",
          "type": "uint256"
        },
        {
          "indexed": true,
          "internalType": "address",
          "name": "nftContract",
          "type": "address"
        },
        {
          "indexed": false,
          "internalType": "address",
          "name": "seller",
          "type": "address"
        },
        {
          "indexed": false,
          "internalType": "bool",
          "name": "isMultiToken",
          "type": "bool"
        },
        {
          "indexed": false,
          "internalType": "uint256",
          "name": "startingPrice",
          "type": "uint256"
        },
        {
          "indexed": false,
          "internalType": "uint256",
          "name": "startTime",
          "type": "uint256"
        },
        {
          "indexed": false,
          "internalType": "uint256",
          "name": "endTime",
          "type": "uint256"
        }
      ],
      "name": "MarketItemAuctionListed",
      "type": "event"
    },
    {
      "anonymous": false,
      "inputs": [
        {
          "indexed": true,
          "internalType": "uint256",
          "name": "tokenId",
          "type": "uint256"
        },
        {
          "indexed": true,
          "internalType": "address",
          "name": "nftContract",
          "type": "address"
        },
        {
          "indexed": false,
          "internalType": "address",
          "name": "seller",
          "type": "address"
        },
        {
          "indexed": false,
          "internalType": "address",
          "name": "bidder",
          "type": "address"
        },
        {
          "indexed": false,
          "internalType": "uint256",
          "name": "bid",
          "type": "uint256"
        },
        {
          "indexed": false,
          "internalType": "uint256",
          "name": "bidTime",
          "type": "uint256"
        }
      ],
      "name": "MarketItemBidded",
      "type": "event"
    },
    {
      "anonymous": false,
      "inputs": [
        {
          "indexed": true,
          "internalType": "uint256",
          "name": "tokenId",
          "type": "uint256"
        },
        {
          "indexed": true,
          "internalType": "address",
          "name": "nftContract",
          "type": "address"
        },
        {
          "indexed": false,
          "internalType": "address",
          "name": "owner",
          "type": "address"
        },
        {
          "indexed": false,
          "internalType": "bool",
          "name": "isMultiToken",
          "type": "bool"
        },
        {
          "indexed": false,
          "internalType": "uint256",
          "name": "price",
          "type": "uint256"
        }
      ],
      "name": "MarketItemCancelListed",
      "type": "event"
    },
    {
      "anonymous": false,
      "inputs": [
        {
          "indexed": true,
          "internalType": "uint256",
          "name": "tokenId",
          "type": "uint256"
        },
        {
          "indexed": true,
          "internalType": "address",
          "name": "nftContract",
          "type": "address"
        },
        {
          "indexed": false,
          "internalType": "address",
          "name": "owner",
          "type": "address"
        },
        {
          "indexed": false,
          "internalType": "bool",
          "name": "isMultiToken",
          "type": "bool"
        }
      ],
      "name": "MarketItemCreated",
      "type": "event"
    },
    {
      "anonymous": false,
      "inputs": [
        {
          "indexed": true,
          "internalType": "uint256",
          "name": "tokenId",
          "type": "uint256"
        },
        {
          "indexed": true,
          "internalType": "address",
          "name": "nftContract",
          "type": "address"
        },
        {
          "indexed": false,
          "internalType": "address",
          "name": "owner",
          "type": "address"
        },
        {
          "indexed": false,
          "internalType": "bool",
          "name": "isMultiToken",
          "type": "bool"
        },
        {
          "indexed": false,
          "internalType": "uint256",
          "name": "price",
          "type": "uint256"
        }
      ],
      "name": "MarketItemListed",
      "type": "event"
    },
    {
      "anonymous": false,
      "inputs": [
        {
          "indexed": true,
          "internalType": "uint256",
          "name": "tokenId",
          "type": "uint256"
        },
        {
          "indexed": true,
          "internalType": "address",
          "name": "nftContract",
          "type": "address"
        },
        {
          "indexed": false,
          "internalType": "address",
          "name": "seller",
          "type": "address"
        },
        {
          "indexed": false,
          "internalType": "address",
          "name": "buyer",
          "type": "address"
        },
        {
          "indexed": false,
          "internalType": "uint256",
          "name": "price",
          "type": "uint256"
        }
      ],
      "name": "MarketItemSold",
      "type": "event"
    },
    {
      "inputs": [
        {
          "internalType": "uint256",
          "name": "tokenId",
          "type": "uint256"
        }
      ],
      "name": "bid",
      "outputs": [],
      "stateMutability": "payable",
      "type": "function"
    },
    {
      "inputs": [
        {
          "internalType": "uint256",
          "name": "tokenId",
          "type": "uint256"
        }
      ],
      "name": "cancelListingItem",
      "outputs": [],
      "stateMutability": "payable",
      "type": "function"
    },
    {
      "inputs": [
        {
          "internalType": "address",
          "name": "nftContract",
          "type": "address"
        },
        {
          "internalType": "string",
          "name": "tokenUri",
          "type": "string"
        },
        {
          "internalType": "bool",
          "name": "isMultiToken",
          "type": "bool"
        }
      ],
      "name": "createMarketItem",
      "outputs": [],
      "stateMutability": "payable",
      "type": "function"
    },
    {
      "inputs": [
        {
          "internalType": "uint256",
          "name": "tokenId",
          "type": "uint256"
        }
      ],
      "name": "createMarketSale",
      "outputs": [],
      "stateMutability": "payable",
      "type": "function"
    },
    {
      "inputs": [
        {
          "internalType": "uint256",
          "name": "tokenId",
          "type": "uint256"
        }
      ],
      "name": "endAuction",
      "outputs": [],
      "stateMutability": "payable",
      "type": "function"
    },
    {
      "inputs": [
        {
          "internalType": "uint256",
          "name": "cursor",
          "type": "uint256"
        },
        {
          "internalType": "uint256",
          "name": "howMany",
          "type": "uint256"
        }
      ],
      "name": "fetchAllNFTs",
      "outputs": [
        {
          "components": [
            {
              "internalType": "uint256",
              "name": "tokenId",
              "type": "uint256"
            },
            {
              "internalType": "address",
              "name": "nftContract",
              "type": "address"
            },
            {
              "internalType": "address payable",
              "name": "seller",
              "type": "address"
            },
            {
              "internalType": "address payable",
              "name": "owner",
              "type": "address"
            },
            {
              "internalType": "uint256",
              "name": "price",
              "type": "uint256"
            },
            {
              "internalType": "bool",
              "name": "sold",
              "type": "bool"
            },
            {
              "internalType": "bool",
              "name": "bidded",
              "type": "bool"
            },
            {
              "internalType": "bool",
              "name": "isMultiToken",
              "type": "bool"
            },
            {
              "components": [
                {
                  "internalType": "uint256",
                  "name": "startAt",
                  "type": "uint256"
                },
                {
                  "internalType": "uint256",
                  "name": "endAt",
                  "type": "uint256"
                },
                {
                  "internalType": "address",
                  "name": "highestBidder",
                  "type": "address"
                },
                {
                  "internalType": "uint256",
                  "name": "highestBid",
                  "type": "uint256"
                },
                {
                  "internalType": "uint256",
                  "name": "highestBidTime",
                  "type": "uint256"
                },
                {
                  "internalType": "uint256",
                  "name": "startingPrice",
                  "type": "uint256"
                },
                {
                  "components": [
                    {
                      "internalType": "address",
                      "name": "bidder",
                      "type": "address"
                    },
                    {
                      "internalType": "uint256",
                      "name": "bid",
                      "type": "uint256"
                    },
                    {
                      "internalType": "uint256",
                      "name": "bidTime",
                      "type": "uint256"
                    }
                  ],
                  "internalType": "struct NFTMarketplace.Bid[]",
                  "name": "bids",
                  "type": "tuple[]"
                }
              ],
              "internalType": "struct NFTMarketplace.AuctionInfo",
              "name": "auctionInfo",
              "type": "tuple"
            }
          ],
          "internalType": "struct NFTMarketplace.MarketItem[]",
          "name": "items",
          "type": "tuple[]"
        },
        {
          "internalType": "uint256",
          "name": "newCursor",
          "type": "uint256"
        },
        {
          "internalType": "uint256",
          "name": "totalItemCount",
          "type": "uint256"
        }
      ],
      "stateMutability": "view",
      "type": "function"
    },
    {
      "inputs": [
        {
          "internalType": "uint256",
          "name": "_id",
          "type": "uint256"
        }
      ],
      "name": "fetchMarketItem",
      "outputs": [
        {
          "components": [
            {
              "internalType": "uint256",
              "name": "tokenId",
              "type": "uint256"
            },
            {
              "internalType": "address",
              "name": "nftContract",
              "type": "address"
            },
            {
              "internalType": "address payable",
              "name": "seller",
              "type": "address"
            },
            {
              "internalType": "address payable",
              "name": "owner",
              "type": "address"
            },
            {
              "internalType": "uint256",
              "name": "price",
              "type": "uint256"
            },
            {
              "internalType": "bool",
              "name": "sold",
              "type": "bool"
            },
            {
              "internalType": "bool",
              "name": "bidded",
              "type": "bool"
            },
            {
              "internalType": "bool",
              "name": "isMultiToken",
              "type": "bool"
            },
            {
              "components": [
                {
                  "internalType": "uint256",
                  "name": "startAt",
                  "type": "uint256"
                },
                {
                  "internalType": "uint256",
                  "name": "endAt",
                  "type": "uint256"
                },
                {
                  "internalType": "address",
                  "name": "highestBidder",
                  "type": "address"
                },
                {
                  "internalType": "uint256",
                  "name": "highestBid",
                  "type": "uint256"
                },
                {
                  "internalType": "uint256",
                  "name": "highestBidTime",
                  "type": "uint256"
                },
                {
                  "internalType": "uint256",
                  "name": "startingPrice",
                  "type": "uint256"
                },
                {
                  "components": [
                    {
                      "internalType": "address",
                      "name": "bidder",
                      "type": "address"
                    },
                    {
                      "internalType": "uint256",
                      "name": "bid",
                      "type": "uint256"
                    },
                    {
                      "internalType": "uint256",
                      "name": "bidTime",
                      "type": "uint256"
                    }
                  ],
                  "internalType": "struct NFTMarketplace.Bid[]",
                  "name": "bids",
                  "type": "tuple[]"
                }
              ],
              "internalType": "struct NFTMarketplace.AuctionInfo",
              "name": "auctionInfo",
              "type": "tuple"
            }
          ],
          "internalType": "struct NFTMarketplace.MarketItem",
          "name": "",
          "type": "tuple"
        }
      ],
      "stateMutability": "view",
      "type": "function"
    },
    {
      "inputs": [
        {
          "internalType": "uint256",
          "name": "_tokenId",
          "type": "uint256"
        }
      ],
      "name": "get1155TokenURI",
      "outputs": [
        {
          "internalType": "string",
          "name": "",
          "type": "string"
        }
      ],
      "stateMutability": "view",
      "type": "function"
    },
    {
      "inputs": [
        {
          "internalType": "uint256",
          "name": "_tokenId",
          "type": "uint256"
        }
      ],
      "name": "get721TokenURI",
      "outputs": [
        {
          "internalType": "string",
          "name": "",
          "type": "string"
        }
      ],
      "stateMutability": "view",
      "type": "function"
    },
    {
      "inputs": [],
      "name": "getListingPrice",
      "outputs": [
        {
          "internalType": "uint256",
          "name": "",
          "type": "uint256"
        }
      ],
      "stateMutability": "view",
      "type": "function"
    },
    {
      "inputs": [
        {
          "internalType": "uint256",
          "name": "tokenId",
          "type": "uint256"
        },
        {
          "internalType": "uint256",
          "name": "startTime",
          "type": "uint256"
        },
        {
          "internalType": "uint256",
          "name": "endTime",
          "type": "uint256"
        },
        {
          "internalType": "uint256",
          "name": "startingPrice",
          "type": "uint256"
        }
      ],
      "name": "listAuctionItem",
      "outputs": [],
      "stateMutability": "payable",
      "type": "function"
    },
    {
      "inputs": [
        {
          "internalType": "uint256",
          "name": "tokenId",
          "type": "uint256"
        },
        {
          "internalType": "uint256",
          "name": "price",
          "type": "uint256"
        }
      ],
      "name": "listMarketItem",
      "outputs": [],
      "stateMutability": "payable",
      "type": "function"
    },
    {
      "inputs": [
        {
          "internalType": "address",
          "name": "",
          "type": "address"
        },
        {
          "internalType": "address",
          "name": "",
          "type": "address"
        },
        {
          "internalType": "uint256[]",
          "name": "",
          "type": "uint256[]"
        },
        {
          "internalType": "uint256[]",
          "name": "",
          "type": "uint256[]"
        },
        {
          "internalType": "bytes",
          "name": "",
          "type": "bytes"
        }
      ],
      "name": "onERC1155BatchReceived",
      "outputs": [
        {
          "internalType": "bytes4",
          "name": "",
          "type": "bytes4"
        }
      ],
      "stateMutability": "nonpayable",
      "type": "function"
    },
    {
      "inputs": [
        {
          "internalType": "address",
          "name": "",
          "type": "address"
        },
        {
          "internalType": "address",
          "name": "",
          "type": "address"
        },
        {
          "internalType": "uint256",
          "name": "",
          "type": "uint256"
        },
        {
          "internalType": "uint256",
          "name": "",
          "type": "uint256"
        },
        {
          "internalType": "bytes",
          "name": "",
          "type": "bytes"
        }
      ],
      "name": "onERC1155Received",
      "outputs": [
        {
          "internalType": "bytes4",
          "name": "",
          "type": "bytes4"
        }
      ],
      "stateMutability": "nonpayable",
      "type": "function"
    },
    {
      "inputs": [
        {
          "internalType": "address",
          "name": "",
          "type": "address"
        },
        {
          "internalType": "address",
          "name": "",
          "type": "address"
        },
        {
          "internalType": "uint256",
          "name": "",
          "type": "uint256"
        },
        {
          "internalType": "bytes",
          "name": "",
          "type": "bytes"
        }
      ],
      "name": "onERC721Received",
      "outputs": [
        {
          "internalType": "bytes4",
          "name": "",
          "type": "bytes4"
        }
      ],
      "stateMutability": "nonpayable",
      "type": "function"
    },
    {
      "inputs": [
        {
          "internalType": "bytes4",
          "name": "interfaceId",
          "type": "bytes4"
        }
      ],
      "name": "supportsInterface",
      "outputs": [
        {
          "internalType": "bool",
          "name": "",
          "type": "bool"
        }
      ],
      "stateMutability": "view",
      "type": "function"
    },
    {
      "inputs": [
        {
          "internalType": "uint256",
          "name": "_listingPrice",
          "type": "uint256"
        }
      ],
      "name": "updateListingPrice",
      "outputs": [],
      "stateMutability": "payable",
      "type": "function"
    },
    {
      "inputs": [
        {
          "internalType": "uint256",
          "name": "tokenId",
          "type": "uint256"
        }
      ],
      "name": "withdrawBid",
      "outputs": [],
      "stateMutability": "payable",
      "type": "function"
    }
  ],
  "bytecode": "0x60806040526107086006556658d15e176280006007553480156200002257600080fd5b5060405162002c5e38038062002c5e833981016040819052620000459162000162565b6001600055600380546001600160a01b038481166001600160a01b0319928316811790935560048054918516919092161781556040516303e96bf960e61b8152309181019190915263fa5afe4090602401600060405180830381600087803b158015620000b157600080fd5b505af1158015620000c6573d6000803e3d6000fd5b5050600480546040516303e96bf960e61b815230928101929092526001600160a01b0316925063fa5afe409150602401600060405180830381600087803b1580156200011157600080fd5b505af115801562000126573d6000803e3d6000fd5b5050600280546001600160a01b03191633179055506200019992505050565b80516001600160a01b03811681146200015d57600080fd5b919050565b6000806040838503121562000175578182fd5b620001808362000145565b9150620001906020840162000145565b90509250929050565b612ab580620001a96000396000f3fe6080604052600436106101095760003560e01c8063454a2ab311610095578063b9a2de3a11610064578063b9a2de3a146102c2578063bc197c81146102d5578063be9af53614610301578063ca034f3a14610314578063f23a6e611461032757600080fd5b8063454a2ab3146102695780636eb22e111461027c578063821ef09d1461028f578063ae677aa3146102af57600080fd5b80631adc2576116100dc5780631adc2576146101ba57806325762e57146101e95780632796390c146102165780632a45b25014610229578063359e1a2c1461025657600080fd5b806301ffc9a71461010e5780630eaaf4c81461014357806312e8558514610158578063150b7a0214610176575b600080fd5b34801561011a57600080fd5b5061012e610129366004612512565b610353565b60405190151581526020015b60405180910390f35b6101566101513660046125ad565b61038a565b005b34801561016457600080fd5b5060075460405190815260200161013a565b34801561018257600080fd5b506101a16101913660046123d2565b630a85bd0160e11b949350505050565b6040516001600160e01b0319909116815260200161013a565b3480156101c657600080fd5b506101da6101d53660046125c5565b6105cf565b60405161013a939291906128b4565b3480156101f557600080fd5b506102096102043660046125ad565b61089a565b60405161013a9190612923565b6101566102243660046125c5565b61091e565b34801561023557600080fd5b506102496102443660046125ad565b610b32565b60405161013a919061296d565b6101566102643660046125e6565b610caa565b6101566102773660046125ad565b611029565b61015661028a3660046125ad565b611306565b34801561029b57600080fd5b506102096102aa3660046125ad565b61175e565b6101566102bd3660046125ad565b611790565b6101566102d03660046125ad565b611808565b3480156102e157600080fd5b506101a16102f036600461232c565b63bc197c8160e01b95945050505050565b61015661030f3660046125ad565b611c29565b61015661032236600461249b565b611e48565b34801561033357600080fd5b506101a1610342366004612438565b63f23a6e6160e01b95945050505050565b60006001600160e01b03198216630271189760e51b148061038457506301ffc9a760e01b6001600160e01b03198316145b92915050565b600260005414156103b65760405162461bcd60e51b81526004016103ad90612936565b60405180910390fd5b60026000908155805b6000838152600560205260409020600c01548110156104d8576000838152600560205260409020600c0180543391908390811061040c57634e487b7160e01b600052603260045260246000fd5b60009182526020909120600390910201546001600160a01b031614156104c6576000838152600560205260409020600c0180548290811061045d57634e487b7160e01b600052603260045260246000fd5b9060005260206000209060030201600101548261047a91906129d9565b6000848152600560205260408120600c0180549294509091839081106104b057634e487b7160e01b600052603260045260246000fd5b9060005260206000209060030201600101819055505b806104d081612a38565b9150506103bf565b50600081116105295760405162461bcd60e51b815260206004820152601760248201527f596f7520686176656e277420626964646564207965742100000000000000000060448201526064016103ad565b604051339082156108fc029083906000818181858888f19350505050158015610556573d6000803e3d6000fd5b50600082815260056020908152604091829020600181015460029091015483516001600160a01b0391821681523393810193909352928201849052919091169083907f79d5728b594c308d9a5643e34a4c8aad57bd810a0fa84016d5949d7107bf189c906060015b60405180910390a350506001600055565b606060008060006105df60015490565b9050808610610629576040805160008082526020820190925281610619565b610606612121565b8152602001906001900390816105fe5790505b5094508693509091506108939050565b8461063487836129f1565b8111156106485761064587836129f1565b90505b60008167ffffffffffffffff81111561067157634e487b7160e01b600052604160045260246000fd5b6040519080825280602002602001820160405280156106aa57816020015b610697612121565b81526020019060019003908161068f5790505b509050875b8281101561087c5760006005816106c78460016129d9565b8152602080820192909252604090810160009081208251610120810184528154815260018201546001600160a01b03908116828701526002830154811682860152600383015481166060808401919091526004840154608080850191909152600585015460ff808216151560a0808801919091526101008084048316151560c0808a019190915262010000909404909216151560e0808901919091528a519081018b52600689018054825260078a0154828e015260088a0154909716818c0152600989015495810195909552600a88015493850193909352600b87015492840192909252600c860180548951818c0281018c01909a52808a52969a5094988a98928a0197939694959187019492939192919084015b82821015610831576000848152602090819020604080516060810182526003860290920180546001600160a01b03168352600180820154848601526002909101549183019190915290835290920191016107dc565b50505050815250508152505083838151811061085d57634e487b7160e01b600052603260045260246000fd5b602002602001018190525050808061087490612a38565b9150506106af565b5080610888838a6129d9565b849550955095505050505b9250925092565b60048054604051638ad9134560e01b81529182018390526060916001600160a01b0390911690638ad91345906024015b60006040518083038186803b1580156108e257600080fd5b505afa1580156108f6573d6000803e3d6000fd5b505050506040513d6000823e601f3d908101601f19168201604052610384919081019061253a565b6007543410156109895760405162461bcd60e51b815260206004820152603060248201527f5072696365206d75737420626520657175616c206f722068696768657220746860448201526f616e206c697374696e6720707269636560801b60648201526084016103ad565b600081116109d95760405162461bcd60e51b815260206004820152601c60248201527f5072696365206d757374206265206174206c656173742031207765690000000060448201526064016103ad565b6000828152600560205260409020600301546001600160a01b03163314610a425760405162461bcd60e51b815260206004820152601960248201527f4f6e6c79206f776e65722063616e206c697374206974656d210000000000000060448201526064016103ad565b600082815260056020819052604090912060048101839055908101805460ff191690819055600282018054336001600160a01b0319918216811790925560038401805430921682179055600190930154610ab393919286916001600160a01b03169060ff6201000090910416611f6b565b60008281526005602081815260409283902060018101546003820154919093015484516001600160a01b0392831681526201000090910460ff1615159281019290925292810184905291169083907f31b463dc211ba8d71de85d00fe324011853b81e134abc9b82ea212c3fa1f9a459060600160405180910390a35050565b610b3a612121565b60008281526005602081815260408084208151610120810183528154815260018201546001600160a01b039081168286015260028301548116828501526003830154811660608084019190915260048401546080808501919091529684015460ff808216151560a0808701919091526101008084048316151560c08089019190915262010000909404909216151560e0808801919091528851908101895260068801805482526007890154828c01526008890154909616818a0152600988015494810194909452600a87015499840199909952600b86015498830198909852600c850180548751818a0281018a01909852808852949995988a01979296939591870194909290919084015b82821015610c9a576000848152602090819020604080516060810182526003860290920180546001600160a01b0316835260018082015484860152600290910154918301919091529083529092019101610c45565b5050509152505090525092915050565b6007543414610d075760405162461bcd60e51b8152602060048201526024808201527f5072696365206d75737420626520657175616c20746f206c697374696e6720706044820152637269636560e01b60648201526084016103ad565b60008111610d635760405162461bcd60e51b8152602060048201526024808201527f5374617274696e67207072696365206d757374206265206c61726765722074686044820152630616e20360e41b60648201526084016103ad565b6000848152600560205260409020600301546001600160a01b03163314610dc55760405162461bcd60e51b815260206004820152601660248201527527b7363c9037bbb732b91031b0b71030bab1ba34b7b760511b60448201526064016103ad565b6000848152600560208190526040909120015460ff168015610dfe575060008481526005602081905260409091200154610100900460ff165b610e3b5760405162461bcd60e51b815260206004820152600e60248201526d4e4654206973206f6e2073616c6560901b60448201526064016103ad565b814210610e735760405162461bcd60e51b8152602060048201526006602482015265456e6465642160d01b60448201526064016103ad565b600654610e8084846129f1565b11610ee65760405162461bcd60e51b815260206004820152603060248201527f5468652061756374696f6e2074696d65206d757374206265206c6f6e6765722060448201526f7468616e203330206d696e757465732160801b60648201526084016103ad565b60008481526005602052604081206006810185905560078101849055600981018290556008810180546001600160a01b0319169055600a8101829055600b8101839055610f3891600c909101906121d4565b6000848152600560208190526040909120908101805461ff00191690819055600282018054336001600160a01b0319918216811790925560038401805430921682179055600190930154610fa393919288916001600160a01b03169060ff6201000090910416611f6b565b600084815260056020818152604092839020600181015492015483513381526201000090910460ff1615159181019190915291820183905260608201859052608082018490526001600160a01b03169085907f75b0cfc9c9950e18b8591f8b42e62d98434f7a4f41d479a90133cb251e1b96f19060a0015b60405180910390a350505050565b6000818152600560205260409020600201546001600160a01b03163314156110935760405162461bcd60e51b815260206004820152601760248201527f596f752063616e27742062696420796f7572206974656d00000000000000000060448201526064016103ad565b60008181526005602081905260409091200154610100900460ff16156110f05760405162461bcd60e51b81526020600482015260126024820152714974656d2069736e27742062696464696e6760701b60448201526064016103ad565b60008181526005602052604090206006015442118015611120575060008181526005602052604090206007015442105b6111615760405162461bcd60e51b81526020600482015260126024820152714e6f7420696e2062696420706572696f642160701b60448201526064016103ad565b60008181526005602052604090206009015434116111c15760405162461bcd60e51b815260206004820181905260248201527f4d7573742062696420686967686572207468652068696768657374206269642160448201526064016103ad565b6000818152600560205260409020600801546001600160a01b031615611265576040805160608101825260008381526005602081815284832060088101546001600160a01b0390811686526009820154838701908152600a830154978701978852938352600c909101805460018082018355918652929094209451600390920290940180546001600160a01b03191691909416178355519082015590516002909101555b60008181526005602090815260409182902034600982018190556008820180546001600160a01b0319163390811790915542600a8401819055600184015460029094015486516001600160a01b03918216815295860192909252948401919091526060830193909352919091169082907f34f367c117714cf7e9fff4df15a4799e49ad2785e267d0ce4aae7a045d471f30906080015b60405180910390a350565b6000818152600560205260409020600201546001600160a01b0316331461136f5760405162461bcd60e51b815260206004820152601f60248201527f4f6e6c792073656c6c65722063616e2063616e63656c206c697374696e67210060448201526064016103ad565b6000818152600560208190526040909120015460ff1615806113a9575060008181526005602081905260409091200154610100900460ff16155b6114015760405162461bcd60e51b8152602060048201526024808201527f4f6e6c79206c6973746564206974656d2063616e2063616e63656c206c697374604482015263696e672160e01b60648201526084016103ad565b60008181526005602081905260409091200154610100900460ff166116625760008181526005602052604090206007015442106114925760405162461bcd60e51b815260206004820152602960248201527f43616e6e6f742063616e63656c207768656e2061756374696f6e20616c726561604482015268647920656e6465642160b81b60648201526084016103ad565b6000818152600560205260409020600801546001600160a01b03161561163e5760005b6000828152600560205260409020600c01548110156115ed576000828152600560205260408120600c018054839081106114ff57634e487b7160e01b600052603260045260246000fd5b90600052602060002090600302016001015411156115db576000828152600560205260409020600c0180548290811061154857634e487b7160e01b600052603260045260246000fd5b6000918252602080832060039092029091015484835260059091526040909120600c0180546001600160a01b03909216916108fc91908490811061159c57634e487b7160e01b600052603260045260246000fd5b9060005260206000209060030201600101549081150290604051600060405180830381858888f193505050501580156115d9573d6000803e3d6000fd5b505b806115e581612a38565b9150506114b5565b50600081815260056020526040808220600881015460099091015491516001600160a01b039091169282156108fc02929190818181858888f1935050505015801561163c573d6000803e3d6000fd5b505b600081815260056020819052604090912001805461ff001916610100179055611680565b600081815260056020819052604090912001805460ff191660011790555b6000818152600560208190526040909120600381018054336001600160a01b031991821681179092556002830180549091169055600182015491909201546116e0923092909185916001600160a01b03169062010000900460ff16611f6b565b600081815260056020818152604092839020600181015460038201549382015460049092015485516001600160a01b0395861681526201000090930460ff161515938301939093529381019190915291169082907f769a2f215ef24b6515bca3c5f2993d943ce052a9c9deb2fcc5c81a399a0e931c906060016112fb565b600354604051633bb3a24d60e01b8152600481018390526060916001600160a01b031690633bb3a24d906024016108ca565b6002546001600160a01b031633146118035760405162461bcd60e51b815260206004820152603060248201527f4f6e6c79206d61726b6574706c616365206f776e65722063616e20757064617460448201526f32903634b9ba34b73390383934b1b29760811b60648201526084016103ad565b600755565b6002600054141561182b5760405162461bcd60e51b81526004016103ad90612936565b600260009081558181526005602052604090206007015442116118905760405162461bcd60e51b815260206004820152601960248201527f41756374696f6e206973207374696c6c206f6e676f696e67210000000000000060448201526064016103ad565b60008181526005602081905260409091200154610100900460ff16156118f15760405162461bcd60e51b815260206004820152601660248201527541756374696f6e20616c726561647920656e6465642160501b60448201526064016103ad565b600081815260056020526040902060028101546008909101546001600160a01b03918216911615611b095760005b6000838152600560205260409020600c0154811015611a57576000838152600560205260408120600c0180548390811061196957634e487b7160e01b600052603260045260246000fd5b9060005260206000209060030201600101541115611a45576000838152600560205260409020600c018054829081106119b257634e487b7160e01b600052603260045260246000fd5b6000918252602080832060039092029091015485835260059091526040909120600c0180546001600160a01b03909216916108fc919084908110611a0657634e487b7160e01b600052603260045260246000fd5b9060005260206000209060030201600101549081150290604051600060405180830381858888f19350505050158015611a43573d6000803e3d6000fd5b505b80611a4f81612a38565b91505061191f565b50600082815260056020526040808220600281015460099091015491516001600160a01b039091169282156108fc02929190818181858888f19350505050158015611aa6573d6000803e3d6000fd5b50600082815260056020819052604090912060088101546003820180546001600160a01b0319166001600160a01b0392831690811790915560018301549290930154611b049330939092879291169060ff6201000090910416611f6b565b611b7a565b6000828152600560208190526040909120600281015460018201549190920154611b4f9230926001600160a01b039182169287929091169062010000900460ff16611f6b565b600082815260056020526040902060030180546001600160a01b0319166001600160a01b0383161790555b6000828152600560208181526040928390206002810180546001600160a01b0319169055918201805461ff00191661010017908190556001830154600884015460099094015485516001600160a01b0388811682526201000090940460ff1615159481019490945293821694830194909452606082019290925242608082015291169083907fa21625bacd9a53a22f3eda0f00281d2db3d918b022e003de1b8ec1dbf3551b319060a0016105be565b60026000541415611c4c5760405162461bcd60e51b81526004016103ad90612936565b60026000818155828152600560208190526040909120918201549101546001600160a01b039091169060ff1615611cba5760405162461bcd60e51b81526020600482015260126024820152714974656d2069736e2774206f6e2073616c6560701b60448201526064016103ad565b6000828152600560205260409020600401543414611d2a5760405162461bcd60e51b815260206004820152602760248201527f4275796572206d757374207472616e7366657220657175616c207072696365206044820152666f66206974656d60c81b60648201526084016103ad565b6000828152600560205260408082206002015490516001600160a01b03909116913480156108fc02929091818181858888f19350505050158015611d72573d6000803e3d6000fd5b506000828152600560208190526040909120600381018054336001600160a01b031991821681179092556002830180549091169055918101805460ff191660019081179182905590910154611de2923092909186916001600160a01b039091169060ff6201000090910416611f6b565b600082815260056020908152604091829020600181015460049091015483516001600160a01b038681168252339482019490945293840152169083907fd3bd3ff48ce3a8bb23194a87b735e828ab1668173da85bff87a6000c0408512a906060016105be565b611e56600180546001019055565b6000611e6160015490565b90508115611e7a57611e7581600185612045565b611ec1565b611ec18184604051806040016040528060088152602001672aa4aa2a37b5b2b760c11b8152506040518060400160405280600381526020016215525560ea1b8152506120b2565b6000818152600560208181526040928390208481556001810180546001600160a01b038a166001600160a01b03199182168117909255600283018054821690556003830180549091163390811790915591909301805487151562010000810262ffffff199092169190911761010117909155845191825291810191909152909183917fac1bd62278cac1e3927d9af6d75c2a00c32db78ed0bb3a721d009050f786b7e8910161101b565b8015611fdb57604051637921219560e11b81526001600160a01b0383169063f242432a90611fa4908890889088906001906004016127a7565b600060405180830381600087803b158015611fbe57600080fd5b505af1158015611fd2573d6000803e3d6000fd5b5050505061203e565b604051635c46a7ef60e11b81526001600160a01b0383169063b88d4fde9061200b908890889088906004016127ee565b600060405180830381600087803b15801561202557600080fd5b505af1158015612039573d6000803e3d6000fd5b505050505b5050505050565b6003546040516332ad158d60e11b81526001600160a01b039091169063655a2b1a9061207b903390879087908790600401612887565b600060405180830381600087803b15801561209557600080fd5b505af11580156120a9573d6000803e3d6000fd5b50505050505050565b6004805460405163257d89db60e01b81526001600160a01b039091169163257d89db916120e991339189918991899189910161282e565b600060405180830381600087803b15801561210357600080fd5b505af1158015612117573d6000803e3d6000fd5b5050505050505050565b6040518061012001604052806000815260200160006001600160a01b0316815260200160006001600160a01b0316815260200160006001600160a01b03168152602001600081526020016000151581526020016000151581526020016000151581526020016121cf6040518060e00160405280600081526020016000815260200160006001600160a01b03168152602001600081526020016000815260200160008152602001606081525090565b905290565b50805460008255600302906000526020600020908101906121f591906121f8565b50565b5b808211156122255780546001600160a01b031916815560006001820181905560028201556003016121f9565b5090565b600061223c612237846129b1565b612980565b905082815283838301111561225057600080fd5b828260208301376000602084830101529392505050565b80356001600160a01b038116811461227e57600080fd5b919050565b600082601f830112612293578081fd5b8135602067ffffffffffffffff8211156122af576122af612a69565b8160051b6122be828201612980565b8381528281019086840183880185018910156122d8578687fd5b8693505b858410156122fa5780358352600193909301929184019184016122dc565b50979650505050505050565b600082601f830112612316578081fd5b61232583833560208501612229565b9392505050565b600080600080600060a08688031215612343578081fd5b61234c86612267565b945061235a60208701612267565b9350604086013567ffffffffffffffff80821115612376578283fd5b61238289838a01612283565b94506060880135915080821115612397578283fd5b6123a389838a01612283565b935060808801359150808211156123b8578283fd5b506123c588828901612306565b9150509295509295909350565b600080600080608085870312156123e7578384fd5b6123f085612267565b93506123fe60208601612267565b925060408501359150606085013567ffffffffffffffff811115612420578182fd5b61242c87828801612306565b91505092959194509250565b600080600080600060a0868803121561244f578081fd5b61245886612267565b945061246660208701612267565b93506040860135925060608601359150608086013567ffffffffffffffff81111561248f578182fd5b6123c588828901612306565b6000806000606084860312156124af578283fd5b6124b884612267565b9250602084013567ffffffffffffffff8111156124d3578283fd5b8401601f810186136124e3578283fd5b6124f286823560208401612229565b92505060408401358015158114612507578182fd5b809150509250925092565b600060208284031215612523578081fd5b81356001600160e01b031981168114612325578182fd5b60006020828403121561254b578081fd5b815167ffffffffffffffff811115612561578182fd5b8201601f81018413612571578182fd5b805161257f612237826129b1565b818152856020838501011115612593578384fd5b6125a4826020830160208601612a08565b95945050505050565b6000602082840312156125be578081fd5b5035919050565b600080604083850312156125d7578182fd5b50508035926020909101359150565b600080600080608085870312156125fb578182fd5b5050823594602084013594506040840135936060013592509050565b6000815180845261262f816020860160208601612a08565b601f01601f19169290920160200192915050565b600060e08301825184526020808401518186015260408085015160018060a01b03808216838901526060915081870151828901526080870151608089015260a087015160a089015260c087015160e060c08a01528581518088526101008b01915086830197508892505b808310156126e05787518051851683528781015188840152860151868301529686019660019290920191908401906126ad565b509998505050505050505050565b60006101208251845260018060a01b036020840151166020850152604083015161272360408601826001600160a01b03169052565b50606083015161273e60608601826001600160a01b03169052565b506080830151608085015260a083015161275c60a086018215159052565b5060c083015161277060c086018215159052565b5060e083015161278460e086018215159052565b5061010080840151828287015261279d83870182612643565b9695505050505050565b6001600160a01b03858116825284166020820152604081018390526060810182905260a060808201819052600290820152615b5d60f01b60c0820152600060e0820161279d565b6001600160a01b0384811682528316602082015260408101829052608060608201819052600290820152615b5d60f01b60a0820152600060c082016125a4565b60018060a01b038616815284602082015260a06040820152600061285560a0830186612617565b82810360608401526128678186612617565b9050828103608084015261287b8185612617565b98975050505050505050565b60018060a01b038516815283602082015282604082015260806060820152600061279d6080830184612617565b6000606082016060835280865180835260808501915060808160051b86010192506020808901855b8381101561290a57607f198887030185526128f88683516126ee565b955093820193908201906001016128dc565b5050850196909652506040909201929092529392505050565b6020815260006123256020830184612617565b6020808252601f908201527f5265656e7472616e637947756172643a207265656e7472616e742063616c6c00604082015260600190565b60208152600061232560208301846126ee565b604051601f8201601f1916810167ffffffffffffffff811182821017156129a9576129a9612a69565b604052919050565b600067ffffffffffffffff8211156129cb576129cb612a69565b50601f01601f191660200190565b600082198211156129ec576129ec612a53565b500190565b600082821015612a0357612a03612a53565b500390565b60005b83811015612a23578181015183820152602001612a0b565b83811115612a32576000848401525b50505050565b6000600019821415612a4c57612a4c612a53565b5060010190565b634e487b7160e01b600052601160045260246000fd5b634e487b7160e01b600052604160045260246000fdfea26469706673582212200159c7acd4415da81754eefae25077c6776cf74dc892ca1dbabc19f315ace18564736f6c63430008040033",
  "linkReferences": {},
  "deployedLinkReferences": {}
}