{
  "_format": "hh-sol-artifact-1",
  "contractName": "UITToken721",
  "sourceName": "contracts/UITToken721.sol",
  "abi": [
    {
      "inputs": [],
      "stateMutability": "nonpayable",
      "type": "constructor"
    },
    {
      "anonymous": false,
      "inputs": [
        {
          "indexed": true,
          "internalType": "address",
          "name": "owner",
          "type": "address"
        },
        {
          "indexed": true,
          "internalType": "address",
          "name": "approved",
          "type": "address"
        },
        {
          "indexed": true,
          "internalType": "uint256",
          "name": "tokenId",
          "type": "uint256"
        }
      ],
      "name": "Approval",
      "type": "event"
    },
    {
      "anonymous": false,
      "inputs": [
        {
          "indexed": true,
          "internalType": "address",
          "name": "owner",
          "type": "address"
        },
        {
          "indexed": true,
          "internalType": "address",
          "name": "operator",
          "type": "address"
        },
        {
          "indexed": false,
          "internalType": "bool",
          "name": "approved",
          "type": "bool"
        }
      ],
      "name": "ApprovalForAll",
      "type": "event"
    },
    {
      "anonymous": false,
      "inputs": [
        {
          "indexed": true,
          "internalType": "address",
          "name": "from",
          "type": "address"
        },
        {
          "indexed": true,
          "internalType": "address",
          "name": "to",
          "type": "address"
        },
        {
          "indexed": true,
          "internalType": "uint256",
          "name": "tokenId",
          "type": "uint256"
        }
      ],
      "name": "Transfer",
      "type": "event"
    },
    {
      "inputs": [
        {
          "internalType": "address",
          "name": "to",
          "type": "address"
        },
        {
          "internalType": "uint256",
          "name": "tokenId",
          "type": "uint256"
        }
      ],
      "name": "approve",
      "outputs": [],
      "stateMutability": "nonpayable",
      "type": "function"
    },
    {
      "inputs": [
        {
          "internalType": "address",
          "name": "owner",
          "type": "address"
        }
      ],
      "name": "balanceOf",
      "outputs": [
        {
          "internalType": "uint256",
          "name": "",
          "type": "uint256"
        }
      ],
      "stateMutability": "view",
      "type": "function"
    },
    {
      "inputs": [
        {
          "internalType": "uint256",
          "name": "tokenId",
          "type": "uint256"
        }
      ],
      "name": "getApproved",
      "outputs": [
        {
          "internalType": "address",
          "name": "",
          "type": "address"
        }
      ],
      "stateMutability": "view",
      "type": "function"
    },
    {
      "inputs": [],
      "name": "getTokenCount",
      "outputs": [
        {
          "internalType": "uint256",
          "name": "",
          "type": "uint256"
        }
      ],
      "stateMutability": "view",
      "type": "function"
    },
    {
      "inputs": [],
      "name": "getTokenIds",
      "outputs": [
        {
          "internalType": "uint256[]",
          "name": "",
          "type": "uint256[]"
        }
      ],
      "stateMutability": "view",
      "type": "function"
    },
    {
      "inputs": [
        {
          "internalType": "uint256",
          "name": "tokenId",
          "type": "uint256"
        }
      ],
      "name": "getTokenName",
      "outputs": [
        {
          "internalType": "string",
          "name": "",
          "type": "string"
        }
      ],
      "stateMutability": "view",
      "type": "function"
    },
    {
      "inputs": [
        {
          "internalType": "uint256",
          "name": "tokenId",
          "type": "uint256"
        }
      ],
      "name": "getTokenSymbol",
      "outputs": [
        {
          "internalType": "string",
          "name": "",
          "type": "string"
        }
      ],
      "stateMutability": "view",
      "type": "function"
    },
    {
      "inputs": [
        {
          "internalType": "uint256",
          "name": "tokenId",
          "type": "uint256"
        }
      ],
      "name": "getTokenUri",
      "outputs": [
        {
          "internalType": "string",
          "name": "",
          "type": "string"
        }
      ],
      "stateMutability": "view",
      "type": "function"
    },
    {
      "inputs": [
        {
          "internalType": "address",
          "name": "owner",
          "type": "address"
        },
        {
          "internalType": "address",
          "name": "operator",
          "type": "address"
        }
      ],
      "name": "isApprovedForAll",
      "outputs": [
        {
          "internalType": "bool",
          "name": "",
          "type": "bool"
        }
      ],
      "stateMutability": "view",
      "type": "function"
    },
    {
      "inputs": [
        {
          "internalType": "address",
          "name": "_owner",
          "type": "address"
        },
        {
          "internalType": "uint256",
          "name": "_id",
          "type": "uint256"
        },
        {
          "internalType": "string",
          "name": "_tokenUri",
          "type": "string"
        },
        {
          "internalType": "string",
          "name": "_name",
          "type": "string"
        },
        {
          "internalType": "string",
          "name": "_symbol",
          "type": "string"
        }
      ],
      "name": "mintNFT",
      "outputs": [],
      "stateMutability": "nonpayable",
      "type": "function"
    },
    {
      "inputs": [],
      "name": "name",
      "outputs": [
        {
          "internalType": "string",
          "name": "",
          "type": "string"
        }
      ],
      "stateMutability": "view",
      "type": "function"
    },
    {
      "inputs": [
        {
          "internalType": "uint256",
          "name": "tokenId",
          "type": "uint256"
        }
      ],
      "name": "ownerOf",
      "outputs": [
        {
          "internalType": "address",
          "name": "",
          "type": "address"
        }
      ],
      "stateMutability": "view",
      "type": "function"
    },
    {
      "inputs": [
        {
          "internalType": "address",
          "name": "from",
          "type": "address"
        },
        {
          "internalType": "address",
          "name": "to",
          "type": "address"
        },
        {
          "internalType": "uint256",
          "name": "tokenId",
          "type": "uint256"
        }
      ],
      "name": "safeTransferFrom",
      "outputs": [],
      "stateMutability": "nonpayable",
      "type": "function"
    },
    {
      "inputs": [
        {
          "internalType": "address",
          "name": "from",
          "type": "address"
        },
        {
          "internalType": "address",
          "name": "to",
          "type": "address"
        },
        {
          "internalType": "uint256",
          "name": "tokenId",
          "type": "uint256"
        },
        {
          "internalType": "bytes",
          "name": "_data",
          "type": "bytes"
        }
      ],
      "name": "safeTransferFrom",
      "outputs": [],
      "stateMutability": "nonpayable",
      "type": "function"
    },
    {
      "inputs": [
        {
          "internalType": "address",
          "name": "operator",
          "type": "address"
        },
        {
          "internalType": "bool",
          "name": "approved",
          "type": "bool"
        }
      ],
      "name": "setApprovalForAll",
      "outputs": [],
      "stateMutability": "nonpayable",
      "type": "function"
    },
    {
      "inputs": [
        {
          "internalType": "address",
          "name": "_address",
          "type": "address"
        }
      ],
      "name": "setParentAddress",
      "outputs": [],
      "stateMutability": "nonpayable",
      "type": "function"
    },
    {
      "inputs": [],
      "name": "setParentApproval",
      "outputs": [],
      "stateMutability": "nonpayable",
      "type": "function"
    },
    {
      "inputs": [
        {
          "internalType": "bytes4",
          "name": "interfaceId",
          "type": "bytes4"
        }
      ],
      "name": "supportsInterface",
      "outputs": [
        {
          "internalType": "bool",
          "name": "",
          "type": "bool"
        }
      ],
      "stateMutability": "view",
      "type": "function"
    },
    {
      "inputs": [],
      "name": "symbol",
      "outputs": [
        {
          "internalType": "string",
          "name": "",
          "type": "string"
        }
      ],
      "stateMutability": "view",
      "type": "function"
    },
    {
      "inputs": [
        {
          "internalType": "uint256",
          "name": "tokenId",
          "type": "uint256"
        }
      ],
      "name": "tokenURI",
      "outputs": [
        {
          "internalType": "string",
          "name": "",
          "type": "string"
        }
      ],
      "stateMutability": "view",
      "type": "function"
    },
    {
      "inputs": [
        {
          "internalType": "address",
          "name": "from",
          "type": "address"
        },
        {
          "internalType": "address",
          "name": "to",
          "type": "address"
        },
        {
          "internalType": "uint256",
          "name": "tokenId",
          "type": "uint256"
        }
      ],
      "name": "transferFrom",
      "outputs": [],
      "stateMutability": "nonpayable",
      "type": "function"
    }
  ],
  "bytecode": "0x60806040523480156200001157600080fd5b50604080516020808201808452600080845284519283019094528382528251929391926200004192919062000060565b5080516200005790600190602084019062000060565b50505062000143565b8280546200006e9062000106565b90600052602060002090601f016020900481019282620000925760008555620000dd565b82601f10620000ad57805160ff1916838001178555620000dd565b82800160010185558215620000dd579182015b82811115620000dd578251825591602001919060010190620000c0565b50620000eb929150620000ef565b5090565b5b80821115620000eb5760008155600101620000f0565b600181811c908216806200011b57607f821691505b602082108114156200013d57634e487b7160e01b600052602260045260246000fd5b50919050565b611aa580620001536000396000f3fe608060405234801561001057600080fd5b50600436106101375760003560e01c806378a89567116100b8578063b88d4fde1161007c578063b88d4fde14610284578063c87b56dd14610297578063d49e2b59146102aa578063dbe16c07146102b2578063e985e9c5146102c5578063fa5afe401461030157600080fd5b806378a895671461023b5780637b78bd3f146102435780638ad913451461025657806395d89b4114610269578063a22cb4651461027157600080fd5b8063257d89db116100ff578063257d89db146101cc57806342842e0e146101df5780636352211e146101f257806367f718a91461020557806370a082311461021a57600080fd5b806301ffc9a71461013c57806306fdde0314610164578063081812fc14610179578063095ea7b3146101a457806323b872dd146101b9575b600080fd5b61014f61014a366004611759565b610331565b60405190151581526020015b60405180910390f35b61016c610383565b60405161015b9190611885565b61018c610187366004611791565b610415565b6040516001600160a01b03909116815260200161015b565b6101b76101b2366004611691565b6104a2565b005b6101b76101c73660046115a3565b6105b8565b6101b76101da3660046116ba565b6105e9565b6101b76101ed3660046115a3565b6106d3565b61018c610200366004611791565b6106ee565b61020d610765565b60405161015b9190611841565b61022d610228366004611557565b6107bc565b60405190815260200161015b565b60085461022d565b61016c610251366004611791565b610843565b61016c610264366004611791565b6108e8565b61016c610908565b6101b761027f366004611657565b610917565b6101b76102923660046115de565b610926565b61016c6102a5366004611791565b61095e565b6101b7610ad5565b61016c6102c0366004611791565b610aee565b61014f6102d3366004611571565b6001600160a01b03918216600090815260056020908152604080832093909416825291909152205460ff1690565b6101b761030f366004611557565b600780546001600160a01b0319166001600160a01b0392909216919091179055565b60006001600160e01b031982166380ac58cd60e01b148061036257506001600160e01b03198216635b5e139f60e01b145b8061037d57506301ffc9a760e01b6001600160e01b03198316145b92915050565b606060008054610392906119aa565b80601f01602080910402602001604051908101604052809291908181526020018280546103be906119aa565b801561040b5780601f106103e05761010080835404028352916020019161040b565b820191906000526020600020905b8154815290600101906020018083116103ee57829003601f168201915b5050505050905090565b600061042082610b0e565b6104865760405162461bcd60e51b815260206004820152602c60248201527f4552433732313a20617070726f76656420717565727920666f72206e6f6e657860448201526b34b9ba32b73a103a37b5b2b760a11b60648201526084015b60405180910390fd5b506000908152600460205260409020546001600160a01b031690565b60006104ad826106ee565b9050806001600160a01b0316836001600160a01b0316141561051b5760405162461bcd60e51b815260206004820152602160248201527f4552433732313a20617070726f76616c20746f2063757272656e74206f776e656044820152603960f91b606482015260840161047d565b336001600160a01b0382161480610537575061053781336102d3565b6105a95760405162461bcd60e51b815260206004820152603860248201527f4552433732313a20617070726f76652063616c6c6572206973206e6f74206f7760448201527f6e6572206e6f7220617070726f76656420666f7220616c6c0000000000000000606482015260840161047d565b6105b38383610b2b565b505050565b6105c23382610b99565b6105de5760405162461bcd60e51b815260040161047d906118ea565b6105b3838383610c7f565b60006040518060800160405280868152602001848152602001838152602001858152509050610628868660405180602001604052806000815250610e1b565b6106328585610e4e565b6008805460018181019092557ff3f7a9fe364faab93b216da50a3214154f22a0a2b415b23a84c8169e8b636ee3018690556000868152600960209081526040909120835181558382015180518594929361069093850192019061140d565b50604082015180516106ac91600284019160209091019061140d565b50606082015180516106c891600384019160209091019061140d565b505050505050505050565b6105b383838360405180602001604052806000815250610926565b6000818152600260205260408120546001600160a01b03168061037d5760405162461bcd60e51b815260206004820152602960248201527f4552433732313a206f776e657220717565727920666f72206e6f6e657869737460448201526832b73a103a37b5b2b760b91b606482015260840161047d565b6060600880548060200260200160405190810160405280929190818152602001828054801561040b57602002820191906000526020600020905b81548152602001906001019080831161079f575050505050905090565b60006001600160a01b0382166108275760405162461bcd60e51b815260206004820152602a60248201527f4552433732313a2062616c616e636520717565727920666f7220746865207a65604482015269726f206164647265737360b01b606482015260840161047d565b506001600160a01b031660009081526003602052604090205490565b6000818152600960205260409020600201805460609190610863906119aa565b80601f016020809104026020016040519081016040528092919081815260200182805461088f906119aa565b80156108dc5780601f106108b1576101008083540402835291602001916108dc565b820191906000526020600020905b8154815290600101906020018083116108bf57829003601f168201915b50505050509050919050565b6000818152600960205260409020600301805460609190610863906119aa565b606060018054610392906119aa565b610922338383610ed9565b5050565b6109303383610b99565b61094c5760405162461bcd60e51b815260040161047d906118ea565b61095884848484610fa8565b50505050565b606061096982610b0e565b6109cf5760405162461bcd60e51b815260206004820152603160248201527f45524337323155524953746f726167653a2055524920717565727920666f72206044820152703737b732bc34b9ba32b73a103a37b5b2b760791b606482015260840161047d565b600082815260066020526040812080546109e8906119aa565b80601f0160208091040260200160405190810160405280929190818152602001828054610a14906119aa565b8015610a615780601f10610a3657610100808354040283529160200191610a61565b820191906000526020600020905b815481529060010190602001808311610a4457829003601f168201915b505050505090506000610a7f60408051602081019091526000815290565b9050805160001415610a92575092915050565b815115610ac4578082604051602001610aac9291906117d5565b60405160208183030381529060405292505050919050565b610acd84610fdb565b949350505050565b600754610aec906001600160a01b03166001610917565b565b6000818152600960205260409020600101805460609190610863906119aa565b6000908152600260205260409020546001600160a01b0316151590565b600081815260046020526040902080546001600160a01b0319166001600160a01b0384169081179091558190610b60826106ee565b6001600160a01b03167f8c5be1e5ebec7d5bd14f71427d1e84f3dd0314c0f7b2291e5b200ac8c7c3b92560405160405180910390a45050565b6000610ba482610b0e565b610c055760405162461bcd60e51b815260206004820152602c60248201527f4552433732313a206f70657261746f7220717565727920666f72206e6f6e657860448201526b34b9ba32b73a103a37b5b2b760a11b606482015260840161047d565b6000610c10836106ee565b9050806001600160a01b0316846001600160a01b03161480610c4b5750836001600160a01b0316610c4084610415565b6001600160a01b0316145b80610acd57506001600160a01b0380821660009081526005602090815260408083209388168352929052205460ff16610acd565b826001600160a01b0316610c92826106ee565b6001600160a01b031614610cf65760405162461bcd60e51b815260206004820152602560248201527f4552433732313a207472616e736665722066726f6d20696e636f72726563742060448201526437bbb732b960d91b606482015260840161047d565b6001600160a01b038216610d585760405162461bcd60e51b8152602060048201526024808201527f4552433732313a207472616e7366657220746f20746865207a65726f206164646044820152637265737360e01b606482015260840161047d565b610d63600082610b2b565b6001600160a01b0383166000908152600360205260408120805460019290610d8c908490611967565b90915550506001600160a01b0382166000908152600360205260408120805460019290610dba90849061193b565b909155505060008181526002602052604080822080546001600160a01b0319166001600160a01b0386811691821790925591518493918716917fddf252ad1be2c89b69c2b068fc378daa952ba7f163c4a11628f55a4df523b3ef91a4505050565b610e2583836110b3565b610e3260008484846111e6565b6105b35760405162461bcd60e51b815260040161047d90611898565b610e5782610b0e565b610eba5760405162461bcd60e51b815260206004820152602e60248201527f45524337323155524953746f726167653a2055524920736574206f66206e6f6e60448201526d32bc34b9ba32b73a103a37b5b2b760911b606482015260840161047d565b600082815260066020908152604090912082516105b39284019061140d565b816001600160a01b0316836001600160a01b03161415610f3b5760405162461bcd60e51b815260206004820152601960248201527f4552433732313a20617070726f766520746f2063616c6c657200000000000000604482015260640161047d565b6001600160a01b03838116600081815260056020908152604080832094871680845294825291829020805460ff191686151590811790915591519182527f17307eab39ab6107e8899845ad3d59bd9653f200f220920489ca2b5937696c31910160405180910390a3505050565b610fb3848484610c7f565b610fbf848484846111e6565b6109585760405162461bcd60e51b815260040161047d90611898565b6060610fe682610b0e565b61104a5760405162461bcd60e51b815260206004820152602f60248201527f4552433732314d657461646174613a2055524920717565727920666f72206e6f60448201526e3732bc34b9ba32b73a103a37b5b2b760891b606482015260840161047d565b600061106160408051602081019091526000815290565b9050600081511161108157604051806020016040528060008152506110ac565b8061108b846112f3565b60405160200161109c9291906117d5565b6040516020818303038152906040525b9392505050565b6001600160a01b0382166111095760405162461bcd60e51b815260206004820181905260248201527f4552433732313a206d696e7420746f20746865207a65726f2061646472657373604482015260640161047d565b61111281610b0e565b1561115f5760405162461bcd60e51b815260206004820152601c60248201527f4552433732313a20746f6b656e20616c7265616479206d696e74656400000000604482015260640161047d565b6001600160a01b038216600090815260036020526040812080546001929061118890849061193b565b909155505060008181526002602052604080822080546001600160a01b0319166001600160a01b03861690811790915590518392907fddf252ad1be2c89b69c2b068fc378daa952ba7f163c4a11628f55a4df523b3ef908290a45050565b60006001600160a01b0384163b156112e857604051630a85bd0160e11b81526001600160a01b0385169063150b7a029061122a903390899088908890600401611804565b602060405180830381600087803b15801561124457600080fd5b505af1925050508015611274575060408051601f3d908101601f1916820190925261127191810190611775565b60015b6112ce573d8080156112a2576040519150601f19603f3d011682016040523d82523d6000602084013e6112a7565b606091505b5080516112c65760405162461bcd60e51b815260040161047d90611898565b805181602001fd5b6001600160e01b031916630a85bd0160e11b149050610acd565b506001949350505050565b6060816113175750506040805180820190915260018152600360fc1b602082015290565b8160005b8115611341578061132b816119e5565b915061133a9050600a83611953565b915061131b565b60008167ffffffffffffffff81111561136a57634e487b7160e01b600052604160045260246000fd5b6040519080825280601f01601f191660200182016040528015611394576020820181803683370190505b5090505b8415610acd576113a9600183611967565b91506113b6600a86611a00565b6113c190603061193b565b60f81b8183815181106113e457634e487b7160e01b600052603260045260246000fd5b60200101906001600160f81b031916908160001a905350611406600a86611953565b9450611398565b828054611419906119aa565b90600052602060002090601f01602090048101928261143b5760008555611481565b82601f1061145457805160ff1916838001178555611481565b82800160010185558215611481579182015b82811115611481578251825591602001919060010190611466565b5061148d929150611491565b5090565b5b8082111561148d5760008155600101611492565b600067ffffffffffffffff808411156114c1576114c1611a40565b604051601f8501601f19908116603f011681019082821181831017156114e9576114e9611a40565b8160405280935085815286868601111561150257600080fd5b858560208301376000602087830101525050509392505050565b80356001600160a01b038116811461153357600080fd5b919050565b600082601f830112611548578081fd5b6110ac838335602085016114a6565b600060208284031215611568578081fd5b6110ac8261151c565b60008060408385031215611583578081fd5b61158c8361151c565b915061159a6020840161151c565b90509250929050565b6000806000606084860312156115b7578081fd5b6115c08461151c565b92506115ce6020850161151c565b9150604084013590509250925092565b600080600080608085870312156115f3578081fd5b6115fc8561151c565b935061160a6020860161151c565b925060408501359150606085013567ffffffffffffffff81111561162c578182fd5b8501601f8101871361163c578182fd5b61164b878235602084016114a6565b91505092959194509250565b60008060408385031215611669578182fd5b6116728361151c565b915060208301358015158114611686578182fd5b809150509250929050565b600080604083850312156116a3578182fd5b6116ac8361151c565b946020939093013593505050565b600080600080600060a086880312156116d1578081fd5b6116da8661151c565b945060208601359350604086013567ffffffffffffffff808211156116fd578283fd5b61170989838a01611538565b9450606088013591508082111561171e578283fd5b61172a89838a01611538565b9350608088013591508082111561173f578283fd5b5061174c88828901611538565b9150509295509295909350565b60006020828403121561176a578081fd5b81356110ac81611a56565b600060208284031215611786578081fd5b81516110ac81611a56565b6000602082840312156117a2578081fd5b5035919050565b600081518084526117c181602086016020860161197e565b601f01601f19169290920160200192915050565b600083516117e781846020880161197e565b8351908301906117fb81836020880161197e565b01949350505050565b6001600160a01b0385811682528416602082015260408101839052608060608201819052600090611837908301846117a9565b9695505050505050565b6020808252825182820181905260009190848201906040850190845b818110156118795783518352928401929184019160010161185d565b50909695505050505050565b6020815260006110ac60208301846117a9565b60208082526032908201527f4552433732313a207472616e7366657220746f206e6f6e20455243373231526560408201527131b2b4bb32b91034b6b83632b6b2b73a32b960711b606082015260800190565b60208082526031908201527f4552433732313a207472616e736665722063616c6c6572206973206e6f74206f6040820152701ddb995c881b9bdc88185c1c1c9bdd9959607a1b606082015260800190565b6000821982111561194e5761194e611a14565b500190565b60008261196257611962611a2a565b500490565b60008282101561197957611979611a14565b500390565b60005b83811015611999578181015183820152602001611981565b838111156109585750506000910152565b600181811c908216806119be57607f821691505b602082108114156119df57634e487b7160e01b600052602260045260246000fd5b50919050565b60006000198214156119f9576119f9611a14565b5060010190565b600082611a0f57611a0f611a2a565b500690565b634e487b7160e01b600052601160045260246000fd5b634e487b7160e01b600052601260045260246000fd5b634e487b7160e01b600052604160045260246000fd5b6001600160e01b031981168114611a6c57600080fd5b5056fea26469706673582212203a65163bcc139bba3ec71f08624e55b3e63a2f9a3d27cfbb8837777c731b9a7364736f6c63430008040033",
  "linkReferences": {},
  "deployedLinkReferences": {}
}