{
  "_format": "hh-sol-artifact-1",
  "contractName": "UITToken721",
  "sourceName": "contracts/UITToken721.sol",
  "abi": [
    {
      "inputs": [],
      "stateMutability": "nonpayable",
      "type": "constructor"
    },
    {
      "anonymous": false,
      "inputs": [
        {
          "indexed": true,
          "internalType": "address",
          "name": "owner",
          "type": "address"
        },
        {
          "indexed": true,
          "internalType": "address",
          "name": "approved",
          "type": "address"
        },
        {
          "indexed": true,
          "internalType": "uint256",
          "name": "tokenId",
          "type": "uint256"
        }
      ],
      "name": "Approval",
      "type": "event"
    },
    {
      "anonymous": false,
      "inputs": [
        {
          "indexed": true,
          "internalType": "address",
          "name": "owner",
          "type": "address"
        },
        {
          "indexed": true,
          "internalType": "address",
          "name": "operator",
          "type": "address"
        },
        {
          "indexed": false,
          "internalType": "bool",
          "name": "approved",
          "type": "bool"
        }
      ],
      "name": "ApprovalForAll",
      "type": "event"
    },
    {
      "anonymous": false,
      "inputs": [
        {
          "indexed": true,
          "internalType": "address",
          "name": "from",
          "type": "address"
        },
        {
          "indexed": true,
          "internalType": "address",
          "name": "to",
          "type": "address"
        },
        {
          "indexed": true,
          "internalType": "uint256",
          "name": "tokenId",
          "type": "uint256"
        }
      ],
      "name": "Transfer",
      "type": "event"
    },
    {
      "inputs": [
        {
          "internalType": "address",
          "name": "to",
          "type": "address"
        },
        {
          "internalType": "uint256",
          "name": "tokenId",
          "type": "uint256"
        }
      ],
      "name": "approve",
      "outputs": [],
      "stateMutability": "nonpayable",
      "type": "function"
    },
    {
      "inputs": [
        {
          "internalType": "address",
          "name": "owner",
          "type": "address"
        }
      ],
      "name": "balanceOf",
      "outputs": [
        {
          "internalType": "uint256",
          "name": "",
          "type": "uint256"
        }
      ],
      "stateMutability": "view",
      "type": "function"
    },
    {
      "inputs": [
        {
          "internalType": "uint256",
          "name": "tokenId",
          "type": "uint256"
        }
      ],
      "name": "getApproved",
      "outputs": [
        {
          "internalType": "address",
          "name": "",
          "type": "address"
        }
      ],
      "stateMutability": "view",
      "type": "function"
    },
    {
      "inputs": [],
      "name": "getTokenCount",
      "outputs": [
        {
          "internalType": "uint256",
          "name": "",
          "type": "uint256"
        }
      ],
      "stateMutability": "view",
      "type": "function"
    },
    {
      "inputs": [],
      "name": "getTokenIds",
      "outputs": [
        {
          "internalType": "uint256[]",
          "name": "",
          "type": "uint256[]"
        }
      ],
      "stateMutability": "view",
      "type": "function"
    },
    {
      "inputs": [
        {
          "internalType": "uint256",
          "name": "tokenId",
          "type": "uint256"
        }
      ],
      "name": "getTokenName",
      "outputs": [
        {
          "internalType": "string",
          "name": "",
          "type": "string"
        }
      ],
      "stateMutability": "view",
      "type": "function"
    },
    {
      "inputs": [
        {
          "internalType": "uint256",
          "name": "tokenId",
          "type": "uint256"
        }
      ],
      "name": "getTokenSymbol",
      "outputs": [
        {
          "internalType": "string",
          "name": "",
          "type": "string"
        }
      ],
      "stateMutability": "view",
      "type": "function"
    },
    {
      "inputs": [
        {
          "internalType": "uint256",
          "name": "tokenId",
          "type": "uint256"
        }
      ],
      "name": "getTokenUri",
      "outputs": [
        {
          "internalType": "string",
          "name": "",
          "type": "string"
        }
      ],
      "stateMutability": "view",
      "type": "function"
    },
    {
      "inputs": [
        {
          "internalType": "address",
          "name": "owner",
          "type": "address"
        },
        {
          "internalType": "address",
          "name": "operator",
          "type": "address"
        }
      ],
      "name": "isApprovedForAll",
      "outputs": [
        {
          "internalType": "bool",
          "name": "",
          "type": "bool"
        }
      ],
      "stateMutability": "view",
      "type": "function"
    },
    {
      "inputs": [
        {
          "internalType": "address",
          "name": "_owner",
          "type": "address"
        },
        {
          "internalType": "uint256",
          "name": "_id",
          "type": "uint256"
        },
        {
          "internalType": "string",
          "name": "_tokenUri",
          "type": "string"
        },
        {
          "internalType": "string",
          "name": "_name",
          "type": "string"
        },
        {
          "internalType": "string",
          "name": "_symbol",
          "type": "string"
        }
      ],
      "name": "mintNFT",
      "outputs": [],
      "stateMutability": "nonpayable",
      "type": "function"
    },
    {
      "inputs": [],
      "name": "name",
      "outputs": [
        {
          "internalType": "string",
          "name": "",
          "type": "string"
        }
      ],
      "stateMutability": "view",
      "type": "function"
    },
    {
      "inputs": [
        {
          "internalType": "uint256",
          "name": "tokenId",
          "type": "uint256"
        }
      ],
      "name": "ownerOf",
      "outputs": [
        {
          "internalType": "address",
          "name": "",
          "type": "address"
        }
      ],
      "stateMutability": "view",
      "type": "function"
    },
    {
      "inputs": [
        {
          "internalType": "address",
          "name": "from",
          "type": "address"
        },
        {
          "internalType": "address",
          "name": "to",
          "type": "address"
        },
        {
          "internalType": "uint256",
          "name": "tokenId",
          "type": "uint256"
        }
      ],
      "name": "safeTransferFrom",
      "outputs": [],
      "stateMutability": "nonpayable",
      "type": "function"
    },
    {
      "inputs": [
        {
          "internalType": "address",
          "name": "from",
          "type": "address"
        },
        {
          "internalType": "address",
          "name": "to",
          "type": "address"
        },
        {
          "internalType": "uint256",
          "name": "tokenId",
          "type": "uint256"
        },
        {
          "internalType": "bytes",
          "name": "_data",
          "type": "bytes"
        }
      ],
      "name": "safeTransferFrom",
      "outputs": [],
      "stateMutability": "nonpayable",
      "type": "function"
    },
    {
      "inputs": [
        {
          "internalType": "address",
          "name": "operator",
          "type": "address"
        },
        {
          "internalType": "bool",
          "name": "approved",
          "type": "bool"
        }
      ],
      "name": "setApprovalForAll",
      "outputs": [],
      "stateMutability": "nonpayable",
      "type": "function"
    },
    {
      "inputs": [
        {
          "internalType": "address",
          "name": "_address",
          "type": "address"
        }
      ],
      "name": "setParentAddress",
      "outputs": [],
      "stateMutability": "nonpayable",
      "type": "function"
    },
    {
      "inputs": [],
      "name": "setParentApproval",
      "outputs": [],
      "stateMutability": "nonpayable",
      "type": "function"
    },
    {
      "inputs": [
        {
          "internalType": "bytes4",
          "name": "interfaceId",
          "type": "bytes4"
        }
      ],
      "name": "supportsInterface",
      "outputs": [
        {
          "internalType": "bool",
          "name": "",
          "type": "bool"
        }
      ],
      "stateMutability": "view",
      "type": "function"
    },
    {
      "inputs": [],
      "name": "symbol",
      "outputs": [
        {
          "internalType": "string",
          "name": "",
          "type": "string"
        }
      ],
      "stateMutability": "view",
      "type": "function"
    },
    {
      "inputs": [
        {
          "internalType": "uint256",
          "name": "tokenId",
          "type": "uint256"
        }
      ],
      "name": "tokenURI",
      "outputs": [
        {
          "internalType": "string",
          "name": "",
          "type": "string"
        }
      ],
      "stateMutability": "view",
      "type": "function"
    },
    {
      "inputs": [
        {
          "internalType": "address",
          "name": "from",
          "type": "address"
        },
        {
          "internalType": "address",
          "name": "to",
          "type": "address"
        },
        {
          "internalType": "uint256",
          "name": "tokenId",
          "type": "uint256"
        }
      ],
      "name": "transferFrom",
      "outputs": [],
      "stateMutability": "nonpayable",
      "type": "function"
    }
  ],
  "bytecode": "0x60806040523480156200001157600080fd5b50604080518082018252600b81526a554954546f6b656e37323160a81b6020808301918252835180850190945260048452635537323160e01b908401528151919291620000619160009162000080565b5080516200007790600190602084019062000080565b50505062000163565b8280546200008e9062000126565b90600052602060002090601f016020900481019282620000b25760008555620000fd565b82601f10620000cd57805160ff1916838001178555620000fd565b82800160010185558215620000fd579182015b82811115620000fd578251825591602001919060010190620000e0565b506200010b9291506200010f565b5090565b5b808211156200010b576000815560010162000110565b600181811c908216806200013b57607f821691505b602082108114156200015d57634e487b7160e01b600052602260045260246000fd5b50919050565b611a4880620001736000396000f3fe608060405234801561001057600080fd5b50600436106101375760003560e01c806378a89567116100b8578063b88d4fde1161007c578063b88d4fde14610284578063c87b56dd14610297578063d49e2b59146102aa578063dbe16c07146102b2578063e985e9c5146102c5578063fa5afe401461030157600080fd5b806378a895671461023b5780637b78bd3f146102435780638ad913451461025657806395d89b4114610269578063a22cb4651461027157600080fd5b8063257d89db116100ff578063257d89db146101cc57806342842e0e146101df5780636352211e146101f257806367f718a91461020557806370a082311461021a57600080fd5b806301ffc9a71461013c57806306fdde0314610164578063081812fc14610179578063095ea7b3146101a457806323b872dd146101b9575b600080fd5b61014f61014a3660046116fc565b610331565b60405190151581526020015b60405180910390f35b61016c610383565b60405161015b9190611828565b61018c610187366004611734565b610415565b6040516001600160a01b03909116815260200161015b565b6101b76101b2366004611634565b6104a2565b005b6101b76101c7366004611546565b6105b8565b6101b76101da36600461165d565b6105e9565b6101b76101ed366004611546565b6106a9565b61018c610200366004611734565b6106c4565b61020d61073b565b60405161015b91906117e4565b61022d6102283660046114fa565b610792565b60405190815260200161015b565b60085461022d565b61016c610251366004611734565b610819565b61016c610264366004611734565b6108be565b61016c6108de565b6101b761027f3660046115fa565b6108ed565b6101b7610292366004611581565b6108fc565b61016c6102a5366004611734565b610934565b6101b7610aab565b61016c6102c0366004611734565b610ac4565b61014f6102d3366004611514565b6001600160a01b03918216600090815260056020908152604080832093909416825291909152205460ff1690565b6101b761030f3660046114fa565b600780546001600160a01b0319166001600160a01b0392909216919091179055565b60006001600160e01b031982166380ac58cd60e01b148061036257506001600160e01b03198216635b5e139f60e01b145b8061037d57506301ffc9a760e01b6001600160e01b03198316145b92915050565b6060600080546103929061194d565b80601f01602080910402602001604051908101604052809291908181526020018280546103be9061194d565b801561040b5780601f106103e05761010080835404028352916020019161040b565b820191906000526020600020905b8154815290600101906020018083116103ee57829003601f168201915b5050505050905090565b600061042082610ae4565b6104865760405162461bcd60e51b815260206004820152602c60248201527f4552433732313a20617070726f76656420717565727920666f72206e6f6e657860448201526b34b9ba32b73a103a37b5b2b760a11b60648201526084015b60405180910390fd5b506000908152600460205260409020546001600160a01b031690565b60006104ad826106c4565b9050806001600160a01b0316836001600160a01b0316141561051b5760405162461bcd60e51b815260206004820152602160248201527f4552433732313a20617070726f76616c20746f2063757272656e74206f776e656044820152603960f91b606482015260840161047d565b336001600160a01b0382161480610537575061053781336102d3565b6105a95760405162461bcd60e51b815260206004820152603860248201527f4552433732313a20617070726f76652063616c6c6572206973206e6f74206f7760448201527f6e6572206e6f7220617070726f76656420666f7220616c6c0000000000000000606482015260840161047d565b6105b38383610b01565b505050565b6105c23382610b6f565b6105de5760405162461bcd60e51b815260040161047d9061188d565b6105b3838383610c55565b6105f38585610df1565b6105fd8484610f24565b6008805460018181019092557ff3f7a9fe364faab93b216da50a3214154f22a0a2b415b23a84c8169e8b636ee301859055600085815260096020908152604090912086815584516106559391909101918501906113b0565b506000848152600960209081526040909120825161067b926002909201918401906113b0565b50600084815260096020908152604090912084516106a1926003909201918601906113b0565b505050505050565b6105b3838383604051806020016040528060008152506108fc565b6000818152600260205260408120546001600160a01b03168061037d5760405162461bcd60e51b815260206004820152602960248201527f4552433732313a206f776e657220717565727920666f72206e6f6e657869737460448201526832b73a103a37b5b2b760b91b606482015260840161047d565b6060600880548060200260200160405190810160405280929190818152602001828054801561040b57602002820191906000526020600020905b815481526020019060010190808311610775575050505050905090565b60006001600160a01b0382166107fd5760405162461bcd60e51b815260206004820152602a60248201527f4552433732313a2062616c616e636520717565727920666f7220746865207a65604482015269726f206164647265737360b01b606482015260840161047d565b506001600160a01b031660009081526003602052604090205490565b60008181526009602052604090206002018054606091906108399061194d565b80601f01602080910402602001604051908101604052809291908181526020018280546108659061194d565b80156108b25780601f10610887576101008083540402835291602001916108b2565b820191906000526020600020905b81548152906001019060200180831161089557829003601f168201915b50505050509050919050565b60008181526009602052604090206003018054606091906108399061194d565b6060600180546103929061194d565b6108f8338383610faf565b5050565b6109063383610b6f565b6109225760405162461bcd60e51b815260040161047d9061188d565b61092e8484848461107e565b50505050565b606061093f82610ae4565b6109a55760405162461bcd60e51b815260206004820152603160248201527f45524337323155524953746f726167653a2055524920717565727920666f72206044820152703737b732bc34b9ba32b73a103a37b5b2b760791b606482015260840161047d565b600082815260066020526040812080546109be9061194d565b80601f01602080910402602001604051908101604052809291908181526020018280546109ea9061194d565b8015610a375780601f10610a0c57610100808354040283529160200191610a37565b820191906000526020600020905b815481529060010190602001808311610a1a57829003601f168201915b505050505090506000610a5560408051602081019091526000815290565b9050805160001415610a68575092915050565b815115610a9a578082604051602001610a82929190611778565b60405160208183030381529060405292505050919050565b610aa3846110b1565b949350505050565b600754610ac2906001600160a01b031660016108ed565b565b60008181526009602052604090206001018054606091906108399061194d565b6000908152600260205260409020546001600160a01b0316151590565b600081815260046020526040902080546001600160a01b0319166001600160a01b0384169081179091558190610b36826106c4565b6001600160a01b03167f8c5be1e5ebec7d5bd14f71427d1e84f3dd0314c0f7b2291e5b200ac8c7c3b92560405160405180910390a45050565b6000610b7a82610ae4565b610bdb5760405162461bcd60e51b815260206004820152602c60248201527f4552433732313a206f70657261746f7220717565727920666f72206e6f6e657860448201526b34b9ba32b73a103a37b5b2b760a11b606482015260840161047d565b6000610be6836106c4565b9050806001600160a01b0316846001600160a01b03161480610c215750836001600160a01b0316610c1684610415565b6001600160a01b0316145b80610aa357506001600160a01b0380821660009081526005602090815260408083209388168352929052205460ff16610aa3565b826001600160a01b0316610c68826106c4565b6001600160a01b031614610ccc5760405162461bcd60e51b815260206004820152602560248201527f4552433732313a207472616e736665722066726f6d20696e636f72726563742060448201526437bbb732b960d91b606482015260840161047d565b6001600160a01b038216610d2e5760405162461bcd60e51b8152602060048201526024808201527f4552433732313a207472616e7366657220746f20746865207a65726f206164646044820152637265737360e01b606482015260840161047d565b610d39600082610b01565b6001600160a01b0383166000908152600360205260408120805460019290610d6290849061190a565b90915550506001600160a01b0382166000908152600360205260408120805460019290610d909084906118de565b909155505060008181526002602052604080822080546001600160a01b0319166001600160a01b0386811691821790925591518493918716917fddf252ad1be2c89b69c2b068fc378daa952ba7f163c4a11628f55a4df523b3ef91a4505050565b6001600160a01b038216610e475760405162461bcd60e51b815260206004820181905260248201527f4552433732313a206d696e7420746f20746865207a65726f2061646472657373604482015260640161047d565b610e5081610ae4565b15610e9d5760405162461bcd60e51b815260206004820152601c60248201527f4552433732313a20746f6b656e20616c7265616479206d696e74656400000000604482015260640161047d565b6001600160a01b0382166000908152600360205260408120805460019290610ec69084906118de565b909155505060008181526002602052604080822080546001600160a01b0319166001600160a01b03861690811790915590518392907fddf252ad1be2c89b69c2b068fc378daa952ba7f163c4a11628f55a4df523b3ef908290a45050565b610f2d82610ae4565b610f905760405162461bcd60e51b815260206004820152602e60248201527f45524337323155524953746f726167653a2055524920736574206f66206e6f6e60448201526d32bc34b9ba32b73a103a37b5b2b760911b606482015260840161047d565b600082815260066020908152604090912082516105b3928401906113b0565b816001600160a01b0316836001600160a01b031614156110115760405162461bcd60e51b815260206004820152601960248201527f4552433732313a20617070726f766520746f2063616c6c657200000000000000604482015260640161047d565b6001600160a01b03838116600081815260056020908152604080832094871680845294825291829020805460ff191686151590811790915591519182527f17307eab39ab6107e8899845ad3d59bd9653f200f220920489ca2b5937696c31910160405180910390a3505050565b611089848484610c55565b61109584848484611189565b61092e5760405162461bcd60e51b815260040161047d9061183b565b60606110bc82610ae4565b6111205760405162461bcd60e51b815260206004820152602f60248201527f4552433732314d657461646174613a2055524920717565727920666f72206e6f60448201526e3732bc34b9ba32b73a103a37b5b2b760891b606482015260840161047d565b600061113760408051602081019091526000815290565b905060008151116111575760405180602001604052806000815250611182565b8061116184611296565b604051602001611172929190611778565b6040516020818303038152906040525b9392505050565b60006001600160a01b0384163b1561128b57604051630a85bd0160e11b81526001600160a01b0385169063150b7a02906111cd9033908990889088906004016117a7565b602060405180830381600087803b1580156111e757600080fd5b505af1925050508015611217575060408051601f3d908101601f1916820190925261121491810190611718565b60015b611271573d808015611245576040519150601f19603f3d011682016040523d82523d6000602084013e61124a565b606091505b5080516112695760405162461bcd60e51b815260040161047d9061183b565b805181602001fd5b6001600160e01b031916630a85bd0160e11b149050610aa3565b506001949350505050565b6060816112ba5750506040805180820190915260018152600360fc1b602082015290565b8160005b81156112e457806112ce81611988565b91506112dd9050600a836118f6565b91506112be565b60008167ffffffffffffffff81111561130d57634e487b7160e01b600052604160045260246000fd5b6040519080825280601f01601f191660200182016040528015611337576020820181803683370190505b5090505b8415610aa35761134c60018361190a565b9150611359600a866119a3565b6113649060306118de565b60f81b81838151811061138757634e487b7160e01b600052603260045260246000fd5b60200101906001600160f81b031916908160001a9053506113a9600a866118f6565b945061133b565b8280546113bc9061194d565b90600052602060002090601f0160209004810192826113de5760008555611424565b82601f106113f757805160ff1916838001178555611424565b82800160010185558215611424579182015b82811115611424578251825591602001919060010190611409565b50611430929150611434565b5090565b5b808211156114305760008155600101611435565b600067ffffffffffffffff80841115611464576114646119e3565b604051601f8501601f19908116603f0116810190828211818310171561148c5761148c6119e3565b816040528093508581528686860111156114a557600080fd5b858560208301376000602087830101525050509392505050565b80356001600160a01b03811681146114d657600080fd5b919050565b600082601f8301126114eb578081fd5b61118283833560208501611449565b60006020828403121561150b578081fd5b611182826114bf565b60008060408385031215611526578081fd5b61152f836114bf565b915061153d602084016114bf565b90509250929050565b60008060006060848603121561155a578081fd5b611563846114bf565b9250611571602085016114bf565b9150604084013590509250925092565b60008060008060808587031215611596578081fd5b61159f856114bf565b93506115ad602086016114bf565b925060408501359150606085013567ffffffffffffffff8111156115cf578182fd5b8501601f810187136115df578182fd5b6115ee87823560208401611449565b91505092959194509250565b6000806040838503121561160c578182fd5b611615836114bf565b915060208301358015158114611629578182fd5b809150509250929050565b60008060408385031215611646578182fd5b61164f836114bf565b946020939093013593505050565b600080600080600060a08688031215611674578081fd5b61167d866114bf565b945060208601359350604086013567ffffffffffffffff808211156116a0578283fd5b6116ac89838a016114db565b945060608801359150808211156116c1578283fd5b6116cd89838a016114db565b935060808801359150808211156116e2578283fd5b506116ef888289016114db565b9150509295509295909350565b60006020828403121561170d578081fd5b8135611182816119f9565b600060208284031215611729578081fd5b8151611182816119f9565b600060208284031215611745578081fd5b5035919050565b60008151808452611764816020860160208601611921565b601f01601f19169290920160200192915050565b6000835161178a818460208801611921565b83519083019061179e818360208801611921565b01949350505050565b6001600160a01b03858116825284166020820152604081018390526080606082018190526000906117da9083018461174c565b9695505050505050565b6020808252825182820181905260009190848201906040850190845b8181101561181c57835183529284019291840191600101611800565b50909695505050505050565b602081526000611182602083018461174c565b60208082526032908201527f4552433732313a207472616e7366657220746f206e6f6e20455243373231526560408201527131b2b4bb32b91034b6b83632b6b2b73a32b960711b606082015260800190565b60208082526031908201527f4552433732313a207472616e736665722063616c6c6572206973206e6f74206f6040820152701ddb995c881b9bdc88185c1c1c9bdd9959607a1b606082015260800190565b600082198211156118f1576118f16119b7565b500190565b600082611905576119056119cd565b500490565b60008282101561191c5761191c6119b7565b500390565b60005b8381101561193c578181015183820152602001611924565b8381111561092e5750506000910152565b600181811c9082168061196157607f821691505b6020821081141561198257634e487b7160e01b600052602260045260246000fd5b50919050565b600060001982141561199c5761199c6119b7565b5060010190565b6000826119b2576119b26119cd565b500690565b634e487b7160e01b600052601160045260246000fd5b634e487b7160e01b600052601260045260246000fd5b634e487b7160e01b600052604160045260246000fd5b6001600160e01b031981168114611a0f57600080fd5b5056fea2646970667358221220e6da4c0815e1d8bdc56f79db436ab0c4a2c40e0e0852a3b57bd3a5107ea1687664736f6c63430008040033",
  "linkReferences": {},
  "deployedLinkReferences": {}
}