{
  "_format": "hh-sol-artifact-1",
  "contractName": "UITToken1155",
  "sourceName": "contracts/UITToken1155.sol",
  "abi": [
    {
      "inputs": [],
      "stateMutability": "nonpayable",
      "type": "constructor"
    },
    {
      "anonymous": false,
      "inputs": [
        {
          "indexed": true,
          "internalType": "address",
          "name": "account",
          "type": "address"
        },
        {
          "indexed": true,
          "internalType": "address",
          "name": "operator",
          "type": "address"
        },
        {
          "indexed": false,
          "internalType": "bool",
          "name": "approved",
          "type": "bool"
        }
      ],
      "name": "ApprovalForAll",
      "type": "event"
    },
    {
      "anonymous": false,
      "inputs": [
        {
          "indexed": true,
          "internalType": "address",
          "name": "previousOwner",
          "type": "address"
        },
        {
          "indexed": true,
          "internalType": "address",
          "name": "newOwner",
          "type": "address"
        }
      ],
      "name": "OwnershipTransferred",
      "type": "event"
    },
    {
      "anonymous": false,
      "inputs": [
        {
          "indexed": true,
          "internalType": "address",
          "name": "operator",
          "type": "address"
        },
        {
          "indexed": true,
          "internalType": "address",
          "name": "from",
          "type": "address"
        },
        {
          "indexed": true,
          "internalType": "address",
          "name": "to",
          "type": "address"
        },
        {
          "indexed": false,
          "internalType": "uint256[]",
          "name": "ids",
          "type": "uint256[]"
        },
        {
          "indexed": false,
          "internalType": "uint256[]",
          "name": "values",
          "type": "uint256[]"
        }
      ],
      "name": "TransferBatch",
      "type": "event"
    },
    {
      "anonymous": false,
      "inputs": [
        {
          "indexed": true,
          "internalType": "address",
          "name": "operator",
          "type": "address"
        },
        {
          "indexed": true,
          "internalType": "address",
          "name": "from",
          "type": "address"
        },
        {
          "indexed": true,
          "internalType": "address",
          "name": "to",
          "type": "address"
        },
        {
          "indexed": false,
          "internalType": "uint256",
          "name": "id",
          "type": "uint256"
        },
        {
          "indexed": false,
          "internalType": "uint256",
          "name": "value",
          "type": "uint256"
        }
      ],
      "name": "TransferSingle",
      "type": "event"
    },
    {
      "anonymous": false,
      "inputs": [
        {
          "indexed": false,
          "internalType": "string",
          "name": "value",
          "type": "string"
        },
        {
          "indexed": true,
          "internalType": "uint256",
          "name": "id",
          "type": "uint256"
        }
      ],
      "name": "URI",
      "type": "event"
    },
    {
      "inputs": [
        {
          "internalType": "address",
          "name": "account",
          "type": "address"
        },
        {
          "internalType": "uint256",
          "name": "id",
          "type": "uint256"
        }
      ],
      "name": "balanceOf",
      "outputs": [
        {
          "internalType": "uint256",
          "name": "",
          "type": "uint256"
        }
      ],
      "stateMutability": "view",
      "type": "function"
    },
    {
      "inputs": [
        {
          "internalType": "address[]",
          "name": "accounts",
          "type": "address[]"
        },
        {
          "internalType": "uint256[]",
          "name": "ids",
          "type": "uint256[]"
        }
      ],
      "name": "balanceOfBatch",
      "outputs": [
        {
          "internalType": "uint256[]",
          "name": "",
          "type": "uint256[]"
        }
      ],
      "stateMutability": "view",
      "type": "function"
    },
    {
      "inputs": [],
      "name": "getTokenCount",
      "outputs": [
        {
          "internalType": "uint256",
          "name": "",
          "type": "uint256"
        }
      ],
      "stateMutability": "view",
      "type": "function"
    },
    {
      "inputs": [],
      "name": "getTokenIds",
      "outputs": [
        {
          "internalType": "uint256[]",
          "name": "",
          "type": "uint256[]"
        }
      ],
      "stateMutability": "view",
      "type": "function"
    },
    {
      "inputs": [
        {
          "internalType": "uint256",
          "name": "_tokenId",
          "type": "uint256"
        }
      ],
      "name": "getTokenURI",
      "outputs": [
        {
          "internalType": "string",
          "name": "",
          "type": "string"
        }
      ],
      "stateMutability": "view",
      "type": "function"
    },
    {
      "inputs": [
        {
          "internalType": "uint256",
          "name": "_id",
          "type": "uint256"
        }
      ],
      "name": "getTotalSupplyOfToken",
      "outputs": [
        {
          "internalType": "uint256",
          "name": "",
          "type": "uint256"
        }
      ],
      "stateMutability": "view",
      "type": "function"
    },
    {
      "inputs": [
        {
          "internalType": "address",
          "name": "account",
          "type": "address"
        },
        {
          "internalType": "address",
          "name": "operator",
          "type": "address"
        }
      ],
      "name": "isApprovedForAll",
      "outputs": [
        {
          "internalType": "bool",
          "name": "",
          "type": "bool"
        }
      ],
      "stateMutability": "view",
      "type": "function"
    },
    {
      "inputs": [
        {
          "internalType": "address",
          "name": "_owner",
          "type": "address"
        },
        {
          "internalType": "uint256",
          "name": "_id",
          "type": "uint256"
        },
        {
          "internalType": "uint256",
          "name": "amount",
          "type": "uint256"
        },
        {
          "internalType": "string",
          "name": "_tokenUri",
          "type": "string"
        }
      ],
      "name": "mintNFT",
      "outputs": [],
      "stateMutability": "nonpayable",
      "type": "function"
    },
    {
      "inputs": [],
      "name": "owner",
      "outputs": [
        {
          "internalType": "address",
          "name": "",
          "type": "address"
        }
      ],
      "stateMutability": "view",
      "type": "function"
    },
    {
      "inputs": [],
      "name": "renounceOwnership",
      "outputs": [],
      "stateMutability": "nonpayable",
      "type": "function"
    },
    {
      "inputs": [
        {
          "internalType": "address",
          "name": "from",
          "type": "address"
        },
        {
          "internalType": "address",
          "name": "to",
          "type": "address"
        },
        {
          "internalType": "uint256[]",
          "name": "ids",
          "type": "uint256[]"
        },
        {
          "internalType": "uint256[]",
          "name": "amounts",
          "type": "uint256[]"
        },
        {
          "internalType": "bytes",
          "name": "data",
          "type": "bytes"
        }
      ],
      "name": "safeBatchTransferFrom",
      "outputs": [],
      "stateMutability": "nonpayable",
      "type": "function"
    },
    {
      "inputs": [
        {
          "internalType": "address",
          "name": "from",
          "type": "address"
        },
        {
          "internalType": "address",
          "name": "to",
          "type": "address"
        },
        {
          "internalType": "uint256",
          "name": "id",
          "type": "uint256"
        },
        {
          "internalType": "uint256",
          "name": "amount",
          "type": "uint256"
        },
        {
          "internalType": "bytes",
          "name": "data",
          "type": "bytes"
        }
      ],
      "name": "safeTransferFrom",
      "outputs": [],
      "stateMutability": "nonpayable",
      "type": "function"
    },
    {
      "inputs": [
        {
          "internalType": "address",
          "name": "operator",
          "type": "address"
        },
        {
          "internalType": "bool",
          "name": "approved",
          "type": "bool"
        }
      ],
      "name": "setApprovalForAll",
      "outputs": [],
      "stateMutability": "nonpayable",
      "type": "function"
    },
    {
      "inputs": [
        {
          "internalType": "address",
          "name": "_address",
          "type": "address"
        }
      ],
      "name": "setParentAddress",
      "outputs": [],
      "stateMutability": "nonpayable",
      "type": "function"
    },
    {
      "inputs": [],
      "name": "setParentApproval",
      "outputs": [],
      "stateMutability": "nonpayable",
      "type": "function"
    },
    {
      "inputs": [
        {
          "internalType": "string",
          "name": "newuri",
          "type": "string"
        }
      ],
      "name": "setURI",
      "outputs": [],
      "stateMutability": "nonpayable",
      "type": "function"
    },
    {
      "inputs": [
        {
          "internalType": "bytes4",
          "name": "interfaceId",
          "type": "bytes4"
        }
      ],
      "name": "supportsInterface",
      "outputs": [
        {
          "internalType": "bool",
          "name": "",
          "type": "bool"
        }
      ],
      "stateMutability": "view",
      "type": "function"
    },
    {
      "inputs": [
        {
          "internalType": "address",
          "name": "newOwner",
          "type": "address"
        }
      ],
      "name": "transferOwnership",
      "outputs": [],
      "stateMutability": "nonpayable",
      "type": "function"
    },
    {
      "inputs": [
        {
          "internalType": "uint256",
          "name": "_tokenId",
          "type": "uint256"
        }
      ],
      "name": "uri",
      "outputs": [
        {
          "internalType": "string",
          "name": "",
          "type": "string"
        }
      ],
      "stateMutability": "view",
      "type": "function"
    }
  ],
  "bytecode": "0x60806040523480156200001157600080fd5b506040805160208101909152600081526200002c816200003e565b50620000383362000057565b6200018c565b805162000053906002906020840190620000a9565b5050565b600380546001600160a01b038381166001600160a01b0319831681179093556040519116919082907f8be0079c531659141344cd1fd0a4f28419497f9722a3daafe3b4186f6b6457e090600090a35050565b828054620000b7906200014f565b90600052602060002090601f016020900481019282620000db576000855562000126565b82601f10620000f657805160ff191683800117855562000126565b8280016001018555821562000126579182015b828111156200012657825182559160200191906001019062000109565b506200013492915062000138565b5090565b5b8082111562000134576000815560010162000139565b600181811c908216806200016457607f821691505b602082108114156200018657634e487b7160e01b600052602260045260246000fd5b50919050565b611a4b806200019c6000396000f3fe608060405234801561001057600080fd5b50600436106101205760003560e01c8063715018a6116100ad578063d49e2b5911610071578063d49e2b591461024f578063e985e9c514610257578063f242432a14610293578063f2fde38b146102a6578063fa5afe40146102b957600080fd5b8063715018a6146101f157806378a89567146101f95780638da5cb5b1461020157806397492c1c1461021c578063a22cb4651461023c57600080fd5b80632eb2c2d6116100f45780632eb2c2d6146101a35780633bb3a24d146101835780634e1273f4146101b6578063655a2b1a146101d657806367f718a9146101e957600080fd5b8062fdd58e1461012557806301ffc9a71461014b57806302fe53051461016e5780630e89341c14610183575b600080fd5b61013861013336600461140c565b6102e9565b6040519081526020015b60405180910390f35b61015e61015936600461155f565b610380565b6040519015158152602001610142565b61018161017c366004611597565b6103d2565b005b6101966101913660046115d2565b610408565b6040516101429190611753565b6101816101b13660046112c9565b6104aa565b6101c96101c4366004611494565b610541565b6040516101429190611712565b6101816101e4366004611435565b6106a3565b6101c9610717565b61018161076f565b600554610138565b6003546040516001600160a01b039091168152602001610142565b61013861022a3660046115d2565b60009081526006602052604090205490565b61018161024a3660046113d2565b6107a5565b6101816107b4565b61015e610265366004611297565b6001600160a01b03918216600090815260016020908152604080832093909416825291909152205460ff1690565b6101816102a136600461136f565b6107cb565b6101816102b4366004611276565b610852565b6101816102c7366004611276565b600480546001600160a01b0319166001600160a01b0392909216919091179055565b60006001600160a01b03831661035a5760405162461bcd60e51b815260206004820152602b60248201527f455243313135353a2062616c616e636520717565727920666f7220746865207a60448201526a65726f206164647265737360a81b60648201526084015b60405180910390fd5b506000908152602081815260408083206001600160a01b03949094168352929052205490565b60006001600160e01b03198216636cdb3d1360e11b14806103b157506001600160e01b031982166303a24d0760e21b145b806103cc57506301ffc9a760e01b6001600160e01b03198316145b92915050565b6003546001600160a01b031633146103fc5760405162461bcd60e51b81526004016103519061183d565b610405816108ea565b50565b6000818152600760205260409020805460609190610425906118ae565b80601f0160208091040260200160405190810160405280929190818152602001828054610451906118ae565b801561049e5780601f106104735761010080835404028352916020019161049e565b820191906000526020600020905b81548152906001019060200180831161048157829003601f168201915b50505050509050919050565b6001600160a01b0385163314806104c657506104c68533610265565b61052d5760405162461bcd60e51b815260206004820152603260248201527f455243313135353a207472616e736665722063616c6c6572206973206e6f74206044820152711bdddb995c881b9bdc88185c1c1c9bdd995960721b6064820152608401610351565b61053a85858585856108fd565b5050505050565b606081518351146105a65760405162461bcd60e51b815260206004820152602960248201527f455243313135353a206163636f756e747320616e6420696473206c656e677468604482015268040dad2e6dac2e8c6d60bb1b6064820152608401610351565b6000835167ffffffffffffffff8111156105d057634e487b7160e01b600052604160045260246000fd5b6040519080825280602002602001820160405280156105f9578160200160208202803683370190505b50905060005b845181101561069b5761066085828151811061062b57634e487b7160e01b600052603260045260246000fd5b602002602001015185838151811061065357634e487b7160e01b600052603260045260246000fd5b60200260200101516102e9565b82828151811061068057634e487b7160e01b600052603260045260246000fd5b602090810291909101015261069481611916565b90506105ff565b509392505050565b6106be84848460405180602001604052806000815250610af6565b60058054600181019091557f036b6384b5eca791c62761152d0c79bb0604c104a5fb6f4eb0703f3154bb3db001839055600083815260066020908152604080832085905560078252909120825161053a928401906110de565b6060600580548060200260200160405190810160405280929190818152602001828054801561076557602002820191906000526020600020905b815481526020019060010190808311610751575b5050505050905090565b6003546001600160a01b031633146107995760405162461bcd60e51b81526004016103519061183d565b6107a36000610c00565b565b6107b0338383610c52565b5050565b6004546107a3906001600160a01b031660016107a5565b6001600160a01b0385163314806107e757506107e78533610265565b6108455760405162461bcd60e51b815260206004820152602960248201527f455243313135353a2063616c6c6572206973206e6f74206f776e6572206e6f7260448201526808185c1c1c9bdd995960ba1b6064820152608401610351565b61053a8585858585610d33565b6003546001600160a01b0316331461087c5760405162461bcd60e51b81526004016103519061183d565b6001600160a01b0381166108e15760405162461bcd60e51b815260206004820152602660248201527f4f776e61626c653a206e6577206f776e657220697320746865207a65726f206160448201526564647265737360d01b6064820152608401610351565b61040581610c00565b80516107b09060029060208401906110de565b815183511461095f5760405162461bcd60e51b815260206004820152602860248201527f455243313135353a2069647320616e6420616d6f756e7473206c656e677468206044820152670dad2e6dac2e8c6d60c31b6064820152608401610351565b6001600160a01b0384166109855760405162461bcd60e51b8152600401610351906117ae565b3360005b8451811015610a885760008582815181106109b457634e487b7160e01b600052603260045260246000fd5b6020026020010151905060008583815181106109e057634e487b7160e01b600052603260045260246000fd5b602090810291909101810151600084815280835260408082206001600160a01b038e168352909352919091205490915081811015610a305760405162461bcd60e51b8152600401610351906117f3565b6000838152602081815260408083206001600160a01b038e8116855292528083208585039055908b16825281208054849290610a6d908490611896565b9250508190555050505080610a8190611916565b9050610989565b50846001600160a01b0316866001600160a01b0316826001600160a01b03167f4a39dc06d4c0dbc64b70af90fd698a233a518aa5d07e595d983b8c0526c8f7fb8787604051610ad8929190611725565b60405180910390a4610aee818787878787610e50565b505050505050565b6001600160a01b038416610b565760405162461bcd60e51b815260206004820152602160248201527f455243313135353a206d696e7420746f20746865207a65726f206164647265736044820152607360f81b6064820152608401610351565b33610b7081600087610b6788610fbb565b61053a88610fbb565b6000848152602081815260408083206001600160a01b038916845290915281208054859290610ba0908490611896565b909155505060408051858152602081018590526001600160a01b0380881692600092918516917fc3d58168c5ae7397731d063d5bbf3d657854427343f4c083240f7aacaa2d0f62910160405180910390a461053a81600087878787611014565b600380546001600160a01b038381166001600160a01b0319831681179093556040519116919082907f8be0079c531659141344cd1fd0a4f28419497f9722a3daafe3b4186f6b6457e090600090a35050565b816001600160a01b0316836001600160a01b03161415610cc65760405162461bcd60e51b815260206004820152602960248201527f455243313135353a2073657474696e6720617070726f76616c20737461747573604482015268103337b91039b2b63360b91b6064820152608401610351565b6001600160a01b03838116600081815260016020908152604080832094871680845294825291829020805460ff191686151590811790915591519182527f17307eab39ab6107e8899845ad3d59bd9653f200f220920489ca2b5937696c31910160405180910390a3505050565b6001600160a01b038416610d595760405162461bcd60e51b8152600401610351906117ae565b33610d69818787610b6788610fbb565b6000848152602081815260408083206001600160a01b038a16845290915290205483811015610daa5760405162461bcd60e51b8152600401610351906117f3565b6000858152602081815260408083206001600160a01b038b8116855292528083208785039055908816825281208054869290610de7908490611896565b909155505060408051868152602081018690526001600160a01b03808916928a821692918616917fc3d58168c5ae7397731d063d5bbf3d657854427343f4c083240f7aacaa2d0f62910160405180910390a4610e47828888888888611014565b50505050505050565b6001600160a01b0384163b15610aee5760405163bc197c8160e01b81526001600160a01b0385169063bc197c8190610e94908990899088908890889060040161166f565b602060405180830381600087803b158015610eae57600080fd5b505af1925050508015610ede575060408051601f3d908101601f19168201909252610edb9181019061157b565b60015b610f8b57610eea61195d565b806308c379a01415610f245750610eff611975565b80610f0a5750610f26565b8060405162461bcd60e51b81526004016103519190611753565b505b60405162461bcd60e51b815260206004820152603460248201527f455243313135353a207472616e7366657220746f206e6f6e20455243313135356044820152732932b1b2b4bb32b91034b6b83632b6b2b73a32b960611b6064820152608401610351565b6001600160e01b0319811663bc197c8160e01b14610e475760405162461bcd60e51b815260040161035190611766565b6040805160018082528183019092526060916000919060208083019080368337019050509050828160008151811061100357634e487b7160e01b600052603260045260246000fd5b602090810291909101015292915050565b6001600160a01b0384163b15610aee5760405163f23a6e6160e01b81526001600160a01b0385169063f23a6e619061105890899089908890889088906004016116cd565b602060405180830381600087803b15801561107257600080fd5b505af19250505080156110a2575060408051601f3d908101601f1916820190925261109f9181019061157b565b60015b6110ae57610eea61195d565b6001600160e01b0319811663f23a6e6160e01b14610e475760405162461bcd60e51b815260040161035190611766565b8280546110ea906118ae565b90600052602060002090601f01602090048101928261110c5760008555611152565b82601f1061112557805160ff1916838001178555611152565b82800160010185558215611152579182015b82811115611152578251825591602001919060010190611137565b5061115e929150611162565b5090565b5b8082111561115e5760008155600101611163565b80356001600160a01b038116811461118e57600080fd5b919050565b600082601f8301126111a3578081fd5b813560206111b082611872565b6040516111bd82826118e9565b8381528281019150858301600585901b870184018810156111dc578586fd5b855b858110156111fa578135845292840192908401906001016111de565b5090979650505050505050565b600082601f830112611217578081fd5b813567ffffffffffffffff81111561123157611231611947565b604051611248601f8301601f1916602001826118e9565b81815284602083860101111561125c578283fd5b816020850160208301379081016020019190915292915050565b600060208284031215611287578081fd5b61129082611177565b9392505050565b600080604083850312156112a9578081fd5b6112b283611177565b91506112c060208401611177565b90509250929050565b600080600080600060a086880312156112e0578081fd5b6112e986611177565b94506112f760208701611177565b9350604086013567ffffffffffffffff80821115611313578283fd5b61131f89838a01611193565b94506060880135915080821115611334578283fd5b61134089838a01611193565b93506080880135915080821115611355578283fd5b5061136288828901611207565b9150509295509295909350565b600080600080600060a08688031215611386578081fd5b61138f86611177565b945061139d60208701611177565b93506040860135925060608601359150608086013567ffffffffffffffff8111156113c6578182fd5b61136288828901611207565b600080604083850312156113e4578182fd5b6113ed83611177565b915060208301358015158114611401578182fd5b809150509250929050565b6000806040838503121561141e578182fd5b61142783611177565b946020939093013593505050565b6000806000806080858703121561144a578384fd5b61145385611177565b93506020850135925060408501359150606085013567ffffffffffffffff81111561147c578182fd5b61148887828801611207565b91505092959194509250565b600080604083850312156114a6578182fd5b823567ffffffffffffffff808211156114bd578384fd5b818501915085601f8301126114d0578384fd5b813560206114dd82611872565b6040516114ea82826118e9565b8381528281019150858301600585901b870184018b1015611509578889fd5b8896505b848710156115325761151e81611177565b83526001969096019591830191830161150d565b5096505086013592505080821115611548578283fd5b5061155585828601611193565b9150509250929050565b600060208284031215611570578081fd5b8135611290816119ff565b60006020828403121561158c578081fd5b8151611290816119ff565b6000602082840312156115a8578081fd5b813567ffffffffffffffff8111156115be578182fd5b6115ca84828501611207565b949350505050565b6000602082840312156115e3578081fd5b5035919050565b6000815180845260208085019450808401835b83811015611619578151875295820195908201906001016115fd565b509495945050505050565b60008151808452815b818110156116495760208185018101518683018201520161162d565b8181111561165a5782602083870101525b50601f01601f19169290920160200192915050565b6001600160a01b0386811682528516602082015260a06040820181905260009061169b908301866115ea565b82810360608401526116ad81866115ea565b905082810360808401526116c18185611624565b98975050505050505050565b6001600160a01b03868116825285166020820152604081018490526060810183905260a06080820181905260009061170790830184611624565b979650505050505050565b60208152600061129060208301846115ea565b60408152600061173860408301856115ea565b828103602084015261174a81856115ea565b95945050505050565b6020815260006112906020830184611624565b60208082526028908201527f455243313135353a204552433131353552656365697665722072656a656374656040820152676420746f6b656e7360c01b606082015260800190565b60208082526025908201527f455243313135353a207472616e7366657220746f20746865207a65726f206164604082015264647265737360d81b606082015260800190565b6020808252602a908201527f455243313135353a20696e73756666696369656e742062616c616e636520666f60408201526939103a3930b739b332b960b11b606082015260800190565b6020808252818101527f4f776e61626c653a2063616c6c6572206973206e6f7420746865206f776e6572604082015260600190565b600067ffffffffffffffff82111561188c5761188c611947565b5060051b60200190565b600082198211156118a9576118a9611931565b500190565b600181811c908216806118c257607f821691505b602082108114156118e357634e487b7160e01b600052602260045260246000fd5b50919050565b601f8201601f1916810167ffffffffffffffff8111828210171561190f5761190f611947565b6040525050565b600060001982141561192a5761192a611931565b5060010190565b634e487b7160e01b600052601160045260246000fd5b634e487b7160e01b600052604160045260246000fd5b600060033d111561197257600481823e5160e01c5b90565b600060443d10156119835790565b6040516003193d81016004833e81513d67ffffffffffffffff81602484011181841117156119b357505050505090565b82850191508151818111156119cb5750505050505090565b843d87010160208285010111156119e55750505050505090565b6119f4602082860101876118e9565b509095945050505050565b6001600160e01b03198116811461040557600080fdfea2646970667358221220158c2ccf563b3b677769a0849efe62a5933565a1530bbea4980c88945f1febc764736f6c63430008040033",
  "linkReferences": {},
  "deployedLinkReferences": {}
}