{
  "_format": "hh-sol-artifact-1",
  "contractName": "VerifySignature",
  "sourceName": "contracts/VerifySignature.sol",
  "abi": [
    {
      "inputs": [
        {
          "internalType": "bytes32",
          "name": "_messageHash",
          "type": "bytes32"
        }
      ],
      "name": "getEthSignedMessageHash",
      "outputs": [
        {
          "internalType": "bytes32",
          "name": "",
          "type": "bytes32"
        }
      ],
      "stateMutability": "pure",
      "type": "function"
    },
    {
      "inputs": [
        {
          "internalType": "address",
          "name": "_to",
          "type": "address"
        },
        {
          "internalType": "uint256",
          "name": "_amount",
          "type": "uint256"
        },
        {
          "internalType": "string",
          "name": "_message",
          "type": "string"
        },
        {
          "internalType": "uint256",
          "name": "_nonce",
          "type": "uint256"
        }
      ],
      "name": "getMessageHash",
      "outputs": [
        {
          "internalType": "bytes32",
          "name": "",
          "type": "bytes32"
        }
      ],
      "stateMutability": "pure",
      "type": "function"
    },
    {
      "inputs": [
        {
          "internalType": "bytes32",
          "name": "_ethSignedMessageHash",
          "type": "bytes32"
        },
        {
          "internalType": "bytes",
          "name": "_signature",
          "type": "bytes"
        }
      ],
      "name": "recoverSigner",
      "outputs": [
        {
          "internalType": "address",
          "name": "",
          "type": "address"
        }
      ],
      "stateMutability": "pure",
      "type": "function"
    },
    {
      "inputs": [
        {
          "internalType": "bytes",
          "name": "sig",
          "type": "bytes"
        }
      ],
      "name": "splitSignature",
      "outputs": [
        {
          "internalType": "bytes32",
          "name": "r",
          "type": "bytes32"
        },
        {
          "internalType": "bytes32",
          "name": "s",
          "type": "bytes32"
        },
        {
          "internalType": "uint8",
          "name": "v",
          "type": "uint8"
        }
      ],
      "stateMutability": "pure",
      "type": "function"
    },
    {
      "inputs": [
        {
          "internalType": "address",
          "name": "_signer",
          "type": "address"
        },
        {
          "internalType": "address",
          "name": "_to",
          "type": "address"
        },
        {
          "internalType": "uint256",
          "name": "_amount",
          "type": "uint256"
        },
        {
          "internalType": "string",
          "name": "_message",
          "type": "string"
        },
        {
          "internalType": "uint256",
          "name": "_nonce",
          "type": "uint256"
        },
        {
          "internalType": "bytes",
          "name": "signature",
          "type": "bytes"
        }
      ],
      "name": "verify",
      "outputs": [
        {
          "internalType": "bool",
          "name": "",
          "type": "bool"
        }
      ],
      "stateMutability": "pure",
      "type": "function"
    }
  ],
  "bytecode": "0x608060405234801561001057600080fd5b506105be806100206000396000f3fe608060405234801561001057600080fd5b50600436106100575760003560e01c806397aba7f91461005c578063a35f8a401461008c578063a7bb5803146100ad578063abe5026a146100de578063fa54080114610101575b600080fd5b61006f61006a36600461048c565b610114565b6040516001600160a01b0390911681526020015b60405180910390f35b61009f61009a366004610417565b610193565b604051908152602001610083565b6100c06100bb3660046104d1565b6101cc565b60408051938452602084019290925260ff1690820152606001610083565b6100f16100ec366004610383565b610244565b6040519015158152602001610083565b61009f61010f366004610474565b61028d565b600080600080610123856101cc565b6040805160008152602081018083528b905260ff8316918101919091526060810184905260808101839052929550909350915060019060a0016020604051602081039080840390855afa15801561017e573d6000803e3d6000fd5b5050604051601f190151979650505050505050565b6000848484846040516020016101ac949392919061050c565b604051602081830303815290604052805190602001209050949350505050565b600080600083516041146102265760405162461bcd60e51b815260206004820152601860248201527f696e76616c6964207369676e6174757265206c656e6774680000000000000000604482015260640160405180910390fd5b50505060208101516040820151606090920151909260009190911a90565b60008061025387878787610193565b905060006102608261028d565b9050886001600160a01b03166102768286610114565b6001600160a01b0316149998505050505050505050565b6040517f19457468657265756d205369676e6564204d6573736167653a0a3332000000006020820152603c8101829052600090605c01604051602081830303815290604052805190602001209050919050565b80356001600160a01b03811681146102f757600080fd5b919050565b600082601f83011261030c578081fd5b813567ffffffffffffffff8082111561032757610327610572565b604051601f8301601f19908116603f0116810190828211818310171561034f5761034f610572565b81604052838152866020858801011115610367578485fd5b8360208701602083013792830160200193909352509392505050565b60008060008060008060c0878903121561039b578182fd5b6103a4876102e0565b95506103b2602088016102e0565b945060408701359350606087013567ffffffffffffffff808211156103d5578384fd5b6103e18a838b016102fc565b94506080890135935060a08901359150808211156103fd578283fd5b5061040a89828a016102fc565b9150509295509295509295565b6000806000806080858703121561042c578384fd5b610435856102e0565b935060208501359250604085013567ffffffffffffffff811115610457578283fd5b610463878288016102fc565b949793965093946060013593505050565b600060208284031215610485578081fd5b5035919050565b6000806040838503121561049e578182fd5b82359150602083013567ffffffffffffffff8111156104bb578182fd5b6104c7858286016102fc565b9150509250929050565b6000602082840312156104e2578081fd5b813567ffffffffffffffff8111156104f8578182fd5b610504848285016102fc565b949350505050565b6bffffffffffffffffffffffff198560601b16815283601482015260008351815b8181101561054a576020818701810151603486840101520161052d565b8181111561055b5782603483860101525b506034920191820192909252605401949350505050565b634e487b7160e01b600052604160045260246000fdfea2646970667358221220fe6c204e1f9928e859cfd991a98955c4bbd16d7012313e32137506032d495ae964736f6c63430008040033",
  "linkReferences": {},
  "deployedLinkReferences": {}
}