{
  "_format": "hh-sol-artifact-1",
  "contractName": "NFTMarketplace",
  "sourceName": "contracts/NFTMarketplace.sol",
  "abi": [
    {
      "inputs": [],
      "stateMutability": "nonpayable",
      "type": "constructor"
    },
    {
      "anonymous": false,
      "inputs": [
        {
          "indexed": true,
          "internalType": "uint256",
          "name": "tokenId",
          "type": "uint256"
        },
        {
          "indexed": true,
          "internalType": "address",
          "name": "nftContract",
          "type": "address"
        },
        {
          "indexed": false,
          "internalType": "address",
          "name": "seller",
          "type": "address"
        },
        {
          "indexed": false,
          "internalType": "address",
          "name": "bidder",
          "type": "address"
        },
        {
          "indexed": false,
          "internalType": "uint256",
          "name": "balance",
          "type": "uint256"
        }
      ],
      "name": "BidderWithdraw",
      "type": "event"
    },
    {
      "anonymous": false,
      "inputs": [
        {
          "indexed": true,
          "internalType": "uint256",
          "name": "tokenId",
          "type": "uint256"
        },
        {
          "indexed": true,
          "internalType": "address",
          "name": "nftContract",
          "type": "address"
        },
        {
          "indexed": false,
          "internalType": "address",
          "name": "seller",
          "type": "address"
        },
        {
          "indexed": false,
          "internalType": "bool",
          "name": "isMultiToken",
          "type": "bool"
        },
        {
          "indexed": false,
          "internalType": "address",
          "name": "highestBidder",
          "type": "address"
        },
        {
          "indexed": false,
          "internalType": "uint256",
          "name": "highestBid",
          "type": "uint256"
        },
        {
          "indexed": false,
          "internalType": "uint256",
          "name": "endTime",
          "type": "uint256"
        }
      ],
      "name": "MarketItemAuctionEnded",
      "type": "event"
    },
    {
      "anonymous": false,
      "inputs": [
        {
          "indexed": true,
          "internalType": "uint256",
          "name": "tokenId",
          "type": "uint256"
        },
        {
          "indexed": true,
          "internalType": "address",
          "name": "nftContract",
          "type": "address"
        },
        {
          "indexed": false,
          "internalType": "address",
          "name": "seller",
          "type": "address"
        },
        {
          "indexed": false,
          "internalType": "bool",
          "name": "isMultiToken",
          "type": "bool"
        },
        {
          "indexed": false,
          "internalType": "uint256",
          "name": "startingPrice",
          "type": "uint256"
        },
        {
          "indexed": false,
          "internalType": "uint256",
          "name": "startTime",
          "type": "uint256"
        },
        {
          "indexed": false,
          "internalType": "uint256",
          "name": "endTime",
          "type": "uint256"
        }
      ],
      "name": "MarketItemAuctionListed",
      "type": "event"
    },
    {
      "anonymous": false,
      "inputs": [
        {
          "indexed": true,
          "internalType": "uint256",
          "name": "tokenId",
          "type": "uint256"
        },
        {
          "indexed": true,
          "internalType": "address",
          "name": "nftContract",
          "type": "address"
        },
        {
          "indexed": false,
          "internalType": "address",
          "name": "seller",
          "type": "address"
        },
        {
          "indexed": false,
          "internalType": "address",
          "name": "bidder",
          "type": "address"
        },
        {
          "indexed": false,
          "internalType": "uint256",
          "name": "bid",
          "type": "uint256"
        },
        {
          "indexed": false,
          "internalType": "uint256",
          "name": "bidTime",
          "type": "uint256"
        }
      ],
      "name": "MarketItemBidded",
      "type": "event"
    },
    {
      "anonymous": false,
      "inputs": [
        {
          "indexed": true,
          "internalType": "uint256",
          "name": "tokenId",
          "type": "uint256"
        },
        {
          "indexed": true,
          "internalType": "address",
          "name": "nftContract",
          "type": "address"
        },
        {
          "indexed": false,
          "internalType": "address",
          "name": "owner",
          "type": "address"
        },
        {
          "indexed": false,
          "internalType": "bool",
          "name": "isMultiToken",
          "type": "bool"
        },
        {
          "indexed": false,
          "internalType": "uint256",
          "name": "price",
          "type": "uint256"
        }
      ],
      "name": "MarketItemCancelListed",
      "type": "event"
    },
    {
      "anonymous": false,
      "inputs": [
        {
          "indexed": true,
          "internalType": "uint256",
          "name": "tokenId",
          "type": "uint256"
        },
        {
          "indexed": true,
          "internalType": "address",
          "name": "nftContract",
          "type": "address"
        },
        {
          "indexed": false,
          "internalType": "address",
          "name": "owner",
          "type": "address"
        },
        {
          "indexed": false,
          "internalType": "bool",
          "name": "isMultiToken",
          "type": "bool"
        }
      ],
      "name": "MarketItemCreated",
      "type": "event"
    },
    {
      "anonymous": false,
      "inputs": [
        {
          "indexed": true,
          "internalType": "uint256",
          "name": "tokenId",
          "type": "uint256"
        },
        {
          "indexed": true,
          "internalType": "address",
          "name": "nftContract",
          "type": "address"
        },
        {
          "indexed": false,
          "internalType": "address",
          "name": "owner",
          "type": "address"
        },
        {
          "indexed": false,
          "internalType": "bool",
          "name": "isMultiToken",
          "type": "bool"
        },
        {
          "indexed": false,
          "internalType": "uint256",
          "name": "price",
          "type": "uint256"
        }
      ],
      "name": "MarketItemListed",
      "type": "event"
    },
    {
      "anonymous": false,
      "inputs": [
        {
          "indexed": true,
          "internalType": "uint256",
          "name": "tokenId",
          "type": "uint256"
        },
        {
          "indexed": true,
          "internalType": "address",
          "name": "nftContract",
          "type": "address"
        },
        {
          "indexed": false,
          "internalType": "address",
          "name": "seller",
          "type": "address"
        },
        {
          "indexed": false,
          "internalType": "address",
          "name": "buyer",
          "type": "address"
        },
        {
          "indexed": false,
          "internalType": "uint256",
          "name": "price",
          "type": "uint256"
        }
      ],
      "name": "MarketItemSold",
      "type": "event"
    },
    {
      "inputs": [
        {
          "internalType": "uint256",
          "name": "tokenId",
          "type": "uint256"
        }
      ],
      "name": "bid",
      "outputs": [],
      "stateMutability": "payable",
      "type": "function"
    },
    {
      "inputs": [
        {
          "internalType": "uint256",
          "name": "tokenId",
          "type": "uint256"
        }
      ],
      "name": "cancelListingItem",
      "outputs": [],
      "stateMutability": "payable",
      "type": "function"
    },
    {
      "inputs": [
        {
          "internalType": "address",
          "name": "nftContract",
          "type": "address"
        },
        {
          "internalType": "string",
          "name": "tokenUri",
          "type": "string"
        },
        {
          "internalType": "bool",
          "name": "isMultiToken",
          "type": "bool"
        }
      ],
      "name": "createMarketItem",
      "outputs": [],
      "stateMutability": "payable",
      "type": "function"
    },
    {
      "inputs": [
        {
          "internalType": "uint256",
          "name": "tokenId",
          "type": "uint256"
        }
      ],
      "name": "createMarketSale",
      "outputs": [],
      "stateMutability": "payable",
      "type": "function"
    },
    {
      "inputs": [
        {
          "internalType": "uint256",
          "name": "tokenId",
          "type": "uint256"
        }
      ],
      "name": "endAuction",
      "outputs": [],
      "stateMutability": "payable",
      "type": "function"
    },
    {
      "inputs": [
        {
          "internalType": "uint256",
          "name": "_tokenId",
          "type": "uint256"
        },
        {
          "internalType": "address",
          "name": "_collection",
          "type": "address"
        }
      ],
      "name": "get1155TokenURI",
      "outputs": [
        {
          "internalType": "string",
          "name": "",
          "type": "string"
        }
      ],
      "stateMutability": "view",
      "type": "function"
    },
    {
      "inputs": [
        {
          "internalType": "uint256",
          "name": "_tokenId",
          "type": "uint256"
        },
        {
          "internalType": "address",
          "name": "_collection",
          "type": "address"
        }
      ],
      "name": "get721TokenURI",
      "outputs": [
        {
          "internalType": "string",
          "name": "",
          "type": "string"
        }
      ],
      "stateMutability": "view",
      "type": "function"
    },
    {
      "inputs": [],
      "name": "getListingPrice",
      "outputs": [
        {
          "internalType": "uint256",
          "name": "",
          "type": "uint256"
        }
      ],
      "stateMutability": "view",
      "type": "function"
    },
    {
      "inputs": [
        {
          "internalType": "uint256",
          "name": "tokenId",
          "type": "uint256"
        },
        {
          "internalType": "uint256",
          "name": "startTime",
          "type": "uint256"
        },
        {
          "internalType": "uint256",
          "name": "endTime",
          "type": "uint256"
        },
        {
          "internalType": "uint256",
          "name": "startingPrice",
          "type": "uint256"
        }
      ],
      "name": "listAuctionItem",
      "outputs": [],
      "stateMutability": "payable",
      "type": "function"
    },
    {
      "inputs": [
        {
          "internalType": "uint256",
          "name": "tokenId",
          "type": "uint256"
        },
        {
          "internalType": "uint256",
          "name": "price",
          "type": "uint256"
        }
      ],
      "name": "listMarketItem",
      "outputs": [],
      "stateMutability": "payable",
      "type": "function"
    },
    {
      "inputs": [
        {
          "internalType": "address",
          "name": "",
          "type": "address"
        },
        {
          "internalType": "address",
          "name": "",
          "type": "address"
        },
        {
          "internalType": "uint256[]",
          "name": "",
          "type": "uint256[]"
        },
        {
          "internalType": "uint256[]",
          "name": "",
          "type": "uint256[]"
        },
        {
          "internalType": "bytes",
          "name": "",
          "type": "bytes"
        }
      ],
      "name": "onERC1155BatchReceived",
      "outputs": [
        {
          "internalType": "bytes4",
          "name": "",
          "type": "bytes4"
        }
      ],
      "stateMutability": "nonpayable",
      "type": "function"
    },
    {
      "inputs": [
        {
          "internalType": "address",
          "name": "",
          "type": "address"
        },
        {
          "internalType": "address",
          "name": "",
          "type": "address"
        },
        {
          "internalType": "uint256",
          "name": "",
          "type": "uint256"
        },
        {
          "internalType": "uint256",
          "name": "",
          "type": "uint256"
        },
        {
          "internalType": "bytes",
          "name": "",
          "type": "bytes"
        }
      ],
      "name": "onERC1155Received",
      "outputs": [
        {
          "internalType": "bytes4",
          "name": "",
          "type": "bytes4"
        }
      ],
      "stateMutability": "nonpayable",
      "type": "function"
    },
    {
      "inputs": [
        {
          "internalType": "address",
          "name": "",
          "type": "address"
        },
        {
          "internalType": "address",
          "name": "",
          "type": "address"
        },
        {
          "internalType": "uint256",
          "name": "",
          "type": "uint256"
        },
        {
          "internalType": "bytes",
          "name": "",
          "type": "bytes"
        }
      ],
      "name": "onERC721Received",
      "outputs": [
        {
          "internalType": "bytes4",
          "name": "",
          "type": "bytes4"
        }
      ],
      "stateMutability": "nonpayable",
      "type": "function"
    },
    {
      "inputs": [
        {
          "internalType": "bytes4",
          "name": "interfaceId",
          "type": "bytes4"
        }
      ],
      "name": "supportsInterface",
      "outputs": [
        {
          "internalType": "bool",
          "name": "",
          "type": "bool"
        }
      ],
      "stateMutability": "view",
      "type": "function"
    },
    {
      "inputs": [
        {
          "internalType": "uint256",
          "name": "_listingPrice",
          "type": "uint256"
        }
      ],
      "name": "updateListingPrice",
      "outputs": [],
      "stateMutability": "payable",
      "type": "function"
    },
    {
      "inputs": [
        {
          "internalType": "uint256",
          "name": "tokenId",
          "type": "uint256"
        }
      ],
      "name": "withdrawBid",
      "outputs": [],
      "stateMutability": "payable",
      "type": "function"
    }
  ],
  "bytecode": "0x60806040526107086004556658d15e1762800060055534801561002157600080fd5b50600160008190555033600260006101000a81548173ffffffffffffffffffffffffffffffffffffffff021916908373ffffffffffffffffffffffffffffffffffffffff16021790555061488f8061007a6000396000f3fe6080604052600436106100f35760003560e01c80636eb22e111161008a578063bc197c8111610059578063bc197c81146102db578063be9af53614610318578063ca034f3a14610334578063f23a6e6114610350576100f3565b80636eb22e111461024a578063ae677aa314610266578063b5d6a9f114610282578063b9a2de3a146102bf576100f3565b80632796390c116100c65780632796390c146101b9578063359e1a2c146101d5578063454a2ab3146101f1578063663d7e291461020d576100f3565b806301ffc9a7146100f85780630eaaf4c81461013557806312e8558514610151578063150b7a021461017c575b600080fd5b34801561010457600080fd5b5061011f600480360381019061011a919061346d565b61038d565b60405161012c9190613c51565b60405180910390f35b61014f600480360381019061014a91906134d7565b610407565b005b34801561015d57600080fd5b50610166610775565b6040516101739190613f89565b60405180910390f35b34801561018857600080fd5b506101a3600480360381019061019e91906132fc565b61077f565b6040516101b09190613c6c565b60405180910390f35b6101d360048036038101906101ce919061353c565b610793565b005b6101ef60048036038101906101ea9190613578565b610aff565b005b61020b600480360381019061020691906134d7565b611055565b005b34801561021957600080fd5b50610234600480360381019061022f9190613500565b611545565b6040516102419190613c87565b60405180910390f35b610264600480360381019061025f91906134d7565b6115dd565b005b610280600480360381019061027b91906134d7565b611cf1565b005b34801561028e57600080fd5b506102a960048036038101906102a49190613500565b611d8b565b6040516102b69190613c87565b60405180910390f35b6102d960048036038101906102d491906134d7565b611e23565b005b3480156102e757600080fd5b5061030260048036038101906102fd919061323d565b6126a6565b60405161030f9190613c6c565b60405180910390f35b610332600480360381019061032d91906134d7565b6126bb565b005b61034e60048036038101906103499190613406565b612aed565b005b34801561035c57600080fd5b5061037760048036038101906103729190613377565b612d27565b6040516103849190613c6c565b60405180910390f35b60007f4e2312e0000000000000000000000000000000000000000000000000000000007bffffffffffffffffffffffffffffffffffffffffffffffffffffffff1916827bffffffffffffffffffffffffffffffffffffffffffffffffffffffff1916148061040057506103ff82612d3c565b5b9050919050565b6002600054141561044d576040517f08c379a000000000000000000000000000000000000000000000000000000000815260040161044490613f29565b60405180910390fd5b60026000819055506000805b600360008481526020019081526020016000206006016006018054905081101561061f573373ffffffffffffffffffffffffffffffffffffffff166003600085815260200190815260200160002060060160060182815481106104e5577f4e487b7100000000000000000000000000000000000000000000000000000000600052603260045260246000fd5b906000526020600020906003020160000160009054906101000a900473ffffffffffffffffffffffffffffffffffffffff1673ffffffffffffffffffffffffffffffffffffffff16141561060c57600360008481526020019081526020016000206006016006018181548110610584577f4e487b7100000000000000000000000000000000000000000000000000000000600052603260045260246000fd5b906000526020600020906003020160010154826105a19190614084565b915060006003600085815260200190815260200160002060060160060182815481106105f6577f4e487b7100000000000000000000000000000000000000000000000000000000600052603260045260246000fd5b9060005260206000209060030201600101819055505b80806106179061423d565b915050610459565b5060008111610663576040517f08c379a000000000000000000000000000000000000000000000000000000000815260040161065a90613da9565b60405180910390fd5b3373ffffffffffffffffffffffffffffffffffffffff166108fc829081150290604051600060405180830381858888f193505050501580156106a9573d6000803e3d6000fd5b506003600083815260200190815260200160002060010160009054906101000a900473ffffffffffffffffffffffffffffffffffffffff1673ffffffffffffffffffffffffffffffffffffffff16827f79d5728b594c308d9a5643e34a4c8aad57bd810a0fa84016d5949d7107bf189c6003600086815260200190815260200160002060020160009054906101000a900473ffffffffffffffffffffffffffffffffffffffff163385604051610761939291906139b6565b60405180910390a350600160008190555050565b6000600554905090565b600063150b7a0260e01b9050949350505050565b6005543410156107d8576040517f08c379a00000000000000000000000000000000000000000000000000000000081526004016107cf90613d89565b60405180910390fd5b6000811161081b576040517f08c379a000000000000000000000000000000000000000000000000000000000815260040161081290613f49565b60405180910390fd5b3373ffffffffffffffffffffffffffffffffffffffff166003600084815260200190815260200160002060030160009054906101000a900473ffffffffffffffffffffffffffffffffffffffff1673ffffffffffffffffffffffffffffffffffffffff16146108bf576040517f08c379a00000000000000000000000000000000000000000000000000000000081526004016108b690613ec9565b60405180910390fd5b80600360008481526020019081526020016000206004018190555060006003600084815260200190815260200160002060050160006101000a81548160ff021916908315150217905550336003600084815260200190815260200160002060020160006101000a81548173ffffffffffffffffffffffffffffffffffffffff021916908373ffffffffffffffffffffffffffffffffffffffff160217905550306003600084815260200190815260200160002060030160006101000a81548173ffffffffffffffffffffffffffffffffffffffff021916908373ffffffffffffffffffffffffffffffffffffffff160217905550610a193330846003600087815260200190815260200160002060010160009054906101000a900473ffffffffffffffffffffffffffffffffffffffff166003600088815260200190815260200160002060050160029054906101000a900460ff16612da6565b6003600083815260200190815260200160002060010160009054906101000a900473ffffffffffffffffffffffffffffffffffffffff1673ffffffffffffffffffffffffffffffffffffffff16827f31b463dc211ba8d71de85d00fe324011853b81e134abc9b82ea212c3fa1f9a456003600086815260200190815260200160002060030160009054906101000a900473ffffffffffffffffffffffffffffffffffffffff166003600087815260200190815260200160002060050160029054906101000a900460ff1685604051610af393929190613aae565b60405180910390a35050565b6005543414610b43576040517f08c379a0000000000000000000000000000000000000000000000000000000008152600401610b3a90613ea9565b60405180910390fd5b60008111610b86576040517f08c379a0000000000000000000000000000000000000000000000000000000008152600401610b7d90613f69565b60405180910390fd5b6003600085815260200190815260200160002060030160009054906101000a900473ffffffffffffffffffffffffffffffffffffffff1673ffffffffffffffffffffffffffffffffffffffff163373ffffffffffffffffffffffffffffffffffffffff1614610c2a576040517f08c379a0000000000000000000000000000000000000000000000000000000008152600401610c2190613e29565b60405180910390fd5b6003600085815260200190815260200160002060050160009054906101000a900460ff168015610c7a57506003600085815260200190815260200160002060050160019054906101000a900460ff165b610cb9576040517f08c379a0000000000000000000000000000000000000000000000000000000008152600401610cb090613e49565b60405180910390fd5b814210610cfb576040517f08c379a0000000000000000000000000000000000000000000000000000000008152600401610cf290613d49565b60405180910390fd5b6004548383610d0a91906140da565b11610d4a576040517f08c379a0000000000000000000000000000000000000000000000000000000008152600401610d4190613d29565b60405180910390fd5b8260036000868152602001908152602001600020600601600001819055508160036000868152602001908152602001600020600601600101819055506000600360008681526020019081526020016000206006016003018190555060006003600086815260200190815260200160002060060160020160006101000a81548173ffffffffffffffffffffffffffffffffffffffff021916908373ffffffffffffffffffffffffffffffffffffffff16021790555060006003600086815260200190815260200160002060060160040181905550806003600086815260200190815260200160002060060160050181905550600360008581526020019081526020016000206006016006016000610e609190612fa9565b60006003600086815260200190815260200160002060050160016101000a81548160ff021916908315150217905550336003600086815260200190815260200160002060020160006101000a81548173ffffffffffffffffffffffffffffffffffffffff021916908373ffffffffffffffffffffffffffffffffffffffff160217905550306003600086815260200190815260200160002060030160006101000a81548173ffffffffffffffffffffffffffffffffffffffff021916908373ffffffffffffffffffffffffffffffffffffffff160217905550610f9f3330866003600089815260200190815260200160002060010160009054906101000a900473ffffffffffffffffffffffffffffffffffffffff16600360008a815260200190815260200160002060050160029054906101000a900460ff16612da6565b6003600085815260200190815260200160002060010160009054906101000a900473ffffffffffffffffffffffffffffffffffffffff1673ffffffffffffffffffffffffffffffffffffffff16847f75b0cfc9c9950e18b8591f8b42e62d98434f7a4f41d479a90133cb251e1b96f1336003600089815260200190815260200160002060050160029054906101000a900460ff16858888604051611047959493929190613b74565b60405180910390a350505050565b3373ffffffffffffffffffffffffffffffffffffffff166003600083815260200190815260200160002060020160009054906101000a900473ffffffffffffffffffffffffffffffffffffffff1673ffffffffffffffffffffffffffffffffffffffff1614156110fa576040517f08c379a00000000000000000000000000000000000000000000000000000000081526004016110f190613cc9565b60405180910390fd5b600015156003600083815260200190815260200160002060050160019054906101000a900460ff16151514611164576040517f08c379a000000000000000000000000000000000000000000000000000000000815260040161115b90613e89565b60405180910390fd5b6003600082815260200190815260200160002060060160000154421180156111a45750600360008281526020019081526020016000206006016001015442105b6111e3576040517f08c379a00000000000000000000000000000000000000000000000000000000081526004016111da90613d09565b60405180910390fd5b6003600082815260200190815260200160002060060160030154341161123e576040517f08c379a000000000000000000000000000000000000000000000000000000000815260040161123590613ca9565b60405180910390fd5b600073ffffffffffffffffffffffffffffffffffffffff166003600083815260200190815260200160002060060160020160009054906101000a900473ffffffffffffffffffffffffffffffffffffffff1673ffffffffffffffffffffffffffffffffffffffff16146113ed57600060405180606001604052806003600085815260200190815260200160002060060160020160009054906101000a900473ffffffffffffffffffffffffffffffffffffffff1673ffffffffffffffffffffffffffffffffffffffff16815260200160036000858152602001908152602001600020600601600301548152602001600360008581526020019081526020016000206006016004015481525090506003600083815260200190815260200160002060060160060181908060018154018082558091505060019003906000526020600020906003020160009091909190915060008201518160000160006101000a81548173ffffffffffffffffffffffffffffffffffffffff021916908373ffffffffffffffffffffffffffffffffffffffff16021790555060208201518160010155604082015181600201555050505b346003600083815260200190815260200160002060060160030181905550336003600083815260200190815260200160002060060160020160006101000a81548173ffffffffffffffffffffffffffffffffffffffff021916908373ffffffffffffffffffffffffffffffffffffffff1602179055504260036000838152602001908152602001600020600601600401819055506003600082815260200190815260200160002060010160009054906101000a900473ffffffffffffffffffffffffffffffffffffffff1673ffffffffffffffffffffffffffffffffffffffff16817f34f367c117714cf7e9fff4df15a4799e49ad2785e267d0ce4aae7a045d471f306003600085815260200190815260200160002060020160009054906101000a900473ffffffffffffffffffffffffffffffffffffffff1633344260405161153a94939291906139ed565b60405180910390a350565b60608173ffffffffffffffffffffffffffffffffffffffff16638ad91345846040518263ffffffff1660e01b81526004016115809190613f89565b60006040518083038186803b15801561159857600080fd5b505afa1580156115ac573d6000803e3d6000fd5b505050506040513d6000823e3d601f19601f820116820180604052508101906115d59190613496565b905092915050565b6003600082815260200190815260200160002060020160009054906101000a900473ffffffffffffffffffffffffffffffffffffffff1673ffffffffffffffffffffffffffffffffffffffff163373ffffffffffffffffffffffffffffffffffffffff1614611681576040517f08c379a000000000000000000000000000000000000000000000000000000000815260040161167890613dc9565b60405180910390fd5b600015156003600083815260200190815260200160002060050160009054906101000a900460ff16151514806116de5750600015156003600083815260200190815260200160002060050160019054906101000a900460ff161515145b61171d576040517f08c379a000000000000000000000000000000000000000000000000000000000815260040161171490613de9565b60405180910390fd5b600015156003600083815260200190815260200160002060050160019054906101000a900460ff1615151415611ab557426003600083815260200190815260200160002060060160010154116117a8576040517f08c379a000000000000000000000000000000000000000000000000000000000815260040161179f90613e09565b60405180910390fd5b600073ffffffffffffffffffffffffffffffffffffffff166003600083815260200190815260200160002060060160020160009054906101000a900473ffffffffffffffffffffffffffffffffffffffff1673ffffffffffffffffffffffffffffffffffffffff1614611a815760005b60036000838152602001908152602001600020600601600601805490508110156119e657600060036000848152602001908152602001600020600601600601828154811061188f577f4e487b7100000000000000000000000000000000000000000000000000000000600052603260045260246000fd5b90600052602060002090600302016001015411156119d3576003600083815260200190815260200160002060060160060181815481106118f8577f4e487b7100000000000000000000000000000000000000000000000000000000600052603260045260246000fd5b906000526020600020906003020160000160009054906101000a900473ffffffffffffffffffffffffffffffffffffffff1673ffffffffffffffffffffffffffffffffffffffff166108fc600360008581526020019081526020016000206006016006018381548110611994577f4e487b7100000000000000000000000000000000000000000000000000000000600052603260045260246000fd5b9060005260206000209060030201600101549081150290604051600060405180830381858888f193505050501580156119d1573d6000803e3d6000fd5b505b80806119de9061423d565b915050611818565b506003600082815260200190815260200160002060060160020160009054906101000a900473ffffffffffffffffffffffffffffffffffffffff1673ffffffffffffffffffffffffffffffffffffffff166108fc60036000848152602001908152602001600020600601600301549081150290604051600060405180830381858888f19350505050158015611a7f573d6000803e3d6000fd5b505b60016003600083815260200190815260200160002060050160016101000a81548160ff021916908315150217905550611ae5565b60016003600083815260200190815260200160002060050160006101000a81548160ff0219169083151502179055505b336003600083815260200190815260200160002060030160006101000a81548173ffffffffffffffffffffffffffffffffffffffff021916908373ffffffffffffffffffffffffffffffffffffffff16021790555060006003600083815260200190815260200160002060020160006101000a81548173ffffffffffffffffffffffffffffffffffffffff021916908373ffffffffffffffffffffffffffffffffffffffff160217905550611bf63033836003600086815260200190815260200160002060010160009054906101000a900473ffffffffffffffffffffffffffffffffffffffff166003600087815260200190815260200160002060050160029054906101000a900460ff16612da6565b6003600082815260200190815260200160002060010160009054906101000a900473ffffffffffffffffffffffffffffffffffffffff1673ffffffffffffffffffffffffffffffffffffffff16817f769a2f215ef24b6515bca3c5f2993d943ce052a9c9deb2fcc5c81a399a0e931c6003600085815260200190815260200160002060030160009054906101000a900473ffffffffffffffffffffffffffffffffffffffff166003600086815260200190815260200160002060050160029054906101000a900460ff166003600087815260200190815260200160002060040154604051611ce693929190613aae565b60405180910390a350565b3373ffffffffffffffffffffffffffffffffffffffff16600260009054906101000a900473ffffffffffffffffffffffffffffffffffffffff1673ffffffffffffffffffffffffffffffffffffffff1614611d81576040517f08c379a0000000000000000000000000000000000000000000000000000000008152600401611d7890613ee9565b60405180910390fd5b8060058190555050565b60608173ffffffffffffffffffffffffffffffffffffffff16633bb3a24d846040518263ffffffff1660e01b8152600401611dc69190613f89565b60006040518083038186803b158015611dde57600080fd5b505afa158015611df2573d6000803e3d6000fd5b505050506040513d6000823e3d601f19601f82011682018060405250810190611e1b9190613496565b905092915050565b60026000541415611e69576040517f08c379a0000000000000000000000000000000000000000000000000000000008152600401611e6090613f29565b60405180910390fd5b600260008190555060036000828152602001908152602001600020600601600101544211611ecc576040517f08c379a0000000000000000000000000000000000000000000000000000000008152600401611ec390613ce9565b60405180910390fd5b6003600082815260200190815260200160002060050160019054906101000a900460ff1615611f30576040517f08c379a0000000000000000000000000000000000000000000000000000000008152600401611f2790613f09565b60405180910390fd5b600073ffffffffffffffffffffffffffffffffffffffff166003600083815260200190815260200160002060060160020160009054906101000a900473ffffffffffffffffffffffffffffffffffffffff1673ffffffffffffffffffffffffffffffffffffffff16146123375760005b600360008381526020019081526020016000206006016006018054905081101561216e576000600360008481526020019081526020016000206006016006018281548110612017577f4e487b7100000000000000000000000000000000000000000000000000000000600052603260045260246000fd5b906000526020600020906003020160010154111561215b57600360008381526020019081526020016000206006016006018181548110612080577f4e487b7100000000000000000000000000000000000000000000000000000000600052603260045260246000fd5b906000526020600020906003020160000160009054906101000a900473ffffffffffffffffffffffffffffffffffffffff1673ffffffffffffffffffffffffffffffffffffffff166108fc60036000858152602001908152602001600020600601600601838154811061211c577f4e487b7100000000000000000000000000000000000000000000000000000000600052603260045260246000fd5b9060005260206000209060030201600101549081150290604051600060405180830381858888f19350505050158015612159573d6000803e3d6000fd5b505b80806121669061423d565b915050611fa0565b506003600082815260200190815260200160002060020160009054906101000a900473ffffffffffffffffffffffffffffffffffffffff1673ffffffffffffffffffffffffffffffffffffffff166108fc60036000848152602001908152602001600020600601600301549081150290604051600060405180830381858888f19350505050158015612204573d6000803e3d6000fd5b506003600082815260200190815260200160002060060160020160009054906101000a900473ffffffffffffffffffffffffffffffffffffffff166003600083815260200190815260200160002060030160006101000a81548173ffffffffffffffffffffffffffffffffffffffff021916908373ffffffffffffffffffffffffffffffffffffffff160217905550612332306003600084815260200190815260200160002060060160020160009054906101000a900473ffffffffffffffffffffffffffffffffffffffff16836003600086815260200190815260200160002060010160009054906101000a900473ffffffffffffffffffffffffffffffffffffffff166003600087815260200190815260200160002060050160029054906101000a900460ff16612da6565b61245f565b6123d3306003600084815260200190815260200160002060020160009054906101000a900473ffffffffffffffffffffffffffffffffffffffff16836003600086815260200190815260200160002060010160009054906101000a900473ffffffffffffffffffffffffffffffffffffffff166003600087815260200190815260200160002060050160029054906101000a900460ff16612da6565b6003600082815260200190815260200160002060020160009054906101000a900473ffffffffffffffffffffffffffffffffffffffff166003600083815260200190815260200160002060030160006101000a81548173ffffffffffffffffffffffffffffffffffffffff021916908373ffffffffffffffffffffffffffffffffffffffff1602179055505b6003600082815260200190815260200160002060020160009054906101000a900473ffffffffffffffffffffffffffffffffffffffff1673ffffffffffffffffffffffffffffffffffffffff166108fc6005549081150290604051600060405180830381858888f193505050501580156124dd573d6000803e3d6000fd5b5060006003600083815260200190815260200160002060020160006101000a81548173ffffffffffffffffffffffffffffffffffffffff021916908373ffffffffffffffffffffffffffffffffffffffff16021790555060016003600083815260200190815260200160002060050160016101000a81548160ff0219169083151502179055506003600082815260200190815260200160002060010160009054906101000a900473ffffffffffffffffffffffffffffffffffffffff1673ffffffffffffffffffffffffffffffffffffffff16817fa21625bacd9a53a22f3eda0f00281d2db3d918b022e003de1b8ec1dbf3551b316003600085815260200190815260200160002060030160009054906101000a900473ffffffffffffffffffffffffffffffffffffffff166003600086815260200190815260200160002060050160029054906101000a900460ff166003600087815260200190815260200160002060060160020160009054906101000a900473ffffffffffffffffffffffffffffffffffffffff16600360008881526020019081526020016000206006016003015442604051612693959493929190613a5b565b60405180910390a3600160008190555050565b600063bc197c8160e01b905095945050505050565b60026000541415612701576040517f08c379a00000000000000000000000000000000000000000000000000000000081526004016126f890613f29565b60405180910390fd5b600260008190555060006003600083815260200190815260200160002060020160009054906101000a900473ffffffffffffffffffffffffffffffffffffffff169050600015156003600084815260200190815260200160002060050160009054906101000a900460ff161515146127ae576040517f08c379a00000000000000000000000000000000000000000000000000000000081526004016127a590613d69565b60405180910390fd5b60036000838152602001908152602001600020600401543414612806576040517f08c379a00000000000000000000000000000000000000000000000000000000081526004016127fd90613e69565b60405180910390fd5b6003600083815260200190815260200160002060020160009054906101000a900473ffffffffffffffffffffffffffffffffffffffff1673ffffffffffffffffffffffffffffffffffffffff166108fc349081150290604051600060405180830381858888f19350505050158015612882573d6000803e3d6000fd5b506003600083815260200190815260200160002060020160009054906101000a900473ffffffffffffffffffffffffffffffffffffffff1673ffffffffffffffffffffffffffffffffffffffff166108fc6005549081150290604051600060405180830381858888f19350505050158015612901573d6000803e3d6000fd5b50336003600084815260200190815260200160002060030160006101000a81548173ffffffffffffffffffffffffffffffffffffffff021916908373ffffffffffffffffffffffffffffffffffffffff16021790555060006003600084815260200190815260200160002060020160006101000a81548173ffffffffffffffffffffffffffffffffffffffff021916908373ffffffffffffffffffffffffffffffffffffffff16021790555060016003600084815260200190815260200160002060050160006101000a81548160ff021916908315150217905550612a423033846003600087815260200190815260200160002060010160009054906101000a900473ffffffffffffffffffffffffffffffffffffffff166003600088815260200190815260200160002060050160029054906101000a900460ff16612da6565b6003600083815260200190815260200160002060010160009054906101000a900473ffffffffffffffffffffffffffffffffffffffff1673ffffffffffffffffffffffffffffffffffffffff16827fd3bd3ff48ce3a8bb23194a87b735e828ab1668173da85bff87a6000c0408512a83336003600088815260200190815260200160002060040154604051612ad9939291906139b6565b60405180910390a350600160008190555050565b612af76001612e9a565b6000612b036001612eb0565b90508115612b1d57612b188160018587612ebe565b612b29565b612b28818486612f35565b5b806003600083815260200190815260200160002060000181905550836003600083815260200190815260200160002060010160006101000a81548173ffffffffffffffffffffffffffffffffffffffff021916908373ffffffffffffffffffffffffffffffffffffffff16021790555060006003600083815260200190815260200160002060020160006101000a81548173ffffffffffffffffffffffffffffffffffffffff021916908373ffffffffffffffffffffffffffffffffffffffff160217905550336003600083815260200190815260200160002060030160006101000a81548173ffffffffffffffffffffffffffffffffffffffff021916908373ffffffffffffffffffffffffffffffffffffffff16021790555060016003600083815260200190815260200160002060050160006101000a81548160ff02191690831515021790555060016003600083815260200190815260200160002060050160016101000a81548160ff021916908315150217905550816003600083815260200190815260200160002060050160026101000a81548160ff0219169083151502179055508373ffffffffffffffffffffffffffffffffffffffff16817fac1bd62278cac1e3927d9af6d75c2a00c32db78ed0bb3a721d009050f786b7e83385604051612d19929190613a32565b60405180910390a350505050565b600063f23a6e6160e01b905095945050505050565b60007f01ffc9a7000000000000000000000000000000000000000000000000000000007bffffffffffffffffffffffffffffffffffffffffffffffffffffffff1916827bffffffffffffffffffffffffffffffffffffffffffffffffffffffff1916149050919050565b8015612e23578173ffffffffffffffffffffffffffffffffffffffff1663f242432a86868660016040518563ffffffff1660e01b8152600401612dec9493929190613b1c565b600060405180830381600087803b158015612e0657600080fd5b505af1158015612e1a573d6000803e3d6000fd5b50505050612e93565b8173ffffffffffffffffffffffffffffffffffffffff166342842e0e8686866040518463ffffffff1660e01b8152600401612e6093929190613ae5565b600060405180830381600087803b158015612e7a57600080fd5b505af1158015612e8e573d6000803e3d6000fd5b505050505b5050505050565b6001816000016000828254019250508190555050565b600081600001549050919050565b8073ffffffffffffffffffffffffffffffffffffffff1663655a2b1a338686866040518563ffffffff1660e01b8152600401612efd9493929190613c05565b600060405180830381600087803b158015612f1757600080fd5b505af1158015612f2b573d6000803e3d6000fd5b5050505050505050565b8073ffffffffffffffffffffffffffffffffffffffff16631e5769123385856040518463ffffffff1660e01b8152600401612f7293929190613bc7565b600060405180830381600087803b158015612f8c57600080fd5b505af1158015612fa0573d6000803e3d6000fd5b50505050505050565b5080546000825560030290600052602060002090810190612fca9190612fcd565b50565b5b8082111561301757600080820160006101000a81549073ffffffffffffffffffffffffffffffffffffffff02191690556001820160009055600282016000905550600301612fce565b5090565b600061302e61302984613fc9565b613fa4565b9050808382526020820190508285602086028201111561304d57600080fd5b60005b8581101561307d57816130638882613228565b845260208401935060208301925050600181019050613050565b5050509392505050565b600061309a61309584613ff5565b613fa4565b9050828152602081018484840111156130b257600080fd5b6130bd8482856141ca565b509392505050565b60006130d86130d384614026565b613fa4565b9050828152602081018484840111156130f057600080fd5b6130fb8482856141ca565b509392505050565b600061311661311184614026565b613fa4565b90508281526020810184848401111561312e57600080fd5b6131398482856141d9565b509392505050565b600081359050613150816147fd565b92915050565b600082601f83011261316757600080fd5b813561317784826020860161301b565b91505092915050565b60008135905061318f81614814565b92915050565b6000813590506131a48161482b565b92915050565b600082601f8301126131bb57600080fd5b81356131cb848260208601613087565b91505092915050565b600082601f8301126131e557600080fd5b81356131f58482602086016130c5565b91505092915050565b600082601f83011261320f57600080fd5b815161321f848260208601613103565b91505092915050565b60008135905061323781614842565b92915050565b600080600080600060a0868803121561325557600080fd5b600061326388828901613141565b955050602061327488828901613141565b945050604086013567ffffffffffffffff81111561329157600080fd5b61329d88828901613156565b935050606086013567ffffffffffffffff8111156132ba57600080fd5b6132c688828901613156565b925050608086013567ffffffffffffffff8111156132e357600080fd5b6132ef888289016131aa565b9150509295509295909350565b6000806000806080858703121561331257600080fd5b600061332087828801613141565b945050602061333187828801613141565b935050604061334287828801613228565b925050606085013567ffffffffffffffff81111561335f57600080fd5b61336b878288016131aa565b91505092959194509250565b600080600080600060a0868803121561338f57600080fd5b600061339d88828901613141565b95505060206133ae88828901613141565b94505060406133bf88828901613228565b93505060606133d088828901613228565b925050608086013567ffffffffffffffff8111156133ed57600080fd5b6133f9888289016131aa565b9150509295509295909350565b60008060006060848603121561341b57600080fd5b600061342986828701613141565b935050602084013567ffffffffffffffff81111561344657600080fd5b613452868287016131d4565b925050604061346386828701613180565b9150509250925092565b60006020828403121561347f57600080fd5b600061348d84828501613195565b91505092915050565b6000602082840312156134a857600080fd5b600082015167ffffffffffffffff8111156134c257600080fd5b6134ce848285016131fe565b91505092915050565b6000602082840312156134e957600080fd5b60006134f784828501613228565b91505092915050565b6000806040838503121561351357600080fd5b600061352185828601613228565b925050602061353285828601613141565b9150509250929050565b6000806040838503121561354f57600080fd5b600061355d85828601613228565b925050602061356e85828601613228565b9150509250929050565b6000806000806080858703121561358e57600080fd5b600061359c87828801613228565b94505060206135ad87828801613228565b93505060406135be87828801613228565b92505060606135cf87828801613228565b91505092959194509250565b6135e481614182565b82525050565b6135f38161410e565b82525050565b61360281614120565b82525050565b6136118161412c565b82525050565b61362081614194565b82525050565b600061363182614057565b61363b8185614073565b935061364b8185602086016141d9565b613654816142e4565b840191505092915050565b600061366c602083614073565b9150613677826142f5565b602082019050919050565b600061368f601783614073565b915061369a8261431e565b602082019050919050565b60006136b2601983614073565b91506136bd82614347565b602082019050919050565b60006136d5601283614073565b91506136e082614370565b602082019050919050565b60006136f8603083614073565b915061370382614399565b604082019050919050565b600061371b600683614073565b9150613726826143e8565b602082019050919050565b600061373e600283614062565b915061374982614411565b602082019050919050565b6000613761601283614073565b915061376c8261443a565b602082019050919050565b6000613784603083614073565b915061378f82614463565b604082019050919050565b60006137a7601783614073565b91506137b2826144b2565b602082019050919050565b60006137ca601f83614073565b91506137d5826144db565b602082019050919050565b60006137ed602483614073565b91506137f882614504565b604082019050919050565b6000613810602983614073565b915061381b82614553565b604082019050919050565b6000613833601683614073565b915061383e826145a2565b602082019050919050565b6000613856600e83614073565b9150613861826145cb565b602082019050919050565b6000613879602783614073565b9150613884826145f4565b604082019050919050565b600061389c601283614073565b91506138a782614643565b602082019050919050565b60006138bf602483614073565b91506138ca8261466c565b604082019050919050565b60006138e2601983614073565b91506138ed826146bb565b602082019050919050565b6000613905603083614073565b9150613910826146e4565b604082019050919050565b6000613928601683614073565b915061393382614733565b602082019050919050565b600061394b601f83614073565b91506139568261475c565b602082019050919050565b600061396e601c83614073565b915061397982614785565b602082019050919050565b6000613991602483614073565b915061399c826147ae565b604082019050919050565b6139b081614178565b82525050565b60006060820190506139cb60008301866135db565b6139d860208301856135ea565b6139e560408301846139a7565b949350505050565b6000608082019050613a0260008301876135db565b613a0f60208301866135ea565b613a1c60408301856139a7565b613a2960608301846139a7565b95945050505050565b6000604082019050613a4760008301856135db565b613a5460208301846135f9565b9392505050565b600060a082019050613a7060008301886135db565b613a7d60208301876135f9565b613a8a60408301866135ea565b613a9760608301856139a7565b613aa460808301846139a7565b9695505050505050565b6000606082019050613ac360008301866135db565b613ad060208301856135f9565b613add60408301846139a7565b949350505050565b6000606082019050613afa60008301866135ea565b613b0760208301856135ea565b613b1460408301846139a7565b949350505050565b600060a082019050613b3160008301876135ea565b613b3e60208301866135ea565b613b4b60408301856139a7565b613b586060830184613617565b8181036080830152613b6981613731565b905095945050505050565b600060a082019050613b8960008301886135ea565b613b9660208301876135f9565b613ba360408301866139a7565b613bb060608301856139a7565b613bbd60808301846139a7565b9695505050505050565b6000606082019050613bdc60008301866135ea565b613be960208301856139a7565b8181036040830152613bfb8184613626565b9050949350505050565b6000608082019050613c1a60008301876135ea565b613c2760208301866139a7565b613c3460408301856139a7565b8181036060830152613c468184613626565b905095945050505050565b6000602082019050613c6660008301846135f9565b92915050565b6000602082019050613c816000830184613608565b92915050565b60006020820190508181036000830152613ca18184613626565b905092915050565b60006020820190508181036000830152613cc28161365f565b9050919050565b60006020820190508181036000830152613ce281613682565b9050919050565b60006020820190508181036000830152613d02816136a5565b9050919050565b60006020820190508181036000830152613d22816136c8565b9050919050565b60006020820190508181036000830152613d42816136eb565b9050919050565b60006020820190508181036000830152613d628161370e565b9050919050565b60006020820190508181036000830152613d8281613754565b9050919050565b60006020820190508181036000830152613da281613777565b9050919050565b60006020820190508181036000830152613dc28161379a565b9050919050565b60006020820190508181036000830152613de2816137bd565b9050919050565b60006020820190508181036000830152613e02816137e0565b9050919050565b60006020820190508181036000830152613e2281613803565b9050919050565b60006020820190508181036000830152613e4281613826565b9050919050565b60006020820190508181036000830152613e6281613849565b9050919050565b60006020820190508181036000830152613e828161386c565b9050919050565b60006020820190508181036000830152613ea28161388f565b9050919050565b60006020820190508181036000830152613ec2816138b2565b9050919050565b60006020820190508181036000830152613ee2816138d5565b9050919050565b60006020820190508181036000830152613f02816138f8565b9050919050565b60006020820190508181036000830152613f228161391b565b9050919050565b60006020820190508181036000830152613f428161393e565b9050919050565b60006020820190508181036000830152613f6281613961565b9050919050565b60006020820190508181036000830152613f8281613984565b9050919050565b6000602082019050613f9e60008301846139a7565b92915050565b6000613fae613fbf565b9050613fba828261420c565b919050565b6000604051905090565b600067ffffffffffffffff821115613fe457613fe36142b5565b5b602082029050602081019050919050565b600067ffffffffffffffff8211156140105761400f6142b5565b5b614019826142e4565b9050602081019050919050565b600067ffffffffffffffff821115614041576140406142b5565b5b61404a826142e4565b9050602081019050919050565b600081519050919050565b600082825260208201905092915050565b600082825260208201905092915050565b600061408f82614178565b915061409a83614178565b9250827fffffffffffffffffffffffffffffffffffffffffffffffffffffffffffffffff038211156140cf576140ce614286565b5b828201905092915050565b60006140e582614178565b91506140f083614178565b92508282101561410357614102614286565b5b828203905092915050565b600061411982614158565b9050919050565b60008115159050919050565b60007fffffffff0000000000000000000000000000000000000000000000000000000082169050919050565b600073ffffffffffffffffffffffffffffffffffffffff82169050919050565b6000819050919050565b600061418d826141a6565b9050919050565b600061419f82614178565b9050919050565b60006141b1826141b8565b9050919050565b60006141c382614158565b9050919050565b82818337600083830152505050565b60005b838110156141f75780820151818401526020810190506141dc565b83811115614206576000848401525b50505050565b614215826142e4565b810181811067ffffffffffffffff82111715614234576142336142b5565b5b80604052505050565b600061424882614178565b91507fffffffffffffffffffffffffffffffffffffffffffffffffffffffffffffffff82141561427b5761427a614286565b5b600182019050919050565b7f4e487b7100000000000000000000000000000000000000000000000000000000600052601160045260246000fd5b7f4e487b7100000000000000000000000000000000000000000000000000000000600052604160045260246000fd5b6000601f19601f8301169050919050565b7f4d75737420626964206869676865722074686520686967686573742062696421600082015250565b7f596f752063616e27742062696420796f7572206974656d000000000000000000600082015250565b7f41756374696f6e206973207374696c6c206f6e676f696e672100000000000000600082015250565b7f4e6f7420696e2062696420706572696f64210000000000000000000000000000600082015250565b7f5468652061756374696f6e2074696d65206d757374206265206c6f6e6765722060008201527f7468616e203330206d696e757465732100000000000000000000000000000000602082015250565b7f456e646564210000000000000000000000000000000000000000000000000000600082015250565b7f5b5d000000000000000000000000000000000000000000000000000000000000600082015250565b7f4974656d2069736e2774206f6e2073616c650000000000000000000000000000600082015250565b7f5072696365206d75737420626520657175616c206f722068696768657220746860008201527f616e206c697374696e6720707269636500000000000000000000000000000000602082015250565b7f596f7520686176656e2774206269646465642079657421000000000000000000600082015250565b7f4f6e6c792073656c6c65722063616e2063616e63656c206c697374696e672100600082015250565b7f4f6e6c79206c6973746564206974656d2063616e2063616e63656c206c69737460008201527f696e672100000000000000000000000000000000000000000000000000000000602082015250565b7f43616e6e6f742063616e63656c207768656e2061756374696f6e20616c72656160008201527f647920656e646564210000000000000000000000000000000000000000000000602082015250565b7f4f6e6c79206f776e65722063616e2061756374696f6e00000000000000000000600082015250565b7f4e4654206973206f6e2073616c65000000000000000000000000000000000000600082015250565b7f4275796572206d757374207472616e7366657220657175616c2070726963652060008201527f6f66206974656d00000000000000000000000000000000000000000000000000602082015250565b7f4974656d2069736e27742062696464696e670000000000000000000000000000600082015250565b7f5072696365206d75737420626520657175616c20746f206c697374696e67207060008201527f7269636500000000000000000000000000000000000000000000000000000000602082015250565b7f4f6e6c79206f776e65722063616e206c697374206974656d2100000000000000600082015250565b7f4f6e6c79206d61726b6574706c616365206f776e65722063616e20757064617460008201527f65206c697374696e672070726963652e00000000000000000000000000000000602082015250565b7f41756374696f6e20616c726561647920656e6465642100000000000000000000600082015250565b7f5265656e7472616e637947756172643a207265656e7472616e742063616c6c00600082015250565b7f5072696365206d757374206265206174206c6561737420312077656900000000600082015250565b7f5374617274696e67207072696365206d757374206265206c617267657220746860008201527f616e203000000000000000000000000000000000000000000000000000000000602082015250565b6148068161410e565b811461481157600080fd5b50565b61481d81614120565b811461482857600080fd5b50565b6148348161412c565b811461483f57600080fd5b50565b61484b81614178565b811461485657600080fd5b5056fea2646970667358221220438fc7d1b42af8e3aae717d2b2647ba0420c9543a74b2d07b8b6da7d45b1250064736f6c63430008040033",
  "linkReferences": {},
  "deployedLinkReferences": {}
}