{
  "_format": "hh-sol-artifact-1",
  "contractName": "VerifySignature",
  "sourceName": "contracts/VerifySignature.sol",
  "abi": [
    {
      "inputs": [
        {
          "internalType": "bytes32",
          "name": "_messageHash",
          "type": "bytes32"
        }
      ],
      "name": "getEthSignedMessageHash",
      "outputs": [
        {
          "internalType": "bytes32",
          "name": "",
          "type": "bytes32"
        }
      ],
      "stateMutability": "pure",
      "type": "function"
    },
    {
      "inputs": [
        {
          "internalType": "string",
          "name": "_message",
          "type": "string"
        }
      ],
      "name": "getMessageHash",
      "outputs": [
        {
          "internalType": "bytes32",
          "name": "",
          "type": "bytes32"
        }
      ],
      "stateMutability": "pure",
      "type": "function"
    },
    {
      "inputs": [
        {
          "internalType": "bytes32",
          "name": "_ethSignedMessageHash",
          "type": "bytes32"
        },
        {
          "internalType": "bytes",
          "name": "_signature",
          "type": "bytes"
        }
      ],
      "name": "recoverSigner",
      "outputs": [
        {
          "internalType": "address",
          "name": "",
          "type": "address"
        }
      ],
      "stateMutability": "pure",
      "type": "function"
    },
    {
      "inputs": [
        {
          "internalType": "bytes",
          "name": "sig",
          "type": "bytes"
        }
      ],
      "name": "splitSignature",
      "outputs": [
        {
          "internalType": "bytes32",
          "name": "r",
          "type": "bytes32"
        },
        {
          "internalType": "bytes32",
          "name": "s",
          "type": "bytes32"
        },
        {
          "internalType": "uint8",
          "name": "v",
          "type": "uint8"
        }
      ],
      "stateMutability": "pure",
      "type": "function"
    },
    {
      "inputs": [
        {
          "internalType": "address",
          "name": "_signer",
          "type": "address"
        },
        {
          "internalType": "string",
          "name": "_message",
          "type": "string"
        },
        {
          "internalType": "bytes",
          "name": "signature",
          "type": "bytes"
        }
      ],
      "name": "verify",
      "outputs": [
        {
          "internalType": "bool",
          "name": "",
          "type": "bool"
        }
      ],
      "stateMutability": "pure",
      "type": "function"
    }
  ],
  "bytecode": "0x608060405234801561001057600080fd5b506109c5806100206000396000f3fe608060405234801561001057600080fd5b50600436106100575760003560e01c80632dd34f0f1461005c57806397aba7f91461008c578063a7bb5803146100bc578063b446f3b2146100ee578063fa5408011461011e575b600080fd5b610076600480360381019061007191906103dd565b61014e565b604051610083919061067d565b60405180910390f35b6100a660048036038101906100a19190610485565b6101ac565b6040516100b39190610662565b60405180910390f35b6100d660048036038101906100d191906104d9565b61021b565b6040516100e5939291906106b3565b60405180910390f35b6101086004803603810190610103919061051a565b610283565b6040516101159190610698565b60405180910390f35b6101386004803603810190610133919061045c565b6102b3565b6040516101459190610698565b60405180910390f35b60008061015a84610283565b90506000610167826102b3565b90508573ffffffffffffffffffffffffffffffffffffffff1661018a82866101ac565b73ffffffffffffffffffffffffffffffffffffffff1614925050509392505050565b6000806000806101bb8561021b565b925092509250600186828585604051600081526020016040526040516101e494939291906106ea565b6020604051602081039080840390855afa158015610206573d6000803e3d6000fd5b50505060206040510351935050505092915050565b60008060006041845114610264576040517f08c379a000000000000000000000000000000000000000000000000000000000815260040161025b9061072f565b60405180910390fd5b6020840151925060408401519150606084015160001a90509193909250565b6000816040516020016102969190610625565b604051602081830303815290604052805190602001209050919050565b6000816040516020016102c6919061063c565b604051602081830303815290604052805190602001209050919050565b60006102f66102f184610774565b61074f565b90508281526020810184848401111561030e57600080fd5b610319848285610852565b509392505050565b600061033461032f846107a5565b61074f565b90508281526020810184848401111561034c57600080fd5b610357848285610852565b509392505050565b60008135905061036e81610961565b92915050565b60008135905061038381610978565b92915050565b600082601f83011261039a57600080fd5b81356103aa8482602086016102e3565b91505092915050565b600082601f8301126103c457600080fd5b81356103d4848260208601610321565b91505092915050565b6000806000606084860312156103f257600080fd5b60006104008682870161035f565b935050602084013567ffffffffffffffff81111561041d57600080fd5b610429868287016103b3565b925050604084013567ffffffffffffffff81111561044657600080fd5b61045286828701610389565b9150509250925092565b60006020828403121561046e57600080fd5b600061047c84828501610374565b91505092915050565b6000806040838503121561049857600080fd5b60006104a685828601610374565b925050602083013567ffffffffffffffff8111156104c357600080fd5b6104cf85828601610389565b9150509250929050565b6000602082840312156104eb57600080fd5b600082013567ffffffffffffffff81111561050557600080fd5b61051184828501610389565b91505092915050565b60006020828403121561052c57600080fd5b600082013567ffffffffffffffff81111561054657600080fd5b610552848285016103b3565b91505092915050565b610564816107fd565b82525050565b6105738161080f565b82525050565b6105828161081b565b82525050565b6105996105948261081b565b6108c5565b82525050565b60006105aa826107d6565b6105b481856107f2565b93506105c4818560208601610861565b80840191505092915050565b60006105dd601c836107f2565b91506105e88261090f565b601c82019050919050565b60006106006018836107e1565b915061060b82610938565b602082019050919050565b61061f81610845565b82525050565b6000610631828461059f565b915081905092915050565b6000610647826105d0565b91506106538284610588565b60208201915081905092915050565b6000602082019050610677600083018461055b565b92915050565b6000602082019050610692600083018461056a565b92915050565b60006020820190506106ad6000830184610579565b92915050565b60006060820190506106c86000830186610579565b6106d56020830185610579565b6106e26040830184610616565b949350505050565b60006080820190506106ff6000830187610579565b61070c6020830186610616565b6107196040830185610579565b6107266060830184610579565b95945050505050565b60006020820190508181036000830152610748816105f3565b9050919050565b600061075961076a565b90506107658282610894565b919050565b6000604051905090565b600067ffffffffffffffff82111561078f5761078e6108cf565b5b610798826108fe565b9050602081019050919050565b600067ffffffffffffffff8211156107c0576107bf6108cf565b5b6107c9826108fe565b9050602081019050919050565b600081519050919050565b600082825260208201905092915050565b600081905092915050565b600061080882610825565b9050919050565b60008115159050919050565b6000819050919050565b600073ffffffffffffffffffffffffffffffffffffffff82169050919050565b600060ff82169050919050565b82818337600083830152505050565b60005b8381101561087f578082015181840152602081019050610864565b8381111561088e576000848401525b50505050565b61089d826108fe565b810181811067ffffffffffffffff821117156108bc576108bb6108cf565b5b80604052505050565b6000819050919050565b7f4e487b7100000000000000000000000000000000000000000000000000000000600052604160045260246000fd5b6000601f19601f8301169050919050565b7f19457468657265756d205369676e6564204d6573736167653a0a333200000000600082015250565b7f696e76616c6964207369676e6174757265206c656e6774680000000000000000600082015250565b61096a816107fd565b811461097557600080fd5b50565b6109818161081b565b811461098c57600080fd5b5056fea26469706673582212200329d12eec444dbcad3c2acc4b7e8bade5f40d86789c065ad7b2f8f809974c7764736f6c63430008040033",
  "linkReferences": {},
  "deployedLinkReferences": {}
}