{
  "_format": "hh-sol-artifact-1",
  "contractName": "NFTMarketplace",
  "sourceName": "contracts/NFTMarketplace.sol",
  "abi": [
    {
      "inputs": [
        {
          "internalType": "address",
          "name": "_mToken",
          "type": "address"
        },
        {
          "internalType": "address",
          "name": "_nToken",
          "type": "address"
        }
      ],
      "stateMutability": "nonpayable",
      "type": "constructor"
    },
    {
      "anonymous": false,
      "inputs": [
        {
          "indexed": true,
          "internalType": "uint256",
          "name": "tokenId",
          "type": "uint256"
        },
        {
          "indexed": true,
          "internalType": "address",
          "name": "nftContract",
          "type": "address"
        },
        {
          "indexed": false,
          "internalType": "address",
          "name": "seller",
          "type": "address"
        },
        {
          "indexed": false,
          "internalType": "address",
          "name": "bidder",
          "type": "address"
        },
        {
          "indexed": false,
          "internalType": "uint256",
          "name": "balance",
          "type": "uint256"
        }
      ],
      "name": "BidderWithdraw",
      "type": "event"
    },
    {
      "anonymous": false,
      "inputs": [
        {
          "indexed": true,
          "internalType": "uint256",
          "name": "tokenId",
          "type": "uint256"
        },
        {
          "indexed": true,
          "internalType": "address",
          "name": "nftContract",
          "type": "address"
        },
        {
          "indexed": false,
          "internalType": "address",
          "name": "seller",
          "type": "address"
        },
        {
          "indexed": false,
          "internalType": "bool",
          "name": "isMultiToken",
          "type": "bool"
        },
        {
          "indexed": false,
          "internalType": "address",
          "name": "highestBidder",
          "type": "address"
        },
        {
          "indexed": false,
          "internalType": "uint256",
          "name": "highestBid",
          "type": "uint256"
        },
        {
          "indexed": false,
          "internalType": "uint256",
          "name": "endTime",
          "type": "uint256"
        }
      ],
      "name": "MarketItemAuctionEnded",
      "type": "event"
    },
    {
      "anonymous": false,
      "inputs": [
        {
          "indexed": true,
          "internalType": "uint256",
          "name": "tokenId",
          "type": "uint256"
        },
        {
          "indexed": true,
          "internalType": "address",
          "name": "nftContract",
          "type": "address"
        },
        {
          "indexed": false,
          "internalType": "address",
          "name": "seller",
          "type": "address"
        },
        {
          "indexed": false,
          "internalType": "bool",
          "name": "isMultiToken",
          "type": "bool"
        },
        {
          "indexed": false,
          "internalType": "uint256",
          "name": "startingPrice",
          "type": "uint256"
        },
        {
          "indexed": false,
          "internalType": "uint256",
          "name": "startTime",
          "type": "uint256"
        },
        {
          "indexed": false,
          "internalType": "uint256",
          "name": "endTime",
          "type": "uint256"
        }
      ],
      "name": "MarketItemAuctionListed",
      "type": "event"
    },
    {
      "anonymous": false,
      "inputs": [
        {
          "indexed": true,
          "internalType": "uint256",
          "name": "tokenId",
          "type": "uint256"
        },
        {
          "indexed": true,
          "internalType": "address",
          "name": "nftContract",
          "type": "address"
        },
        {
          "indexed": false,
          "internalType": "address",
          "name": "seller",
          "type": "address"
        },
        {
          "indexed": false,
          "internalType": "address",
          "name": "bidder",
          "type": "address"
        },
        {
          "indexed": false,
          "internalType": "uint256",
          "name": "bid",
          "type": "uint256"
        },
        {
          "indexed": false,
          "internalType": "uint256",
          "name": "bidTime",
          "type": "uint256"
        }
      ],
      "name": "MarketItemBidded",
      "type": "event"
    },
    {
      "anonymous": false,
      "inputs": [
        {
          "indexed": true,
          "internalType": "uint256",
          "name": "tokenId",
          "type": "uint256"
        },
        {
          "indexed": true,
          "internalType": "address",
          "name": "nftContract",
          "type": "address"
        },
        {
          "indexed": false,
          "internalType": "address",
          "name": "owner",
          "type": "address"
        },
        {
          "indexed": false,
          "internalType": "bool",
          "name": "isMultiToken",
          "type": "bool"
        },
        {
          "indexed": false,
          "internalType": "uint256",
          "name": "price",
          "type": "uint256"
        }
      ],
      "name": "MarketItemCancelListed",
      "type": "event"
    },
    {
      "anonymous": false,
      "inputs": [
        {
          "indexed": true,
          "internalType": "uint256",
          "name": "tokenId",
          "type": "uint256"
        },
        {
          "indexed": true,
          "internalType": "address",
          "name": "nftContract",
          "type": "address"
        },
        {
          "indexed": false,
          "internalType": "address",
          "name": "owner",
          "type": "address"
        },
        {
          "indexed": false,
          "internalType": "bool",
          "name": "isMultiToken",
          "type": "bool"
        }
      ],
      "name": "MarketItemCreated",
      "type": "event"
    },
    {
      "anonymous": false,
      "inputs": [
        {
          "indexed": true,
          "internalType": "uint256",
          "name": "tokenId",
          "type": "uint256"
        },
        {
          "indexed": true,
          "internalType": "address",
          "name": "nftContract",
          "type": "address"
        },
        {
          "indexed": false,
          "internalType": "address",
          "name": "owner",
          "type": "address"
        },
        {
          "indexed": false,
          "internalType": "bool",
          "name": "isMultiToken",
          "type": "bool"
        },
        {
          "indexed": false,
          "internalType": "uint256",
          "name": "price",
          "type": "uint256"
        }
      ],
      "name": "MarketItemListed",
      "type": "event"
    },
    {
      "anonymous": false,
      "inputs": [
        {
          "indexed": true,
          "internalType": "uint256",
          "name": "tokenId",
          "type": "uint256"
        },
        {
          "indexed": true,
          "internalType": "address",
          "name": "nftContract",
          "type": "address"
        },
        {
          "indexed": false,
          "internalType": "address",
          "name": "seller",
          "type": "address"
        },
        {
          "indexed": false,
          "internalType": "address",
          "name": "buyer",
          "type": "address"
        },
        {
          "indexed": false,
          "internalType": "uint256",
          "name": "price",
          "type": "uint256"
        }
      ],
      "name": "MarketItemSold",
      "type": "event"
    },
    {
      "inputs": [
        {
          "internalType": "uint256",
          "name": "tokenId",
          "type": "uint256"
        }
      ],
      "name": "bid",
      "outputs": [],
      "stateMutability": "payable",
      "type": "function"
    },
    {
      "inputs": [
        {
          "internalType": "uint256",
          "name": "tokenId",
          "type": "uint256"
        }
      ],
      "name": "cancelListingItem",
      "outputs": [],
      "stateMutability": "payable",
      "type": "function"
    },
    {
      "inputs": [
        {
          "internalType": "address",
          "name": "nftContract",
          "type": "address"
        },
        {
          "internalType": "string",
          "name": "tokenUri",
          "type": "string"
        },
        {
          "internalType": "bool",
          "name": "isMultiToken",
          "type": "bool"
        }
      ],
      "name": "createMarketItem",
      "outputs": [],
      "stateMutability": "payable",
      "type": "function"
    },
    {
      "inputs": [
        {
          "internalType": "uint256",
          "name": "tokenId",
          "type": "uint256"
        }
      ],
      "name": "createMarketSale",
      "outputs": [],
      "stateMutability": "payable",
      "type": "function"
    },
    {
      "inputs": [
        {
          "internalType": "uint256",
          "name": "tokenId",
          "type": "uint256"
        }
      ],
      "name": "endAuction",
      "outputs": [],
      "stateMutability": "payable",
      "type": "function"
    },
    {
      "inputs": [
        {
          "internalType": "uint256",
          "name": "cursor",
          "type": "uint256"
        },
        {
          "internalType": "uint256",
          "name": "howMany",
          "type": "uint256"
        }
      ],
      "name": "fetchAllNFTs",
      "outputs": [
        {
          "components": [
            {
              "internalType": "uint256",
              "name": "tokenId",
              "type": "uint256"
            },
            {
              "internalType": "address",
              "name": "nftContract",
              "type": "address"
            },
            {
              "internalType": "address payable",
              "name": "seller",
              "type": "address"
            },
            {
              "internalType": "address payable",
              "name": "owner",
              "type": "address"
            },
            {
              "internalType": "uint256",
              "name": "price",
              "type": "uint256"
            },
            {
              "internalType": "bool",
              "name": "sold",
              "type": "bool"
            },
            {
              "internalType": "bool",
              "name": "bidded",
              "type": "bool"
            },
            {
              "internalType": "bool",
              "name": "isMultiToken",
              "type": "bool"
            },
            {
              "components": [
                {
                  "internalType": "uint256",
                  "name": "startAt",
                  "type": "uint256"
                },
                {
                  "internalType": "uint256",
                  "name": "endAt",
                  "type": "uint256"
                },
                {
                  "internalType": "address",
                  "name": "highestBidder",
                  "type": "address"
                },
                {
                  "internalType": "uint256",
                  "name": "highestBid",
                  "type": "uint256"
                },
                {
                  "internalType": "uint256",
                  "name": "highestBidTime",
                  "type": "uint256"
                },
                {
                  "internalType": "uint256",
                  "name": "startingPrice",
                  "type": "uint256"
                },
                {
                  "components": [
                    {
                      "internalType": "address",
                      "name": "bidder",
                      "type": "address"
                    },
                    {
                      "internalType": "uint256",
                      "name": "bid",
                      "type": "uint256"
                    },
                    {
                      "internalType": "uint256",
                      "name": "bidTime",
                      "type": "uint256"
                    }
                  ],
                  "internalType": "struct NFTMarketplace.Bid[]",
                  "name": "bids",
                  "type": "tuple[]"
                }
              ],
              "internalType": "struct NFTMarketplace.AuctionInfo",
              "name": "auctionInfo",
              "type": "tuple"
            }
          ],
          "internalType": "struct NFTMarketplace.MarketItem[]",
          "name": "items",
          "type": "tuple[]"
        },
        {
          "internalType": "uint256",
          "name": "newCursor",
          "type": "uint256"
        },
        {
          "internalType": "uint256",
          "name": "totalItemCount",
          "type": "uint256"
        }
      ],
      "stateMutability": "view",
      "type": "function"
    },
    {
      "inputs": [],
      "name": "fetchAvailableBiddedAuction",
      "outputs": [
        {
          "components": [
            {
              "internalType": "uint256",
              "name": "tokenId",
              "type": "uint256"
            },
            {
              "internalType": "address",
              "name": "nftContract",
              "type": "address"
            },
            {
              "internalType": "address payable",
              "name": "seller",
              "type": "address"
            },
            {
              "internalType": "address payable",
              "name": "owner",
              "type": "address"
            },
            {
              "internalType": "uint256",
              "name": "price",
              "type": "uint256"
            },
            {
              "internalType": "bool",
              "name": "sold",
              "type": "bool"
            },
            {
              "internalType": "bool",
              "name": "bidded",
              "type": "bool"
            },
            {
              "internalType": "bool",
              "name": "isMultiToken",
              "type": "bool"
            },
            {
              "components": [
                {
                  "internalType": "uint256",
                  "name": "startAt",
                  "type": "uint256"
                },
                {
                  "internalType": "uint256",
                  "name": "endAt",
                  "type": "uint256"
                },
                {
                  "internalType": "address",
                  "name": "highestBidder",
                  "type": "address"
                },
                {
                  "internalType": "uint256",
                  "name": "highestBid",
                  "type": "uint256"
                },
                {
                  "internalType": "uint256",
                  "name": "highestBidTime",
                  "type": "uint256"
                },
                {
                  "internalType": "uint256",
                  "name": "startingPrice",
                  "type": "uint256"
                },
                {
                  "components": [
                    {
                      "internalType": "address",
                      "name": "bidder",
                      "type": "address"
                    },
                    {
                      "internalType": "uint256",
                      "name": "bid",
                      "type": "uint256"
                    },
                    {
                      "internalType": "uint256",
                      "name": "bidTime",
                      "type": "uint256"
                    }
                  ],
                  "internalType": "struct NFTMarketplace.Bid[]",
                  "name": "bids",
                  "type": "tuple[]"
                }
              ],
              "internalType": "struct NFTMarketplace.AuctionInfo",
              "name": "auctionInfo",
              "type": "tuple"
            }
          ],
          "internalType": "struct NFTMarketplace.MarketItem[]",
          "name": "items",
          "type": "tuple[]"
        }
      ],
      "stateMutability": "view",
      "type": "function"
    },
    {
      "inputs": [],
      "name": "fetchAvailableMarketItems",
      "outputs": [
        {
          "components": [
            {
              "internalType": "uint256",
              "name": "tokenId",
              "type": "uint256"
            },
            {
              "internalType": "address",
              "name": "nftContract",
              "type": "address"
            },
            {
              "internalType": "address payable",
              "name": "seller",
              "type": "address"
            },
            {
              "internalType": "address payable",
              "name": "owner",
              "type": "address"
            },
            {
              "internalType": "uint256",
              "name": "price",
              "type": "uint256"
            },
            {
              "internalType": "bool",
              "name": "sold",
              "type": "bool"
            },
            {
              "internalType": "bool",
              "name": "bidded",
              "type": "bool"
            },
            {
              "internalType": "bool",
              "name": "isMultiToken",
              "type": "bool"
            },
            {
              "components": [
                {
                  "internalType": "uint256",
                  "name": "startAt",
                  "type": "uint256"
                },
                {
                  "internalType": "uint256",
                  "name": "endAt",
                  "type": "uint256"
                },
                {
                  "internalType": "address",
                  "name": "highestBidder",
                  "type": "address"
                },
                {
                  "internalType": "uint256",
                  "name": "highestBid",
                  "type": "uint256"
                },
                {
                  "internalType": "uint256",
                  "name": "highestBidTime",
                  "type": "uint256"
                },
                {
                  "internalType": "uint256",
                  "name": "startingPrice",
                  "type": "uint256"
                },
                {
                  "components": [
                    {
                      "internalType": "address",
                      "name": "bidder",
                      "type": "address"
                    },
                    {
                      "internalType": "uint256",
                      "name": "bid",
                      "type": "uint256"
                    },
                    {
                      "internalType": "uint256",
                      "name": "bidTime",
                      "type": "uint256"
                    }
                  ],
                  "internalType": "struct NFTMarketplace.Bid[]",
                  "name": "bids",
                  "type": "tuple[]"
                }
              ],
              "internalType": "struct NFTMarketplace.AuctionInfo",
              "name": "auctionInfo",
              "type": "tuple"
            }
          ],
          "internalType": "struct NFTMarketplace.MarketItem[]",
          "name": "items",
          "type": "tuple[]"
        }
      ],
      "stateMutability": "view",
      "type": "function"
    },
    {
      "inputs": [],
      "name": "fetchItemsListed",
      "outputs": [
        {
          "components": [
            {
              "internalType": "uint256",
              "name": "tokenId",
              "type": "uint256"
            },
            {
              "internalType": "address",
              "name": "nftContract",
              "type": "address"
            },
            {
              "internalType": "address payable",
              "name": "seller",
              "type": "address"
            },
            {
              "internalType": "address payable",
              "name": "owner",
              "type": "address"
            },
            {
              "internalType": "uint256",
              "name": "price",
              "type": "uint256"
            },
            {
              "internalType": "bool",
              "name": "sold",
              "type": "bool"
            },
            {
              "internalType": "bool",
              "name": "bidded",
              "type": "bool"
            },
            {
              "internalType": "bool",
              "name": "isMultiToken",
              "type": "bool"
            },
            {
              "components": [
                {
                  "internalType": "uint256",
                  "name": "startAt",
                  "type": "uint256"
                },
                {
                  "internalType": "uint256",
                  "name": "endAt",
                  "type": "uint256"
                },
                {
                  "internalType": "address",
                  "name": "highestBidder",
                  "type": "address"
                },
                {
                  "internalType": "uint256",
                  "name": "highestBid",
                  "type": "uint256"
                },
                {
                  "internalType": "uint256",
                  "name": "highestBidTime",
                  "type": "uint256"
                },
                {
                  "internalType": "uint256",
                  "name": "startingPrice",
                  "type": "uint256"
                },
                {
                  "components": [
                    {
                      "internalType": "address",
                      "name": "bidder",
                      "type": "address"
                    },
                    {
                      "internalType": "uint256",
                      "name": "bid",
                      "type": "uint256"
                    },
                    {
                      "internalType": "uint256",
                      "name": "bidTime",
                      "type": "uint256"
                    }
                  ],
                  "internalType": "struct NFTMarketplace.Bid[]",
                  "name": "bids",
                  "type": "tuple[]"
                }
              ],
              "internalType": "struct NFTMarketplace.AuctionInfo",
              "name": "auctionInfo",
              "type": "tuple"
            }
          ],
          "internalType": "struct NFTMarketplace.MarketItem[]",
          "name": "items",
          "type": "tuple[]"
        }
      ],
      "stateMutability": "view",
      "type": "function"
    },
    {
      "inputs": [
        {
          "internalType": "uint256",
          "name": "_id",
          "type": "uint256"
        }
      ],
      "name": "fetchMarketItem",
      "outputs": [
        {
          "components": [
            {
              "internalType": "uint256",
              "name": "tokenId",
              "type": "uint256"
            },
            {
              "internalType": "address",
              "name": "nftContract",
              "type": "address"
            },
            {
              "internalType": "address payable",
              "name": "seller",
              "type": "address"
            },
            {
              "internalType": "address payable",
              "name": "owner",
              "type": "address"
            },
            {
              "internalType": "uint256",
              "name": "price",
              "type": "uint256"
            },
            {
              "internalType": "bool",
              "name": "sold",
              "type": "bool"
            },
            {
              "internalType": "bool",
              "name": "bidded",
              "type": "bool"
            },
            {
              "internalType": "bool",
              "name": "isMultiToken",
              "type": "bool"
            },
            {
              "components": [
                {
                  "internalType": "uint256",
                  "name": "startAt",
                  "type": "uint256"
                },
                {
                  "internalType": "uint256",
                  "name": "endAt",
                  "type": "uint256"
                },
                {
                  "internalType": "address",
                  "name": "highestBidder",
                  "type": "address"
                },
                {
                  "internalType": "uint256",
                  "name": "highestBid",
                  "type": "uint256"
                },
                {
                  "internalType": "uint256",
                  "name": "highestBidTime",
                  "type": "uint256"
                },
                {
                  "internalType": "uint256",
                  "name": "startingPrice",
                  "type": "uint256"
                },
                {
                  "components": [
                    {
                      "internalType": "address",
                      "name": "bidder",
                      "type": "address"
                    },
                    {
                      "internalType": "uint256",
                      "name": "bid",
                      "type": "uint256"
                    },
                    {
                      "internalType": "uint256",
                      "name": "bidTime",
                      "type": "uint256"
                    }
                  ],
                  "internalType": "struct NFTMarketplace.Bid[]",
                  "name": "bids",
                  "type": "tuple[]"
                }
              ],
              "internalType": "struct NFTMarketplace.AuctionInfo",
              "name": "auctionInfo",
              "type": "tuple"
            }
          ],
          "internalType": "struct NFTMarketplace.MarketItem",
          "name": "",
          "type": "tuple"
        }
      ],
      "stateMutability": "view",
      "type": "function"
    },
    {
      "inputs": [],
      "name": "fetchMyNFTs",
      "outputs": [
        {
          "components": [
            {
              "internalType": "uint256",
              "name": "tokenId",
              "type": "uint256"
            },
            {
              "internalType": "address",
              "name": "nftContract",
              "type": "address"
            },
            {
              "internalType": "address payable",
              "name": "seller",
              "type": "address"
            },
            {
              "internalType": "address payable",
              "name": "owner",
              "type": "address"
            },
            {
              "internalType": "uint256",
              "name": "price",
              "type": "uint256"
            },
            {
              "internalType": "bool",
              "name": "sold",
              "type": "bool"
            },
            {
              "internalType": "bool",
              "name": "bidded",
              "type": "bool"
            },
            {
              "internalType": "bool",
              "name": "isMultiToken",
              "type": "bool"
            },
            {
              "components": [
                {
                  "internalType": "uint256",
                  "name": "startAt",
                  "type": "uint256"
                },
                {
                  "internalType": "uint256",
                  "name": "endAt",
                  "type": "uint256"
                },
                {
                  "internalType": "address",
                  "name": "highestBidder",
                  "type": "address"
                },
                {
                  "internalType": "uint256",
                  "name": "highestBid",
                  "type": "uint256"
                },
                {
                  "internalType": "uint256",
                  "name": "highestBidTime",
                  "type": "uint256"
                },
                {
                  "internalType": "uint256",
                  "name": "startingPrice",
                  "type": "uint256"
                },
                {
                  "components": [
                    {
                      "internalType": "address",
                      "name": "bidder",
                      "type": "address"
                    },
                    {
                      "internalType": "uint256",
                      "name": "bid",
                      "type": "uint256"
                    },
                    {
                      "internalType": "uint256",
                      "name": "bidTime",
                      "type": "uint256"
                    }
                  ],
                  "internalType": "struct NFTMarketplace.Bid[]",
                  "name": "bids",
                  "type": "tuple[]"
                }
              ],
              "internalType": "struct NFTMarketplace.AuctionInfo",
              "name": "auctionInfo",
              "type": "tuple"
            }
          ],
          "internalType": "struct NFTMarketplace.MarketItem[]",
          "name": "items",
          "type": "tuple[]"
        }
      ],
      "stateMutability": "view",
      "type": "function"
    },
    {
      "inputs": [
        {
          "internalType": "uint256",
          "name": "_tokenId",
          "type": "uint256"
        }
      ],
      "name": "get1155TokenURI",
      "outputs": [
        {
          "internalType": "string",
          "name": "",
          "type": "string"
        }
      ],
      "stateMutability": "view",
      "type": "function"
    },
    {
      "inputs": [
        {
          "internalType": "uint256",
          "name": "_tokenId",
          "type": "uint256"
        }
      ],
      "name": "get721TokenURI",
      "outputs": [
        {
          "internalType": "string",
          "name": "",
          "type": "string"
        }
      ],
      "stateMutability": "view",
      "type": "function"
    },
    {
      "inputs": [],
      "name": "getListingPrice",
      "outputs": [
        {
          "internalType": "uint256",
          "name": "",
          "type": "uint256"
        }
      ],
      "stateMutability": "view",
      "type": "function"
    },
    {
      "inputs": [
        {
          "internalType": "uint256",
          "name": "tokenId",
          "type": "uint256"
        },
        {
          "internalType": "uint256",
          "name": "startTime",
          "type": "uint256"
        },
        {
          "internalType": "uint256",
          "name": "endTime",
          "type": "uint256"
        },
        {
          "internalType": "uint256",
          "name": "startingPrice",
          "type": "uint256"
        }
      ],
      "name": "listAuctionItem",
      "outputs": [],
      "stateMutability": "payable",
      "type": "function"
    },
    {
      "inputs": [
        {
          "internalType": "uint256",
          "name": "tokenId",
          "type": "uint256"
        },
        {
          "internalType": "uint256",
          "name": "price",
          "type": "uint256"
        }
      ],
      "name": "listMarketItem",
      "outputs": [],
      "stateMutability": "payable",
      "type": "function"
    },
    {
      "inputs": [
        {
          "internalType": "address",
          "name": "",
          "type": "address"
        },
        {
          "internalType": "address",
          "name": "",
          "type": "address"
        },
        {
          "internalType": "uint256[]",
          "name": "",
          "type": "uint256[]"
        },
        {
          "internalType": "uint256[]",
          "name": "",
          "type": "uint256[]"
        },
        {
          "internalType": "bytes",
          "name": "",
          "type": "bytes"
        }
      ],
      "name": "onERC1155BatchReceived",
      "outputs": [
        {
          "internalType": "bytes4",
          "name": "",
          "type": "bytes4"
        }
      ],
      "stateMutability": "nonpayable",
      "type": "function"
    },
    {
      "inputs": [
        {
          "internalType": "address",
          "name": "",
          "type": "address"
        },
        {
          "internalType": "address",
          "name": "",
          "type": "address"
        },
        {
          "internalType": "uint256",
          "name": "",
          "type": "uint256"
        },
        {
          "internalType": "uint256",
          "name": "",
          "type": "uint256"
        },
        {
          "internalType": "bytes",
          "name": "",
          "type": "bytes"
        }
      ],
      "name": "onERC1155Received",
      "outputs": [
        {
          "internalType": "bytes4",
          "name": "",
          "type": "bytes4"
        }
      ],
      "stateMutability": "nonpayable",
      "type": "function"
    },
    {
      "inputs": [
        {
          "internalType": "address",
          "name": "",
          "type": "address"
        },
        {
          "internalType": "address",
          "name": "",
          "type": "address"
        },
        {
          "internalType": "uint256",
          "name": "",
          "type": "uint256"
        },
        {
          "internalType": "bytes",
          "name": "",
          "type": "bytes"
        }
      ],
      "name": "onERC721Received",
      "outputs": [
        {
          "internalType": "bytes4",
          "name": "",
          "type": "bytes4"
        }
      ],
      "stateMutability": "nonpayable",
      "type": "function"
    },
    {
      "inputs": [
        {
          "internalType": "bytes4",
          "name": "interfaceId",
          "type": "bytes4"
        }
      ],
      "name": "supportsInterface",
      "outputs": [
        {
          "internalType": "bool",
          "name": "",
          "type": "bool"
        }
      ],
      "stateMutability": "view",
      "type": "function"
    },
    {
      "inputs": [
        {
          "internalType": "uint256",
          "name": "_listingPrice",
          "type": "uint256"
        }
      ],
      "name": "updateListingPrice",
      "outputs": [],
      "stateMutability": "payable",
      "type": "function"
    },
    {
      "inputs": [
        {
          "internalType": "uint256",
          "name": "tokenId",
          "type": "uint256"
        }
      ],
      "name": "withdrawBid",
      "outputs": [],
      "stateMutability": "payable",
      "type": "function"
    }
  ],
  "bytecode": "0x60806040526107086006556658d15e176280006007553480156200002257600080fd5b5060405162003eb138038062003eb1833981016040819052620000459162000162565b6001600055600380546001600160a01b038481166001600160a01b0319928316811790935560048054918516919092161781556040516303e96bf960e61b8152309181019190915263fa5afe4090602401600060405180830381600087803b158015620000b157600080fd5b505af1158015620000c6573d6000803e3d6000fd5b5050600480546040516303e96bf960e61b815230928101929092526001600160a01b0316925063fa5afe409150602401600060405180830381600087803b1580156200011157600080fd5b505af115801562000126573d6000803e3d6000fd5b5050600280546001600160a01b03191633179055506200019992505050565b80516001600160a01b03811681146200015d57600080fd5b919050565b6000806040838503121562000175578182fd5b620001808362000145565b9150620001906020840162000145565b90509250929050565b613d0880620001a96000396000f3fe6080604052600436106101355760003560e01c8063454a2ab3116100ab578063ae677aa31161006f578063ae677aa31461033c578063b9a2de3a1461034f578063bc197c8114610362578063be9af5361461038e578063ca034f3a146103a1578063f23a6e61146103b457600080fd5b8063454a2ab3146102cc57806345f8fa80146102df578063541498c6146102f45780636eb22e1114610309578063821ef09d1461031c57600080fd5b80631adc2576116100fd5780631adc257614610208578063202e37401461023757806325762e571461024c5780632796390c146102795780632a45b2501461028c578063359e1a2c146102b957600080fd5b806301ffc9a71461013a5780630e01c9691461016f5780630eaaf4c81461019157806312e85585146101a6578063150b7a02146101c4575b600080fd5b34801561014657600080fd5b5061015a6101553660046137d2565b6103e0565b60405190151581526020015b60405180910390f35b34801561017b57600080fd5b50610184610417565b6040516101669190613b40565b6101a461019f36600461386c565b610809565b005b3480156101b257600080fd5b50600754604051908152602001610166565b3480156101d057600080fd5b506101ef6101df366004613695565b630a85bd0160e11b949350505050565b6040516001600160e01b03199091168152602001610166565b34801561021457600080fd5b50610228610223366004613884565b610a4e565b60405161016693929190613b53565b34801561024357600080fd5b50610184610d21565b34801561025857600080fd5b5061026c61026736600461386c565b610ffc565b6040516101669190613b78565b6101a4610287366004613884565b611080565b34801561029857600080fd5b506102ac6102a736600461386c565b611294565b6040516101669190613bc2565b6101a46102c73660046138a5565b61140c565b6101a46102da36600461386c565b61178b565b3480156102eb57600080fd5b50610184611a68565b34801561030057600080fd5b50610184611d43565b6101a461031736600461386c565b61258e565b34801561032857600080fd5b5061026c61033736600461386c565b6129e6565b6101a461034a36600461386c565b612a18565b6101a461035d36600461386c565b612a90565b34801561036e57600080fd5b506101ef61037d3660046135f0565b63bc197c8160e01b95945050505050565b6101a461039c36600461386c565b612ec1565b6101a46103af36600461375c565b6130e0565b3480156103c057600080fd5b506101ef6103cf3660046136fa565b63f23a6e6160e01b95945050505050565b60006001600160e01b03198216630271189760e51b148061041157506301ffc9a760e01b6001600160e01b03198316145b92915050565b6060600061042460015490565b905060008060005b8381101561050e5760056000610443836001613c2c565b815260208101919091526040016000206005015460ff1615806104e9575060056000610470836001613c2c565b8152602081019190915260400160002060050154610100900460ff161580156104bb575042600560006104a4846001613c2c565b815260200190815260200160002060060160010154115b80156104e9575042600560006104d2846001613c2c565b815260200190815260200160002060060160000154105b156104fc576104f9600184613c2c565b92505b8061050681613c8b565b91505061042c565b506000826001600160401b0381111561053757634e487b7160e01b600052604160045260246000fd5b60405190808252806020026020018201604052801561057057816020015b61055d6133e6565b8152602001906001900390816105555790505b50905060005b84811015610800576005600061058d836001613c2c565b815260208101919091526040016000206005015460ff1615806106335750600560006105ba836001613c2c565b8152602081019190915260400160002060050154610100900460ff16158015610605575042600560006105ee846001613c2c565b815260200190815260200160002060060160010154115b80156106335750426005600061061c846001613c2c565b815260200190815260200160002060060160000154105b156107ee576000610645826001613c2c565b60008181526005602081815260408084208151610120810183528154815260018201546001600160a01b039081168286015260028301548116828501526003830154811660608084019190915260048401546080808501919091529684015460ff808216151560a0808701919091526101008084048316151560c08089019190915262010000909404909216151560e0808801919091528851908101895260068801805482526007890154828c01526008890154909616818a0152600988015494810194909452600a87015499840199909952600b86015498830198909852600c850180548751818a0281018a019098528088529a9b50949993988a988a01979296939591870194919284015b828210156107a7576000848152602090819020604080516060810182526003860290920180546001600160a01b0316835260018082015484860152600290910154918301919091529083529092019101610752565b5050505081525050815250508486815181106107d357634e487b7160e01b600052603260045260246000fd5b60209081029190910101526107e9600186613c2c565b945050505b806107f881613c8b565b915050610576565b50949350505050565b600260005414156108355760405162461bcd60e51b815260040161082c90613b8b565b60405180910390fd5b60026000908155805b6000838152600560205260409020600c0154811015610957576000838152600560205260409020600c0180543391908390811061088b57634e487b7160e01b600052603260045260246000fd5b60009182526020909120600390910201546001600160a01b03161415610945576000838152600560205260409020600c018054829081106108dc57634e487b7160e01b600052603260045260246000fd5b906000526020600020906003020160010154826108f99190613c2c565b6000848152600560205260408120600c01805492945090918390811061092f57634e487b7160e01b600052603260045260246000fd5b9060005260206000209060030201600101819055505b8061094f81613c8b565b91505061083e565b50600081116109a85760405162461bcd60e51b815260206004820152601760248201527f596f7520686176656e2774206269646465642079657421000000000000000000604482015260640161082c565b604051339082156108fc029083906000818181858888f193505050501580156109d5573d6000803e3d6000fd5b50600082815260056020908152604091829020600181015460029091015483516001600160a01b0391821681523393810193909352928201849052919091169083907f79d5728b594c308d9a5643e34a4c8aad57bd810a0fa84016d5949d7107bf189c906060015b60405180910390a350506001600055565b60606000806000610a5e60015490565b9050808610610aa8576040805160008082526020820190925281610a98565b610a856133e6565b815260200190600190039081610a7d5790505b509450869350909150610d1a9050565b84610ab38783613c44565b811115610ac757610ac48783613c44565b90505b6000816001600160401b03811115610aef57634e487b7160e01b600052604160045260246000fd5b604051908082528060200260200182016040528015610b2857816020015b610b156133e6565b815260200190600190039081610b0d5790505b509050875b610b378984613c2c565b811015610d03576000600581610b4e846001613c2c565b8152602080820192909252604090810160009081208251610120810184528154815260018201546001600160a01b03908116828701526002830154811682860152600383015481166060808401919091526004840154608080850191909152600585015460ff808216151560a0808801919091526101008084048316151560c0808a019190915262010000909404909216151560e0808901919091528a519081018b52600689018054825260078a0154828e015260088a0154909716818c0152600989015495810195909552600a88015493850193909352600b87015492840192909252600c860180548951818c0281018c01909a52808a52969a5094988a98928a0197939694959187019492939192919084015b82821015610cb8576000848152602090819020604080516060810182526003860290920180546001600160a01b0316835260018082015484860152600290910154918301919091529083529092019101610c63565b505050508152505081525050838381518110610ce457634e487b7160e01b600052603260045260246000fd5b6020026020010181905250508080610cfb90613c8b565b915050610b2d565b5080610d0f838a613c2c565b849550955095505050505b9250925092565b60606000610d2e60015490565b905060008060005b83811015610d91573360056000610d4e846001613c2c565b81526020810191909152604001600020600301546001600160a01b03161415610d7f57610d7c600184613c2c565b92505b80610d8981613c8b565b915050610d36565b506000826001600160401b03811115610dba57634e487b7160e01b600052604160045260246000fd5b604051908082528060200260200182016040528015610df357816020015b610de06133e6565b815260200190600190039081610dd85790505b50905060005b84811015610800573360056000610e11846001613c2c565b81526020810191909152604001600020600301546001600160a01b03161415610fea576000610e41826001613c2c565b60008181526005602081815260408084208151610120810183528154815260018201546001600160a01b039081168286015260028301548116828501526003830154811660608084019190915260048401546080808501919091529684015460ff808216151560a0808701919091526101008084048316151560c08089019190915262010000909404909216151560e0808801919091528851908101895260068801805482526007890154828c01526008890154909616818a0152600988015494810194909452600a87015499840199909952600b86015498830198909852600c850180548751818a0281018a019098528088529a9b50949993988a988a01979296939591870194919284015b82821015610fa3576000848152602090819020604080516060810182526003860290920180546001600160a01b0316835260018082015484860152600290910154918301919091529083529092019101610f4e565b505050508152505081525050848681518110610fcf57634e487b7160e01b600052603260045260246000fd5b6020908102919091010152610fe5600186613c2c565b945050505b80610ff481613c8b565b915050610df9565b60048054604051638ad9134560e01b81529182018390526060916001600160a01b0390911690638ad91345906024015b60006040518083038186803b15801561104457600080fd5b505afa158015611058573d6000803e3d6000fd5b505050506040513d6000823e601f3d908101601f1916820160405261041191908101906137fa565b6007543410156110eb5760405162461bcd60e51b815260206004820152603060248201527f5072696365206d75737420626520657175616c206f722068696768657220746860448201526f616e206c697374696e6720707269636560801b606482015260840161082c565b6000811161113b5760405162461bcd60e51b815260206004820152601c60248201527f5072696365206d757374206265206174206c6561737420312077656900000000604482015260640161082c565b6000828152600560205260409020600301546001600160a01b031633146111a45760405162461bcd60e51b815260206004820152601960248201527f4f6e6c79206f776e65722063616e206c697374206974656d2100000000000000604482015260640161082c565b600082815260056020819052604090912060048101839055908101805460ff191690819055600282018054336001600160a01b031991821681179092556003840180543092168217905560019093015461121593919286916001600160a01b03169060ff6201000090910416613203565b60008281526005602081815260409283902060018101546003820154919093015484516001600160a01b0392831681526201000090910460ff1615159281019290925292810184905291169083907f31b463dc211ba8d71de85d00fe324011853b81e134abc9b82ea212c3fa1f9a459060600160405180910390a35050565b61129c6133e6565b60008281526005602081815260408084208151610120810183528154815260018201546001600160a01b039081168286015260028301548116828501526003830154811660608084019190915260048401546080808501919091529684015460ff808216151560a0808701919091526101008084048316151560c08089019190915262010000909404909216151560e0808801919091528851908101895260068801805482526007890154828c01526008890154909616818a0152600988015494810194909452600a87015499840199909952600b86015498830198909852600c850180548751818a0281018a01909852808852949995988a01979296939591870194909290919084015b828210156113fc576000848152602090819020604080516060810182526003860290920180546001600160a01b03168352600180820154848601526002909101549183019190915290835290920191016113a7565b5050509152505090525092915050565b60075434146114695760405162461bcd60e51b8152602060048201526024808201527f5072696365206d75737420626520657175616c20746f206c697374696e6720706044820152637269636560e01b606482015260840161082c565b600081116114c55760405162461bcd60e51b8152602060048201526024808201527f5374617274696e67207072696365206d757374206265206c61726765722074686044820152630616e20360e41b606482015260840161082c565b6000848152600560205260409020600301546001600160a01b031633146115275760405162461bcd60e51b815260206004820152601660248201527527b7363c9037bbb732b91031b0b71030bab1ba34b7b760511b604482015260640161082c565b6000848152600560208190526040909120015460ff168015611560575060008481526005602081905260409091200154610100900460ff165b61159d5760405162461bcd60e51b815260206004820152600e60248201526d4e4654206973206f6e2073616c6560901b604482015260640161082c565b8142106115d55760405162461bcd60e51b8152602060048201526006602482015265456e6465642160d01b604482015260640161082c565b6006546115e28484613c44565b116116485760405162461bcd60e51b815260206004820152603060248201527f5468652061756374696f6e2074696d65206d757374206265206c6f6e6765722060448201526f7468616e203330206d696e757465732160801b606482015260840161082c565b60008481526005602052604081206006810185905560078101849055600981018290556008810180546001600160a01b0319169055600a8101829055600b810183905561169a91600c90910190613499565b6000848152600560208190526040909120908101805461ff00191690819055600282018054336001600160a01b031991821681179092556003840180543092168217905560019093015461170593919288916001600160a01b03169060ff6201000090910416613203565b600084815260056020818152604092839020600181015492015483513381526201000090910460ff1615159181019190915291820183905260608201859052608082018490526001600160a01b03169085907f75b0cfc9c9950e18b8591f8b42e62d98434f7a4f41d479a90133cb251e1b96f19060a0015b60405180910390a350505050565b6000818152600560205260409020600201546001600160a01b03163314156117f55760405162461bcd60e51b815260206004820152601760248201527f596f752063616e27742062696420796f7572206974656d000000000000000000604482015260640161082c565b60008181526005602081905260409091200154610100900460ff16156118525760405162461bcd60e51b81526020600482015260126024820152714974656d2069736e27742062696464696e6760701b604482015260640161082c565b60008181526005602052604090206006015442118015611882575060008181526005602052604090206007015442105b6118c35760405162461bcd60e51b81526020600482015260126024820152714e6f7420696e2062696420706572696f642160701b604482015260640161082c565b60008181526005602052604090206009015434116119235760405162461bcd60e51b815260206004820181905260248201527f4d75737420626964206869676865722074686520686967686573742062696421604482015260640161082c565b6000818152600560205260409020600801546001600160a01b0316156119c7576040805160608101825260008381526005602081815284832060088101546001600160a01b0390811686526009820154838701908152600a830154978701978852938352600c909101805460018082018355918652929094209451600390920290940180546001600160a01b03191691909416178355519082015590516002909101555b60008181526005602090815260409182902034600982018190556008820180546001600160a01b0319163390811790915542600a8401819055600184015460029094015486516001600160a01b03918216815295860192909252948401919091526060830193909352919091169082907f34f367c117714cf7e9fff4df15a4799e49ad2785e267d0ce4aae7a045d471f30906080015b60405180910390a350565b60606000611a7560015490565b905060008060005b83811015611ad8573360056000611a95846001613c2c565b81526020810191909152604001600020600201546001600160a01b03161415611ac657611ac3600184613c2c565b92505b80611ad081613c8b565b915050611a7d565b506000826001600160401b03811115611b0157634e487b7160e01b600052604160045260246000fd5b604051908082528060200260200182016040528015611b3a57816020015b611b276133e6565b815260200190600190039081611b1f5790505b50905060005b84811015610800573360056000611b58846001613c2c565b81526020810191909152604001600020600201546001600160a01b03161415611d31576000611b88826001613c2c565b60008181526005602081815260408084208151610120810183528154815260018201546001600160a01b039081168286015260028301548116828501526003830154811660608084019190915260048401546080808501919091529684015460ff808216151560a0808701919091526101008084048316151560c08089019190915262010000909404909216151560e0808801919091528851908101895260068801805482526007890154828c01526008890154909616818a0152600988015494810194909452600a87015499840199909952600b86015498830198909852600c850180548751818a0281018a019098528088529a9b50949993988a988a01979296939591870194919284015b82821015611cea576000848152602090819020604080516060810182526003860290920180546001600160a01b0316835260018082015484860152600290910154918301919091529083529092019101611c95565b505050508152505081525050848681518110611d1657634e487b7160e01b600052603260045260246000fd5b6020908102919091010152611d2c600186613c2c565b945050505b80611d3b81613c8b565b915050611b40565b60606000611d5060015490565b905060008060005b83811015611f975760056000611d6f836001613c2c565b815260208101919091526040016000206005015460ff1615156001148015611dbf575060056000611da1836001613c2c565b8152602081019190915260400160002060050154610100900460ff16155b8015611ded57504260056000611dd6846001613c2c565b815260200190815260200160002060060160000154105b8015611e2457506000600581611e04846001613c2c565b81526020810191909152604001600020600801546001600160a01b031614155b15611f85573360056000611e39846001613c2c565b81526020810191909152604001600020600801546001600160a01b03161415611e6e57611e67600184613c2c565b9250611f85565b6000600581611e7e846001613c2c565b8152602001908152602001600020600601600601805480602002602001604051908101604052809291908181526020016000905b82821015611f07576000848152602090819020604080516060810182526003860290920180546001600160a01b0316835260018082015484860152600290910154918301919091529083529092019101611eb2565b50505050905060005b8151811015611f8257336001600160a01b0316828281518110611f4357634e487b7160e01b600052603260045260246000fd5b6020026020010151600001516001600160a01b03161415611f7057611f69600186613c2c565b9450611f82565b80611f7a81613c8b565b915050611f10565b50505b80611f8f81613c8b565b915050611d58565b506000826001600160401b03811115611fc057634e487b7160e01b600052604160045260246000fd5b604051908082528060200260200182016040528015611ff957816020015b611fe66133e6565b815260200190600190039081611fde5790505b50905060005b848110156108005760056000612016836001613c2c565b815260208101919091526040016000206005015460ff1615156001148015612066575060056000612048836001613c2c565b8152602081019190915260400160002060050154610100900460ff16155b80156120945750426005600061207d846001613c2c565b815260200190815260200160002060060160000154105b80156120cb575060006005816120ab846001613c2c565b81526020810191909152604001600020600801546001600160a01b031614155b1561257c5733600560006120e0846001613c2c565b81526020810191909152604001600020600801546001600160a01b031614156122bd576000612110826001613c2c565b60008181526005602081815260408084208151610120810183528154815260018201546001600160a01b039081168286015260028301548116828501526003830154811660608084019190915260048401546080808501919091529684015460ff808216151560a0808701919091526101008084048316151560c08089019190915262010000909404909216151560e0808801919091528851908101895260068801805482526007890154828c01526008890154909616818a0152600988015494810194909452600a87015499840199909952600b86015498830198909852600c850180548751818a0281018a019098528088529a9b50949993988a988a01979296939591870194919284015b82821015612272576000848152602090819020604080516060810182526003860290920180546001600160a01b031683526001808201548486015260029091015491830191909152908352909201910161221d565b50505050815250508152505084868151811061229e57634e487b7160e01b600052603260045260246000fd5b60209081029190910101526122b4600186613c2c565b9450505061257c565b60006005816122cd846001613c2c565b8152602001908152602001600020600601600601805480602002602001604051908101604052809291908181526020016000905b82821015612356576000848152602090819020604080516060810182526003860290920180546001600160a01b0316835260018082015484860152600290910154918301919091529083529092019101612301565b50505050905060005b815181101561257957336001600160a01b031682828151811061239257634e487b7160e01b600052603260045260246000fd5b6020026020010151600001516001600160a01b031614156125675760006123ba846001613c2c565b60008181526005602081815260408084208151610120810183528154815260018201546001600160a01b039081168286015260028301548116828501526003830154811660608084019190915260048401546080808501919091529684015460ff808216151560a0808701919091526101008084048316151560c08089019190915262010000909404909216151560e0808801919091528851908101895260068801805482526007890154828c01526008890154909616818a0152600988015494810194909452600a87015499840199909952600b86015498830198909852600c850180548751818a0281018a019098528088529a9b50949993988a988a01979296939591870194919284015b8282101561251c576000848152602090819020604080516060810182526003860290920180546001600160a01b03168352600180820154848601526002909101549183019190915290835290920191016124c7565b50505050815250508152505086888151811061254857634e487b7160e01b600052603260045260246000fd5b602090810291909101015261255e600188613c2c565b96505050612579565b8061257181613c8b565b91505061235f565b50505b8061258681613c8b565b915050611fff565b6000818152600560205260409020600201546001600160a01b031633146125f75760405162461bcd60e51b815260206004820152601f60248201527f4f6e6c792073656c6c65722063616e2063616e63656c206c697374696e672100604482015260640161082c565b6000818152600560208190526040909120015460ff161580612631575060008181526005602081905260409091200154610100900460ff16155b6126895760405162461bcd60e51b8152602060048201526024808201527f4f6e6c79206c6973746564206974656d2063616e2063616e63656c206c697374604482015263696e672160e01b606482015260840161082c565b60008181526005602081905260409091200154610100900460ff166128ea57600081815260056020526040902060070154421061271a5760405162461bcd60e51b815260206004820152602960248201527f43616e6e6f742063616e63656c207768656e2061756374696f6e20616c726561604482015268647920656e6465642160b81b606482015260840161082c565b6000818152600560205260409020600801546001600160a01b0316156128c65760005b6000828152600560205260409020600c0154811015612875576000828152600560205260408120600c0180548390811061278757634e487b7160e01b600052603260045260246000fd5b9060005260206000209060030201600101541115612863576000828152600560205260409020600c018054829081106127d057634e487b7160e01b600052603260045260246000fd5b6000918252602080832060039092029091015484835260059091526040909120600c0180546001600160a01b03909216916108fc91908490811061282457634e487b7160e01b600052603260045260246000fd5b9060005260206000209060030201600101549081150290604051600060405180830381858888f19350505050158015612861573d6000803e3d6000fd5b505b8061286d81613c8b565b91505061273d565b50600081815260056020526040808220600881015460099091015491516001600160a01b039091169282156108fc02929190818181858888f193505050501580156128c4573d6000803e3d6000fd5b505b600081815260056020819052604090912001805461ff001916610100179055612908565b600081815260056020819052604090912001805460ff191660011790555b6000818152600560208190526040909120600381018054336001600160a01b03199182168117909255600283018054909116905560018201549190920154612968923092909185916001600160a01b03169062010000900460ff16613203565b600081815260056020818152604092839020600181015460038201549382015460049092015485516001600160a01b0395861681526201000090930460ff161515938301939093529381019190915291169082907f769a2f215ef24b6515bca3c5f2993d943ce052a9c9deb2fcc5c81a399a0e931c90606001611a5d565b600354604051633bb3a24d60e01b8152600481018390526060916001600160a01b031690633bb3a24d9060240161102c565b6002546001600160a01b03163314612a8b5760405162461bcd60e51b815260206004820152603060248201527f4f6e6c79206d61726b6574706c616365206f776e65722063616e20757064617460448201526f32903634b9ba34b73390383934b1b29760811b606482015260840161082c565b600755565b60026000541415612ab35760405162461bcd60e51b815260040161082c90613b8b565b60026000908155818152600560205260409020600701544211612b185760405162461bcd60e51b815260206004820152601960248201527f41756374696f6e206973207374696c6c206f6e676f696e672100000000000000604482015260640161082c565b60008181526005602081905260409091200154610100900460ff1615612b795760405162461bcd60e51b815260206004820152601660248201527541756374696f6e20616c726561647920656e6465642160501b604482015260640161082c565b6000818152600560205260409020600801546001600160a01b031615612d865760005b6000828152600560205260409020600c0154811015612cd4576000828152600560205260408120600c01805483908110612be657634e487b7160e01b600052603260045260246000fd5b9060005260206000209060030201600101541115612cc2576000828152600560205260409020600c01805482908110612c2f57634e487b7160e01b600052603260045260246000fd5b6000918252602080832060039092029091015484835260059091526040909120600c0180546001600160a01b03909216916108fc919084908110612c8357634e487b7160e01b600052603260045260246000fd5b9060005260206000209060030201600101549081150290604051600060405180830381858888f19350505050158015612cc0573d6000803e3d6000fd5b505b80612ccc81613c8b565b915050612b9c565b50600081815260056020526040808220600281015460099091015491516001600160a01b039091169282156108fc02929190818181858888f19350505050158015612d23573d6000803e3d6000fd5b50600081815260056020819052604090912060088101546003820180546001600160a01b0319166001600160a01b0392831690811790915560018301549290930154612d819330939092869291169060ff6201000090910416613203565b612e02565b6000818152600560208190526040909120600281015460018201549190920154612dcc9230926001600160a01b039182169286929091169062010000900460ff16613203565b60008181526005602052604090206002810154600390910180546001600160a01b0319166001600160a01b039092169190911790555b6000818152600560208181526040928390206002810180546001600160a01b0319169055918201805461ff001916610100179081905560018301546003840154600885015460099095015486516001600160a01b0392831681526201000090940460ff1615159484019490945293841694820194909452606081019190915242608082015291169082907fa21625bacd9a53a22f3eda0f00281d2db3d918b022e003de1b8ec1dbf3551b319060a00160405180910390a3506001600055565b60026000541415612ee45760405162461bcd60e51b815260040161082c90613b8b565b60026000818155828152600560208190526040909120918201549101546001600160a01b039091169060ff1615612f525760405162461bcd60e51b81526020600482015260126024820152714974656d2069736e2774206f6e2073616c6560701b604482015260640161082c565b6000828152600560205260409020600401543414612fc25760405162461bcd60e51b815260206004820152602760248201527f4275796572206d757374207472616e7366657220657175616c207072696365206044820152666f66206974656d60c81b606482015260840161082c565b6000828152600560205260408082206002015490516001600160a01b03909116913480156108fc02929091818181858888f1935050505015801561300a573d6000803e3d6000fd5b506000828152600560208190526040909120600381018054336001600160a01b031991821681179092556002830180549091169055918101805460ff19166001908117918290559091015461307a923092909186916001600160a01b039091169060ff6201000090910416613203565b600082815260056020908152604091829020600181015460049091015483516001600160a01b038681168252339482019490945293840152169083907fd3bd3ff48ce3a8bb23194a87b735e828ab1668173da85bff87a6000c0408512a90606001610a3d565b6130ee600180546001019055565b60006130f960015490565b905081156131125761310d8160018561330a565b613159565b6131598184604051806040016040528060088152602001672aa4aa2a37b5b2b760c11b8152506040518060400160405280600381526020016215525560ea1b815250613377565b6000818152600560208181526040928390208481556001810180546001600160a01b038a166001600160a01b03199182168117909255600283018054821690556003830180549091163390811790915591909301805487151562010000810262ffffff199092169190911761010117909155845191825291810191909152909183917fac1bd62278cac1e3927d9af6d75c2a00c32db78ed0bb3a721d009050f786b7e8910161177d565b801561329857604051637921219560e11b81526001600160a01b0386811660048301528581166024830152604482018590526001606483015260a06084830152600260a4830152615b5d60f01b60c483015283169063f242432a9060e401600060405180830381600087803b15801561327b57600080fd5b505af115801561328f573d6000803e3d6000fd5b50505050613303565b604051632142170760e11b81526001600160a01b0386811660048301528581166024830152604482018590528316906342842e0e90606401600060405180830381600087803b1580156132ea57600080fd5b505af11580156132fe573d6000803e3d6000fd5b505050505b5050505050565b6003546040516332ad158d60e11b81526001600160a01b039091169063655a2b1a90613340903390879087908790600401613b13565b600060405180830381600087803b15801561335a57600080fd5b505af115801561336e573d6000803e3d6000fd5b50505050505050565b6004805460405163257d89db60e01b81526001600160a01b039091169163257d89db916133ae913391899189918991899101613aba565b600060405180830381600087803b1580156133c857600080fd5b505af11580156133dc573d6000803e3d6000fd5b5050505050505050565b6040518061012001604052806000815260200160006001600160a01b0316815260200160006001600160a01b0316815260200160006001600160a01b03168152602001600081526020016000151581526020016000151581526020016000151581526020016134946040518060e00160405280600081526020016000815260200160006001600160a01b03168152602001600081526020016000815260200160008152602001606081525090565b905290565b50805460008255600302906000526020600020908101906134ba91906134bd565b50565b5b808211156134ea5780546001600160a01b031916815560006001820181905560028201556003016134be565b5090565b60006135016134fc84613c05565b613bd5565b905082815283838301111561351557600080fd5b828260208301376000602084830101529392505050565b80356001600160a01b038116811461354357600080fd5b919050565b600082601f830112613558578081fd5b813560206001600160401b0382111561357357613573613cbc565b8160051b613582828201613bd5565b83815282810190868401838801850189101561359c578687fd5b8693505b858410156135be5780358352600193909301929184019184016135a0565b50979650505050505050565b600082601f8301126135da578081fd5b6135e9838335602085016134ee565b9392505050565b600080600080600060a08688031215613607578081fd5b6136108661352c565b945061361e6020870161352c565b935060408601356001600160401b0380821115613639578283fd5b61364589838a01613548565b9450606088013591508082111561365a578283fd5b61366689838a01613548565b9350608088013591508082111561367b578283fd5b50613688888289016135ca565b9150509295509295909350565b600080600080608085870312156136aa578384fd5b6136b38561352c565b93506136c16020860161352c565b92506040850135915060608501356001600160401b038111156136e2578182fd5b6136ee878288016135ca565b91505092959194509250565b600080600080600060a08688031215613711578081fd5b61371a8661352c565b94506137286020870161352c565b9350604086013592506060860135915060808601356001600160401b03811115613750578182fd5b613688888289016135ca565b600080600060608486031215613770578283fd5b6137798461352c565b925060208401356001600160401b03811115613793578283fd5b8401601f810186136137a3578283fd5b6137b2868235602084016134ee565b925050604084013580151581146137c7578182fd5b809150509250925092565b6000602082840312156137e3578081fd5b81356001600160e01b0319811681146135e9578182fd5b60006020828403121561380b578081fd5b81516001600160401b03811115613820578182fd5b8201601f81018413613830578182fd5b805161383e6134fc82613c05565b818152856020838501011115613852578384fd5b613863826020830160208601613c5b565b95945050505050565b60006020828403121561387d578081fd5b5035919050565b60008060408385031215613896578182fd5b50508035926020909101359150565b600080600080608085870312156138ba578182fd5b5050823594602084013594506040840135936060013592509050565b600081518084526020808501808196508360051b81019150828601855b8581101561391d57828403895261390b848351613a01565b988501989350908401906001016138f3565b5091979650505050505050565b60008151808452613942816020860160208601613c5b565b601f01601f19169290920160200192915050565b600060e08301825184526020808401518186015260408085015160018060a01b03808216838901526060915081870151828901526080870151608089015260a087015160a089015260c087015160e060c08a01528581518088526101008b01915086830197508892505b808310156139f35787518051851683528781015188840152860151868301529686019660019290920191908401906139c0565b509998505050505050505050565b60006101208251845260018060a01b0360208401511660208501526040830151613a3660408601826001600160a01b03169052565b506060830151613a5160608601826001600160a01b03169052565b506080830151608085015260a0830151613a6f60a086018215159052565b5060c0830151613a8360c086018215159052565b5060e0830151613a9760e086018215159052565b50610100808401518282870152613ab083870182613956565b9695505050505050565b60018060a01b038616815284602082015260a060408201526000613ae160a083018661392a565b8281036060840152613af3818661392a565b90508281036080840152613b07818561392a565b98975050505050505050565b60018060a01b0385168152836020820152826040820152608060608201526000613ab0608083018461392a565b6020815260006135e960208301846138d6565b606081526000613b6660608301866138d6565b60208301949094525060400152919050565b6020815260006135e9602083018461392a565b6020808252601f908201527f5265656e7472616e637947756172643a207265656e7472616e742063616c6c00604082015260600190565b6020815260006135e96020830184613a01565b604051601f8201601f191681016001600160401b0381118282101715613bfd57613bfd613cbc565b604052919050565b60006001600160401b03821115613c1e57613c1e613cbc565b50601f01601f191660200190565b60008219821115613c3f57613c3f613ca6565b500190565b600082821015613c5657613c56613ca6565b500390565b60005b83811015613c76578181015183820152602001613c5e565b83811115613c85576000848401525b50505050565b6000600019821415613c9f57613c9f613ca6565b5060010190565b634e487b7160e01b600052601160045260246000fd5b634e487b7160e01b600052604160045260246000fdfea26469706673582212208133f375bdbe25f5ab67c5fb898a0dd8badc50c1a9763d56ece127f43267836264736f6c63430008040033",
  "linkReferences": {},
  "deployedLinkReferences": {}
}