{
  "_format": "hh-sol-artifact-1",
  "contractName": "NFTMarketplace",
  "sourceName": "contracts/NFTMarketplace.sol",
  "abi": [
    {
      "inputs": [],
      "stateMutability": "nonpayable",
      "type": "constructor"
    },
    {
      "anonymous": false,
      "inputs": [
        {
          "indexed": true,
          "internalType": "uint256",
          "name": "tokenId",
          "type": "uint256"
        },
        {
          "indexed": true,
          "internalType": "address",
          "name": "nftContract",
          "type": "address"
        },
        {
          "indexed": false,
          "internalType": "address",
          "name": "seller",
          "type": "address"
        },
        {
          "indexed": false,
          "internalType": "address",
          "name": "bidder",
          "type": "address"
        },
        {
          "indexed": false,
          "internalType": "uint256",
          "name": "balance",
          "type": "uint256"
        }
      ],
      "name": "BidderWithdraw",
      "type": "event"
    },
    {
      "anonymous": false,
      "inputs": [
        {
          "indexed": true,
          "internalType": "uint256",
          "name": "tokenId",
          "type": "uint256"
        },
        {
          "indexed": true,
          "internalType": "address",
          "name": "nftContract",
          "type": "address"
        },
        {
          "indexed": false,
          "internalType": "address",
          "name": "seller",
          "type": "address"
        },
        {
          "indexed": false,
          "internalType": "bool",
          "name": "isMultiToken",
          "type": "bool"
        },
        {
          "indexed": false,
          "internalType": "address",
          "name": "highestBidder",
          "type": "address"
        },
        {
          "indexed": false,
          "internalType": "uint256",
          "name": "highestBid",
          "type": "uint256"
        },
        {
          "indexed": false,
          "internalType": "uint256",
          "name": "endTime",
          "type": "uint256"
        }
      ],
      "name": "MarketItemAuctionEnded",
      "type": "event"
    },
    {
      "anonymous": false,
      "inputs": [
        {
          "indexed": true,
          "internalType": "uint256",
          "name": "tokenId",
          "type": "uint256"
        },
        {
          "indexed": true,
          "internalType": "address",
          "name": "nftContract",
          "type": "address"
        },
        {
          "indexed": false,
          "internalType": "address",
          "name": "seller",
          "type": "address"
        },
        {
          "indexed": false,
          "internalType": "bool",
          "name": "isMultiToken",
          "type": "bool"
        },
        {
          "indexed": false,
          "internalType": "uint256",
          "name": "startingPrice",
          "type": "uint256"
        },
        {
          "indexed": false,
          "internalType": "uint256",
          "name": "startTime",
          "type": "uint256"
        },
        {
          "indexed": false,
          "internalType": "uint256",
          "name": "endTime",
          "type": "uint256"
        }
      ],
      "name": "MarketItemAuctionListed",
      "type": "event"
    },
    {
      "anonymous": false,
      "inputs": [
        {
          "indexed": true,
          "internalType": "uint256",
          "name": "tokenId",
          "type": "uint256"
        },
        {
          "indexed": true,
          "internalType": "address",
          "name": "nftContract",
          "type": "address"
        },
        {
          "indexed": false,
          "internalType": "address",
          "name": "seller",
          "type": "address"
        },
        {
          "indexed": false,
          "internalType": "address",
          "name": "bidder",
          "type": "address"
        },
        {
          "indexed": false,
          "internalType": "uint256",
          "name": "bid",
          "type": "uint256"
        },
        {
          "indexed": false,
          "internalType": "uint256",
          "name": "bidTime",
          "type": "uint256"
        }
      ],
      "name": "MarketItemBidded",
      "type": "event"
    },
    {
      "anonymous": false,
      "inputs": [
        {
          "indexed": true,
          "internalType": "uint256",
          "name": "tokenId",
          "type": "uint256"
        },
        {
          "indexed": true,
          "internalType": "address",
          "name": "nftContract",
          "type": "address"
        },
        {
          "indexed": false,
          "internalType": "address",
          "name": "owner",
          "type": "address"
        },
        {
          "indexed": false,
          "internalType": "bool",
          "name": "isMultiToken",
          "type": "bool"
        },
        {
          "indexed": false,
          "internalType": "uint256",
          "name": "price",
          "type": "uint256"
        }
      ],
      "name": "MarketItemCancelListed",
      "type": "event"
    },
    {
      "anonymous": false,
      "inputs": [
        {
          "indexed": true,
          "internalType": "uint256",
          "name": "tokenId",
          "type": "uint256"
        },
        {
          "indexed": true,
          "internalType": "address",
          "name": "nftContract",
          "type": "address"
        },
        {
          "indexed": false,
          "internalType": "address",
          "name": "owner",
          "type": "address"
        },
        {
          "indexed": false,
          "internalType": "bool",
          "name": "isMultiToken",
          "type": "bool"
        }
      ],
      "name": "MarketItemCreated",
      "type": "event"
    },
    {
      "anonymous": false,
      "inputs": [
        {
          "indexed": true,
          "internalType": "uint256",
          "name": "tokenId",
          "type": "uint256"
        },
        {
          "indexed": true,
          "internalType": "address",
          "name": "nftContract",
          "type": "address"
        },
        {
          "indexed": false,
          "internalType": "address",
          "name": "owner",
          "type": "address"
        },
        {
          "indexed": false,
          "internalType": "bool",
          "name": "isMultiToken",
          "type": "bool"
        },
        {
          "indexed": false,
          "internalType": "uint256",
          "name": "price",
          "type": "uint256"
        }
      ],
      "name": "MarketItemListed",
      "type": "event"
    },
    {
      "anonymous": false,
      "inputs": [
        {
          "indexed": true,
          "internalType": "uint256",
          "name": "tokenId",
          "type": "uint256"
        },
        {
          "indexed": true,
          "internalType": "address",
          "name": "nftContract",
          "type": "address"
        },
        {
          "indexed": false,
          "internalType": "address",
          "name": "seller",
          "type": "address"
        },
        {
          "indexed": false,
          "internalType": "address",
          "name": "buyer",
          "type": "address"
        },
        {
          "indexed": false,
          "internalType": "uint256",
          "name": "price",
          "type": "uint256"
        }
      ],
      "name": "MarketItemSold",
      "type": "event"
    },
    {
      "inputs": [
        {
          "internalType": "uint256",
          "name": "tokenId",
          "type": "uint256"
        }
      ],
      "name": "bid",
      "outputs": [],
      "stateMutability": "payable",
      "type": "function"
    },
    {
      "inputs": [
        {
          "internalType": "uint256",
          "name": "tokenId",
          "type": "uint256"
        }
      ],
      "name": "cancelListingItem",
      "outputs": [],
      "stateMutability": "payable",
      "type": "function"
    },
    {
      "inputs": [
        {
          "internalType": "address",
          "name": "nftContract",
          "type": "address"
        },
        {
          "internalType": "string",
          "name": "tokenUri",
          "type": "string"
        },
        {
          "internalType": "bool",
          "name": "isMultiToken",
          "type": "bool"
        }
      ],
      "name": "createMarketItem",
      "outputs": [],
      "stateMutability": "payable",
      "type": "function"
    },
    {
      "inputs": [
        {
          "internalType": "uint256",
          "name": "tokenId",
          "type": "uint256"
        }
      ],
      "name": "createMarketSale",
      "outputs": [],
      "stateMutability": "payable",
      "type": "function"
    },
    {
      "inputs": [
        {
          "internalType": "uint256",
          "name": "tokenId",
          "type": "uint256"
        }
      ],
      "name": "endAuction",
      "outputs": [],
      "stateMutability": "payable",
      "type": "function"
    },
    {
      "inputs": [
        {
          "internalType": "uint256",
          "name": "_tokenId",
          "type": "uint256"
        },
        {
          "internalType": "address",
          "name": "_collection",
          "type": "address"
        }
      ],
      "name": "get1155TokenURI",
      "outputs": [
        {
          "internalType": "string",
          "name": "",
          "type": "string"
        }
      ],
      "stateMutability": "view",
      "type": "function"
    },
    {
      "inputs": [
        {
          "internalType": "uint256",
          "name": "_tokenId",
          "type": "uint256"
        },
        {
          "internalType": "address",
          "name": "_collection",
          "type": "address"
        }
      ],
      "name": "get721TokenURI",
      "outputs": [
        {
          "internalType": "string",
          "name": "",
          "type": "string"
        }
      ],
      "stateMutability": "view",
      "type": "function"
    },
    {
      "inputs": [],
      "name": "getListingPrice",
      "outputs": [
        {
          "internalType": "uint256",
          "name": "",
          "type": "uint256"
        }
      ],
      "stateMutability": "view",
      "type": "function"
    },
    {
      "inputs": [
        {
          "internalType": "uint256",
          "name": "tokenId",
          "type": "uint256"
        },
        {
          "internalType": "uint256",
          "name": "startTime",
          "type": "uint256"
        },
        {
          "internalType": "uint256",
          "name": "endTime",
          "type": "uint256"
        },
        {
          "internalType": "uint256",
          "name": "startingPrice",
          "type": "uint256"
        }
      ],
      "name": "listAuctionItem",
      "outputs": [],
      "stateMutability": "payable",
      "type": "function"
    },
    {
      "inputs": [
        {
          "internalType": "uint256",
          "name": "tokenId",
          "type": "uint256"
        },
        {
          "internalType": "uint256",
          "name": "price",
          "type": "uint256"
        }
      ],
      "name": "listMarketItem",
      "outputs": [],
      "stateMutability": "payable",
      "type": "function"
    },
    {
      "inputs": [
        {
          "internalType": "address",
          "name": "",
          "type": "address"
        },
        {
          "internalType": "address",
          "name": "",
          "type": "address"
        },
        {
          "internalType": "uint256[]",
          "name": "",
          "type": "uint256[]"
        },
        {
          "internalType": "uint256[]",
          "name": "",
          "type": "uint256[]"
        },
        {
          "internalType": "bytes",
          "name": "",
          "type": "bytes"
        }
      ],
      "name": "onERC1155BatchReceived",
      "outputs": [
        {
          "internalType": "bytes4",
          "name": "",
          "type": "bytes4"
        }
      ],
      "stateMutability": "nonpayable",
      "type": "function"
    },
    {
      "inputs": [
        {
          "internalType": "address",
          "name": "",
          "type": "address"
        },
        {
          "internalType": "address",
          "name": "",
          "type": "address"
        },
        {
          "internalType": "uint256",
          "name": "",
          "type": "uint256"
        },
        {
          "internalType": "uint256",
          "name": "",
          "type": "uint256"
        },
        {
          "internalType": "bytes",
          "name": "",
          "type": "bytes"
        }
      ],
      "name": "onERC1155Received",
      "outputs": [
        {
          "internalType": "bytes4",
          "name": "",
          "type": "bytes4"
        }
      ],
      "stateMutability": "nonpayable",
      "type": "function"
    },
    {
      "inputs": [
        {
          "internalType": "address",
          "name": "",
          "type": "address"
        },
        {
          "internalType": "address",
          "name": "",
          "type": "address"
        },
        {
          "internalType": "uint256",
          "name": "",
          "type": "uint256"
        },
        {
          "internalType": "bytes",
          "name": "",
          "type": "bytes"
        }
      ],
      "name": "onERC721Received",
      "outputs": [
        {
          "internalType": "bytes4",
          "name": "",
          "type": "bytes4"
        }
      ],
      "stateMutability": "nonpayable",
      "type": "function"
    },
    {
      "inputs": [
        {
          "internalType": "bytes4",
          "name": "interfaceId",
          "type": "bytes4"
        }
      ],
      "name": "supportsInterface",
      "outputs": [
        {
          "internalType": "bool",
          "name": "",
          "type": "bool"
        }
      ],
      "stateMutability": "view",
      "type": "function"
    },
    {
      "inputs": [
        {
          "internalType": "uint256",
          "name": "_listingPrice",
          "type": "uint256"
        }
      ],
      "name": "updateListingPrice",
      "outputs": [],
      "stateMutability": "payable",
      "type": "function"
    },
    {
      "inputs": [
        {
          "internalType": "uint256",
          "name": "tokenId",
          "type": "uint256"
        }
      ],
      "name": "withdrawBid",
      "outputs": [],
      "stateMutability": "payable",
      "type": "function"
    }
  ],
  "bytecode": "0x60806040526107086004556658d15e1762800060055534801561002157600080fd5b506001600055600280546001600160a01b03191633179055612357806100486000396000f3fe6080604052600436106100f35760003560e01c80636eb22e111161008a578063bc197c8111610059578063bc197c8114610263578063be9af5361461028f578063ca034f3a146102a2578063f23a6e61146102b557600080fd5b80636eb22e111461020a578063ae677aa31461021d578063b5d6a9f114610230578063b9a2de3a1461025057600080fd5b80632796390c116100c65780632796390c146101a4578063359e1a2c146101b7578063454a2ab3146101ca578063663d7e29146101dd57600080fd5b806301ffc9a7146100f85780630eaaf4c81461012d57806312e8558514610142578063150b7a0214610160575b600080fd5b34801561010457600080fd5b5061011861011336600461201e565b6102e1565b60405190151581526020015b60405180910390f35b61014061013b3660046120b9565b610318565b005b34801561014e57600080fd5b50600554604051908152602001610124565b34801561016c57600080fd5b5061018b61017b366004611ede565b630a85bd0160e11b949350505050565b6040516001600160e01b03199091168152602001610124565b6101406101b23660046120fc565b61055d565b6101406101c536600461211d565b610771565b6101406101d83660046120b9565b610af3565b3480156101e957600080fd5b506101fd6101f83660046120d1565b610dcf565b60405161012491906121d8565b6101406102183660046120b9565b610e56565b61014061022b3660046120b9565b6112a4565b34801561023c57600080fd5b506101fd61024b3660046120d1565b61131c565b61014061025e3660046120b9565b61134c565b34801561026f57600080fd5b5061018b61027e366004611e38565b63bc197c8160e01b95945050505050565b61014061029d3660046120b9565b6117bf565b6101406102b0366004611fa7565b611a28565b3480156102c157600080fd5b5061018b6102d0366004611f44565b63f23a6e6160e01b95945050505050565b60006001600160e01b03198216630271189760e51b148061031257506301ffc9a760e01b6001600160e01b03198316145b92915050565b600260005414156103445760405162461bcd60e51b815260040161033b906121eb565b60405180910390fd5b60026000908155805b6000838152600360205260409020600c0154811015610466576000838152600360205260409020600c0180543391908390811061039a57634e487b7160e01b600052603260045260246000fd5b60009182526020909120600390910201546001600160a01b03161415610454576000838152600360205260409020600c018054829081106103eb57634e487b7160e01b600052603260045260246000fd5b90600052602060002090600302016001015482610408919061227b565b6000848152600360205260408120600c01805492945090918390811061043e57634e487b7160e01b600052603260045260246000fd5b9060005260206000209060030201600101819055505b8061045e816122da565b91505061034d565b50600081116104b75760405162461bcd60e51b815260206004820152601760248201527f596f7520686176656e2774206269646465642079657421000000000000000000604482015260640161033b565b604051339082156108fc029083906000818181858888f193505050501580156104e4573d6000803e3d6000fd5b50600082815260036020908152604091829020600181015460029091015483516001600160a01b0391821681523393810193909352928201849052919091169083907f79d5728b594c308d9a5643e34a4c8aad57bd810a0fa84016d5949d7107bf189c906060015b60405180910390a350506001600055565b6005543410156105c85760405162461bcd60e51b815260206004820152603060248201527f5072696365206d75737420626520657175616c206f722068696768657220746860448201526f616e206c697374696e6720707269636560801b606482015260840161033b565b600081116106185760405162461bcd60e51b815260206004820152601c60248201527f5072696365206d757374206265206174206c6561737420312077656900000000604482015260640161033b565b600082815260036020819052604090912001546001600160a01b031633146106825760405162461bcd60e51b815260206004820152601960248201527f4f6e6c79206f776e65722063616e206c697374206974656d2100000000000000604482015260640161033b565b60008281526003602081905260409091206004810183905560058101805460ff191690819055600282018054336001600160a01b031991821681179092559383018054309516851790556001909201546106f2939186916001600160a01b03169060ff6201000090910416611b0f565b60008281526003602081815260409283902060018101549281015460059091015484516001600160a01b0392831681526201000090910460ff1615159281019290925292810184905291169083907f31b463dc211ba8d71de85d00fe324011853b81e134abc9b82ea212c3fa1f9a459060600160405180910390a35050565b60055434146107ce5760405162461bcd60e51b8152602060048201526024808201527f5072696365206d75737420626520657175616c20746f206c697374696e6720706044820152637269636560e01b606482015260840161033b565b6000811161082a5760405162461bcd60e51b8152602060048201526024808201527f5374617274696e67207072696365206d757374206265206c61726765722074686044820152630616e20360e41b606482015260840161033b565b600084815260036020819052604090912001546001600160a01b0316331461088d5760405162461bcd60e51b815260206004820152601660248201527527b7363c9037bbb732b91031b0b71030bab1ba34b7b760511b604482015260640161033b565b60008481526003602052604090206005015460ff1680156108c45750600084815260036020526040902060050154610100900460ff165b6109015760405162461bcd60e51b815260206004820152600e60248201526d4e4654206973206f6e2073616c6560901b604482015260640161033b565b8142106109395760405162461bcd60e51b8152602060048201526006602482015265456e6465642160d01b604482015260640161033b565b6004546109468484612293565b116109ac5760405162461bcd60e51b815260206004820152603060248201527f5468652061756374696f6e2074696d65206d757374206265206c6f6e6765722060448201526f7468616e203330206d696e757465732160801b606482015260840161033b565b60008481526003602052604081206006810185905560078101849055600981018290556008810180546001600160a01b0319169055600a8101829055600b81018390556109fe91600c90910190611ce7565b600084815260036020819052604090912060058101805461ff00191690819055600282018054336001600160a01b03199182168117909255938301805430951685179055600190920154610a68939188916001600160a01b03169060ff6201000090910416611b0f565b600084815260036020908152604091829020600181015460059091015483513381526201000090910460ff1615159281019290925291810183905260608101859052608081018490526001600160a01b039091169085907f75b0cfc9c9950e18b8591f8b42e62d98434f7a4f41d479a90133cb251e1b96f19060a0015b60405180910390a350505050565b6000818152600360205260409020600201546001600160a01b0316331415610b5d5760405162461bcd60e51b815260206004820152601760248201527f596f752063616e27742062696420796f7572206974656d000000000000000000604482015260640161033b565b600081815260036020526040902060050154610100900460ff1615610bb95760405162461bcd60e51b81526020600482015260126024820152714974656d2069736e27742062696464696e6760701b604482015260640161033b565b60008181526003602052604090206006015442118015610be9575060008181526003602052604090206007015442105b610c2a5760405162461bcd60e51b81526020600482015260126024820152714e6f7420696e2062696420706572696f642160701b604482015260640161033b565b6000818152600360205260409020600901543411610c8a5760405162461bcd60e51b815260206004820181905260248201527f4d75737420626964206869676865722074686520686967686573742062696421604482015260640161033b565b6000818152600360205260409020600801546001600160a01b031615610d2e576040805160608101825260008381526003602081815284832060088101546001600160a01b0390811686526009820154838701908152600a830154978701978852848452600c9092018054600180820183559187529390952095519290930290940180546001600160a01b0319169190921617815591519082015590516002909101555b60008181526003602090815260409182902034600982018190556008820180546001600160a01b0319163390811790915542600a8401819055600184015460029094015486516001600160a01b03918216815295860192909252948401919091526060830193909352919091169082907f34f367c117714cf7e9fff4df15a4799e49ad2785e267d0ce4aae7a045d471f30906080015b60405180910390a350565b604051638ad9134560e01b8152600481018390526060906001600160a01b03831690638ad91345906024015b60006040518083038186803b158015610e1357600080fd5b505afa158015610e27573d6000803e3d6000fd5b505050506040513d6000823e601f3d908101601f19168201604052610e4f9190810190612046565b9392505050565b6000818152600360205260409020600201546001600160a01b03163314610ebf5760405162461bcd60e51b815260206004820152601f60248201527f4f6e6c792073656c6c65722063616e2063616e63656c206c697374696e672100604482015260640161033b565b60008181526003602052604090206005015460ff161580610ef75750600081815260036020526040902060050154610100900460ff16155b610f4f5760405162461bcd60e51b8152602060048201526024808201527f4f6e6c79206c6973746564206974656d2063616e2063616e63656c206c697374604482015263696e672160e01b606482015260840161033b565b600081815260036020526040902060050154610100900460ff166111aa576000818152600360205260409020600701544210610fdf5760405162461bcd60e51b815260206004820152602960248201527f43616e6e6f742063616e63656c207768656e2061756374696f6e20616c726561604482015268647920656e6465642160b81b606482015260840161033b565b6000818152600360205260409020600801546001600160a01b0316156111875760005b6000828152600360205260409020600c0154811015611136576000828152600360205260408120600c0180548390811061104c57634e487b7160e01b600052603260045260246000fd5b9060005260206000209060030201600101541115611124576000828152600360205260409020600c0180548290811061109557634e487b7160e01b600052603260045260246000fd5b60009182526020808320600392830201548584529190526040909120600c0180546001600160a01b03909216916108fc9190849081106110e557634e487b7160e01b600052603260045260246000fd5b9060005260206000209060030201600101549081150290604051600060405180830381858888f19350505050158015611122573d6000803e3d6000fd5b505b8061112e816122da565b915050611002565b50600081815260036020526040808220600881015460099091015491516001600160a01b039091169282156108fc02929190818181858888f19350505050158015611185573d6000803e3d6000fd5b505b6000818152600360205260409020600501805461ff0019166101001790556111c7565b6000818152600360205260409020600501805460ff191660011790555b60008181526003602081905260409091209081018054336001600160a01b03199182168117909255600283018054909116905560018201546005909201546112269230929185916001600160a01b03169062010000900460ff16611b0f565b600081815260036020818152604092839020600181015492810154600582015460049092015485516001600160a01b0392831681526201000090930460ff161515938301939093529381019190915291169082907f769a2f215ef24b6515bca3c5f2993d943ce052a9c9deb2fcc5c81a399a0e931c90606001610dc4565b6002546001600160a01b031633146113175760405162461bcd60e51b815260206004820152603060248201527f4f6e6c79206d61726b6574706c616365206f776e65722063616e20757064617460448201526f32903634b9ba34b73390383934b1b29760811b606482015260840161033b565b600555565b604051633bb3a24d60e01b8152600481018390526060906001600160a01b03831690633bb3a24d90602401610dfb565b6002600054141561136f5760405162461bcd60e51b815260040161033b906121eb565b600260009081558181526003602052604090206007015442116113d45760405162461bcd60e51b815260206004820152601960248201527f41756374696f6e206973207374696c6c206f6e676f696e672100000000000000604482015260640161033b565b600081815260036020526040902060050154610100900460ff16156114345760405162461bcd60e51b815260206004820152601660248201527541756374696f6e20616c726561647920656e6465642160501b604482015260640161033b565b6000818152600360205260409020600801546001600160a01b03161561163b5760005b6000828152600360205260409020600c015481101561158b576000828152600360205260408120600c018054839081106114a157634e487b7160e01b600052603260045260246000fd5b9060005260206000209060030201600101541115611579576000828152600360205260409020600c018054829081106114ea57634e487b7160e01b600052603260045260246000fd5b60009182526020808320600392830201548584529190526040909120600c0180546001600160a01b03909216916108fc91908490811061153a57634e487b7160e01b600052603260045260246000fd5b9060005260206000209060030201600101549081150290604051600060405180830381858888f19350505050158015611577573d6000803e3d6000fd5b505b80611583816122da565b915050611457565b50600081815260036020526040808220600281015460099091015491516001600160a01b039091169282156108fc02929190818181858888f193505050501580156115da573d6000803e3d6000fd5b506000818152600360208190526040909120600881015491810180546001600160a01b0319166001600160a01b039384169081179091556001820154600590920154611636933093869291169060ff6201000090910416611b0f565b6116b6565b6000818152600360205260409020600281015460018201546005909201546116809230926001600160a01b039081169286929091169060ff6201000090910416611b0f565b60008181526003602081905260409091206002810154910180546001600160a01b0319166001600160a01b039092169190911790555b6000818152600360205260408082206002015460055491516001600160a01b039091169282156108fc02929190818181858888f19350505050158015611700573d6000803e3d6000fd5b506000818152600360208181526040928390206002810180546001600160a01b031916905560058101805461ff0019166101001790819055600182015493820154600883015460099093015486516001600160a01b0392831681526201000090930460ff16151594830194909452918216948101949094526060840191909152426080840152169082907fa21625bacd9a53a22f3eda0f00281d2db3d918b022e003de1b8ec1dbf3551b319060a00160405180910390a3506001600055565b600260005414156117e25760405162461bcd60e51b815260040161033b906121eb565b60026000818155828152600360205260409020908101546005909101546001600160a01b039091169060ff16156118505760405162461bcd60e51b81526020600482015260126024820152714974656d2069736e2774206f6e2073616c6560701b604482015260640161033b565b60008281526003602052604090206004015434146118c05760405162461bcd60e51b815260206004820152602760248201527f4275796572206d757374207472616e7366657220657175616c207072696365206044820152666f66206974656d60c81b606482015260840161033b565b6000828152600360205260408082206002015490516001600160a01b03909116913480156108fc02929091818181858888f19350505050158015611908573d6000803e3d6000fd5b506000828152600360205260408082206002015460055491516001600160a01b039091169282156108fc02929190818181858888f19350505050158015611953573d6000803e3d6000fd5b5060008281526003602081905260409091209081018054336001600160a01b03199182168117909255600283018054909116905560058201805460ff1916600190811791829055909201546119c29230929186916001600160a01b039091169060ff6201000090910416611b0f565b600082815260036020908152604091829020600181015460049091015483516001600160a01b038681168252339482019490945293840152169083907fd3bd3ff48ce3a8bb23194a87b735e828ab1668173da85bff87a6000c0408512a9060600161054c565b611a36600180546001019055565b6000611a4160015490565b90508115611a5b57611a568160018587611c16565b611a66565b611a66818486611c80565b6000818152600360208181526040928390208481556001810180546001600160a01b038a166001600160a01b03199182168117909255600283018054821690559382018054909416339081179094556005909101805487151562010000810262ffffff1990921691909117610101179091558451938452918301919091529183917fac1bd62278cac1e3927d9af6d75c2a00c32db78ed0bb3a721d009050f786b7e89101610ae5565b8015611ba457604051637921219560e11b81526001600160a01b0386811660048301528581166024830152604482018590526001606483015260a06084830152600260a4830152615b5d60f01b60c483015283169063f242432a9060e401600060405180830381600087803b158015611b8757600080fd5b505af1158015611b9b573d6000803e3d6000fd5b50505050611c0f565b604051632142170760e11b81526001600160a01b0386811660048301528581166024830152604482018590528316906342842e0e90606401600060405180830381600087803b158015611bf657600080fd5b505af1158015611c0a573d6000803e3d6000fd5b505050505b5050505050565b6040516332ad158d60e11b81526001600160a01b0382169063655a2b1a90611c489033908890889088906004016121a1565b600060405180830381600087803b158015611c6257600080fd5b505af1158015611c76573d6000803e3d6000fd5b5050505050505050565b604051630f2bb48960e11b81526001600160a01b03821690631e57691290611cb09033908790879060040161217a565b600060405180830381600087803b158015611cca57600080fd5b505af1158015611cde573d6000803e3d6000fd5b50505050505050565b5080546000825560030290600052602060002090810190611d089190611d0b565b50565b5b80821115611d385780546001600160a01b03191681556000600182018190556002820155600301611d0c565b5090565b6000611d4f611d4a84612253565b612222565b9050828152838383011115611d6357600080fd5b828260208301376000602084830101529392505050565b80356001600160a01b0381168114611d9157600080fd5b919050565b600082601f830112611da6578081fd5b8135602067ffffffffffffffff821115611dc257611dc261230b565b8160051b611dd1828201612222565b838152828101908684018388018501891015611deb578687fd5b8693505b85841015611e0d578035835260019390930192918401918401611def565b50979650505050505050565b600082601f830112611e29578081fd5b610e4f83833560208501611d3c565b600080600080600060a08688031215611e4f578081fd5b611e5886611d7a565b9450611e6660208701611d7a565b9350604086013567ffffffffffffffff80821115611e82578283fd5b611e8e89838a01611d96565b94506060880135915080821115611ea3578283fd5b611eaf89838a01611d96565b93506080880135915080821115611ec4578283fd5b50611ed188828901611e19565b9150509295509295909350565b60008060008060808587031215611ef3578384fd5b611efc85611d7a565b9350611f0a60208601611d7a565b925060408501359150606085013567ffffffffffffffff811115611f2c578182fd5b611f3887828801611e19565b91505092959194509250565b600080600080600060a08688031215611f5b578081fd5b611f6486611d7a565b9450611f7260208701611d7a565b93506040860135925060608601359150608086013567ffffffffffffffff811115611f9b578182fd5b611ed188828901611e19565b600080600060608486031215611fbb578283fd5b611fc484611d7a565b9250602084013567ffffffffffffffff811115611fdf578283fd5b8401601f81018613611fef578283fd5b611ffe86823560208401611d3c565b92505060408401358015158114612013578182fd5b809150509250925092565b60006020828403121561202f578081fd5b81356001600160e01b031981168114610e4f578182fd5b600060208284031215612057578081fd5b815167ffffffffffffffff81111561206d578182fd5b8201601f8101841361207d578182fd5b805161208b611d4a82612253565b81815285602083850101111561209f578384fd5b6120b08260208301602086016122aa565b95945050505050565b6000602082840312156120ca578081fd5b5035919050565b600080604083850312156120e3578182fd5b823591506120f360208401611d7a565b90509250929050565b6000806040838503121561210e578182fd5b50508035926020909101359150565b60008060008060808587031215612132578182fd5b5050823594602084013594506040840135936060013592509050565b600081518084526121668160208601602086016122aa565b601f01601f19169290920160200192915050565b60018060a01b03841681528260208201526060604082015260006120b0606083018461214e565b60018060a01b03851681528360208201528260408201526080606082015260006121ce608083018461214e565b9695505050505050565b602081526000610e4f602083018461214e565b6020808252601f908201527f5265656e7472616e637947756172643a207265656e7472616e742063616c6c00604082015260600190565b604051601f8201601f1916810167ffffffffffffffff8111828210171561224b5761224b61230b565b604052919050565b600067ffffffffffffffff82111561226d5761226d61230b565b50601f01601f191660200190565b6000821982111561228e5761228e6122f5565b500190565b6000828210156122a5576122a56122f5565b500390565b60005b838110156122c55781810151838201526020016122ad565b838111156122d4576000848401525b50505050565b60006000198214156122ee576122ee6122f5565b5060010190565b634e487b7160e01b600052601160045260246000fd5b634e487b7160e01b600052604160045260246000fdfea2646970667358221220fd1e601de35193a80956ffade53cf4c33bc3576bd2f0c89d9a25084af55440de64736f6c63430008040033",
  "linkReferences": {},
  "deployedLinkReferences": {}
}