{
  "_format": "hh-sol-artifact-1",
  "contractName": "UITToken1155",
  "sourceName": "contracts/UITToken1155.sol",
  "abi": [
    {
      "inputs": [
        {
          "internalType": "string",
          "name": "_name",
          "type": "string"
        },
        {
          "internalType": "string",
          "name": "_symbol",
          "type": "string"
        },
        {
          "internalType": "address",
          "name": "_parentAddress",
          "type": "address"
        }
      ],
      "stateMutability": "nonpayable",
      "type": "constructor"
    },
    {
      "anonymous": false,
      "inputs": [
        {
          "indexed": true,
          "internalType": "address",
          "name": "account",
          "type": "address"
        },
        {
          "indexed": true,
          "internalType": "address",
          "name": "operator",
          "type": "address"
        },
        {
          "indexed": false,
          "internalType": "bool",
          "name": "approved",
          "type": "bool"
        }
      ],
      "name": "ApprovalForAll",
      "type": "event"
    },
    {
      "anonymous": false,
      "inputs": [
        {
          "indexed": true,
          "internalType": "address",
          "name": "previousOwner",
          "type": "address"
        },
        {
          "indexed": true,
          "internalType": "address",
          "name": "newOwner",
          "type": "address"
        }
      ],
      "name": "OwnershipTransferred",
      "type": "event"
    },
    {
      "anonymous": false,
      "inputs": [
        {
          "indexed": true,
          "internalType": "address",
          "name": "operator",
          "type": "address"
        },
        {
          "indexed": true,
          "internalType": "address",
          "name": "from",
          "type": "address"
        },
        {
          "indexed": true,
          "internalType": "address",
          "name": "to",
          "type": "address"
        },
        {
          "indexed": false,
          "internalType": "uint256[]",
          "name": "ids",
          "type": "uint256[]"
        },
        {
          "indexed": false,
          "internalType": "uint256[]",
          "name": "values",
          "type": "uint256[]"
        }
      ],
      "name": "TransferBatch",
      "type": "event"
    },
    {
      "anonymous": false,
      "inputs": [
        {
          "indexed": true,
          "internalType": "address",
          "name": "operator",
          "type": "address"
        },
        {
          "indexed": true,
          "internalType": "address",
          "name": "from",
          "type": "address"
        },
        {
          "indexed": true,
          "internalType": "address",
          "name": "to",
          "type": "address"
        },
        {
          "indexed": false,
          "internalType": "uint256",
          "name": "id",
          "type": "uint256"
        },
        {
          "indexed": false,
          "internalType": "uint256",
          "name": "value",
          "type": "uint256"
        }
      ],
      "name": "TransferSingle",
      "type": "event"
    },
    {
      "anonymous": false,
      "inputs": [
        {
          "indexed": false,
          "internalType": "string",
          "name": "value",
          "type": "string"
        },
        {
          "indexed": true,
          "internalType": "uint256",
          "name": "id",
          "type": "uint256"
        }
      ],
      "name": "URI",
      "type": "event"
    },
    {
      "inputs": [
        {
          "internalType": "address",
          "name": "account",
          "type": "address"
        },
        {
          "internalType": "uint256",
          "name": "id",
          "type": "uint256"
        }
      ],
      "name": "balanceOf",
      "outputs": [
        {
          "internalType": "uint256",
          "name": "",
          "type": "uint256"
        }
      ],
      "stateMutability": "view",
      "type": "function"
    },
    {
      "inputs": [
        {
          "internalType": "address[]",
          "name": "accounts",
          "type": "address[]"
        },
        {
          "internalType": "uint256[]",
          "name": "ids",
          "type": "uint256[]"
        }
      ],
      "name": "balanceOfBatch",
      "outputs": [
        {
          "internalType": "uint256[]",
          "name": "",
          "type": "uint256[]"
        }
      ],
      "stateMutability": "view",
      "type": "function"
    },
    {
      "inputs": [],
      "name": "collectionSymbol",
      "outputs": [
        {
          "internalType": "string",
          "name": "",
          "type": "string"
        }
      ],
      "stateMutability": "view",
      "type": "function"
    },
    {
      "inputs": [],
      "name": "getTokenCount",
      "outputs": [
        {
          "internalType": "uint256",
          "name": "",
          "type": "uint256"
        }
      ],
      "stateMutability": "view",
      "type": "function"
    },
    {
      "inputs": [],
      "name": "getTokenIds",
      "outputs": [
        {
          "internalType": "uint256[]",
          "name": "",
          "type": "uint256[]"
        }
      ],
      "stateMutability": "view",
      "type": "function"
    },
    {
      "inputs": [
        {
          "internalType": "uint256",
          "name": "_tokenId",
          "type": "uint256"
        }
      ],
      "name": "getTokenURI",
      "outputs": [
        {
          "internalType": "string",
          "name": "",
          "type": "string"
        }
      ],
      "stateMutability": "view",
      "type": "function"
    },
    {
      "inputs": [
        {
          "internalType": "uint256",
          "name": "_id",
          "type": "uint256"
        }
      ],
      "name": "getTotalSupplyOfToken",
      "outputs": [
        {
          "internalType": "uint256",
          "name": "",
          "type": "uint256"
        }
      ],
      "stateMutability": "view",
      "type": "function"
    },
    {
      "inputs": [
        {
          "internalType": "address",
          "name": "account",
          "type": "address"
        },
        {
          "internalType": "address",
          "name": "operator",
          "type": "address"
        }
      ],
      "name": "isApprovedForAll",
      "outputs": [
        {
          "internalType": "bool",
          "name": "",
          "type": "bool"
        }
      ],
      "stateMutability": "view",
      "type": "function"
    },
    {
      "inputs": [
        {
          "internalType": "address",
          "name": "_owner",
          "type": "address"
        },
        {
          "internalType": "uint256",
          "name": "_id",
          "type": "uint256"
        },
        {
          "internalType": "uint256",
          "name": "amount",
          "type": "uint256"
        },
        {
          "internalType": "string",
          "name": "_tokenUri",
          "type": "string"
        }
      ],
      "name": "mintNFT",
      "outputs": [],
      "stateMutability": "nonpayable",
      "type": "function"
    },
    {
      "inputs": [],
      "name": "name",
      "outputs": [
        {
          "internalType": "string",
          "name": "",
          "type": "string"
        }
      ],
      "stateMutability": "view",
      "type": "function"
    },
    {
      "inputs": [],
      "name": "owner",
      "outputs": [
        {
          "internalType": "address",
          "name": "",
          "type": "address"
        }
      ],
      "stateMutability": "view",
      "type": "function"
    },
    {
      "inputs": [],
      "name": "renounceOwnership",
      "outputs": [],
      "stateMutability": "nonpayable",
      "type": "function"
    },
    {
      "inputs": [
        {
          "internalType": "address",
          "name": "from",
          "type": "address"
        },
        {
          "internalType": "address",
          "name": "to",
          "type": "address"
        },
        {
          "internalType": "uint256[]",
          "name": "ids",
          "type": "uint256[]"
        },
        {
          "internalType": "uint256[]",
          "name": "amounts",
          "type": "uint256[]"
        },
        {
          "internalType": "bytes",
          "name": "data",
          "type": "bytes"
        }
      ],
      "name": "safeBatchTransferFrom",
      "outputs": [],
      "stateMutability": "nonpayable",
      "type": "function"
    },
    {
      "inputs": [
        {
          "internalType": "address",
          "name": "from",
          "type": "address"
        },
        {
          "internalType": "address",
          "name": "to",
          "type": "address"
        },
        {
          "internalType": "uint256",
          "name": "id",
          "type": "uint256"
        },
        {
          "internalType": "uint256",
          "name": "amount",
          "type": "uint256"
        },
        {
          "internalType": "bytes",
          "name": "data",
          "type": "bytes"
        }
      ],
      "name": "safeTransferFrom",
      "outputs": [],
      "stateMutability": "nonpayable",
      "type": "function"
    },
    {
      "inputs": [
        {
          "internalType": "address",
          "name": "operator",
          "type": "address"
        },
        {
          "internalType": "bool",
          "name": "approved",
          "type": "bool"
        }
      ],
      "name": "setApprovalForAll",
      "outputs": [],
      "stateMutability": "nonpayable",
      "type": "function"
    },
    {
      "inputs": [
        {
          "internalType": "string",
          "name": "_name",
          "type": "string"
        }
      ],
      "name": "setName",
      "outputs": [],
      "stateMutability": "nonpayable",
      "type": "function"
    },
    {
      "inputs": [],
      "name": "setParentApproval",
      "outputs": [],
      "stateMutability": "nonpayable",
      "type": "function"
    },
    {
      "inputs": [
        {
          "internalType": "string",
          "name": "_symbol",
          "type": "string"
        }
      ],
      "name": "setSymbol",
      "outputs": [],
      "stateMutability": "nonpayable",
      "type": "function"
    },
    {
      "inputs": [
        {
          "internalType": "string",
          "name": "newuri",
          "type": "string"
        }
      ],
      "name": "setURI",
      "outputs": [],
      "stateMutability": "nonpayable",
      "type": "function"
    },
    {
      "inputs": [
        {
          "internalType": "bytes4",
          "name": "interfaceId",
          "type": "bytes4"
        }
      ],
      "name": "supportsInterface",
      "outputs": [
        {
          "internalType": "bool",
          "name": "",
          "type": "bool"
        }
      ],
      "stateMutability": "view",
      "type": "function"
    },
    {
      "inputs": [],
      "name": "symbol",
      "outputs": [
        {
          "internalType": "string",
          "name": "",
          "type": "string"
        }
      ],
      "stateMutability": "view",
      "type": "function"
    },
    {
      "inputs": [
        {
          "internalType": "address",
          "name": "newOwner",
          "type": "address"
        }
      ],
      "name": "transferOwnership",
      "outputs": [],
      "stateMutability": "nonpayable",
      "type": "function"
    },
    {
      "inputs": [
        {
          "internalType": "uint256",
          "name": "_tokenId",
          "type": "uint256"
        }
      ],
      "name": "uri",
      "outputs": [
        {
          "internalType": "string",
          "name": "",
          "type": "string"
        }
      ],
      "stateMutability": "view",
      "type": "function"
    }
  ],
  "bytecode": "0x60806040523480156200001157600080fd5b5060405162001fa338038062001fa3833981016040819052620000349162000273565b6040805160208101909152600081526200004e81620000af565b506200005a33620000c8565b82516200006f9060089060208601906200011a565b508151620000859060099060208501906200011a565b50600480546001600160a01b0319166001600160a01b0392909216919091179055506200034f9050565b8051620000c49060029060208401906200011a565b5050565b600380546001600160a01b038381166001600160a01b0319831681179093556040519116919082907f8be0079c531659141344cd1fd0a4f28419497f9722a3daafe3b4186f6b6457e090600090a35050565b8280546200012890620002fc565b90600052602060002090601f0160209004810192826200014c576000855562000197565b82601f106200016757805160ff191683800117855562000197565b8280016001018555821562000197579182015b82811115620001975782518255916020019190600101906200017a565b50620001a5929150620001a9565b5090565b5b80821115620001a55760008155600101620001aa565b600082601f830112620001d1578081fd5b81516001600160401b0380821115620001ee57620001ee62000339565b604051601f8301601f19908116603f0116810190828211818310171562000219576200021962000339565b8160405283815260209250868385880101111562000235578485fd5b8491505b8382101562000258578582018301518183018401529082019062000239565b838211156200026957848385830101525b9695505050505050565b60008060006060848603121562000288578283fd5b83516001600160401b03808211156200029f578485fd5b620002ad87838801620001c0565b94506020860151915080821115620002c3578384fd5b50620002d286828701620001c0565b604086015190935090506001600160a01b0381168114620002f1578182fd5b809150509250925092565b600181811c908216806200031157607f821691505b602082108114156200033357634e487b7160e01b600052602260045260246000fd5b50919050565b634e487b7160e01b600052604160045260246000fd5b611c44806200035f6000396000f3fe608060405234801561001057600080fd5b506004361061014c5760003560e01c8063715018a6116100c3578063b84c82461161007c578063b84c824614610293578063c47f0027146102a6578063d49e2b59146102b9578063e985e9c5146102c1578063f242432a146102fd578063f2fde38b1461031057600080fd5b8063715018a61461022d57806378a89567146102355780638da5cb5b1461023d57806395d89b411461025857806397492c1c14610260578063a22cb4651461028057600080fd5b80632eb2c2d6116101155780632eb2c2d6146101d75780632f39352a146101ea5780633bb3a24d146101c45780634e1273f4146101f2578063655a2b1a1461021257806367f718a91461022557600080fd5b8062fdd58e1461015157806301ffc9a71461017757806302fe53051461019a57806306fdde03146101af5780630e89341c146101c4575b600080fd5b61016461015f366004611605565b610323565b6040519081526020015b60405180910390f35b61018a610185366004611758565b6103ba565b604051901515815260200161016e565b6101ad6101a8366004611790565b61040c565b005b6101b7610442565b60405161016e919061194c565b6101b76101d23660046117cb565b6104d4565b6101ad6101e53660046114c2565b610576565b6101b761060d565b61020561020036600461168d565b61069b565b60405161016e919061190b565b6101ad61022036600461162e565b6107fd565b610205610871565b6101ad6108c8565b600554610164565b6003546040516001600160a01b03909116815260200161016e565b6101b76108fe565b61016461026e3660046117cb565b60009081526006602052604090205490565b6101ad61028e3660046115cb565b61090d565b6101ad6102a1366004611790565b61091c565b6101ad6102b4366004611790565b610959565b6101ad610996565b61018a6102cf366004611490565b6001600160a01b03918216600090815260016020908152604080832093909416825291909152205460ff1690565b6101ad61030b366004611568565b6109ad565b6101ad61031e36600461146f565b610a34565b60006001600160a01b0383166103945760405162461bcd60e51b815260206004820152602b60248201527f455243313135353a2062616c616e636520717565727920666f7220746865207a60448201526a65726f206164647265737360a81b60648201526084015b60405180910390fd5b506000908152602081815260408083206001600160a01b03949094168352929052205490565b60006001600160e01b03198216636cdb3d1360e11b14806103eb57506001600160e01b031982166303a24d0760e21b145b8061040657506301ffc9a760e01b6001600160e01b03198316145b92915050565b6003546001600160a01b031633146104365760405162461bcd60e51b815260040161038b90611a36565b61043f81610acc565b50565b60606008805461045190611aa7565b80601f016020809104026020016040519081016040528092919081815260200182805461047d90611aa7565b80156104ca5780601f1061049f576101008083540402835291602001916104ca565b820191906000526020600020905b8154815290600101906020018083116104ad57829003601f168201915b5050505050905090565b60008181526007602052604090208054606091906104f190611aa7565b80601f016020809104026020016040519081016040528092919081815260200182805461051d90611aa7565b801561056a5780601f1061053f5761010080835404028352916020019161056a565b820191906000526020600020905b81548152906001019060200180831161054d57829003601f168201915b50505050509050919050565b6001600160a01b038516331480610592575061059285336102cf565b6105f95760405162461bcd60e51b815260206004820152603260248201527f455243313135353a207472616e736665722063616c6c6572206973206e6f74206044820152711bdddb995c881b9bdc88185c1c1c9bdd995960721b606482015260840161038b565b6106068585858585610adf565b5050505050565b6009805461061a90611aa7565b80601f016020809104026020016040519081016040528092919081815260200182805461064690611aa7565b80156106935780601f1061066857610100808354040283529160200191610693565b820191906000526020600020905b81548152906001019060200180831161067657829003601f168201915b505050505081565b606081518351146107005760405162461bcd60e51b815260206004820152602960248201527f455243313135353a206163636f756e747320616e6420696473206c656e677468604482015268040dad2e6dac2e8c6d60bb1b606482015260840161038b565b6000835167ffffffffffffffff81111561072a57634e487b7160e01b600052604160045260246000fd5b604051908082528060200260200182016040528015610753578160200160208202803683370190505b50905060005b84518110156107f5576107ba85828151811061078557634e487b7160e01b600052603260045260246000fd5b60200260200101518583815181106107ad57634e487b7160e01b600052603260045260246000fd5b6020026020010151610323565b8282815181106107da57634e487b7160e01b600052603260045260246000fd5b60209081029190910101526107ee81611b0f565b9050610759565b509392505050565b61081884848460405180602001604052806000815250610cd8565b60058054600181019091557f036b6384b5eca791c62761152d0c79bb0604c104a5fb6f4eb0703f3154bb3db0018390556000838152600660209081526040808320859055600782529091208251610606928401906112d7565b606060058054806020026020016040519081016040528092919081815260200182805480156104ca57602002820191906000526020600020905b8154815260200190600101908083116108ab575050505050905090565b6003546001600160a01b031633146108f25760405162461bcd60e51b815260040161038b90611a36565b6108fc6000610dec565b565b60606009805461045190611aa7565b610918338383610e3e565b5050565b6003546001600160a01b031633146109465760405162461bcd60e51b815260040161038b90611a36565b80516109189060099060208401906112d7565b6003546001600160a01b031633146109835760405162461bcd60e51b815260040161038b90611a36565b80516109189060089060208401906112d7565b6004546108fc906001600160a01b0316600161090d565b6001600160a01b0385163314806109c957506109c985336102cf565b610a275760405162461bcd60e51b815260206004820152602960248201527f455243313135353a2063616c6c6572206973206e6f74206f776e6572206e6f7260448201526808185c1c1c9bdd995960ba1b606482015260840161038b565b6106068585858585610f1f565b6003546001600160a01b03163314610a5e5760405162461bcd60e51b815260040161038b90611a36565b6001600160a01b038116610ac35760405162461bcd60e51b815260206004820152602660248201527f4f776e61626c653a206e6577206f776e657220697320746865207a65726f206160448201526564647265737360d01b606482015260840161038b565b61043f81610dec565b80516109189060029060208401906112d7565b8151835114610b415760405162461bcd60e51b815260206004820152602860248201527f455243313135353a2069647320616e6420616d6f756e7473206c656e677468206044820152670dad2e6dac2e8c6d60c31b606482015260840161038b565b6001600160a01b038416610b675760405162461bcd60e51b815260040161038b906119a7565b3360005b8451811015610c6a576000858281518110610b9657634e487b7160e01b600052603260045260246000fd5b602002602001015190506000858381518110610bc257634e487b7160e01b600052603260045260246000fd5b602090810291909101810151600084815280835260408082206001600160a01b038e168352909352919091205490915081811015610c125760405162461bcd60e51b815260040161038b906119ec565b6000838152602081815260408083206001600160a01b038e8116855292528083208585039055908b16825281208054849290610c4f908490611a8f565b9250508190555050505080610c6390611b0f565b9050610b6b565b50846001600160a01b0316866001600160a01b0316826001600160a01b03167f4a39dc06d4c0dbc64b70af90fd698a233a518aa5d07e595d983b8c0526c8f7fb8787604051610cba92919061191e565b60405180910390a4610cd0818787878787611049565b505050505050565b6001600160a01b038416610d385760405162461bcd60e51b815260206004820152602160248201527f455243313135353a206d696e7420746f20746865207a65726f206164647265736044820152607360f81b606482015260840161038b565b336000610d44856111b4565b90506000610d51856111b4565b90506000868152602081815260408083206001600160a01b038b16845290915281208054879290610d83908490611a8f565b909155505060408051878152602081018790526001600160a01b03808a1692600092918716917fc3d58168c5ae7397731d063d5bbf3d657854427343f4c083240f7aacaa2d0f62910160405180910390a4610de38360008989898961120d565b50505050505050565b600380546001600160a01b038381166001600160a01b0319831681179093556040519116919082907f8be0079c531659141344cd1fd0a4f28419497f9722a3daafe3b4186f6b6457e090600090a35050565b816001600160a01b0316836001600160a01b03161415610eb25760405162461bcd60e51b815260206004820152602960248201527f455243313135353a2073657474696e6720617070726f76616c20737461747573604482015268103337b91039b2b63360b91b606482015260840161038b565b6001600160a01b03838116600081815260016020908152604080832094871680845294825291829020805460ff191686151590811790915591519182527f17307eab39ab6107e8899845ad3d59bd9653f200f220920489ca2b5937696c31910160405180910390a3505050565b6001600160a01b038416610f455760405162461bcd60e51b815260040161038b906119a7565b336000610f51856111b4565b90506000610f5e856111b4565b90506000868152602081815260408083206001600160a01b038c16845290915290205485811015610fa15760405162461bcd60e51b815260040161038b906119ec565b6000878152602081815260408083206001600160a01b038d8116855292528083208985039055908a16825281208054889290610fde908490611a8f565b909155505060408051888152602081018890526001600160a01b03808b16928c821692918816917fc3d58168c5ae7397731d063d5bbf3d657854427343f4c083240f7aacaa2d0f62910160405180910390a461103e848a8a8a8a8a61120d565b505050505050505050565b6001600160a01b0384163b15610cd05760405163bc197c8160e01b81526001600160a01b0385169063bc197c819061108d9089908990889088908890600401611868565b602060405180830381600087803b1580156110a757600080fd5b505af19250505080156110d7575060408051601f3d908101601f191682019092526110d491810190611774565b60015b611184576110e3611b56565b806308c379a0141561111d57506110f8611b6e565b80611103575061111f565b8060405162461bcd60e51b815260040161038b919061194c565b505b60405162461bcd60e51b815260206004820152603460248201527f455243313135353a207472616e7366657220746f206e6f6e20455243313135356044820152732932b1b2b4bb32b91034b6b83632b6b2b73a32b960611b606482015260840161038b565b6001600160e01b0319811663bc197c8160e01b14610de35760405162461bcd60e51b815260040161038b9061195f565b604080516001808252818301909252606091600091906020808301908036833701905050905082816000815181106111fc57634e487b7160e01b600052603260045260246000fd5b602090810291909101015292915050565b6001600160a01b0384163b15610cd05760405163f23a6e6160e01b81526001600160a01b0385169063f23a6e619061125190899089908890889088906004016118c6565b602060405180830381600087803b15801561126b57600080fd5b505af192505050801561129b575060408051601f3d908101601f1916820190925261129891810190611774565b60015b6112a7576110e3611b56565b6001600160e01b0319811663f23a6e6160e01b14610de35760405162461bcd60e51b815260040161038b9061195f565b8280546112e390611aa7565b90600052602060002090601f016020900481019282611305576000855561134b565b82601f1061131e57805160ff191683800117855561134b565b8280016001018555821561134b579182015b8281111561134b578251825591602001919060010190611330565b5061135792915061135b565b5090565b5b80821115611357576000815560010161135c565b80356001600160a01b038116811461138757600080fd5b919050565b600082601f83011261139c578081fd5b813560206113a982611a6b565b6040516113b68282611ae2565b8381528281019150858301600585901b870184018810156113d5578586fd5b855b858110156113f3578135845292840192908401906001016113d7565b5090979650505050505050565b600082601f830112611410578081fd5b813567ffffffffffffffff81111561142a5761142a611b40565b604051611441601f8301601f191660200182611ae2565b818152846020838601011115611455578283fd5b816020850160208301379081016020019190915292915050565b600060208284031215611480578081fd5b61148982611370565b9392505050565b600080604083850312156114a2578081fd5b6114ab83611370565b91506114b960208401611370565b90509250929050565b600080600080600060a086880312156114d9578081fd5b6114e286611370565b94506114f060208701611370565b9350604086013567ffffffffffffffff8082111561150c578283fd5b61151889838a0161138c565b9450606088013591508082111561152d578283fd5b61153989838a0161138c565b9350608088013591508082111561154e578283fd5b5061155b88828901611400565b9150509295509295909350565b600080600080600060a0868803121561157f578081fd5b61158886611370565b945061159660208701611370565b93506040860135925060608601359150608086013567ffffffffffffffff8111156115bf578182fd5b61155b88828901611400565b600080604083850312156115dd578182fd5b6115e683611370565b9150602083013580151581146115fa578182fd5b809150509250929050565b60008060408385031215611617578182fd5b61162083611370565b946020939093013593505050565b60008060008060808587031215611643578384fd5b61164c85611370565b93506020850135925060408501359150606085013567ffffffffffffffff811115611675578182fd5b61168187828801611400565b91505092959194509250565b6000806040838503121561169f578182fd5b823567ffffffffffffffff808211156116b6578384fd5b818501915085601f8301126116c9578384fd5b813560206116d682611a6b565b6040516116e38282611ae2565b8381528281019150858301600585901b870184018b1015611702578889fd5b8896505b8487101561172b5761171781611370565b835260019690960195918301918301611706565b5096505086013592505080821115611741578283fd5b5061174e8582860161138c565b9150509250929050565b600060208284031215611769578081fd5b813561148981611bf8565b600060208284031215611785578081fd5b815161148981611bf8565b6000602082840312156117a1578081fd5b813567ffffffffffffffff8111156117b7578182fd5b6117c384828501611400565b949350505050565b6000602082840312156117dc578081fd5b5035919050565b6000815180845260208085019450808401835b83811015611812578151875295820195908201906001016117f6565b509495945050505050565b60008151808452815b8181101561184257602081850181015186830182015201611826565b818111156118535782602083870101525b50601f01601f19169290920160200192915050565b6001600160a01b0386811682528516602082015260a060408201819052600090611894908301866117e3565b82810360608401526118a681866117e3565b905082810360808401526118ba818561181d565b98975050505050505050565b6001600160a01b03868116825285166020820152604081018490526060810183905260a0608082018190526000906119009083018461181d565b979650505050505050565b60208152600061148960208301846117e3565b60408152600061193160408301856117e3565b828103602084015261194381856117e3565b95945050505050565b602081526000611489602083018461181d565b60208082526028908201527f455243313135353a204552433131353552656365697665722072656a656374656040820152676420746f6b656e7360c01b606082015260800190565b60208082526025908201527f455243313135353a207472616e7366657220746f20746865207a65726f206164604082015264647265737360d81b606082015260800190565b6020808252602a908201527f455243313135353a20696e73756666696369656e742062616c616e636520666f60408201526939103a3930b739b332b960b11b606082015260800190565b6020808252818101527f4f776e61626c653a2063616c6c6572206973206e6f7420746865206f776e6572604082015260600190565b600067ffffffffffffffff821115611a8557611a85611b40565b5060051b60200190565b60008219821115611aa257611aa2611b2a565b500190565b600181811c90821680611abb57607f821691505b60208210811415611adc57634e487b7160e01b600052602260045260246000fd5b50919050565b601f8201601f1916810167ffffffffffffffff81118282101715611b0857611b08611b40565b6040525050565b6000600019821415611b2357611b23611b2a565b5060010190565b634e487b7160e01b600052601160045260246000fd5b634e487b7160e01b600052604160045260246000fd5b600060033d1115611b6b57600481823e5160e01c5b90565b600060443d1015611b7c5790565b6040516003193d81016004833e81513d67ffffffffffffffff8160248401118184111715611bac57505050505090565b8285019150815181811115611bc45750505050505090565b843d8701016020828501011115611bde5750505050505090565b611bed60208286010187611ae2565b509095945050505050565b6001600160e01b03198116811461043f57600080fdfea26469706673582212203072f4d0b738beab8689f2817ce702bd5558ed62e75f0a504c6a4b6da32c408464736f6c63430008040033",
  "linkReferences": {},
  "deployedLinkReferences": {}
}