{
  "_format": "hh-sol-artifact-1",
  "contractName": "UITToken1155",
  "sourceName": "contracts/UITToken1155.sol",
  "abi": [
    {
      "inputs": [],
      "stateMutability": "nonpayable",
      "type": "constructor"
    },
    {
      "anonymous": false,
      "inputs": [
        {
          "indexed": true,
          "internalType": "address",
          "name": "account",
          "type": "address"
        },
        {
          "indexed": true,
          "internalType": "address",
          "name": "operator",
          "type": "address"
        },
        {
          "indexed": false,
          "internalType": "bool",
          "name": "approved",
          "type": "bool"
        }
      ],
      "name": "ApprovalForAll",
      "type": "event"
    },
    {
      "anonymous": false,
      "inputs": [
        {
          "indexed": true,
          "internalType": "address",
          "name": "previousOwner",
          "type": "address"
        },
        {
          "indexed": true,
          "internalType": "address",
          "name": "newOwner",
          "type": "address"
        }
      ],
      "name": "OwnershipTransferred",
      "type": "event"
    },
    {
      "anonymous": false,
      "inputs": [
        {
          "indexed": true,
          "internalType": "address",
          "name": "operator",
          "type": "address"
        },
        {
          "indexed": true,
          "internalType": "address",
          "name": "from",
          "type": "address"
        },
        {
          "indexed": true,
          "internalType": "address",
          "name": "to",
          "type": "address"
        },
        {
          "indexed": false,
          "internalType": "uint256[]",
          "name": "ids",
          "type": "uint256[]"
        },
        {
          "indexed": false,
          "internalType": "uint256[]",
          "name": "values",
          "type": "uint256[]"
        }
      ],
      "name": "TransferBatch",
      "type": "event"
    },
    {
      "anonymous": false,
      "inputs": [
        {
          "indexed": true,
          "internalType": "address",
          "name": "operator",
          "type": "address"
        },
        {
          "indexed": true,
          "internalType": "address",
          "name": "from",
          "type": "address"
        },
        {
          "indexed": true,
          "internalType": "address",
          "name": "to",
          "type": "address"
        },
        {
          "indexed": false,
          "internalType": "uint256",
          "name": "id",
          "type": "uint256"
        },
        {
          "indexed": false,
          "internalType": "uint256",
          "name": "value",
          "type": "uint256"
        }
      ],
      "name": "TransferSingle",
      "type": "event"
    },
    {
      "anonymous": false,
      "inputs": [
        {
          "indexed": false,
          "internalType": "string",
          "name": "value",
          "type": "string"
        },
        {
          "indexed": true,
          "internalType": "uint256",
          "name": "id",
          "type": "uint256"
        }
      ],
      "name": "URI",
      "type": "event"
    },
    {
      "inputs": [
        {
          "internalType": "address",
          "name": "account",
          "type": "address"
        },
        {
          "internalType": "uint256",
          "name": "id",
          "type": "uint256"
        }
      ],
      "name": "balanceOf",
      "outputs": [
        {
          "internalType": "uint256",
          "name": "",
          "type": "uint256"
        }
      ],
      "stateMutability": "view",
      "type": "function"
    },
    {
      "inputs": [
        {
          "internalType": "address[]",
          "name": "accounts",
          "type": "address[]"
        },
        {
          "internalType": "uint256[]",
          "name": "ids",
          "type": "uint256[]"
        }
      ],
      "name": "balanceOfBatch",
      "outputs": [
        {
          "internalType": "uint256[]",
          "name": "",
          "type": "uint256[]"
        }
      ],
      "stateMutability": "view",
      "type": "function"
    },
    {
      "inputs": [],
      "name": "getTokenCount",
      "outputs": [
        {
          "internalType": "uint256",
          "name": "",
          "type": "uint256"
        }
      ],
      "stateMutability": "view",
      "type": "function"
    },
    {
      "inputs": [],
      "name": "getTokenIds",
      "outputs": [
        {
          "internalType": "uint256[]",
          "name": "",
          "type": "uint256[]"
        }
      ],
      "stateMutability": "view",
      "type": "function"
    },
    {
      "inputs": [
        {
          "internalType": "uint256",
          "name": "_tokenId",
          "type": "uint256"
        }
      ],
      "name": "getTokenURI",
      "outputs": [
        {
          "internalType": "string",
          "name": "",
          "type": "string"
        }
      ],
      "stateMutability": "view",
      "type": "function"
    },
    {
      "inputs": [
        {
          "internalType": "uint256",
          "name": "_id",
          "type": "uint256"
        }
      ],
      "name": "getTotalSupplyOfToken",
      "outputs": [
        {
          "internalType": "uint256",
          "name": "",
          "type": "uint256"
        }
      ],
      "stateMutability": "view",
      "type": "function"
    },
    {
      "inputs": [
        {
          "internalType": "address",
          "name": "account",
          "type": "address"
        },
        {
          "internalType": "address",
          "name": "operator",
          "type": "address"
        }
      ],
      "name": "isApprovedForAll",
      "outputs": [
        {
          "internalType": "bool",
          "name": "",
          "type": "bool"
        }
      ],
      "stateMutability": "view",
      "type": "function"
    },
    {
      "inputs": [
        {
          "internalType": "address",
          "name": "_owner",
          "type": "address"
        },
        {
          "internalType": "uint256",
          "name": "_id",
          "type": "uint256"
        },
        {
          "internalType": "uint256",
          "name": "amount",
          "type": "uint256"
        },
        {
          "internalType": "string",
          "name": "_tokenUri",
          "type": "string"
        }
      ],
      "name": "mintNFT",
      "outputs": [],
      "stateMutability": "nonpayable",
      "type": "function"
    },
    {
      "inputs": [],
      "name": "name",
      "outputs": [
        {
          "internalType": "string",
          "name": "",
          "type": "string"
        }
      ],
      "stateMutability": "view",
      "type": "function"
    },
    {
      "inputs": [],
      "name": "owner",
      "outputs": [
        {
          "internalType": "address",
          "name": "",
          "type": "address"
        }
      ],
      "stateMutability": "view",
      "type": "function"
    },
    {
      "inputs": [],
      "name": "renounceOwnership",
      "outputs": [],
      "stateMutability": "nonpayable",
      "type": "function"
    },
    {
      "inputs": [
        {
          "internalType": "address",
          "name": "from",
          "type": "address"
        },
        {
          "internalType": "address",
          "name": "to",
          "type": "address"
        },
        {
          "internalType": "uint256[]",
          "name": "ids",
          "type": "uint256[]"
        },
        {
          "internalType": "uint256[]",
          "name": "amounts",
          "type": "uint256[]"
        },
        {
          "internalType": "bytes",
          "name": "data",
          "type": "bytes"
        }
      ],
      "name": "safeBatchTransferFrom",
      "outputs": [],
      "stateMutability": "nonpayable",
      "type": "function"
    },
    {
      "inputs": [
        {
          "internalType": "address",
          "name": "from",
          "type": "address"
        },
        {
          "internalType": "address",
          "name": "to",
          "type": "address"
        },
        {
          "internalType": "uint256",
          "name": "id",
          "type": "uint256"
        },
        {
          "internalType": "uint256",
          "name": "amount",
          "type": "uint256"
        },
        {
          "internalType": "bytes",
          "name": "data",
          "type": "bytes"
        }
      ],
      "name": "safeTransferFrom",
      "outputs": [],
      "stateMutability": "nonpayable",
      "type": "function"
    },
    {
      "inputs": [
        {
          "internalType": "address",
          "name": "operator",
          "type": "address"
        },
        {
          "internalType": "bool",
          "name": "approved",
          "type": "bool"
        }
      ],
      "name": "setApprovalForAll",
      "outputs": [],
      "stateMutability": "nonpayable",
      "type": "function"
    },
    {
      "inputs": [
        {
          "internalType": "address",
          "name": "_address",
          "type": "address"
        }
      ],
      "name": "setParentAddress",
      "outputs": [],
      "stateMutability": "nonpayable",
      "type": "function"
    },
    {
      "inputs": [],
      "name": "setParentApproval",
      "outputs": [],
      "stateMutability": "nonpayable",
      "type": "function"
    },
    {
      "inputs": [
        {
          "internalType": "string",
          "name": "newuri",
          "type": "string"
        }
      ],
      "name": "setURI",
      "outputs": [],
      "stateMutability": "nonpayable",
      "type": "function"
    },
    {
      "inputs": [
        {
          "internalType": "bytes4",
          "name": "interfaceId",
          "type": "bytes4"
        }
      ],
      "name": "supportsInterface",
      "outputs": [
        {
          "internalType": "bool",
          "name": "",
          "type": "bool"
        }
      ],
      "stateMutability": "view",
      "type": "function"
    },
    {
      "inputs": [],
      "name": "symbol",
      "outputs": [
        {
          "internalType": "string",
          "name": "",
          "type": "string"
        }
      ],
      "stateMutability": "view",
      "type": "function"
    },
    {
      "inputs": [
        {
          "internalType": "address",
          "name": "newOwner",
          "type": "address"
        }
      ],
      "name": "transferOwnership",
      "outputs": [],
      "stateMutability": "nonpayable",
      "type": "function"
    },
    {
      "inputs": [
        {
          "internalType": "uint256",
          "name": "_tokenId",
          "type": "uint256"
        }
      ],
      "name": "uri",
      "outputs": [
        {
          "internalType": "string",
          "name": "",
          "type": "string"
        }
      ],
      "stateMutability": "view",
      "type": "function"
    }
  ],
  "bytecode": "0x60c0604052600c60808190526b554954546f6b656e3131353560a01b60a09081526200002f916008919062000104565b5060408051808201909152600580825264553131353560d81b60209092019182526200005e9160099162000104565b503480156200006c57600080fd5b50604080516020810190915260008152620000878162000099565b506200009333620000b2565b620001e7565b8051620000ae90600290602084019062000104565b5050565b600380546001600160a01b038381166001600160a01b0319831681179093556040519116919082907f8be0079c531659141344cd1fd0a4f28419497f9722a3daafe3b4186f6b6457e090600090a35050565b8280546200011290620001aa565b90600052602060002090601f01602090048101928262000136576000855562000181565b82601f106200015157805160ff191683800117855562000181565b8280016001018555821562000181579182015b828111156200018157825182559160200191906001019062000164565b506200018f92915062000193565b5090565b5b808211156200018f576000815560010162000194565b600181811c90821680620001bf57607f821691505b60208210811415620001e157634e487b7160e01b600052602260045260246000fd5b50919050565b611b2380620001f76000396000f3fe608060405234801561001057600080fd5b50600436106101365760003560e01c8063715018a6116100b8578063a22cb4651161007c578063a22cb46514610262578063d49e2b5914610275578063e985e9c51461027d578063f242432a146102b9578063f2fde38b146102cc578063fa5afe40146102df57600080fd5b8063715018a61461020f57806378a89567146102175780638da5cb5b1461021f57806395d89b411461023a57806397492c1c1461024257600080fd5b80632eb2c2d6116100ff5780632eb2c2d6146101c15780633bb3a24d146101ae5780634e1273f4146101d4578063655a2b1a146101f457806367f718a91461020757600080fd5b8062fdd58e1461013b57806301ffc9a71461016157806302fe53051461018457806306fdde03146101995780630e89341c146101ae575b600080fd5b61014e6101493660046114e4565b61030f565b6040519081526020015b60405180910390f35b61017461016f366004611637565b6103a6565b6040519015158152602001610158565b61019761019236600461166f565b6103f8565b005b6101a161042e565b604051610158919061182b565b6101a16101bc3660046116aa565b6104bc565b6101976101cf3660046113a1565b61055e565b6101e76101e236600461156c565b6105f5565b60405161015891906117ea565b61019761020236600461150d565b610757565b6101e76107cb565b610197610823565b60055461014e565b6003546040516001600160a01b039091168152602001610158565b6101a1610859565b61014e6102503660046116aa565b60009081526006602052604090205490565b6101976102703660046114aa565b610866565b610197610875565b61017461028b36600461136f565b6001600160a01b03918216600090815260016020908152604080832093909416825291909152205460ff1690565b6101976102c7366004611447565b61088c565b6101976102da36600461134e565b610913565b6101976102ed36600461134e565b600480546001600160a01b0319166001600160a01b0392909216919091179055565b60006001600160a01b0383166103805760405162461bcd60e51b815260206004820152602b60248201527f455243313135353a2062616c616e636520717565727920666f7220746865207a60448201526a65726f206164647265737360a81b60648201526084015b60405180910390fd5b506000908152602081815260408083206001600160a01b03949094168352929052205490565b60006001600160e01b03198216636cdb3d1360e11b14806103d757506001600160e01b031982166303a24d0760e21b145b806103f257506301ffc9a760e01b6001600160e01b03198316145b92915050565b6003546001600160a01b031633146104225760405162461bcd60e51b815260040161037790611915565b61042b816109ab565b50565b6008805461043b90611986565b80601f016020809104026020016040519081016040528092919081815260200182805461046790611986565b80156104b45780601f10610489576101008083540402835291602001916104b4565b820191906000526020600020905b81548152906001019060200180831161049757829003601f168201915b505050505081565b60008181526007602052604090208054606091906104d990611986565b80601f016020809104026020016040519081016040528092919081815260200182805461050590611986565b80156105525780601f1061052757610100808354040283529160200191610552565b820191906000526020600020905b81548152906001019060200180831161053557829003601f168201915b50505050509050919050565b6001600160a01b03851633148061057a575061057a853361028b565b6105e15760405162461bcd60e51b815260206004820152603260248201527f455243313135353a207472616e736665722063616c6c6572206973206e6f74206044820152711bdddb995c881b9bdc88185c1c1c9bdd995960721b6064820152608401610377565b6105ee85858585856109be565b5050505050565b6060815183511461065a5760405162461bcd60e51b815260206004820152602960248201527f455243313135353a206163636f756e747320616e6420696473206c656e677468604482015268040dad2e6dac2e8c6d60bb1b6064820152608401610377565b6000835167ffffffffffffffff81111561068457634e487b7160e01b600052604160045260246000fd5b6040519080825280602002602001820160405280156106ad578160200160208202803683370190505b50905060005b845181101561074f576107148582815181106106df57634e487b7160e01b600052603260045260246000fd5b602002602001015185838151811061070757634e487b7160e01b600052603260045260246000fd5b602002602001015161030f565b82828151811061073457634e487b7160e01b600052603260045260246000fd5b6020908102919091010152610748816119ee565b90506106b3565b509392505050565b61077284848460405180602001604052806000815250610bb7565b60058054600181019091557f036b6384b5eca791c62761152d0c79bb0604c104a5fb6f4eb0703f3154bb3db00183905560008381526006602090815260408083208590556007825290912082516105ee928401906111b6565b6060600580548060200260200160405190810160405280929190818152602001828054801561081957602002820191906000526020600020905b815481526020019060010190808311610805575b5050505050905090565b6003546001600160a01b0316331461084d5760405162461bcd60e51b815260040161037790611915565b6108576000610ccb565b565b6009805461043b90611986565b610871338383610d1d565b5050565b600454610857906001600160a01b03166001610866565b6001600160a01b0385163314806108a857506108a8853361028b565b6109065760405162461bcd60e51b815260206004820152602960248201527f455243313135353a2063616c6c6572206973206e6f74206f776e6572206e6f7260448201526808185c1c1c9bdd995960ba1b6064820152608401610377565b6105ee8585858585610dfe565b6003546001600160a01b0316331461093d5760405162461bcd60e51b815260040161037790611915565b6001600160a01b0381166109a25760405162461bcd60e51b815260206004820152602660248201527f4f776e61626c653a206e6577206f776e657220697320746865207a65726f206160448201526564647265737360d01b6064820152608401610377565b61042b81610ccb565b80516108719060029060208401906111b6565b8151835114610a205760405162461bcd60e51b815260206004820152602860248201527f455243313135353a2069647320616e6420616d6f756e7473206c656e677468206044820152670dad2e6dac2e8c6d60c31b6064820152608401610377565b6001600160a01b038416610a465760405162461bcd60e51b815260040161037790611886565b3360005b8451811015610b49576000858281518110610a7557634e487b7160e01b600052603260045260246000fd5b602002602001015190506000858381518110610aa157634e487b7160e01b600052603260045260246000fd5b602090810291909101810151600084815280835260408082206001600160a01b038e168352909352919091205490915081811015610af15760405162461bcd60e51b8152600401610377906118cb565b6000838152602081815260408083206001600160a01b038e8116855292528083208585039055908b16825281208054849290610b2e90849061196e565b9250508190555050505080610b42906119ee565b9050610a4a565b50846001600160a01b0316866001600160a01b0316826001600160a01b03167f4a39dc06d4c0dbc64b70af90fd698a233a518aa5d07e595d983b8c0526c8f7fb8787604051610b999291906117fd565b60405180910390a4610baf818787878787610f28565b505050505050565b6001600160a01b038416610c175760405162461bcd60e51b815260206004820152602160248201527f455243313135353a206d696e7420746f20746865207a65726f206164647265736044820152607360f81b6064820152608401610377565b336000610c2385611093565b90506000610c3085611093565b90506000868152602081815260408083206001600160a01b038b16845290915281208054879290610c6290849061196e565b909155505060408051878152602081018790526001600160a01b03808a1692600092918716917fc3d58168c5ae7397731d063d5bbf3d657854427343f4c083240f7aacaa2d0f62910160405180910390a4610cc2836000898989896110ec565b50505050505050565b600380546001600160a01b038381166001600160a01b0319831681179093556040519116919082907f8be0079c531659141344cd1fd0a4f28419497f9722a3daafe3b4186f6b6457e090600090a35050565b816001600160a01b0316836001600160a01b03161415610d915760405162461bcd60e51b815260206004820152602960248201527f455243313135353a2073657474696e6720617070726f76616c20737461747573604482015268103337b91039b2b63360b91b6064820152608401610377565b6001600160a01b03838116600081815260016020908152604080832094871680845294825291829020805460ff191686151590811790915591519182527f17307eab39ab6107e8899845ad3d59bd9653f200f220920489ca2b5937696c31910160405180910390a3505050565b6001600160a01b038416610e245760405162461bcd60e51b815260040161037790611886565b336000610e3085611093565b90506000610e3d85611093565b90506000868152602081815260408083206001600160a01b038c16845290915290205485811015610e805760405162461bcd60e51b8152600401610377906118cb565b6000878152602081815260408083206001600160a01b038d8116855292528083208985039055908a16825281208054889290610ebd90849061196e565b909155505060408051888152602081018890526001600160a01b03808b16928c821692918816917fc3d58168c5ae7397731d063d5bbf3d657854427343f4c083240f7aacaa2d0f62910160405180910390a4610f1d848a8a8a8a8a6110ec565b505050505050505050565b6001600160a01b0384163b15610baf5760405163bc197c8160e01b81526001600160a01b0385169063bc197c8190610f6c9089908990889088908890600401611747565b602060405180830381600087803b158015610f8657600080fd5b505af1925050508015610fb6575060408051601f3d908101601f19168201909252610fb391810190611653565b60015b61106357610fc2611a35565b806308c379a01415610ffc5750610fd7611a4d565b80610fe25750610ffe565b8060405162461bcd60e51b8152600401610377919061182b565b505b60405162461bcd60e51b815260206004820152603460248201527f455243313135353a207472616e7366657220746f206e6f6e20455243313135356044820152732932b1b2b4bb32b91034b6b83632b6b2b73a32b960611b6064820152608401610377565b6001600160e01b0319811663bc197c8160e01b14610cc25760405162461bcd60e51b81526004016103779061183e565b604080516001808252818301909252606091600091906020808301908036833701905050905082816000815181106110db57634e487b7160e01b600052603260045260246000fd5b602090810291909101015292915050565b6001600160a01b0384163b15610baf5760405163f23a6e6160e01b81526001600160a01b0385169063f23a6e619061113090899089908890889088906004016117a5565b602060405180830381600087803b15801561114a57600080fd5b505af192505050801561117a575060408051601f3d908101601f1916820190925261117791810190611653565b60015b61118657610fc2611a35565b6001600160e01b0319811663f23a6e6160e01b14610cc25760405162461bcd60e51b81526004016103779061183e565b8280546111c290611986565b90600052602060002090601f0160209004810192826111e4576000855561122a565b82601f106111fd57805160ff191683800117855561122a565b8280016001018555821561122a579182015b8281111561122a57825182559160200191906001019061120f565b5061123692915061123a565b5090565b5b80821115611236576000815560010161123b565b80356001600160a01b038116811461126657600080fd5b919050565b600082601f83011261127b578081fd5b813560206112888261194a565b60405161129582826119c1565b8381528281019150858301600585901b870184018810156112b4578586fd5b855b858110156112d2578135845292840192908401906001016112b6565b5090979650505050505050565b600082601f8301126112ef578081fd5b813567ffffffffffffffff81111561130957611309611a1f565b604051611320601f8301601f1916602001826119c1565b818152846020838601011115611334578283fd5b816020850160208301379081016020019190915292915050565b60006020828403121561135f578081fd5b6113688261124f565b9392505050565b60008060408385031215611381578081fd5b61138a8361124f565b91506113986020840161124f565b90509250929050565b600080600080600060a086880312156113b8578081fd5b6113c18661124f565b94506113cf6020870161124f565b9350604086013567ffffffffffffffff808211156113eb578283fd5b6113f789838a0161126b565b9450606088013591508082111561140c578283fd5b61141889838a0161126b565b9350608088013591508082111561142d578283fd5b5061143a888289016112df565b9150509295509295909350565b600080600080600060a0868803121561145e578081fd5b6114678661124f565b94506114756020870161124f565b93506040860135925060608601359150608086013567ffffffffffffffff81111561149e578182fd5b61143a888289016112df565b600080604083850312156114bc578182fd5b6114c58361124f565b9150602083013580151581146114d9578182fd5b809150509250929050565b600080604083850312156114f6578182fd5b6114ff8361124f565b946020939093013593505050565b60008060008060808587031215611522578384fd5b61152b8561124f565b93506020850135925060408501359150606085013567ffffffffffffffff811115611554578182fd5b611560878288016112df565b91505092959194509250565b6000806040838503121561157e578182fd5b823567ffffffffffffffff80821115611595578384fd5b818501915085601f8301126115a8578384fd5b813560206115b58261194a565b6040516115c282826119c1565b8381528281019150858301600585901b870184018b10156115e1578889fd5b8896505b8487101561160a576115f68161124f565b8352600196909601959183019183016115e5565b5096505086013592505080821115611620578283fd5b5061162d8582860161126b565b9150509250929050565b600060208284031215611648578081fd5b813561136881611ad7565b600060208284031215611664578081fd5b815161136881611ad7565b600060208284031215611680578081fd5b813567ffffffffffffffff811115611696578182fd5b6116a2848285016112df565b949350505050565b6000602082840312156116bb578081fd5b5035919050565b6000815180845260208085019450808401835b838110156116f1578151875295820195908201906001016116d5565b509495945050505050565b60008151808452815b8181101561172157602081850181015186830182015201611705565b818111156117325782602083870101525b50601f01601f19169290920160200192915050565b6001600160a01b0386811682528516602082015260a060408201819052600090611773908301866116c2565b828103606084015261178581866116c2565b9050828103608084015261179981856116fc565b98975050505050505050565b6001600160a01b03868116825285166020820152604081018490526060810183905260a0608082018190526000906117df908301846116fc565b979650505050505050565b60208152600061136860208301846116c2565b60408152600061181060408301856116c2565b828103602084015261182281856116c2565b95945050505050565b60208152600061136860208301846116fc565b60208082526028908201527f455243313135353a204552433131353552656365697665722072656a656374656040820152676420746f6b656e7360c01b606082015260800190565b60208082526025908201527f455243313135353a207472616e7366657220746f20746865207a65726f206164604082015264647265737360d81b606082015260800190565b6020808252602a908201527f455243313135353a20696e73756666696369656e742062616c616e636520666f60408201526939103a3930b739b332b960b11b606082015260800190565b6020808252818101527f4f776e61626c653a2063616c6c6572206973206e6f7420746865206f776e6572604082015260600190565b600067ffffffffffffffff82111561196457611964611a1f565b5060051b60200190565b6000821982111561198157611981611a09565b500190565b600181811c9082168061199a57607f821691505b602082108114156119bb57634e487b7160e01b600052602260045260246000fd5b50919050565b601f8201601f1916810167ffffffffffffffff811182821017156119e7576119e7611a1f565b6040525050565b6000600019821415611a0257611a02611a09565b5060010190565b634e487b7160e01b600052601160045260246000fd5b634e487b7160e01b600052604160045260246000fd5b600060033d1115611a4a57600481823e5160e01c5b90565b600060443d1015611a5b5790565b6040516003193d81016004833e81513d67ffffffffffffffff8160248401118184111715611a8b57505050505090565b8285019150815181811115611aa35750505050505090565b843d8701016020828501011115611abd5750505050505090565b611acc602082860101876119c1565b509095945050505050565b6001600160e01b03198116811461042b57600080fdfea2646970667358221220fe7c4870a3536f50c6981d2465d35ed983937e4f1fbadf87319e5ad91d6674c064736f6c63430008040033",
  "linkReferences": {},
  "deployedLinkReferences": {}
}